{"project/contracts/ReasoningContract.sol":{"ReasoningContract":{"abi":[{"inputs":[{"internalType":"bytes32","name":"_schemaHash","type":"bytes32"}],"stateMutability":"nonpayable","type":"constructor"},{"inputs":[],"name":"Ontologic_InvalidEntity","type":"error"},{"inputs":[],"name":"Ontologic_MissingEvidence","type":"error"},{"inputs":[],"name":"Ontologic_UnknownEntityDomain","type":"error"},{"anonymous":false,"inputs":[{"indexed":false,"internalType":"bytes32","name":"clientHash","type":"bytes32"},{"indexed":false,"internalType":"bytes32","name":"contractHash","type":"bytes32"},{"indexed":false,"internalType":"bool","name":"matches","type":"bool"}],"name":"DebugInputsHash","type":"event"},{"anonymous":false,"inputs":[{"indexed":true,"internalType":"bytes32","name":"ruleId","type":"bytes32"},{"indexed":true,"internalType":"address","name":"caller","type":"address"},{"indexed":false,"internalType":"uint64","name":"inputUnits","type":"uint64"},{"indexed":false,"internalType":"uint64","name":"mintedUnits","type":"uint64"},{"indexed":true,"internalType":"bytes32","name":"proofHash","type":"bytes32"},{"indexed":false,"internalType":"string","name":"canonicalUri","type":"string"}],"name":"ProofAdd","type":"event"},{"anonymous":false,"inputs":[{"indexed":true,"internalType":"bytes32","name":"proofHash","type":"bytes32"},{"indexed":true,"internalType":"bytes32","name":"domain","type":"bytes32"},{"indexed":false,"internalType":"address","name":"A","type":"address"},{"indexed":false,"internalType":"address","name":"B","type":"address"},{"indexed":false,"internalType":"address","name":"C","type":"address"},{"indexed":false,"internalType":"bool","name":"verdict","type":"bool"},{"indexed":false,"internalType":"string","name":"canonicalUri","type":"string"}],"name":"ProofCheck","type":"event"},{"anonymous":false,"inputs":[{"indexed":true,"internalType":"bytes32","name":"manifestHash","type":"bytes32"},{"indexed":true,"internalType":"address","name":"token","type":"address"},{"indexed":false,"internalType":"string","name":"uri","type":"string"},{"indexed":true,"internalType":"address","name":"controller","type":"address"}],"name":"ProofEntity","type":"event"},{"anonymous":false,"inputs":[{"indexed":true,"internalType":"bytes32","name":"proofHash","type":"bytes32"},{"indexed":true,"internalType":"address","name":"caller","type":"address"}],"name":"ProofReplay","type":"event"},{"anonymous":false,"inputs":[{"indexed":true,"internalType":"bytes32","name":"ruleId","type":"bytes32"},{"indexed":false,"internalType":"bytes32","name":"domain","type":"bytes32"},{"indexed":false,"internalType":"bytes32","name":"operator","type":"bytes32"},{"indexed":false,"internalType":"address[]","name":"inputs","type":"address[]"},{"indexed":false,"internalType":"address","name":"outputToken","type":"address"},{"indexed":false,"internalType":"uint64","name":"ratio","type":"uint64"}],"name":"RuleSet","type":"event"},{"anonymous":false,"inputs":[{"indexed":true,"internalType":"address","name":"red","type":"address"},{"indexed":true,"internalType":"address","name":"green","type":"address"},{"indexed":true,"internalType":"address","name":"blue","type":"address"},{"indexed":false,"internalType":"address","name":"yellow","type":"address"},{"indexed":false,"internalType":"address","name":"cyan","type":"address"},{"indexed":false,"internalType":"address","name":"magenta","type":"address"},{"indexed":false,"internalType":"address","name":"white","type":"address"},{"indexed":false,"internalType":"address","name":"black","type":"address"},{"indexed":false,"internalType":"address","name":"purple","type":"address"}],"name":"TokenAddressesUpdated","type":"event"},{"inputs":[],"name":"BLACK_TOKEN_ADDR","outputs":[{"internalType":"address","name":"","type":"address"}],"stateMutability":"view","type":"function"},{"inputs":[],"name":"BLUE_TOKEN_ADDR","outputs":[{"internalType":"address","name":"","type":"address"}],"stateMutability":"view","type":"function"},{"inputs":[],"name":"CYAN_TOKEN_ADDR","outputs":[{"internalType":"address","name":"","type":"address"}],"stateMutability":"view","type":"function"},{"inputs":[],"name":"D_ENTITY_LIGHT","outputs":[{"internalType":"bytes32","name":"","type":"bytes32"}],"stateMutability":"view","type":"function"},{"inputs":[],"name":"D_ENTITY_PAINT","outputs":[{"internalType":"bytes32","name":"","type":"bytes32"}],"stateMutability":"view","type":"function"},{"inputs":[],"name":"D_LIGHT","outputs":[{"internalType":"bytes32","name":"","type":"bytes32"}],"stateMutability":"view","type":"function"},{"inputs":[],"name":"D_PAINT","outputs":[{"internalType":"bytes32","name":"","type":"bytes32"}],"stateMutability":"view","type":"function"},{"inputs":[],"name":"GREEN_TOKEN_ADDR","outputs":[{"internalType":"address","name":"","type":"address"}],"stateMutability":"view","type":"function"},{"inputs":[],"name":"HTS","outputs":[{"internalType":"contract IHederaTokenService","name":"","type":"address"}],"stateMutability":"view","type":"function"},{"inputs":[],"name":"MAGENTA_TOKEN_ADDR","outputs":[{"internalType":"address","name":"","type":"address"}],"stateMutability":"view","type":"function"},{"inputs":[],"name":"OP_ADD","outputs":[{"internalType":"bytes32","name":"","type":"bytes32"}],"stateMutability":"view","type":"function"},{"inputs":[],"name":"OP_ATTEST","outputs":[{"internalType":"bytes32","name":"","type":"bytes32"}],"stateMutability":"view","type":"function"},{"inputs":[],"name":"OP_SUB","outputs":[{"internalType":"bytes32","name":"","type":"bytes32"}],"stateMutability":"view","type":"function"},{"inputs":[],"name":"PURPLE_TOKEN_ADDR","outputs":[{"internalType":"address","name":"","type":"address"}],"stateMutability":"view","type":"function"},{"inputs":[],"name":"RED_TOKEN_ADDR","outputs":[{"internalType":"address","name":"","type":"address"}],"stateMutability":"view","type":"function"},{"inputs":[],"name":"WHITE_TOKEN_ADDR","outputs":[{"internalType":"address","name":"","type":"address"}],"stateMutability":"view","type":"function"},{"inputs":[],"name":"YELLOW_TOKEN_ADDR","outputs":[{"internalType":"address","name":"","type":"address"}],"stateMutability":"view","type":"function"},{"inputs":[{"internalType":"bytes32","name":"","type":"bytes32"}],"name":"cachedOutputs","outputs":[{"internalType":"address","name":"token","type":"address"},{"internalType":"uint64","name":"amount","type":"uint64"}],"stateMutability":"view","type":"function"},{"inputs":[{"internalType":"address","name":"A","type":"address"},{"internalType":"address","name":"B","type":"address"},{"internalType":"bytes32","name":"domainHash","type":"bytes32"},{"internalType":"bytes32","name":"inputsHash","type":"bytes32"}],"name":"debugValidation","outputs":[{"internalType":"bytes32","name":"expectedDomain","type":"bytes32"},{"internalType":"bytes32","name":"expectedInputs","type":"bytes32"},{"internalType":"bool","name":"domainMatch","type":"bool"},{"internalType":"bool","name":"inputMatch","type":"bool"}],"stateMutability":"view","type":"function"},{"inputs":[{"internalType":"bytes32","name":"proofHash","type":"bytes32"}],"name":"getInputsHash","outputs":[{"internalType":"bytes32","name":"","type":"bytes32"}],"stateMutability":"view","type":"function"},{"inputs":[{"internalType":"bytes32","name":"domainHash","type":"bytes32"},{"internalType":"address","name":"token","type":"address"}],"name":"getRGB","outputs":[{"internalType":"uint24","name":"","type":"uint24"}],"stateMutability":"view","type":"function"},{"inputs":[{"internalType":"address","name":"A","type":"address"},{"internalType":"address","name":"B","type":"address"},{"internalType":"bytes32","name":"domainHash","type":"bytes32"}],"name":"inputsHashAdd","outputs":[{"internalType":"bytes32","name":"","type":"bytes32"}],"stateMutability":"pure","type":"function"},{"inputs":[{"internalType":"bytes32","name":"","type":"bytes32"}],"name":"inputsHashOf","outputs":[{"internalType":"bytes32","name":"","type":"bytes32"}],"stateMutability":"view","type":"function"},{"inputs":[{"internalType":"address","name":"A","type":"address"},{"internalType":"address","name":"B","type":"address"},{"internalType":"address","name":"C","type":"address"},{"internalType":"bytes32","name":"domainHash","type":"bytes32"}],"name":"inputsHashSub","outputs":[{"internalType":"bytes32","name":"","type":"bytes32"}],"stateMutability":"pure","type":"function"},{"inputs":[],"name":"owner","outputs":[{"internalType":"address","name":"","type":"address"}],"stateMutability":"view","type":"function"},{"inputs":[{"internalType":"bytes32","name":"","type":"bytes32"},{"internalType":"address","name":"","type":"address"}],"name":"projections","outputs":[{"internalType":"uint24","name":"","type":"uint24"}],"stateMutability":"view","type":"function"},{"inputs":[{"internalType":"bytes32","name":"","type":"bytes32"}],"name":"proofSeen","outputs":[{"internalType":"bool","name":"","type":"bool"}],"stateMutability":"view","type":"function"},{"inputs":[{"internalType":"address","name":"token","type":"address"},{"internalType":"bytes32","name":"manifestHash","type":"bytes32"},{"internalType":"string","name":"uri","type":"string"}],"name":"publishEntity","outputs":[{"internalType":"bool","name":"ok","type":"bool"}],"stateMutability":"nonpayable","type":"function"},{"inputs":[{"internalType":"address","name":"token","type":"address"},{"internalType":"bytes32","name":"manifestHash","type":"bytes32"},{"internalType":"string","name":"uri","type":"string"},{"internalType":"bytes32[]","name":"evidenceHashes","type":"bytes32[]"}],"name":"publishEntityV2","outputs":[{"internalType":"bool","name":"ok","type":"bool"}],"stateMutability":"nonpayable","type":"function"},{"inputs":[{"internalType":"bytes32","name":"ruleId","type":"bytes32"},{"internalType":"uint64","name":"inputUnits","type":"uint64"},{"internalType":"bytes32","name":"proofHash","type":"bytes32"},{"internalType":"string","name":"canonicalUri","type":"string"}],"name":"reason","outputs":[{"internalType":"uint64","name":"minted","type":"uint64"}],"stateMutability":"nonpayable","type":"function"},{"inputs":[{"internalType":"address","name":"A","type":"address"},{"internalType":"address","name":"B","type":"address"},{"internalType":"bytes32","name":"domainHash","type":"bytes32"},{"components":[{"internalType":"bytes32","name":"inputsHash","type":"bytes32"},{"internalType":"bytes32","name":"proofHash","type":"bytes32"},{"internalType":"bytes32","name":"factHash","type":"bytes32"},{"internalType":"bytes32","name":"ruleHash","type":"bytes32"},{"internalType":"string","name":"canonicalUri","type":"string"}],"internalType":"struct ReasoningContract.ProofData","name":"p","type":"tuple"}],"name":"reasonAdd","outputs":[{"internalType":"address","name":"outToken","type":"address"},{"internalType":"uint64","name":"amount","type":"uint64"}],"stateMutability":"nonpayable","type":"function"},{"inputs":[{"internalType":"address","name":"A","type":"address"},{"internalType":"address","name":"B","type":"address"},{"internalType":"address","name":"C","type":"address"},{"internalType":"bytes32","name":"domainHash","type":"bytes32"},{"components":[{"internalType":"bytes32","name":"inputsHash","type":"bytes32"},{"internalType":"bytes32","name":"proofHash","type":"bytes32"},{"internalType":"bytes32","name":"factHash","type":"bytes32"},{"internalType":"bytes32","name":"ruleHash","type":"bytes32"},{"internalType":"string","name":"canonicalUri","type":"string"}],"internalType":"struct ReasoningContract.ProofData","name":"p","type":"tuple"}],"name":"reasonCheckSub","outputs":[{"internalType":"bool","name":"verdict","type":"bool"}],"stateMutability":"nonpayable","type":"function"},{"inputs":[],"name":"reasoningSchemaHash","outputs":[{"internalType":"bytes32","name":"","type":"bytes32"}],"stateMutability":"view","type":"function"},{"inputs":[{"internalType":"bytes32","name":"domain","type":"bytes32"},{"internalType":"address","name":"token","type":"address"},{"internalType":"uint24","name":"rgb24","type":"uint24"}],"name":"registerProjection","outputs":[],"stateMutability":"nonpayable","type":"function"},{"inputs":[{"internalType":"bytes32","name":"","type":"bytes32"}],"name":"rules","outputs":[{"internalType":"bytes32","name":"domain","type":"bytes32"},{"internalType":"bytes32","name":"operator","type":"bytes32"},{"internalType":"address","name":"outputToken","type":"address"},{"internalType":"uint64","name":"ratioNumerator","type":"uint64"},{"internalType":"bool","name":"active","type":"bool"}],"stateMutability":"view","type":"function"},{"inputs":[{"internalType":"bytes32","name":"proofHash","type":"bytes32"}],"name":"seen","outputs":[{"internalType":"bool","name":"","type":"bool"}],"stateMutability":"view","type":"function"},{"inputs":[{"internalType":"bytes32","name":"domain","type":"bytes32"},{"internalType":"bytes32","name":"operator","type":"bytes32"},{"internalType":"address[]","name":"inputs","type":"address[]"},{"internalType":"address","name":"outputToken","type":"address"},{"internalType":"uint64","name":"ratioNumerator","type":"uint64"}],"name":"setRule","outputs":[{"internalType":"bytes32","name":"ruleId","type":"bytes32"}],"stateMutability":"nonpayable","type":"function"},{"inputs":[{"internalType":"bytes32","name":"_schemaHash","type":"bytes32"}],"name":"setSchemaHash","outputs":[],"stateMutability":"nonpayable","type":"function"},{"inputs":[{"internalType":"address","name":"_red","type":"address"},{"internalType":"address","name":"_green","type":"address"},{"internalType":"address","name":"_blue","type":"address"},{"internalType":"address","name":"_yellow","type":"address"},{"internalType":"address","name":"_cyan","type":"address"},{"internalType":"address","name":"_magenta","type":"address"},{"internalType":"address","name":"_white","type":"address"},{"internalType":"address","name":"_black","type":"address"},{"internalType":"address","name":"_purple","type":"address"}],"name":"setTokenAddresses","outputs":[],"stateMutability":"nonpayable","type":"function"}],"evm":{"bytecode":{"linkReferences":{},"object":"608060405234801562000010575f80fd5b5060405162004ee638038062004ee68339818101604052810190620000369190620000c0565b3360095f6101000a81548173ffffffffffffffffffffffffffffffffffffffff021916908373ffffffffffffffffffffffffffffffffffffffff16021790555080600a8190555050620000f0565b5f80fd5b5f819050919050565b6200009c8162000088565b8114620000a7575f80fd5b50565b5f81519050620000ba8162000091565b92915050565b5f60208284031215620000d857620000d762000084565b5b5f620000e784828501620000aa565b91505092915050565b614de880620000fe5f395ff3fe608060405234801561000f575f80fd5b506004361061023b575f3560e01c806381ac8b6a11610139578063c1b2daf4116100b6578063dec401161161007a578063dec401161461073a578063dfbc97721461076a578063ed92df131461079a578063f1385a1a146107b8578063f5803560146107d65761023b565b8063c1b2daf414610691578063c687cfeb146106af578063c984d759146106e0578063d59a70dd146106fe578063d6dd76731461071c5761023b565b8063a59ee59e116100fd578063a59ee59e146105c5578063a70f0ad7146105e3578063b1fbccd214610613578063b2b8e2a114610643578063beeb3f34146106615761023b565b806381ac8b6a1461051f5780638da5cb5b1461053b578063903ac6d4146105595780639ca6d971146105775780639d5d42ca146105a75761023b565b80633d7b86de116101c757806366692c3a1161018b57806366692c3a14610479578063695fee641461049557806372775a9b146104b357806374832db5146104e3578063795bb332146105015761023b565b80633d7b86de146103985780633e69d025146103c8578063487cd70a146103f857806353f1bc1d1461042b5780635eaa48af146104495761023b565b8063216b85771161020e578063216b8577146102c85780632602c01e146102fc57806334e98c621461031a57806335e64e57146103385780633b958a53146103685761023b565b80630548a9e71461023f5780630ff62e931461025d57806312fc39c71461028e5780631bc92162146102aa575b5f80fd5b610247610806565b6040516102549190613460565b60405180910390f35b610277600480360381019061027291906134b4565b61082a565b604051610285929190613540565b60405180910390f35b6102a860048036038101906102a391906134b4565b61087c565b005b6102b2610915565b6040516102bf91906135c2565b60405180910390f35b6102e260048036038101906102dd91906134b4565b61091b565b6040516102f39594939291906135f5565b60405180910390f35b61030461098d565b6040516103119190613460565b60405180910390f35b6103226109b1565b60405161032f9190613460565b60405180910390f35b610352600480360381019061034d91906134b4565b6109d5565b60405161035f9190613460565b60405180910390f35b610382600480360381019061037d91906136d1565b6109ef565b60405161038f9190613742565b60405180910390f35b6103b260048036038101906103ad9190613785565b610cf7565b6040516103bf9190613809565b60405180910390f35b6103e260048036038101906103dd9190613822565b610f21565b6040516103ef919061387d565b60405180910390f35b610412600480360381019061040d9190613896565b610f4d565b60405161042294939291906138fa565b60405180910390f35b610433610fb6565b604051610440919061393d565b60405180910390f35b610463600480360381019061045e91906139ab565b610fdb565b6040516104709190613742565b60405180910390f35b610493600480360381019061048e9190613a4e565b6113b0565b005b61049d61193e565b6040516104aa9190613460565b60405180910390f35b6104cd60048036038101906104c89190613b34565b611962565b6040516104da9190613742565b60405180910390f35b6104eb611dcd565b6040516104f89190613460565b60405180910390f35b610509611df1565b6040516105169190613460565b60405180910390f35b61053960048036038101906105349190613bf1565b611e15565b005b610543611f11565b604051610550919061393d565b60405180910390f35b610561611f36565b60405161056e919061393d565b60405180910390f35b610591600480360381019061058c9190613c41565b611f5b565b60405161059e9190613460565b60405180910390f35b6105af611f70565b6040516105bc919061393d565b60405180910390f35b6105cd611f95565b6040516105da919061393d565b60405180910390f35b6105fd60048036038101906105f891906134b4565b611fba565b60405161060a9190613742565b60405180910390f35b61062d600480360381019061062891906134b4565b611fd7565b60405161063a9190613460565b60405180910390f35b61064b611fec565b604051610658919061393d565b60405180910390f35b61067b600480360381019061067691906134b4565b612011565b6040516106889190613742565b60405180910390f35b610699612037565b6040516106a69190613460565b60405180910390f35b6106c960048036038101906106c49190613c91565b61205b565b6040516106d7929190613540565b60405180910390f35b6106e861258b565b6040516106f5919061393d565b60405180910390f35b6107066125b0565b604051610713919061393d565b60405180910390f35b6107246125d5565b604051610731919061393d565b60405180910390f35b610754600480360381019061074f9190613d66565b6125f8565b6040516107619190613460565b60405180910390f35b610784600480360381019061077f9190613822565b612c56565b604051610791919061387d565b60405180910390f35b6107a2612cba565b6040516107af9190613460565b60405180910390f35b6107c0612cc0565b6040516107cd919061393d565b60405180910390f35b6107f060048036038101906107eb9190613dfc565b612ce5565b6040516107fd9190613460565b60405180910390f35b7f217ffb743e749e59632e1a39a53634096481cb82ee5f27b44698dcc2c7453f0181565b600f602052805f5260405f205f91509050805f015f9054906101000a900473ffffffffffffffffffffffffffffffffffffffff1690805f0160149054906101000a900467ffffffffffffffff16905082565b60095f9054906101000a900473ffffffffffffffffffffffffffffffffffffffff1673ffffffffffffffffffffffffffffffffffffffff163373ffffffffffffffffffffffffffffffffffffffff161461090b576040517f08c379a000000000000000000000000000000000000000000000000000000000815260040161090290613eba565b60405180910390fd5b80600a8190555050565b61016781565b600b602052805f5260405f205f91509050805f015490806001015490806003015f9054906101000a900473ffffffffffffffffffffffffffffffffffffffff16908060030160149054906101000a900467ffffffffffffffff169080600301601c9054906101000a900460ff16905085565b7f0892486f2db77feba50b67fd68cccf02ecca6d746664216a0449ecb5ba18f8de81565b7f120eb869162558440f242ff96357d8b58e4e92e3931e5fa2cd26b86718abc0e281565b5f600e5f8381526020019081526020015f20549050919050565b5f805f60065f9054906101000a900473ffffffffffffffffffffffffffffffffffffffff1673ffffffffffffffffffffffffffffffffffffffff168773ffffffffffffffffffffffffffffffffffffffff1603610a92577f9e30e0acf846b25b3e72d06e58bde205e6320acd3f4b095d11ece290a6885188915060065f9054906101000a900473ffffffffffffffffffffffffffffffffffffffff169050610b65565b60075f9054906101000a900473ffffffffffffffffffffffffffffffffffffffff1673ffffffffffffffffffffffffffffffffffffffff168773ffffffffffffffffffffffffffffffffffffffff1603610b32577f120eb869162558440f242ff96357d8b58e4e92e3931e5fa2cd26b86718abc0e2915060075f9054906101000a900473ffffffffffffffffffffffffffffffffffffffff169050610b64565b6040517fbb55abbb00000000000000000000000000000000000000000000000000000000815260040160405180910390fd5b5b5f61016773ffffffffffffffffffffffffffffffffffffffff1663278e0b888360015f67ffffffffffffffff811115610ba157610ba0613ed8565b5b604051908082528060200260200182016040528015610bd457816020015b6060815260200190600190039081610bbf5790505b506040518463ffffffff1660e01b8152600401610bf393929190614083565b5f604051808303815f875af1158015610c0e573d5f803e3d5ffd5b505050506040513d5f823e3d601f19601f82011682018060405250810190610c369190614214565b5050905060168160070b14610c80576040517f08c379a0000000000000000000000000000000000000000000000000000000008152600401610c77906142ca565b60405180910390fd5b3373ffffffffffffffffffffffffffffffffffffffff168873ffffffffffffffffffffffffffffffffffffffff16887ffd005e0f9ba958f7c6b1a0fa8518fbab37952f760666c5da196f2c5591e88b7d8989604051610ce0929190614322565b60405180910390a460019350505050949350505050565b5f80600b5f8881526020019081526020015f20905080600301601c9054906101000a900460ff16610d5d576040517f08c379a0000000000000000000000000000000000000000000000000000000008152600401610d549061438e565b60405180910390fd5b8060030160149054906101000a900467ffffffffffffffff1686610d8191906143d9565b91505f61016773ffffffffffffffffffffffffffffffffffffffff1663278e0b88836003015f9054906101000a900473ffffffffffffffffffffffffffffffffffffffff16855f67ffffffffffffffff811115610de157610de0613ed8565b5b604051908082528060200260200182016040528015610e1457816020015b6060815260200190600190039081610dff5790505b506040518463ffffffff1660e01b8152600401610e3393929190614415565b5f604051808303815f875af1158015610e4e573d5f803e3d5ffd5b505050506040513d5f823e3d601f19601f82011682018060405250810190610e769190614214565b5050905060168160070b14610ec0576040517f08c379a0000000000000000000000000000000000000000000000000000000008152600401610eb7906142ca565b60405180910390fd5b853373ffffffffffffffffffffffffffffffffffffffff16897f6153f55c528edcec957d2fa67d63cb136dee382001a3487ccf80d636a17bae848a878a8a604051610f0e9493929190614451565b60405180910390a4505095945050505050565b600c602052815f5260405f20602052805f5260405f205f915091509054906101000a900462ffffff1681565b5f805f807f72f7ddc62c67e3943091f9c7b899298a6c6b0287758c513c5036eda57075e6e39350610f7f888888612d3f565b92507f72f7ddc62c67e3943091f9c7b899298a6c6b0287758c513c5036eda57075e6e3861491508285149050945094509450949050565b60085f9054906101000a900473ffffffffffffffffffffffffffffffffffffffff1681565b5f805f60065f9054906101000a900473ffffffffffffffffffffffffffffffffffffffff1673ffffffffffffffffffffffffffffffffffffffff168973ffffffffffffffffffffffffffffffffffffffff160361107e577f9e30e0acf846b25b3e72d06e58bde205e6320acd3f4b095d11ece290a6885188915060065f9054906101000a900473ffffffffffffffffffffffffffffffffffffffff169050611151565b60075f9054906101000a900473ffffffffffffffffffffffffffffffffffffffff1673ffffffffffffffffffffffffffffffffffffffff168973ffffffffffffffffffffffffffffffffffffffff160361111e577f120eb869162558440f242ff96357d8b58e4e92e3931e5fa2cd26b86718abc0e2915060075f9054906101000a900473ffffffffffffffffffffffffffffffffffffffff169050611150565b6040517fbb55abbb00000000000000000000000000000000000000000000000000000000815260040160405180910390fd5b5b6003858590501461118e576040517faf454ca400000000000000000000000000000000000000000000000000000000815260040160405180910390fd5b5f5b8585905081101561121b57600d5f8787848181106111b1576111b061448f565b5b9050602002013581526020019081526020015f205f9054906101000a900460ff16611208576040517f55b1ffe800000000000000000000000000000000000000000000000000000000815260040160405180910390fd5b8080611213906144c5565b915050611190565b505f61016773ffffffffffffffffffffffffffffffffffffffff1663278e0b888360015f67ffffffffffffffff81111561125857611257613ed8565b5b60405190808252806020026020018201604052801561128b57816020015b60608152602001906001900390816112765790505b506040518463ffffffff1660e01b81526004016112aa93929190614083565b5f604051808303815f875af11580156112c5573d5f803e3d5ffd5b505050506040513d5f823e3d601f19601f820116820180604052508101906112ed9190614214565b5050905060168160070b14611337576040517f08c379a000000000000000000000000000000000000000000000000000000000815260040161132e906142ca565b60405180910390fd5b3373ffffffffffffffffffffffffffffffffffffffff168a73ffffffffffffffffffffffffffffffffffffffff168a7ffd005e0f9ba958f7c6b1a0fa8518fbab37952f760666c5da196f2c5591e88b7d8b8b604051611397929190614322565b60405180910390a4600193505050509695505050505050565b60095f9054906101000a900473ffffffffffffffffffffffffffffffffffffffff1673ffffffffffffffffffffffffffffffffffffffff163373ffffffffffffffffffffffffffffffffffffffff161461143f576040517f08c379a000000000000000000000000000000000000000000000000000000000815260040161143690613eba565b60405180910390fd5b5f73ffffffffffffffffffffffffffffffffffffffff168973ffffffffffffffffffffffffffffffffffffffff16141580156114a757505f73ffffffffffffffffffffffffffffffffffffffff168873ffffffffffffffffffffffffffffffffffffffff1614155b80156114df57505f73ffffffffffffffffffffffffffffffffffffffff168773ffffffffffffffffffffffffffffffffffffffff1614155b801561151757505f73ffffffffffffffffffffffffffffffffffffffff168673ffffffffffffffffffffffffffffffffffffffff1614155b801561154f57505f73ffffffffffffffffffffffffffffffffffffffff168573ffffffffffffffffffffffffffffffffffffffff1614155b801561158757505f73ffffffffffffffffffffffffffffffffffffffff168473ffffffffffffffffffffffffffffffffffffffff1614155b80156115bf57505f73ffffffffffffffffffffffffffffffffffffffff168373ffffffffffffffffffffffffffffffffffffffff1614155b80156115f757505f73ffffffffffffffffffffffffffffffffffffffff168273ffffffffffffffffffffffffffffffffffffffff1614155b801561162f57505f73ffffffffffffffffffffffffffffffffffffffff168173ffffffffffffffffffffffffffffffffffffffff1614155b61166e576040517f08c379a000000000000000000000000000000000000000000000000000000000815260040161166590614556565b60405180910390fd5b885f806101000a81548173ffffffffffffffffffffffffffffffffffffffff021916908373ffffffffffffffffffffffffffffffffffffffff1602179055508760015f6101000a81548173ffffffffffffffffffffffffffffffffffffffff021916908373ffffffffffffffffffffffffffffffffffffffff1602179055508660025f6101000a81548173ffffffffffffffffffffffffffffffffffffffff021916908373ffffffffffffffffffffffffffffffffffffffff1602179055508560035f6101000a81548173ffffffffffffffffffffffffffffffffffffffff021916908373ffffffffffffffffffffffffffffffffffffffff1602179055508460045f6101000a81548173ffffffffffffffffffffffffffffffffffffffff021916908373ffffffffffffffffffffffffffffffffffffffff1602179055508360055f6101000a81548173ffffffffffffffffffffffffffffffffffffffff021916908373ffffffffffffffffffffffffffffffffffffffff1602179055508260065f6101000a81548173ffffffffffffffffffffffffffffffffffffffff021916908373ffffffffffffffffffffffffffffffffffffffff1602179055508160075f6101000a81548173ffffffffffffffffffffffffffffffffffffffff021916908373ffffffffffffffffffffffffffffffffffffffff1602179055508060085f6101000a81548173ffffffffffffffffffffffffffffffffffffffff021916908373ffffffffffffffffffffffffffffffffffffffff1602179055508673ffffffffffffffffffffffffffffffffffffffff168873ffffffffffffffffffffffffffffffffffffffff168a73ffffffffffffffffffffffffffffffffffffffff167f08f38f72d705d71b37b305aae9270050f10c5e566ef6c0aba8c3fb04a84f35d589898989898960405161192b96959493929190614574565b60405180910390a4505050505050505050565b7fc6874c1610beae6daec7914c79000f79f8f3fbac13f2862fde2bddf71eea74ef81565b5f61196f86868686612ce5565b825f0135146119b3576040517f08c379a00000000000000000000000000000000000000000000000000000000081526004016119aa9061461d565b60405180910390fd5b600d5f836020013581526020019081526020015f205f9054906101000a900460ff1615611a23573373ffffffffffffffffffffffffffffffffffffffff1682602001357f3cd6d293d93fffb5c4505ed423476e083cfe17c7e58820e30be3efea7283221a60405160405180910390a35b5f600c5f8581526020019081526020015f205f8873ffffffffffffffffffffffffffffffffffffffff1673ffffffffffffffffffffffffffffffffffffffff1681526020019081526020015f205f9054906101000a900462ffffff1690505f8162ffffff161480611af257505f600c5f8681526020019081526020015f205f8873ffffffffffffffffffffffffffffffffffffffff1673ffffffffffffffffffffffffffffffffffffffff1681526020019081526020015f205f9054906101000a900462ffffff1662ffffff16145b80611b5b57505f600c5f8681526020019081526020015f205f8773ffffffffffffffffffffffffffffffffffffffff1673ffffffffffffffffffffffffffffffffffffffff1681526020019081526020015f205f9054906101000a900462ffffff1662ffffff16145b15611c2f57600d5f846020013581526020019081526020015f205f9054906101000a900460ff16611c26576001600d5f856020013581526020019081526020015f205f6101000a81548160ff021916908315150217905550825f0135600e5f856020013581526020019081526020015f20819055508383602001357f573ea6c6d729cb63f2227625589b742119e9a3e33c15db35de47409a861f00e38989895f898060800190611c0b9190614647565b604051611c1d969594939291906146a9565b60405180910390a35b5f915050611dc4565b600c5f8581526020019081526020015f205f8673ffffffffffffffffffffffffffffffffffffffff1673ffffffffffffffffffffffffffffffffffffffff1681526020019081526020015f205f9054906101000a900462ffffff1662ffffff16611cf482600c5f8881526020019081526020015f205f8a73ffffffffffffffffffffffffffffffffffffffff1673ffffffffffffffffffffffffffffffffffffffff1681526020019081526020015f205f9054906101000a900462ffffff1687612ddb565b62ffffff16149150600d5f846020013581526020019081526020015f205f9054906101000a900460ff16611dc2576001600d5f856020013581526020019081526020015f205f6101000a81548160ff021916908315150217905550825f0135600e5f856020013581526020019081526020015f20819055508383602001357f573ea6c6d729cb63f2227625589b742119e9a3e33c15db35de47409a861f00e389898987898060800190611da79190614647565b604051611db9969594939291906146a9565b60405180910390a35b505b95945050505050565b7f5c121ee8b573e4e6586bcafec852bd980b83ea2aa4a37f9fccb6fa546927c42b81565b7f72f7ddc62c67e3943091f9c7b899298a6c6b0287758c513c5036eda57075e6e381565b60095f9054906101000a900473ffffffffffffffffffffffffffffffffffffffff1673ffffffffffffffffffffffffffffffffffffffff163373ffffffffffffffffffffffffffffffffffffffff1614611ea4576040517f08c379a0000000000000000000000000000000000000000000000000000000008152600401611e9b90613eba565b60405180910390fd5b80600c5f8581526020019081526020015f205f8473ffffffffffffffffffffffffffffffffffffffff1673ffffffffffffffffffffffffffffffffffffffff1681526020019081526020015f205f6101000a81548162ffffff021916908362ffffff160217905550505050565b60095f9054906101000a900473ffffffffffffffffffffffffffffffffffffffff1681565b60065f9054906101000a900473ffffffffffffffffffffffffffffffffffffffff1681565b5f611f67848484612d3f565b90509392505050565b60025f9054906101000a900473ffffffffffffffffffffffffffffffffffffffff1681565b60055f9054906101000a900473ffffffffffffffffffffffffffffffffffffffff1681565b600d602052805f5260405f205f915054906101000a900460ff1681565b600e602052805f5260405f205f915090505481565b60075f9054906101000a900473ffffffffffffffffffffffffffffffffffffffff1681565b5f600d5f8381526020019081526020015f205f9054906101000a900460ff169050919050565b7f9e30e0acf846b25b3e72d06e58bde205e6320acd3f4b095d11ece290a688518881565b5f807fbbfa335032189cb97be17f01fa1cd9c18587be58cb71231405d2ea8f0e38fc42847f72f7ddc62c67e3943091f9c7b899298a6c6b0287758c513c5036eda57075e6e38087146040516120b293929190614703565b60405180910390a17f72f7ddc62c67e3943091f9c7b899298a6c6b0287758c513c5036eda57075e6e3841461211c576040517f08c379a000000000000000000000000000000000000000000000000000000000815260040161211390614782565b60405180910390fd5b5f612128878787612d3f565b90507fbbfa335032189cb97be17f01fa1cd9c18587be58cb71231405d2ea8f0e38fc42845f01358283875f01351460405161216593929190614703565b60405180910390a180845f0135146121b2576040517f08c379a00000000000000000000000000000000000000000000000000000000081526004016121a99061461d565b60405180910390fd5b600d5f856020013581526020019081526020015f205f9054906101000a900460ff16156122dd573373ffffffffffffffffffffffffffffffffffffffff1684602001357f3cd6d293d93fffb5c4505ed423476e083cfe17c7e58820e30be3efea7283221a60405160405180910390a35f600f5f866020013581526020019081526020015f206040518060400160405290815f82015f9054906101000a900473ffffffffffffffffffffffffffffffffffffffff1673ffffffffffffffffffffffffffffffffffffffff1673ffffffffffffffffffffffffffffffffffffffff1681526020015f820160149054906101000a900467ffffffffffffffff1667ffffffffffffffff1667ffffffffffffffff16815250509050805f01518160200151935093505050612582565b6122e78787612e57565b80935081945050505f61016773ffffffffffffffffffffffffffffffffffffffff1663278e0b8885855f67ffffffffffffffff81111561232a57612329613ed8565b5b60405190808252806020026020018201604052801561235d57816020015b60608152602001906001900390816123485790505b506040518463ffffffff1660e01b815260040161237c93929190614415565b5f604051808303815f875af1158015612397573d5f803e3d5ffd5b505050506040513d5f823e3d601f19601f820116820180604052508101906123bf9190614214565b5050905060168160070b14612409576040517f08c379a0000000000000000000000000000000000000000000000000000000008152600401612400906142ca565b60405180910390fd5b6001600d5f876020013581526020019081526020015f205f6101000a81548160ff021916908315150217905550845f0135600e5f876020013581526020019081526020015f208190555060405180604001604052808573ffffffffffffffffffffffffffffffffffffffff1681526020018467ffffffffffffffff16815250600f5f876020013581526020019081526020015f205f820151815f015f6101000a81548173ffffffffffffffffffffffffffffffffffffffff021916908373ffffffffffffffffffffffffffffffffffffffff1602179055506020820151815f0160146101000a81548167ffffffffffffffff021916908367ffffffffffffffff16021790555090505084602001353373ffffffffffffffffffffffffffffffffffffffff1686602001357f6153f55c528edcec957d2fa67d63cb136dee382001a3487ccf80d636a17bae846001878a80608001906125679190614647565b60405161257794939291906147a0565b60405180910390a450505b94509492505050565b60015f9054906101000a900473ffffffffffffffffffffffffffffffffffffffff1681565b60045f9054906101000a900473ffffffffffffffffffffffffffffffffffffffff1681565b5f8054906101000a900473ffffffffffffffffffffffffffffffffffffffff1681565b5f60095f9054906101000a900473ffffffffffffffffffffffffffffffffffffffff1673ffffffffffffffffffffffffffffffffffffffff163373ffffffffffffffffffffffffffffffffffffffff1614612688576040517f08c379a000000000000000000000000000000000000000000000000000000000815260040161267f90613eba565b60405180910390fd5b600285859050101580156126a0575060038585905011155b6126df576040517f08c379a00000000000000000000000000000000000000000000000000000000081526004016126d690614828565b60405180910390fd5b5f73ffffffffffffffffffffffffffffffffffffffff168373ffffffffffffffffffffffffffffffffffffffff160361274d576040517f08c379a000000000000000000000000000000000000000000000000000000000815260040161274490614890565b60405180910390fd5b5f8267ffffffffffffffff1611612799576040517f08c379a0000000000000000000000000000000000000000000000000000000008152600401612790906148f8565b60405180910390fd5b5f5b858590508110156129cf575f73ffffffffffffffffffffffffffffffffffffffff168686838181106127d0576127cf61448f565b5b90506020020160208101906127e59190614916565b73ffffffffffffffffffffffffffffffffffffffff160361283b576040517f08c379a00000000000000000000000000000000000000000000000000000000081526004016128329061498b565b60405180910390fd5b5f60018261284991906149a9565b90505b868690508110156129265786868281811061286a5761286961448f565b5b905060200201602081019061287f9190614916565b73ffffffffffffffffffffffffffffffffffffffff168787848181106128a8576128a761448f565b5b90506020020160208101906128bd9190614916565b73ffffffffffffffffffffffffffffffffffffffff1603612913576040517f08c379a000000000000000000000000000000000000000000000000000000000815260040161290a90614a26565b60405180910390fd5b808061291e906144c5565b91505061284c565b508373ffffffffffffffffffffffffffffffffffffffff168686838181106129515761295061448f565b5b90506020020160208101906129669190614916565b73ffffffffffffffffffffffffffffffffffffffff16036129bc576040517f08c379a00000000000000000000000000000000000000000000000000000000081526004016129b390614a8e565b60405180910390fd5b80806129c7906144c5565b91505061279b565b5086868686866040516020016129e9959493929190614b68565b6040516020818303038152906040528051906020012090505f73ffffffffffffffffffffffffffffffffffffffff16600b5f8381526020019081526020015f206003015f9054906101000a900473ffffffffffffffffffffffffffffffffffffffff1673ffffffffffffffffffffffffffffffffffffffff1614612aa2576040517f08c379a0000000000000000000000000000000000000000000000000000000008152600401612a9990614bfe565b60405180910390fd5b6040518060c001604052808881526020018781526020018686808060200260200160405190810160405280939291908181526020018383602002808284375f81840152601f19601f8201169050808301925050505050505081526020018473ffffffffffffffffffffffffffffffffffffffff1681526020018367ffffffffffffffff16815260200160011515815250600b5f8381526020019081526020015f205f820151815f0155602082015181600101556040820151816002019080519060200190612b719291906133a6565b506060820151816003015f6101000a81548173ffffffffffffffffffffffffffffffffffffffff021916908373ffffffffffffffffffffffffffffffffffffffff16021790555060808201518160030160146101000a81548167ffffffffffffffff021916908367ffffffffffffffff16021790555060a082015181600301601c6101000a81548160ff021916908315150217905550905050807fad9207819dd7abb936f2b1637265bf626978af91d6f25a44322fb43fe34aadfb888888888888604051612c4496959493929190614c1c565b60405180910390a29695505050505050565b5f600c5f8481526020019081526020015f205f8373ffffffffffffffffffffffffffffffffffffffff1673ffffffffffffffffffffffffffffffffffffffff1681526020019081526020015f205f9054906101000a900462ffffff16905092915050565b600a5481565b60035f9054906101000a900473ffffffffffffffffffffffffffffffffffffffff1681565b5f848484847f217ffb743e749e59632e1a39a53634096481cb82ee5f27b44698dcc2c7453f01604051602001612d1f959493929190614c76565b604051602081830303815290604052805190602001209050949350505050565b5f805f8473ffffffffffffffffffffffffffffffffffffffff168673ffffffffffffffffffffffffffffffffffffffff1610612d7c578486612d7f565b85855b915091508181857f0892486f2db77feba50b67fd68cccf02ecca6d746664216a0449ecb5ba18f8de604051602001612dba9493929190614cc7565b60405160208183030381529060405280519060200120925050509392505050565b5f7f72f7ddc62c67e3943091f9c7b899298a6c6b0287758c513c5036eda57075e6e38203612e1457612e0d848461316e565b9050612e50565b7f5c121ee8b573e4e6586bcafec852bd980b83ea2aa4a37f9fccb6fa546927c42b8203612e4c57612e458484613245565b9050612e50565b5f90505b9392505050565b5f805f808473ffffffffffffffffffffffffffffffffffffffff168673ffffffffffffffffffffffffffffffffffffffff1610612e95578486612e98565b85855b915091505f8054906101000a900473ffffffffffffffffffffffffffffffffffffffff1673ffffffffffffffffffffffffffffffffffffffff168273ffffffffffffffffffffffffffffffffffffffff16148015612f42575060015f9054906101000a900473ffffffffffffffffffffffffffffffffffffffff1673ffffffffffffffffffffffffffffffffffffffff168173ffffffffffffffffffffffffffffffffffffffff16145b15612f765760035f9054906101000a900473ffffffffffffffffffffffffffffffffffffffff166001935093505050613167565b60015f9054906101000a900473ffffffffffffffffffffffffffffffffffffffff1673ffffffffffffffffffffffffffffffffffffffff168273ffffffffffffffffffffffffffffffffffffffff1614801561301e575060025f9054906101000a900473ffffffffffffffffffffffffffffffffffffffff1673ffffffffffffffffffffffffffffffffffffffff168173ffffffffffffffffffffffffffffffffffffffff16145b156130525760045f9054906101000a900473ffffffffffffffffffffffffffffffffffffffff166001935093505050613167565b5f8054906101000a900473ffffffffffffffffffffffffffffffffffffffff1673ffffffffffffffffffffffffffffffffffffffff168273ffffffffffffffffffffffffffffffffffffffff161480156130f8575060025f9054906101000a900473ffffffffffffffffffffffffffffffffffffffff1673ffffffffffffffffffffffffffffffffffffffff168173ffffffffffffffffffffffffffffffffffffffff16145b1561312c5760055f9054906101000a900473ffffffffffffffffffffffffffffffffffffffff166001935093505050613167565b6040517f08c379a000000000000000000000000000000000000000000000000000000000815260040161315e90614d54565b60405180910390fd5b9250929050565b5f8060108462ffffff16901c90505f60088562ffffff16901c90505f8590505f60108662ffffff16901c90505f60088762ffffff16901c90505f8790505f8360ff168760ff16116131bf575f6131cc565b83876131cb9190614d7e565b5b90505f8360ff168760ff16116131e2575f6131ef565b83876131ee9190614d7e565b5b90505f8360ff168760ff1611613205575f613212565b83876132119190614d7e565b5b90508060ff1660088360ff1662ffffff16901b60108560ff1662ffffff16901b1717995050505050505050505092915050565b5f8060108462ffffff16901c90505f60088562ffffff16901c90505f8590505f60108662ffffff16901c90505f60088762ffffff16901c90505f8790505f8660ff6132909190614d7e565b90505f8660ff6132a09190614d7e565b90505f8660ff6132b09190614d7e565b90505f8660ff6132c09190614d7e565b90505f8660ff6132d09190614d7e565b90505f8660ff6132e09190614d7e565b90505f8360ff168760ff16116132f6575f613303565b83876133029190614d7e565b5b90505f8360ff168760ff1611613319575f613326565b83876133259190614d7e565b5b90505f8360ff168760ff161161333c575f613349565b83876133489190614d7e565b5b90508060ff6133589190614d7e565b60ff1660088360ff61336a9190614d7e565b60ff1662ffffff16901b60108560ff6133839190614d7e565b60ff1662ffffff16901b17179f5050505050505050505050505050505092915050565b828054828255905f5260205f2090810192821561341c579160200282015b8281111561341b578251825f6101000a81548173ffffffffffffffffffffffffffffffffffffffff021916908373ffffffffffffffffffffffffffffffffffffffff160217905550916020019190600101906133c4565b5b509050613429919061342d565b5090565b5b80821115613444575f815f90555060010161342e565b5090565b5f819050919050565b61345a81613448565b82525050565b5f6020820190506134735f830184613451565b92915050565b5f604051905090565b5f80fd5b5f80fd5b61349381613448565b811461349d575f80fd5b50565b5f813590506134ae8161348a565b92915050565b5f602082840312156134c9576134c8613482565b5b5f6134d6848285016134a0565b91505092915050565b5f73ffffffffffffffffffffffffffffffffffffffff82169050919050565b5f613508826134df565b9050919050565b613518816134fe565b82525050565b5f67ffffffffffffffff82169050919050565b61353a8161351e565b82525050565b5f6040820190506135535f83018561350f565b6135606020830184613531565b9392505050565b5f819050919050565b5f61358a613585613580846134df565b613567565b6134df565b9050919050565b5f61359b82613570565b9050919050565b5f6135ac82613591565b9050919050565b6135bc816135a2565b82525050565b5f6020820190506135d55f8301846135b3565b92915050565b5f8115159050919050565b6135ef816135db565b82525050565b5f60a0820190506136085f830188613451565b6136156020830187613451565b613622604083018661350f565b61362f6060830185613531565b61363c60808301846135e6565b9695505050505050565b61364f816134fe565b8114613659575f80fd5b50565b5f8135905061366a81613646565b92915050565b5f80fd5b5f80fd5b5f80fd5b5f8083601f84011261369157613690613670565b5b8235905067ffffffffffffffff8111156136ae576136ad613674565b5b6020830191508360018202830111156136ca576136c9613678565b5b9250929050565b5f805f80606085870312156136e9576136e8613482565b5b5f6136f68782880161365c565b9450506020613707878288016134a0565b935050604085013567ffffffffffffffff81111561372857613727613486565b5b6137348782880161367c565b925092505092959194509250565b5f6020820190506137555f8301846135e6565b92915050565b6137648161351e565b811461376e575f80fd5b50565b5f8135905061377f8161375b565b92915050565b5f805f805f6080868803121561379e5761379d613482565b5b5f6137ab888289016134a0565b95505060206137bc88828901613771565b94505060406137cd888289016134a0565b935050606086013567ffffffffffffffff8111156137ee576137ed613486565b5b6137fa8882890161367c565b92509250509295509295909350565b5f60208201905061381c5f830184613531565b92915050565b5f806040838503121561383857613837613482565b5b5f613845858286016134a0565b92505060206138568582860161365c565b9150509250929050565b5f62ffffff82169050919050565b61387781613860565b82525050565b5f6020820190506138905f83018461386e565b92915050565b5f805f80608085870312156138ae576138ad613482565b5b5f6138bb8782880161365c565b94505060206138cc8782880161365c565b93505060406138dd878288016134a0565b92505060606138ee878288016134a0565b91505092959194509250565b5f60808201905061390d5f830187613451565b61391a6020830186613451565b61392760408301856135e6565b61393460608301846135e6565b95945050505050565b5f6020820190506139505f83018461350f565b92915050565b5f8083601f84011261396b5761396a613670565b5b8235905067ffffffffffffffff81111561398857613987613674565b5b6020830191508360208202830111156139a4576139a3613678565b5b9250929050565b5f805f805f80608087890312156139c5576139c4613482565b5b5f6139d289828a0161365c565b96505060206139e389828a016134a0565b955050604087013567ffffffffffffffff811115613a0457613a03613486565b5b613a1089828a0161367c565b9450945050606087013567ffffffffffffffff811115613a3357613a32613486565b5b613a3f89828a01613956565b92509250509295509295509295565b5f805f805f805f805f6101208a8c031215613a6c57613a6b613482565b5b5f613a798c828d0161365c565b9950506020613a8a8c828d0161365c565b9850506040613a9b8c828d0161365c565b9750506060613aac8c828d0161365c565b9650506080613abd8c828d0161365c565b95505060a0613ace8c828d0161365c565b94505060c0613adf8c828d0161365c565b93505060e0613af08c828d0161365c565b925050610100613b028c828d0161365c565b9150509295985092959850929598565b5f80fd5b5f60a08284031215613b2b57613b2a613b12565b5b81905092915050565b5f805f805f60a08688031215613b4d57613b4c613482565b5b5f613b5a8882890161365c565b9550506020613b6b8882890161365c565b9450506040613b7c8882890161365c565b9350506060613b8d888289016134a0565b925050608086013567ffffffffffffffff811115613bae57613bad613486565b5b613bba88828901613b16565b9150509295509295909350565b613bd081613860565b8114613bda575f80fd5b50565b5f81359050613beb81613bc7565b92915050565b5f805f60608486031215613c0857613c07613482565b5b5f613c15868287016134a0565b9350506020613c268682870161365c565b9250506040613c3786828701613bdd565b9150509250925092565b5f805f60608486031215613c5857613c57613482565b5b5f613c658682870161365c565b9350506020613c768682870161365c565b9250506040613c87868287016134a0565b9150509250925092565b5f805f8060808587031215613ca957613ca8613482565b5b5f613cb68782880161365c565b9450506020613cc78782880161365c565b9350506040613cd8878288016134a0565b925050606085013567ffffffffffffffff811115613cf957613cf8613486565b5b613d0587828801613b16565b91505092959194509250565b5f8083601f840112613d2657613d25613670565b5b8235905067ffffffffffffffff811115613d4357613d42613674565b5b602083019150836020820283011115613d5f57613d5e613678565b5b9250929050565b5f805f805f8060a08789031215613d8057613d7f613482565b5b5f613d8d89828a016134a0565b9650506020613d9e89828a016134a0565b955050604087013567ffffffffffffffff811115613dbf57613dbe613486565b5b613dcb89828a01613d11565b94509450506060613dde89828a0161365c565b9250506080613def89828a01613771565b9150509295509295509295565b5f805f8060808587031215613e1457613e13613482565b5b5f613e218782880161365c565b9450506020613e328782880161365c565b9350506040613e438782880161365c565b9250506060613e54878288016134a0565b91505092959194509250565b5f82825260208201905092915050565b7f6e6f74206f776e657200000000000000000000000000000000000000000000005f82015250565b5f613ea4600983613e60565b9150613eaf82613e70565b602082019050919050565b5f6020820190508181035f830152613ed181613e98565b9050919050565b7f4e487b71000000000000000000000000000000000000000000000000000000005f52604160045260245ffd5b5f819050919050565b5f613f28613f23613f1e84613f05565b613567565b61351e565b9050919050565b613f3881613f0e565b82525050565b5f81519050919050565b5f82825260208201905092915050565b5f819050602082019050919050565b5f81519050919050565b5f82825260208201905092915050565b5f5b83811015613f9e578082015181840152602081019050613f83565b5f8484015250505050565b5f601f19601f8301169050919050565b5f613fc382613f67565b613fcd8185613f71565b9350613fdd818560208601613f81565b613fe681613fa9565b840191505092915050565b5f613ffc8383613fb9565b905092915050565b5f602082019050919050565b5f61401a82613f3e565b6140248185613f48565b93508360208202850161403685613f58565b805f5b8581101561407157848403895281516140528582613ff1565b945061405d83614004565b925060208a01995050600181019050614039565b50829750879550505050505092915050565b5f6060820190506140965f83018661350f565b6140a36020830185613f2f565b81810360408301526140b58184614010565b9050949350505050565b5f8160070b9050919050565b6140d4816140bf565b81146140de575f80fd5b50565b5f815190506140ef816140cb565b92915050565b5f815190506141038161375b565b92915050565b61411282613fa9565b810181811067ffffffffffffffff8211171561413157614130613ed8565b5b80604052505050565b5f614143613479565b905061414f8282614109565b919050565b5f67ffffffffffffffff82111561416e5761416d613ed8565b5b602082029050602081019050919050565b5f61419161418c84614154565b61413a565b905080838252602082019050602084028301858111156141b4576141b3613678565b5b835b818110156141dd57806141c988826140e1565b8452602084019350506020810190506141b6565b5050509392505050565b5f82601f8301126141fb576141fa613670565b5b815161420b84826020860161417f565b91505092915050565b5f805f6060848603121561422b5761422a613482565b5b5f614238868287016140e1565b9350506020614249868287016140f5565b925050604084015167ffffffffffffffff81111561426a57614269613486565b5b614276868287016141e7565b9150509250925092565b7f6d696e74206661696c00000000000000000000000000000000000000000000005f82015250565b5f6142b4600983613e60565b91506142bf82614280565b602082019050919050565b5f6020820190508181035f8301526142e1816142a8565b9050919050565b828183375f83830152505050565b5f6143018385613e60565b935061430e8385846142e8565b61431783613fa9565b840190509392505050565b5f6020820190508181035f83015261433b8184866142f6565b90509392505050565b7f72756c65206f66660000000000000000000000000000000000000000000000005f82015250565b5f614378600883613e60565b915061438382614344565b602082019050919050565b5f6020820190508181035f8301526143a58161436c565b9050919050565b7f4e487b71000000000000000000000000000000000000000000000000000000005f52601160045260245ffd5b5f6143e38261351e565b91506143ee8361351e565b92508282026143fc8161351e565b915080821461440e5761440d6143ac565b5b5092915050565b5f6060820190506144285f83018661350f565b6144356020830185613531565b81810360408301526144478184614010565b9050949350505050565b5f6060820190506144645f830187613531565b6144716020830186613531565b81810360408301526144848184866142f6565b905095945050505050565b7f4e487b71000000000000000000000000000000000000000000000000000000005f52603260045260245ffd5b5f819050919050565b5f6144cf826144bc565b91507fffffffffffffffffffffffffffffffffffffffffffffffffffffffffffffffff8203614501576145006143ac565b5b600182019050919050565b7f7a65726f206164647200000000000000000000000000000000000000000000005f82015250565b5f614540600983613e60565b915061454b8261450c565b602082019050919050565b5f6020820190508181035f83015261456d81614534565b9050919050565b5f60c0820190506145875f83018961350f565b614594602083018861350f565b6145a1604083018761350f565b6145ae606083018661350f565b6145bb608083018561350f565b6145c860a083018461350f565b979650505050505050565b7f696e70757473486173682d6d69736d61746368000000000000000000000000005f82015250565b5f614607601383613e60565b9150614612826145d3565b602082019050919050565b5f6020820190508181035f830152614634816145fb565b9050919050565b5f80fd5b5f80fd5b5f80fd5b5f80833560016020038436030381126146635761466261463b565b5b80840192508235915067ffffffffffffffff8211156146855761468461463f565b5b6020830192506001820236038313156146a1576146a0614643565b5b509250929050565b5f60a0820190506146bc5f83018961350f565b6146c9602083018861350f565b6146d6604083018761350f565b6146e360608301866135e6565b81810360808301526146f68184866142f6565b9050979650505050505050565b5f6060820190506147165f830186613451565b6147236020830185613451565b61473060408301846135e6565b949350505050565b7f646f6d61696e206d75737420626520445f4c49474854000000000000000000005f82015250565b5f61476c601683613e60565b915061477782614738565b602082019050919050565b5f6020820190508181035f83015261479981614760565b9050919050565b5f6060820190506147b35f830187613f2f565b6147c06020830186613531565b81810360408301526147d38184866142f6565b905095945050505050565b7f6d7573742070726f766964652032206f72203320696e707574730000000000005f82015250565b5f614812601a83613e60565b915061481d826147de565b602082019050919050565b5f6020820190508181035f83015261483f81614806565b9050919050565b7f6f75747075742063616e6e6f74206265207a65726f00000000000000000000005f82015250565b5f61487a601583613e60565b915061488582614846565b602082019050919050565b5f6020820190508181035f8301526148a78161486e565b9050919050565b7f726174696f206d75737420626520706f736974697665000000000000000000005f82015250565b5f6148e2601683613e60565b91506148ed826148ae565b602082019050919050565b5f6020820190508181035f83015261490f816148d6565b9050919050565b5f6020828403121561492b5761492a613482565b5b5f6149388482850161365c565b91505092915050565b7f696e7075742063616e6e6f74206265207a65726f0000000000000000000000005f82015250565b5f614975601483613e60565b915061498082614941565b602082019050919050565b5f6020820190508181035f8301526149a281614969565b9050919050565b5f6149b3826144bc565b91506149be836144bc565b92508282019050808211156149d6576149d56143ac565b5b92915050565b7f696e70757473206d7573742062652064697374696e63740000000000000000005f82015250565b5f614a10601783613e60565b9150614a1b826149dc565b602082019050919050565b5f6020820190508181035f830152614a3d81614a04565b9050919050565b7f6f75747075742063616e6e6f7420626520616e20696e707574000000000000005f82015250565b5f614a78601983613e60565b9150614a8382614a44565b602082019050919050565b5f6020820190508181035f830152614aa581614a6c565b9050919050565b5f82825260208201905092915050565b5f819050919050565b614ace816134fe565b82525050565b5f614adf8383614ac5565b60208301905092915050565b5f614af9602084018461365c565b905092915050565b5f602082019050919050565b5f614b188385614aac565b9350614b2382614abc565b805f5b85811015614b5b57614b388284614aeb565b614b428882614ad4565b9750614b4d83614b01565b925050600181019050614b26565b5085925050509392505050565b5f608082019050614b7b5f830188613451565b614b886020830187613451565b8181036040830152614b9b818587614b0d565b9050614baa606083018461350f565b9695505050505050565b7f72756c6520616c726561647920657869737473000000000000000000000000005f82015250565b5f614be8601383613e60565b9150614bf382614bb4565b602082019050919050565b5f6020820190508181035f830152614c1581614bdc565b9050919050565b5f60a082019050614c2f5f830189613451565b614c3c6020830188613451565b8181036040830152614c4f818688614b0d565b9050614c5e606083018561350f565b614c6b6080830184613531565b979650505050505050565b5f60a082019050614c895f83018861350f565b614c96602083018761350f565b614ca3604083018661350f565b614cb06060830185613451565b614cbd6080830184613451565b9695505050505050565b5f608082019050614cda5f83018761350f565b614ce7602083018661350f565b614cf46040830185613451565b614d016060830184613451565b95945050505050565b7f756e737570706f727465642d61646469746976652d70616972000000000000005f82015250565b5f614d3e601983613e60565b9150614d4982614d0a565b602082019050919050565b5f6020820190508181035f830152614d6b81614d32565b9050919050565b5f60ff82169050919050565b5f614d8882614d72565b9150614d9383614d72565b9250828203905060ff811115614dac57614dab6143ac565b5b9291505056fea264697066735822122091175b183500a4b48fc69e9744866d8bf9e0d58b8a2a38c97b1851fa777df5a864736f6c63430008140033","opcodes":"PUSH1 0x80 PUSH1 0x40 MSTORE CALLVALUE DUP1 ISZERO PUSH3 0x10 JUMPI PUSH0 DUP1 REVERT JUMPDEST POP PUSH1 0x40 MLOAD PUSH3 0x4EE6 CODESIZE SUB DUP1 PUSH3 0x4EE6 DUP4 CODECOPY DUP2 DUP2 ADD PUSH1 0x40 MSTORE DUP2 ADD SWAP1 PUSH3 0x36 SWAP2 SWAP1 PUSH3 0xC0 JUMP JUMPDEST CALLER PUSH1 0x9 PUSH0 PUSH2 0x100 EXP DUP2 SLOAD DUP2 PUSH20 0xFFFFFFFFFFFFFFFFFFFFFFFFFFFFFFFFFFFFFFFF MUL NOT AND SWAP1 DUP4 PUSH20 0xFFFFFFFFFFFFFFFFFFFFFFFFFFFFFFFFFFFFFFFF AND MUL OR SWAP1 SSTORE POP DUP1 PUSH1 0xA DUP2 SWAP1 SSTORE POP POP PUSH3 0xF0 JUMP JUMPDEST PUSH0 DUP1 REVERT JUMPDEST PUSH0 DUP2 SWAP1 POP SWAP2 SWAP1 POP JUMP JUMPDEST PUSH3 0x9C DUP2 PUSH3 0x88 JUMP JUMPDEST DUP2 EQ PUSH3 0xA7 JUMPI PUSH0 DUP1 REVERT JUMPDEST POP JUMP JUMPDEST PUSH0 DUP2 MLOAD SWAP1 POP PUSH3 0xBA DUP2 PUSH3 0x91 JUMP JUMPDEST SWAP3 SWAP2 POP POP JUMP JUMPDEST PUSH0 PUSH1 0x20 DUP3 DUP5 SUB SLT ISZERO PUSH3 0xD8 JUMPI PUSH3 0xD7 PUSH3 0x84 JUMP JUMPDEST JUMPDEST PUSH0 PUSH3 0xE7 DUP5 DUP3 DUP6 ADD PUSH3 0xAA JUMP JUMPDEST SWAP2 POP POP SWAP3 SWAP2 POP POP JUMP JUMPDEST PUSH2 0x4DE8 DUP1 PUSH3 0xFE PUSH0 CODECOPY PUSH0 RETURN INVALID PUSH1 0x80 PUSH1 0x40 MSTORE CALLVALUE DUP1 ISZERO PUSH2 0xF JUMPI PUSH0 DUP1 REVERT JUMPDEST POP PUSH1 0x4 CALLDATASIZE LT PUSH2 0x23B JUMPI PUSH0 CALLDATALOAD PUSH1 0xE0 SHR DUP1 PUSH4 0x81AC8B6A GT PUSH2 0x139 JUMPI DUP1 PUSH4 0xC1B2DAF4 GT PUSH2 0xB6 JUMPI DUP1 PUSH4 0xDEC40116 GT PUSH2 0x7A JUMPI DUP1 PUSH4 0xDEC40116 EQ PUSH2 0x73A JUMPI DUP1 PUSH4 0xDFBC9772 EQ PUSH2 0x76A JUMPI DUP1 PUSH4 0xED92DF13 EQ PUSH2 0x79A JUMPI DUP1 PUSH4 0xF1385A1A EQ PUSH2 0x7B8 JUMPI DUP1 PUSH4 0xF5803560 EQ PUSH2 0x7D6 JUMPI PUSH2 0x23B JUMP JUMPDEST DUP1 PUSH4 0xC1B2DAF4 EQ PUSH2 0x691 JUMPI DUP1 PUSH4 0xC687CFEB EQ PUSH2 0x6AF JUMPI DUP1 PUSH4 0xC984D759 EQ PUSH2 0x6E0 JUMPI DUP1 PUSH4 0xD59A70DD EQ PUSH2 0x6FE JUMPI DUP1 PUSH4 0xD6DD7673 EQ PUSH2 0x71C JUMPI PUSH2 0x23B JUMP JUMPDEST DUP1 PUSH4 0xA59EE59E GT PUSH2 0xFD JUMPI DUP1 PUSH4 0xA59EE59E EQ PUSH2 0x5C5 JUMPI DUP1 PUSH4 0xA70F0AD7 EQ PUSH2 0x5E3 JUMPI DUP1 PUSH4 0xB1FBCCD2 EQ PUSH2 0x613 JUMPI DUP1 PUSH4 0xB2B8E2A1 EQ PUSH2 0x643 JUMPI DUP1 PUSH4 0xBEEB3F34 EQ PUSH2 0x661 JUMPI PUSH2 0x23B JUMP JUMPDEST DUP1 PUSH4 0x81AC8B6A EQ PUSH2 0x51F JUMPI DUP1 PUSH4 0x8DA5CB5B EQ PUSH2 0x53B JUMPI DUP1 PUSH4 0x903AC6D4 EQ PUSH2 0x559 JUMPI DUP1 PUSH4 0x9CA6D971 EQ PUSH2 0x577 JUMPI DUP1 PUSH4 0x9D5D42CA EQ PUSH2 0x5A7 JUMPI PUSH2 0x23B JUMP JUMPDEST DUP1 PUSH4 0x3D7B86DE GT PUSH2 0x1C7 JUMPI DUP1 PUSH4 0x66692C3A GT PUSH2 0x18B JUMPI DUP1 PUSH4 0x66692C3A EQ PUSH2 0x479 JUMPI DUP1 PUSH4 0x695FEE64 EQ PUSH2 0x495 JUMPI DUP1 PUSH4 0x72775A9B EQ PUSH2 0x4B3 JUMPI DUP1 PUSH4 0x74832DB5 EQ PUSH2 0x4E3 JUMPI DUP1 PUSH4 0x795BB332 EQ PUSH2 0x501 JUMPI PUSH2 0x23B JUMP JUMPDEST DUP1 PUSH4 0x3D7B86DE EQ PUSH2 0x398 JUMPI DUP1 PUSH4 0x3E69D025 EQ PUSH2 0x3C8 JUMPI DUP1 PUSH4 0x487CD70A EQ PUSH2 0x3F8 JUMPI DUP1 PUSH4 0x53F1BC1D EQ PUSH2 0x42B JUMPI DUP1 PUSH4 0x5EAA48AF EQ PUSH2 0x449 JUMPI PUSH2 0x23B JUMP JUMPDEST DUP1 PUSH4 0x216B8577 GT PUSH2 0x20E JUMPI DUP1 PUSH4 0x216B8577 EQ PUSH2 0x2C8 JUMPI DUP1 PUSH4 0x2602C01E EQ PUSH2 0x2FC JUMPI DUP1 PUSH4 0x34E98C62 EQ PUSH2 0x31A JUMPI DUP1 PUSH4 0x35E64E57 EQ PUSH2 0x338 JUMPI DUP1 PUSH4 0x3B958A53 EQ PUSH2 0x368 JUMPI PUSH2 0x23B JUMP JUMPDEST DUP1 PUSH4 0x548A9E7 EQ PUSH2 0x23F JUMPI DUP1 PUSH4 0xFF62E93 EQ PUSH2 0x25D JUMPI DUP1 PUSH4 0x12FC39C7 EQ PUSH2 0x28E JUMPI DUP1 PUSH4 0x1BC92162 EQ PUSH2 0x2AA JUMPI JUMPDEST PUSH0 DUP1 REVERT JUMPDEST PUSH2 0x247 PUSH2 0x806 JUMP JUMPDEST PUSH1 0x40 MLOAD PUSH2 0x254 SWAP2 SWAP1 PUSH2 0x3460 JUMP JUMPDEST PUSH1 0x40 MLOAD DUP1 SWAP2 SUB SWAP1 RETURN JUMPDEST PUSH2 0x277 PUSH1 0x4 DUP1 CALLDATASIZE SUB DUP2 ADD SWAP1 PUSH2 0x272 SWAP2 SWAP1 PUSH2 0x34B4 JUMP JUMPDEST PUSH2 0x82A JUMP JUMPDEST PUSH1 0x40 MLOAD PUSH2 0x285 SWAP3 SWAP2 SWAP1 PUSH2 0x3540 JUMP JUMPDEST PUSH1 0x40 MLOAD DUP1 SWAP2 SUB SWAP1 RETURN JUMPDEST PUSH2 0x2A8 PUSH1 0x4 DUP1 CALLDATASIZE SUB DUP2 ADD SWAP1 PUSH2 0x2A3 SWAP2 SWAP1 PUSH2 0x34B4 JUMP JUMPDEST PUSH2 0x87C JUMP JUMPDEST STOP JUMPDEST PUSH2 0x2B2 PUSH2 0x915 JUMP JUMPDEST PUSH1 0x40 MLOAD PUSH2 0x2BF SWAP2 SWAP1 PUSH2 0x35C2 JUMP JUMPDEST PUSH1 0x40 MLOAD DUP1 SWAP2 SUB SWAP1 RETURN JUMPDEST PUSH2 0x2E2 PUSH1 0x4 DUP1 CALLDATASIZE SUB DUP2 ADD SWAP1 PUSH2 0x2DD SWAP2 SWAP1 PUSH2 0x34B4 JUMP JUMPDEST PUSH2 0x91B JUMP JUMPDEST PUSH1 0x40 MLOAD PUSH2 0x2F3 SWAP6 SWAP5 SWAP4 SWAP3 SWAP2 SWAP1 PUSH2 0x35F5 JUMP JUMPDEST PUSH1 0x40 MLOAD DUP1 SWAP2 SUB SWAP1 RETURN JUMPDEST PUSH2 0x304 PUSH2 0x98D JUMP JUMPDEST PUSH1 0x40 MLOAD PUSH2 0x311 SWAP2 SWAP1 PUSH2 0x3460 JUMP JUMPDEST PUSH1 0x40 MLOAD DUP1 SWAP2 SUB SWAP1 RETURN JUMPDEST PUSH2 0x322 PUSH2 0x9B1 JUMP JUMPDEST PUSH1 0x40 MLOAD PUSH2 0x32F SWAP2 SWAP1 PUSH2 0x3460 JUMP JUMPDEST PUSH1 0x40 MLOAD DUP1 SWAP2 SUB SWAP1 RETURN JUMPDEST PUSH2 0x352 PUSH1 0x4 DUP1 CALLDATASIZE SUB DUP2 ADD SWAP1 PUSH2 0x34D SWAP2 SWAP1 PUSH2 0x34B4 JUMP JUMPDEST PUSH2 0x9D5 JUMP JUMPDEST PUSH1 0x40 MLOAD PUSH2 0x35F SWAP2 SWAP1 PUSH2 0x3460 JUMP JUMPDEST PUSH1 0x40 MLOAD DUP1 SWAP2 SUB SWAP1 RETURN JUMPDEST PUSH2 0x382 PUSH1 0x4 DUP1 CALLDATASIZE SUB DUP2 ADD SWAP1 PUSH2 0x37D SWAP2 SWAP1 PUSH2 0x36D1 JUMP JUMPDEST PUSH2 0x9EF JUMP JUMPDEST PUSH1 0x40 MLOAD PUSH2 0x38F SWAP2 SWAP1 PUSH2 0x3742 JUMP JUMPDEST PUSH1 0x40 MLOAD DUP1 SWAP2 SUB SWAP1 RETURN JUMPDEST PUSH2 0x3B2 PUSH1 0x4 DUP1 CALLDATASIZE SUB DUP2 ADD SWAP1 PUSH2 0x3AD SWAP2 SWAP1 PUSH2 0x3785 JUMP JUMPDEST PUSH2 0xCF7 JUMP JUMPDEST PUSH1 0x40 MLOAD PUSH2 0x3BF SWAP2 SWAP1 PUSH2 0x3809 JUMP JUMPDEST PUSH1 0x40 MLOAD DUP1 SWAP2 SUB SWAP1 RETURN JUMPDEST PUSH2 0x3E2 PUSH1 0x4 DUP1 CALLDATASIZE SUB DUP2 ADD SWAP1 PUSH2 0x3DD SWAP2 SWAP1 PUSH2 0x3822 JUMP JUMPDEST PUSH2 0xF21 JUMP JUMPDEST PUSH1 0x40 MLOAD PUSH2 0x3EF SWAP2 SWAP1 PUSH2 0x387D JUMP JUMPDEST PUSH1 0x40 MLOAD DUP1 SWAP2 SUB SWAP1 RETURN JUMPDEST PUSH2 0x412 PUSH1 0x4 DUP1 CALLDATASIZE SUB DUP2 ADD SWAP1 PUSH2 0x40D SWAP2 SWAP1 PUSH2 0x3896 JUMP JUMPDEST PUSH2 0xF4D JUMP JUMPDEST PUSH1 0x40 MLOAD PUSH2 0x422 SWAP5 SWAP4 SWAP3 SWAP2 SWAP1 PUSH2 0x38FA JUMP JUMPDEST PUSH1 0x40 MLOAD DUP1 SWAP2 SUB SWAP1 RETURN JUMPDEST PUSH2 0x433 PUSH2 0xFB6 JUMP JUMPDEST PUSH1 0x40 MLOAD PUSH2 0x440 SWAP2 SWAP1 PUSH2 0x393D JUMP JUMPDEST PUSH1 0x40 MLOAD DUP1 SWAP2 SUB SWAP1 RETURN JUMPDEST PUSH2 0x463 PUSH1 0x4 DUP1 CALLDATASIZE SUB DUP2 ADD SWAP1 PUSH2 0x45E SWAP2 SWAP1 PUSH2 0x39AB JUMP JUMPDEST PUSH2 0xFDB JUMP JUMPDEST PUSH1 0x40 MLOAD PUSH2 0x470 SWAP2 SWAP1 PUSH2 0x3742 JUMP JUMPDEST PUSH1 0x40 MLOAD DUP1 SWAP2 SUB SWAP1 RETURN JUMPDEST PUSH2 0x493 PUSH1 0x4 DUP1 CALLDATASIZE SUB DUP2 ADD SWAP1 PUSH2 0x48E SWAP2 SWAP1 PUSH2 0x3A4E JUMP JUMPDEST PUSH2 0x13B0 JUMP JUMPDEST STOP JUMPDEST PUSH2 0x49D PUSH2 0x193E JUMP JUMPDEST PUSH1 0x40 MLOAD PUSH2 0x4AA SWAP2 SWAP1 PUSH2 0x3460 JUMP JUMPDEST PUSH1 0x40 MLOAD DUP1 SWAP2 SUB SWAP1 RETURN JUMPDEST PUSH2 0x4CD PUSH1 0x4 DUP1 CALLDATASIZE SUB DUP2 ADD SWAP1 PUSH2 0x4C8 SWAP2 SWAP1 PUSH2 0x3B34 JUMP JUMPDEST PUSH2 0x1962 JUMP JUMPDEST PUSH1 0x40 MLOAD PUSH2 0x4DA SWAP2 SWAP1 PUSH2 0x3742 JUMP JUMPDEST PUSH1 0x40 MLOAD DUP1 SWAP2 SUB SWAP1 RETURN JUMPDEST PUSH2 0x4EB PUSH2 0x1DCD JUMP JUMPDEST PUSH1 0x40 MLOAD PUSH2 0x4F8 SWAP2 SWAP1 PUSH2 0x3460 JUMP JUMPDEST PUSH1 0x40 MLOAD DUP1 SWAP2 SUB SWAP1 RETURN JUMPDEST PUSH2 0x509 PUSH2 0x1DF1 JUMP JUMPDEST PUSH1 0x40 MLOAD PUSH2 0x516 SWAP2 SWAP1 PUSH2 0x3460 JUMP JUMPDEST PUSH1 0x40 MLOAD DUP1 SWAP2 SUB SWAP1 RETURN JUMPDEST PUSH2 0x539 PUSH1 0x4 DUP1 CALLDATASIZE SUB DUP2 ADD SWAP1 PUSH2 0x534 SWAP2 SWAP1 PUSH2 0x3BF1 JUMP JUMPDEST PUSH2 0x1E15 JUMP JUMPDEST STOP JUMPDEST PUSH2 0x543 PUSH2 0x1F11 JUMP JUMPDEST PUSH1 0x40 MLOAD PUSH2 0x550 SWAP2 SWAP1 PUSH2 0x393D JUMP JUMPDEST PUSH1 0x40 MLOAD DUP1 SWAP2 SUB SWAP1 RETURN JUMPDEST PUSH2 0x561 PUSH2 0x1F36 JUMP JUMPDEST PUSH1 0x40 MLOAD PUSH2 0x56E SWAP2 SWAP1 PUSH2 0x393D JUMP JUMPDEST PUSH1 0x40 MLOAD DUP1 SWAP2 SUB SWAP1 RETURN JUMPDEST PUSH2 0x591 PUSH1 0x4 DUP1 CALLDATASIZE SUB DUP2 ADD SWAP1 PUSH2 0x58C SWAP2 SWAP1 PUSH2 0x3C41 JUMP JUMPDEST PUSH2 0x1F5B JUMP JUMPDEST PUSH1 0x40 MLOAD PUSH2 0x59E SWAP2 SWAP1 PUSH2 0x3460 JUMP JUMPDEST PUSH1 0x40 MLOAD DUP1 SWAP2 SUB SWAP1 RETURN JUMPDEST PUSH2 0x5AF PUSH2 0x1F70 JUMP JUMPDEST PUSH1 0x40 MLOAD PUSH2 0x5BC SWAP2 SWAP1 PUSH2 0x393D JUMP JUMPDEST PUSH1 0x40 MLOAD DUP1 SWAP2 SUB SWAP1 RETURN JUMPDEST PUSH2 0x5CD PUSH2 0x1F95 JUMP JUMPDEST PUSH1 0x40 MLOAD PUSH2 0x5DA SWAP2 SWAP1 PUSH2 0x393D JUMP JUMPDEST PUSH1 0x40 MLOAD DUP1 SWAP2 SUB SWAP1 RETURN JUMPDEST PUSH2 0x5FD PUSH1 0x4 DUP1 CALLDATASIZE SUB DUP2 ADD SWAP1 PUSH2 0x5F8 SWAP2 SWAP1 PUSH2 0x34B4 JUMP JUMPDEST PUSH2 0x1FBA JUMP JUMPDEST PUSH1 0x40 MLOAD PUSH2 0x60A SWAP2 SWAP1 PUSH2 0x3742 JUMP JUMPDEST PUSH1 0x40 MLOAD DUP1 SWAP2 SUB SWAP1 RETURN JUMPDEST PUSH2 0x62D PUSH1 0x4 DUP1 CALLDATASIZE SUB DUP2 ADD SWAP1 PUSH2 0x628 SWAP2 SWAP1 PUSH2 0x34B4 JUMP JUMPDEST PUSH2 0x1FD7 JUMP JUMPDEST PUSH1 0x40 MLOAD PUSH2 0x63A SWAP2 SWAP1 PUSH2 0x3460 JUMP JUMPDEST PUSH1 0x40 MLOAD DUP1 SWAP2 SUB SWAP1 RETURN JUMPDEST PUSH2 0x64B PUSH2 0x1FEC JUMP JUMPDEST PUSH1 0x40 MLOAD PUSH2 0x658 SWAP2 SWAP1 PUSH2 0x393D JUMP JUMPDEST PUSH1 0x40 MLOAD DUP1 SWAP2 SUB SWAP1 RETURN JUMPDEST PUSH2 0x67B PUSH1 0x4 DUP1 CALLDATASIZE SUB DUP2 ADD SWAP1 PUSH2 0x676 SWAP2 SWAP1 PUSH2 0x34B4 JUMP JUMPDEST PUSH2 0x2011 JUMP JUMPDEST PUSH1 0x40 MLOAD PUSH2 0x688 SWAP2 SWAP1 PUSH2 0x3742 JUMP JUMPDEST PUSH1 0x40 MLOAD DUP1 SWAP2 SUB SWAP1 RETURN JUMPDEST PUSH2 0x699 PUSH2 0x2037 JUMP JUMPDEST PUSH1 0x40 MLOAD PUSH2 0x6A6 SWAP2 SWAP1 PUSH2 0x3460 JUMP JUMPDEST PUSH1 0x40 MLOAD DUP1 SWAP2 SUB SWAP1 RETURN JUMPDEST PUSH2 0x6C9 PUSH1 0x4 DUP1 CALLDATASIZE SUB DUP2 ADD SWAP1 PUSH2 0x6C4 SWAP2 SWAP1 PUSH2 0x3C91 JUMP JUMPDEST PUSH2 0x205B JUMP JUMPDEST PUSH1 0x40 MLOAD PUSH2 0x6D7 SWAP3 SWAP2 SWAP1 PUSH2 0x3540 JUMP JUMPDEST PUSH1 0x40 MLOAD DUP1 SWAP2 SUB SWAP1 RETURN JUMPDEST PUSH2 0x6E8 PUSH2 0x258B JUMP JUMPDEST PUSH1 0x40 MLOAD PUSH2 0x6F5 SWAP2 SWAP1 PUSH2 0x393D JUMP JUMPDEST PUSH1 0x40 MLOAD DUP1 SWAP2 SUB SWAP1 RETURN JUMPDEST PUSH2 0x706 PUSH2 0x25B0 JUMP JUMPDEST PUSH1 0x40 MLOAD PUSH2 0x713 SWAP2 SWAP1 PUSH2 0x393D JUMP JUMPDEST PUSH1 0x40 MLOAD DUP1 SWAP2 SUB SWAP1 RETURN JUMPDEST PUSH2 0x724 PUSH2 0x25D5 JUMP JUMPDEST PUSH1 0x40 MLOAD PUSH2 0x731 SWAP2 SWAP1 PUSH2 0x393D JUMP JUMPDEST PUSH1 0x40 MLOAD DUP1 SWAP2 SUB SWAP1 RETURN JUMPDEST PUSH2 0x754 PUSH1 0x4 DUP1 CALLDATASIZE SUB DUP2 ADD SWAP1 PUSH2 0x74F SWAP2 SWAP1 PUSH2 0x3D66 JUMP JUMPDEST PUSH2 0x25F8 JUMP JUMPDEST PUSH1 0x40 MLOAD PUSH2 0x761 SWAP2 SWAP1 PUSH2 0x3460 JUMP JUMPDEST PUSH1 0x40 MLOAD DUP1 SWAP2 SUB SWAP1 RETURN JUMPDEST PUSH2 0x784 PUSH1 0x4 DUP1 CALLDATASIZE SUB DUP2 ADD SWAP1 PUSH2 0x77F SWAP2 SWAP1 PUSH2 0x3822 JUMP JUMPDEST PUSH2 0x2C56 JUMP JUMPDEST PUSH1 0x40 MLOAD PUSH2 0x791 SWAP2 SWAP1 PUSH2 0x387D JUMP JUMPDEST PUSH1 0x40 MLOAD DUP1 SWAP2 SUB SWAP1 RETURN JUMPDEST PUSH2 0x7A2 PUSH2 0x2CBA JUMP JUMPDEST PUSH1 0x40 MLOAD PUSH2 0x7AF SWAP2 SWAP1 PUSH2 0x3460 JUMP JUMPDEST PUSH1 0x40 MLOAD DUP1 SWAP2 SUB SWAP1 RETURN JUMPDEST PUSH2 0x7C0 PUSH2 0x2CC0 JUMP JUMPDEST PUSH1 0x40 MLOAD PUSH2 0x7CD SWAP2 SWAP1 PUSH2 0x393D JUMP JUMPDEST PUSH1 0x40 MLOAD DUP1 SWAP2 SUB SWAP1 RETURN JUMPDEST PUSH2 0x7F0 PUSH1 0x4 DUP1 CALLDATASIZE SUB DUP2 ADD SWAP1 PUSH2 0x7EB SWAP2 SWAP1 PUSH2 0x3DFC JUMP JUMPDEST PUSH2 0x2CE5 JUMP JUMPDEST PUSH1 0x40 MLOAD PUSH2 0x7FD SWAP2 SWAP1 PUSH2 0x3460 JUMP JUMPDEST PUSH1 0x40 MLOAD DUP1 SWAP2 SUB SWAP1 RETURN JUMPDEST PUSH32 0x217FFB743E749E59632E1A39A53634096481CB82EE5F27B44698DCC2C7453F01 DUP2 JUMP JUMPDEST PUSH1 0xF PUSH1 0x20 MSTORE DUP1 PUSH0 MSTORE PUSH1 0x40 PUSH0 KECCAK256 PUSH0 SWAP2 POP SWAP1 POP DUP1 PUSH0 ADD PUSH0 SWAP1 SLOAD SWAP1 PUSH2 0x100 EXP SWAP1 DIV PUSH20 0xFFFFFFFFFFFFFFFFFFFFFFFFFFFFFFFFFFFFFFFF AND SWAP1 DUP1 PUSH0 ADD PUSH1 0x14 SWAP1 SLOAD SWAP1 PUSH2 0x100 EXP SWAP1 DIV PUSH8 0xFFFFFFFFFFFFFFFF AND SWAP1 POP DUP3 JUMP JUMPDEST PUSH1 0x9 PUSH0 SWAP1 SLOAD SWAP1 PUSH2 0x100 EXP SWAP1 DIV PUSH20 0xFFFFFFFFFFFFFFFFFFFFFFFFFFFFFFFFFFFFFFFF AND PUSH20 0xFFFFFFFFFFFFFFFFFFFFFFFFFFFFFFFFFFFFFFFF AND CALLER PUSH20 0xFFFFFFFFFFFFFFFFFFFFFFFFFFFFFFFFFFFFFFFF AND EQ PUSH2 0x90B JUMPI PUSH1 0x40 MLOAD PUSH32 0x8C379A000000000000000000000000000000000000000000000000000000000 DUP2 MSTORE PUSH1 0x4 ADD PUSH2 0x902 SWAP1 PUSH2 0x3EBA JUMP JUMPDEST PUSH1 0x40 MLOAD DUP1 SWAP2 SUB SWAP1 REVERT JUMPDEST DUP1 PUSH1 0xA DUP2 SWAP1 SSTORE POP POP JUMP JUMPDEST PUSH2 0x167 DUP2 JUMP JUMPDEST PUSH1 0xB PUSH1 0x20 MSTORE DUP1 PUSH0 MSTORE PUSH1 0x40 PUSH0 KECCAK256 PUSH0 SWAP2 POP SWAP1 POP DUP1 PUSH0 ADD SLOAD SWAP1 DUP1 PUSH1 0x1 ADD SLOAD SWAP1 DUP1 PUSH1 0x3 ADD PUSH0 SWAP1 SLOAD SWAP1 PUSH2 0x100 EXP SWAP1 DIV PUSH20 0xFFFFFFFFFFFFFFFFFFFFFFFFFFFFFFFFFFFFFFFF AND SWAP1 DUP1 PUSH1 0x3 ADD PUSH1 0x14 SWAP1 SLOAD SWAP1 PUSH2 0x100 EXP SWAP1 DIV PUSH8 0xFFFFFFFFFFFFFFFF AND SWAP1 DUP1 PUSH1 0x3 ADD PUSH1 0x1C SWAP1 SLOAD SWAP1 PUSH2 0x100 EXP SWAP1 DIV PUSH1 0xFF AND SWAP1 POP DUP6 JUMP JUMPDEST PUSH32 0x892486F2DB77FEBA50B67FD68CCCF02ECCA6D746664216A0449ECB5BA18F8DE DUP2 JUMP JUMPDEST PUSH32 0x120EB869162558440F242FF96357D8B58E4E92E3931E5FA2CD26B86718ABC0E2 DUP2 JUMP JUMPDEST PUSH0 PUSH1 0xE PUSH0 DUP4 DUP2 MSTORE PUSH1 0x20 ADD SWAP1 DUP2 MSTORE PUSH1 0x20 ADD PUSH0 KECCAK256 SLOAD SWAP1 POP SWAP2 SWAP1 POP JUMP JUMPDEST PUSH0 DUP1 PUSH0 PUSH1 0x6 PUSH0 SWAP1 SLOAD SWAP1 PUSH2 0x100 EXP SWAP1 DIV PUSH20 0xFFFFFFFFFFFFFFFFFFFFFFFFFFFFFFFFFFFFFFFF AND PUSH20 0xFFFFFFFFFFFFFFFFFFFFFFFFFFFFFFFFFFFFFFFF AND DUP8 PUSH20 0xFFFFFFFFFFFFFFFFFFFFFFFFFFFFFFFFFFFFFFFF AND SUB PUSH2 0xA92 JUMPI PUSH32 0x9E30E0ACF846B25B3E72D06E58BDE205E6320ACD3F4B095D11ECE290A6885188 SWAP2 POP PUSH1 0x6 PUSH0 SWAP1 SLOAD SWAP1 PUSH2 0x100 EXP SWAP1 DIV PUSH20 0xFFFFFFFFFFFFFFFFFFFFFFFFFFFFFFFFFFFFFFFF AND SWAP1 POP PUSH2 0xB65 JUMP JUMPDEST PUSH1 0x7 PUSH0 SWAP1 SLOAD SWAP1 PUSH2 0x100 EXP SWAP1 DIV PUSH20 0xFFFFFFFFFFFFFFFFFFFFFFFFFFFFFFFFFFFFFFFF AND PUSH20 0xFFFFFFFFFFFFFFFFFFFFFFFFFFFFFFFFFFFFFFFF AND DUP8 PUSH20 0xFFFFFFFFFFFFFFFFFFFFFFFFFFFFFFFFFFFFFFFF AND SUB PUSH2 0xB32 JUMPI PUSH32 0x120EB869162558440F242FF96357D8B58E4E92E3931E5FA2CD26B86718ABC0E2 SWAP2 POP PUSH1 0x7 PUSH0 SWAP1 SLOAD SWAP1 PUSH2 0x100 EXP SWAP1 DIV PUSH20 0xFFFFFFFFFFFFFFFFFFFFFFFFFFFFFFFFFFFFFFFF AND SWAP1 POP PUSH2 0xB64 JUMP JUMPDEST PUSH1 0x40 MLOAD PUSH32 0xBB55ABBB00000000000000000000000000000000000000000000000000000000 DUP2 MSTORE PUSH1 0x4 ADD PUSH1 0x40 MLOAD DUP1 SWAP2 SUB SWAP1 REVERT JUMPDEST JUMPDEST PUSH0 PUSH2 0x167 PUSH20 0xFFFFFFFFFFFFFFFFFFFFFFFFFFFFFFFFFFFFFFFF AND PUSH4 0x278E0B88 DUP4 PUSH1 0x1 PUSH0 PUSH8 0xFFFFFFFFFFFFFFFF DUP2 GT ISZERO PUSH2 0xBA1 JUMPI PUSH2 0xBA0 PUSH2 0x3ED8 JUMP JUMPDEST JUMPDEST PUSH1 0x40 MLOAD SWAP1 DUP1 DUP3 MSTORE DUP1 PUSH1 0x20 MUL PUSH1 0x20 ADD DUP3 ADD PUSH1 0x40 MSTORE DUP1 ISZERO PUSH2 0xBD4 JUMPI DUP2 PUSH1 0x20 ADD JUMPDEST PUSH1 0x60 DUP2 MSTORE PUSH1 0x20 ADD SWAP1 PUSH1 0x1 SWAP1 SUB SWAP1 DUP2 PUSH2 0xBBF JUMPI SWAP1 POP JUMPDEST POP PUSH1 0x40 MLOAD DUP5 PUSH4 0xFFFFFFFF AND PUSH1 0xE0 SHL DUP2 MSTORE PUSH1 0x4 ADD PUSH2 0xBF3 SWAP4 SWAP3 SWAP2 SWAP1 PUSH2 0x4083 JUMP JUMPDEST PUSH0 PUSH1 0x40 MLOAD DUP1 DUP4 SUB DUP2 PUSH0 DUP8 GAS CALL ISZERO DUP1 ISZERO PUSH2 0xC0E JUMPI RETURNDATASIZE PUSH0 DUP1 RETURNDATACOPY RETURNDATASIZE PUSH0 REVERT JUMPDEST POP POP POP POP PUSH1 0x40 MLOAD RETURNDATASIZE PUSH0 DUP3 RETURNDATACOPY RETURNDATASIZE PUSH1 0x1F NOT PUSH1 0x1F DUP3 ADD AND DUP3 ADD DUP1 PUSH1 0x40 MSTORE POP DUP2 ADD SWAP1 PUSH2 0xC36 SWAP2 SWAP1 PUSH2 0x4214 JUMP JUMPDEST POP POP SWAP1 POP PUSH1 0x16 DUP2 PUSH1 0x7 SIGNEXTEND EQ PUSH2 0xC80 JUMPI PUSH1 0x40 MLOAD PUSH32 0x8C379A000000000000000000000000000000000000000000000000000000000 DUP2 MSTORE PUSH1 0x4 ADD PUSH2 0xC77 SWAP1 PUSH2 0x42CA JUMP JUMPDEST PUSH1 0x40 MLOAD DUP1 SWAP2 SUB SWAP1 REVERT JUMPDEST CALLER PUSH20 0xFFFFFFFFFFFFFFFFFFFFFFFFFFFFFFFFFFFFFFFF AND DUP9 PUSH20 0xFFFFFFFFFFFFFFFFFFFFFFFFFFFFFFFFFFFFFFFF AND DUP9 PUSH32 0xFD005E0F9BA958F7C6B1A0FA8518FBAB37952F760666C5DA196F2C5591E88B7D DUP10 DUP10 PUSH1 0x40 MLOAD PUSH2 0xCE0 SWAP3 SWAP2 SWAP1 PUSH2 0x4322 JUMP JUMPDEST PUSH1 0x40 MLOAD DUP1 SWAP2 SUB SWAP1 LOG4 PUSH1 0x1 SWAP4 POP POP POP POP SWAP5 SWAP4 POP POP POP POP JUMP JUMPDEST PUSH0 DUP1 PUSH1 0xB PUSH0 DUP9 DUP2 MSTORE PUSH1 0x20 ADD SWAP1 DUP2 MSTORE PUSH1 0x20 ADD PUSH0 KECCAK256 SWAP1 POP DUP1 PUSH1 0x3 ADD PUSH1 0x1C SWAP1 SLOAD SWAP1 PUSH2 0x100 EXP SWAP1 DIV PUSH1 0xFF AND PUSH2 0xD5D JUMPI PUSH1 0x40 MLOAD PUSH32 0x8C379A000000000000000000000000000000000000000000000000000000000 DUP2 MSTORE PUSH1 0x4 ADD PUSH2 0xD54 SWAP1 PUSH2 0x438E JUMP JUMPDEST PUSH1 0x40 MLOAD DUP1 SWAP2 SUB SWAP1 REVERT JUMPDEST DUP1 PUSH1 0x3 ADD PUSH1 0x14 SWAP1 SLOAD SWAP1 PUSH2 0x100 EXP SWAP1 DIV PUSH8 0xFFFFFFFFFFFFFFFF AND DUP7 PUSH2 0xD81 SWAP2 SWAP1 PUSH2 0x43D9 JUMP JUMPDEST SWAP2 POP PUSH0 PUSH2 0x167 PUSH20 0xFFFFFFFFFFFFFFFFFFFFFFFFFFFFFFFFFFFFFFFF AND PUSH4 0x278E0B88 DUP4 PUSH1 0x3 ADD PUSH0 SWAP1 SLOAD SWAP1 PUSH2 0x100 EXP SWAP1 DIV PUSH20 0xFFFFFFFFFFFFFFFFFFFFFFFFFFFFFFFFFFFFFFFF AND DUP6 PUSH0 PUSH8 0xFFFFFFFFFFFFFFFF DUP2 GT ISZERO PUSH2 0xDE1 JUMPI PUSH2 0xDE0 PUSH2 0x3ED8 JUMP JUMPDEST JUMPDEST PUSH1 0x40 MLOAD SWAP1 DUP1 DUP3 MSTORE DUP1 PUSH1 0x20 MUL PUSH1 0x20 ADD DUP3 ADD PUSH1 0x40 MSTORE DUP1 ISZERO PUSH2 0xE14 JUMPI DUP2 PUSH1 0x20 ADD JUMPDEST PUSH1 0x60 DUP2 MSTORE PUSH1 0x20 ADD SWAP1 PUSH1 0x1 SWAP1 SUB SWAP1 DUP2 PUSH2 0xDFF JUMPI SWAP1 POP JUMPDEST POP PUSH1 0x40 MLOAD DUP5 PUSH4 0xFFFFFFFF AND PUSH1 0xE0 SHL DUP2 MSTORE PUSH1 0x4 ADD PUSH2 0xE33 SWAP4 SWAP3 SWAP2 SWAP1 PUSH2 0x4415 JUMP JUMPDEST PUSH0 PUSH1 0x40 MLOAD DUP1 DUP4 SUB DUP2 PUSH0 DUP8 GAS CALL ISZERO DUP1 ISZERO PUSH2 0xE4E JUMPI RETURNDATASIZE PUSH0 DUP1 RETURNDATACOPY RETURNDATASIZE PUSH0 REVERT JUMPDEST POP POP POP POP PUSH1 0x40 MLOAD RETURNDATASIZE PUSH0 DUP3 RETURNDATACOPY RETURNDATASIZE PUSH1 0x1F NOT PUSH1 0x1F DUP3 ADD AND DUP3 ADD DUP1 PUSH1 0x40 MSTORE POP DUP2 ADD SWAP1 PUSH2 0xE76 SWAP2 SWAP1 PUSH2 0x4214 JUMP JUMPDEST POP POP SWAP1 POP PUSH1 0x16 DUP2 PUSH1 0x7 SIGNEXTEND EQ PUSH2 0xEC0 JUMPI PUSH1 0x40 MLOAD PUSH32 0x8C379A000000000000000000000000000000000000000000000000000000000 DUP2 MSTORE PUSH1 0x4 ADD PUSH2 0xEB7 SWAP1 PUSH2 0x42CA JUMP JUMPDEST PUSH1 0x40 MLOAD DUP1 SWAP2 SUB SWAP1 REVERT JUMPDEST DUP6 CALLER PUSH20 0xFFFFFFFFFFFFFFFFFFFFFFFFFFFFFFFFFFFFFFFF AND DUP10 PUSH32 0x6153F55C528EDCEC957D2FA67D63CB136DEE382001A3487CCF80D636A17BAE84 DUP11 DUP8 DUP11 DUP11 PUSH1 0x40 MLOAD PUSH2 0xF0E SWAP5 SWAP4 SWAP3 SWAP2 SWAP1 PUSH2 0x4451 JUMP JUMPDEST PUSH1 0x40 MLOAD DUP1 SWAP2 SUB SWAP1 LOG4 POP POP SWAP6 SWAP5 POP POP POP POP POP JUMP JUMPDEST PUSH1 0xC PUSH1 0x20 MSTORE DUP2 PUSH0 MSTORE PUSH1 0x40 PUSH0 KECCAK256 PUSH1 0x20 MSTORE DUP1 PUSH0 MSTORE PUSH1 0x40 PUSH0 KECCAK256 PUSH0 SWAP2 POP SWAP2 POP SWAP1 SLOAD SWAP1 PUSH2 0x100 EXP SWAP1 DIV PUSH3 0xFFFFFF AND DUP2 JUMP JUMPDEST PUSH0 DUP1 PUSH0 DUP1 PUSH32 0x72F7DDC62C67E3943091F9C7B899298A6C6B0287758C513C5036EDA57075E6E3 SWAP4 POP PUSH2 0xF7F DUP9 DUP9 DUP9 PUSH2 0x2D3F JUMP JUMPDEST SWAP3 POP PUSH32 0x72F7DDC62C67E3943091F9C7B899298A6C6B0287758C513C5036EDA57075E6E3 DUP7 EQ SWAP2 POP DUP3 DUP6 EQ SWAP1 POP SWAP5 POP SWAP5 POP SWAP5 POP SWAP5 SWAP1 POP JUMP JUMPDEST PUSH1 0x8 PUSH0 SWAP1 SLOAD SWAP1 PUSH2 0x100 EXP SWAP1 DIV PUSH20 0xFFFFFFFFFFFFFFFFFFFFFFFFFFFFFFFFFFFFFFFF AND DUP2 JUMP JUMPDEST PUSH0 DUP1 PUSH0 PUSH1 0x6 PUSH0 SWAP1 SLOAD SWAP1 PUSH2 0x100 EXP SWAP1 DIV PUSH20 0xFFFFFFFFFFFFFFFFFFFFFFFFFFFFFFFFFFFFFFFF AND PUSH20 0xFFFFFFFFFFFFFFFFFFFFFFFFFFFFFFFFFFFFFFFF AND DUP10 PUSH20 0xFFFFFFFFFFFFFFFFFFFFFFFFFFFFFFFFFFFFFFFF AND SUB PUSH2 0x107E JUMPI PUSH32 0x9E30E0ACF846B25B3E72D06E58BDE205E6320ACD3F4B095D11ECE290A6885188 SWAP2 POP PUSH1 0x6 PUSH0 SWAP1 SLOAD SWAP1 PUSH2 0x100 EXP SWAP1 DIV PUSH20 0xFFFFFFFFFFFFFFFFFFFFFFFFFFFFFFFFFFFFFFFF AND SWAP1 POP PUSH2 0x1151 JUMP JUMPDEST PUSH1 0x7 PUSH0 SWAP1 SLOAD SWAP1 PUSH2 0x100 EXP SWAP1 DIV PUSH20 0xFFFFFFFFFFFFFFFFFFFFFFFFFFFFFFFFFFFFFFFF AND PUSH20 0xFFFFFFFFFFFFFFFFFFFFFFFFFFFFFFFFFFFFFFFF AND DUP10 PUSH20 0xFFFFFFFFFFFFFFFFFFFFFFFFFFFFFFFFFFFFFFFF AND SUB PUSH2 0x111E JUMPI PUSH32 0x120EB869162558440F242FF96357D8B58E4E92E3931E5FA2CD26B86718ABC0E2 SWAP2 POP PUSH1 0x7 PUSH0 SWAP1 SLOAD SWAP1 PUSH2 0x100 EXP SWAP1 DIV PUSH20 0xFFFFFFFFFFFFFFFFFFFFFFFFFFFFFFFFFFFFFFFF AND SWAP1 POP PUSH2 0x1150 JUMP JUMPDEST PUSH1 0x40 MLOAD PUSH32 0xBB55ABBB00000000000000000000000000000000000000000000000000000000 DUP2 MSTORE PUSH1 0x4 ADD PUSH1 0x40 MLOAD DUP1 SWAP2 SUB SWAP1 REVERT JUMPDEST JUMPDEST PUSH1 0x3 DUP6 DUP6 SWAP1 POP EQ PUSH2 0x118E JUMPI PUSH1 0x40 MLOAD PUSH32 0xAF454CA400000000000000000000000000000000000000000000000000000000 DUP2 MSTORE PUSH1 0x4 ADD PUSH1 0x40 MLOAD DUP1 SWAP2 SUB SWAP1 REVERT JUMPDEST PUSH0 JUMPDEST DUP6 DUP6 SWAP1 POP DUP2 LT ISZERO PUSH2 0x121B JUMPI PUSH1 0xD PUSH0 DUP8 DUP8 DUP5 DUP2 DUP2 LT PUSH2 0x11B1 JUMPI PUSH2 0x11B0 PUSH2 0x448F JUMP JUMPDEST JUMPDEST SWAP1 POP PUSH1 0x20 MUL ADD CALLDATALOAD DUP2 MSTORE PUSH1 0x20 ADD SWAP1 DUP2 MSTORE PUSH1 0x20 ADD PUSH0 KECCAK256 PUSH0 SWAP1 SLOAD SWAP1 PUSH2 0x100 EXP SWAP1 DIV PUSH1 0xFF AND PUSH2 0x1208 JUMPI PUSH1 0x40 MLOAD PUSH32 0x55B1FFE800000000000000000000000000000000000000000000000000000000 DUP2 MSTORE PUSH1 0x4 ADD PUSH1 0x40 MLOAD DUP1 SWAP2 SUB SWAP1 REVERT JUMPDEST DUP1 DUP1 PUSH2 0x1213 SWAP1 PUSH2 0x44C5 JUMP JUMPDEST SWAP2 POP POP PUSH2 0x1190 JUMP JUMPDEST POP PUSH0 PUSH2 0x167 PUSH20 0xFFFFFFFFFFFFFFFFFFFFFFFFFFFFFFFFFFFFFFFF AND PUSH4 0x278E0B88 DUP4 PUSH1 0x1 PUSH0 PUSH8 0xFFFFFFFFFFFFFFFF DUP2 GT ISZERO PUSH2 0x1258 JUMPI PUSH2 0x1257 PUSH2 0x3ED8 JUMP JUMPDEST JUMPDEST PUSH1 0x40 MLOAD SWAP1 DUP1 DUP3 MSTORE DUP1 PUSH1 0x20 MUL PUSH1 0x20 ADD DUP3 ADD PUSH1 0x40 MSTORE DUP1 ISZERO PUSH2 0x128B JUMPI DUP2 PUSH1 0x20 ADD JUMPDEST PUSH1 0x60 DUP2 MSTORE PUSH1 0x20 ADD SWAP1 PUSH1 0x1 SWAP1 SUB SWAP1 DUP2 PUSH2 0x1276 JUMPI SWAP1 POP JUMPDEST POP PUSH1 0x40 MLOAD DUP5 PUSH4 0xFFFFFFFF AND PUSH1 0xE0 SHL DUP2 MSTORE PUSH1 0x4 ADD PUSH2 0x12AA SWAP4 SWAP3 SWAP2 SWAP1 PUSH2 0x4083 JUMP JUMPDEST PUSH0 PUSH1 0x40 MLOAD DUP1 DUP4 SUB DUP2 PUSH0 DUP8 GAS CALL ISZERO DUP1 ISZERO PUSH2 0x12C5 JUMPI RETURNDATASIZE PUSH0 DUP1 RETURNDATACOPY RETURNDATASIZE PUSH0 REVERT JUMPDEST POP POP POP POP PUSH1 0x40 MLOAD RETURNDATASIZE PUSH0 DUP3 RETURNDATACOPY RETURNDATASIZE PUSH1 0x1F NOT PUSH1 0x1F DUP3 ADD AND DUP3 ADD DUP1 PUSH1 0x40 MSTORE POP DUP2 ADD SWAP1 PUSH2 0x12ED SWAP2 SWAP1 PUSH2 0x4214 JUMP JUMPDEST POP POP SWAP1 POP PUSH1 0x16 DUP2 PUSH1 0x7 SIGNEXTEND EQ PUSH2 0x1337 JUMPI PUSH1 0x40 MLOAD PUSH32 0x8C379A000000000000000000000000000000000000000000000000000000000 DUP2 MSTORE PUSH1 0x4 ADD PUSH2 0x132E SWAP1 PUSH2 0x42CA JUMP JUMPDEST PUSH1 0x40 MLOAD DUP1 SWAP2 SUB SWAP1 REVERT JUMPDEST CALLER PUSH20 0xFFFFFFFFFFFFFFFFFFFFFFFFFFFFFFFFFFFFFFFF AND DUP11 PUSH20 0xFFFFFFFFFFFFFFFFFFFFFFFFFFFFFFFFFFFFFFFF AND DUP11 PUSH32 0xFD005E0F9BA958F7C6B1A0FA8518FBAB37952F760666C5DA196F2C5591E88B7D DUP12 DUP12 PUSH1 0x40 MLOAD PUSH2 0x1397 SWAP3 SWAP2 SWAP1 PUSH2 0x4322 JUMP JUMPDEST PUSH1 0x40 MLOAD DUP1 SWAP2 SUB SWAP1 LOG4 PUSH1 0x1 SWAP4 POP POP POP POP SWAP7 SWAP6 POP POP POP POP POP POP JUMP JUMPDEST PUSH1 0x9 PUSH0 SWAP1 SLOAD SWAP1 PUSH2 0x100 EXP SWAP1 DIV PUSH20 0xFFFFFFFFFFFFFFFFFFFFFFFFFFFFFFFFFFFFFFFF AND PUSH20 0xFFFFFFFFFFFFFFFFFFFFFFFFFFFFFFFFFFFFFFFF AND CALLER PUSH20 0xFFFFFFFFFFFFFFFFFFFFFFFFFFFFFFFFFFFFFFFF AND EQ PUSH2 0x143F JUMPI PUSH1 0x40 MLOAD PUSH32 0x8C379A000000000000000000000000000000000000000000000000000000000 DUP2 MSTORE PUSH1 0x4 ADD PUSH2 0x1436 SWAP1 PUSH2 0x3EBA JUMP JUMPDEST PUSH1 0x40 MLOAD DUP1 SWAP2 SUB SWAP1 REVERT JUMPDEST PUSH0 PUSH20 0xFFFFFFFFFFFFFFFFFFFFFFFFFFFFFFFFFFFFFFFF AND DUP10 PUSH20 0xFFFFFFFFFFFFFFFFFFFFFFFFFFFFFFFFFFFFFFFF AND EQ ISZERO DUP1 ISZERO PUSH2 0x14A7 JUMPI POP PUSH0 PUSH20 0xFFFFFFFFFFFFFFFFFFFFFFFFFFFFFFFFFFFFFFFF AND DUP9 PUSH20 0xFFFFFFFFFFFFFFFFFFFFFFFFFFFFFFFFFFFFFFFF AND EQ ISZERO JUMPDEST DUP1 ISZERO PUSH2 0x14DF JUMPI POP PUSH0 PUSH20 0xFFFFFFFFFFFFFFFFFFFFFFFFFFFFFFFFFFFFFFFF AND DUP8 PUSH20 0xFFFFFFFFFFFFFFFFFFFFFFFFFFFFFFFFFFFFFFFF AND EQ ISZERO JUMPDEST DUP1 ISZERO PUSH2 0x1517 JUMPI POP PUSH0 PUSH20 0xFFFFFFFFFFFFFFFFFFFFFFFFFFFFFFFFFFFFFFFF AND DUP7 PUSH20 0xFFFFFFFFFFFFFFFFFFFFFFFFFFFFFFFFFFFFFFFF AND EQ ISZERO JUMPDEST DUP1 ISZERO PUSH2 0x154F JUMPI POP PUSH0 PUSH20 0xFFFFFFFFFFFFFFFFFFFFFFFFFFFFFFFFFFFFFFFF AND DUP6 PUSH20 0xFFFFFFFFFFFFFFFFFFFFFFFFFFFFFFFFFFFFFFFF AND EQ ISZERO JUMPDEST DUP1 ISZERO PUSH2 0x1587 JUMPI POP PUSH0 PUSH20 0xFFFFFFFFFFFFFFFFFFFFFFFFFFFFFFFFFFFFFFFF AND DUP5 PUSH20 0xFFFFFFFFFFFFFFFFFFFFFFFFFFFFFFFFFFFFFFFF AND EQ ISZERO JUMPDEST DUP1 ISZERO PUSH2 0x15BF JUMPI POP PUSH0 PUSH20 0xFFFFFFFFFFFFFFFFFFFFFFFFFFFFFFFFFFFFFFFF AND DUP4 PUSH20 0xFFFFFFFFFFFFFFFFFFFFFFFFFFFFFFFFFFFFFFFF AND EQ ISZERO JUMPDEST DUP1 ISZERO PUSH2 0x15F7 JUMPI POP PUSH0 PUSH20 0xFFFFFFFFFFFFFFFFFFFFFFFFFFFFFFFFFFFFFFFF AND DUP3 PUSH20 0xFFFFFFFFFFFFFFFFFFFFFFFFFFFFFFFFFFFFFFFF AND EQ ISZERO JUMPDEST DUP1 ISZERO PUSH2 0x162F JUMPI POP PUSH0 PUSH20 0xFFFFFFFFFFFFFFFFFFFFFFFFFFFFFFFFFFFFFFFF AND DUP2 PUSH20 0xFFFFFFFFFFFFFFFFFFFFFFFFFFFFFFFFFFFFFFFF AND EQ ISZERO JUMPDEST PUSH2 0x166E JUMPI PUSH1 0x40 MLOAD PUSH32 0x8C379A000000000000000000000000000000000000000000000000000000000 DUP2 MSTORE PUSH1 0x4 ADD PUSH2 0x1665 SWAP1 PUSH2 0x4556 JUMP JUMPDEST PUSH1 0x40 MLOAD DUP1 SWAP2 SUB SWAP1 REVERT JUMPDEST DUP9 PUSH0 DUP1 PUSH2 0x100 EXP DUP2 SLOAD DUP2 PUSH20 0xFFFFFFFFFFFFFFFFFFFFFFFFFFFFFFFFFFFFFFFF MUL NOT AND SWAP1 DUP4 PUSH20 0xFFFFFFFFFFFFFFFFFFFFFFFFFFFFFFFFFFFFFFFF AND MUL OR SWAP1 SSTORE POP DUP8 PUSH1 0x1 PUSH0 PUSH2 0x100 EXP DUP2 SLOAD DUP2 PUSH20 0xFFFFFFFFFFFFFFFFFFFFFFFFFFFFFFFFFFFFFFFF MUL NOT AND SWAP1 DUP4 PUSH20 0xFFFFFFFFFFFFFFFFFFFFFFFFFFFFFFFFFFFFFFFF AND MUL OR SWAP1 SSTORE POP DUP7 PUSH1 0x2 PUSH0 PUSH2 0x100 EXP DUP2 SLOAD DUP2 PUSH20 0xFFFFFFFFFFFFFFFFFFFFFFFFFFFFFFFFFFFFFFFF MUL NOT AND SWAP1 DUP4 PUSH20 0xFFFFFFFFFFFFFFFFFFFFFFFFFFFFFFFFFFFFFFFF AND MUL OR SWAP1 SSTORE POP DUP6 PUSH1 0x3 PUSH0 PUSH2 0x100 EXP DUP2 SLOAD DUP2 PUSH20 0xFFFFFFFFFFFFFFFFFFFFFFFFFFFFFFFFFFFFFFFF MUL NOT AND SWAP1 DUP4 PUSH20 0xFFFFFFFFFFFFFFFFFFFFFFFFFFFFFFFFFFFFFFFF AND MUL OR SWAP1 SSTORE POP DUP5 PUSH1 0x4 PUSH0 PUSH2 0x100 EXP DUP2 SLOAD DUP2 PUSH20 0xFFFFFFFFFFFFFFFFFFFFFFFFFFFFFFFFFFFFFFFF MUL NOT AND SWAP1 DUP4 PUSH20 0xFFFFFFFFFFFFFFFFFFFFFFFFFFFFFFFFFFFFFFFF AND MUL OR SWAP1 SSTORE POP DUP4 PUSH1 0x5 PUSH0 PUSH2 0x100 EXP DUP2 SLOAD DUP2 PUSH20 0xFFFFFFFFFFFFFFFFFFFFFFFFFFFFFFFFFFFFFFFF MUL NOT AND SWAP1 DUP4 PUSH20 0xFFFFFFFFFFFFFFFFFFFFFFFFFFFFFFFFFFFFFFFF AND MUL OR SWAP1 SSTORE POP DUP3 PUSH1 0x6 PUSH0 PUSH2 0x100 EXP DUP2 SLOAD DUP2 PUSH20 0xFFFFFFFFFFFFFFFFFFFFFFFFFFFFFFFFFFFFFFFF MUL NOT AND SWAP1 DUP4 PUSH20 0xFFFFFFFFFFFFFFFFFFFFFFFFFFFFFFFFFFFFFFFF AND MUL OR SWAP1 SSTORE POP DUP2 PUSH1 0x7 PUSH0 PUSH2 0x100 EXP DUP2 SLOAD DUP2 PUSH20 0xFFFFFFFFFFFFFFFFFFFFFFFFFFFFFFFFFFFFFFFF MUL NOT AND SWAP1 DUP4 PUSH20 0xFFFFFFFFFFFFFFFFFFFFFFFFFFFFFFFFFFFFFFFF AND MUL OR SWAP1 SSTORE POP DUP1 PUSH1 0x8 PUSH0 PUSH2 0x100 EXP DUP2 SLOAD DUP2 PUSH20 0xFFFFFFFFFFFFFFFFFFFFFFFFFFFFFFFFFFFFFFFF MUL NOT AND SWAP1 DUP4 PUSH20 0xFFFFFFFFFFFFFFFFFFFFFFFFFFFFFFFFFFFFFFFF AND MUL OR SWAP1 SSTORE POP DUP7 PUSH20 0xFFFFFFFFFFFFFFFFFFFFFFFFFFFFFFFFFFFFFFFF AND DUP9 PUSH20 0xFFFFFFFFFFFFFFFFFFFFFFFFFFFFFFFFFFFFFFFF AND DUP11 PUSH20 0xFFFFFFFFFFFFFFFFFFFFFFFFFFFFFFFFFFFFFFFF AND PUSH32 0x8F38F72D705D71B37B305AAE9270050F10C5E566EF6C0ABA8C3FB04A84F35D5 DUP10 DUP10 DUP10 DUP10 DUP10 DUP10 PUSH1 0x40 MLOAD PUSH2 0x192B SWAP7 SWAP6 SWAP5 SWAP4 SWAP3 SWAP2 SWAP1 PUSH2 0x4574 JUMP JUMPDEST PUSH1 0x40 MLOAD DUP1 SWAP2 SUB SWAP1 LOG4 POP POP POP POP POP POP POP POP POP JUMP JUMPDEST PUSH32 0xC6874C1610BEAE6DAEC7914C79000F79F8F3FBAC13F2862FDE2BDDF71EEA74EF DUP2 JUMP JUMPDEST PUSH0 PUSH2 0x196F DUP7 DUP7 DUP7 DUP7 PUSH2 0x2CE5 JUMP JUMPDEST DUP3 PUSH0 ADD CALLDATALOAD EQ PUSH2 0x19B3 JUMPI PUSH1 0x40 MLOAD PUSH32 0x8C379A000000000000000000000000000000000000000000000000000000000 DUP2 MSTORE PUSH1 0x4 ADD PUSH2 0x19AA SWAP1 PUSH2 0x461D JUMP JUMPDEST PUSH1 0x40 MLOAD DUP1 SWAP2 SUB SWAP1 REVERT JUMPDEST PUSH1 0xD PUSH0 DUP4 PUSH1 0x20 ADD CALLDATALOAD DUP2 MSTORE PUSH1 0x20 ADD SWAP1 DUP2 MSTORE PUSH1 0x20 ADD PUSH0 KECCAK256 PUSH0 SWAP1 SLOAD SWAP1 PUSH2 0x100 EXP SWAP1 DIV PUSH1 0xFF AND ISZERO PUSH2 0x1A23 JUMPI CALLER PUSH20 0xFFFFFFFFFFFFFFFFFFFFFFFFFFFFFFFFFFFFFFFF AND DUP3 PUSH1 0x20 ADD CALLDATALOAD PUSH32 0x3CD6D293D93FFFB5C4505ED423476E083CFE17C7E58820E30BE3EFEA7283221A PUSH1 0x40 MLOAD PUSH1 0x40 MLOAD DUP1 SWAP2 SUB SWAP1 LOG3 JUMPDEST PUSH0 PUSH1 0xC PUSH0 DUP6 DUP2 MSTORE PUSH1 0x20 ADD SWAP1 DUP2 MSTORE PUSH1 0x20 ADD PUSH0 KECCAK256 PUSH0 DUP9 PUSH20 0xFFFFFFFFFFFFFFFFFFFFFFFFFFFFFFFFFFFFFFFF AND PUSH20 0xFFFFFFFFFFFFFFFFFFFFFFFFFFFFFFFFFFFFFFFF AND DUP2 MSTORE PUSH1 0x20 ADD SWAP1 DUP2 MSTORE PUSH1 0x20 ADD PUSH0 KECCAK256 PUSH0 SWAP1 SLOAD SWAP1 PUSH2 0x100 EXP SWAP1 DIV PUSH3 0xFFFFFF AND SWAP1 POP PUSH0 DUP2 PUSH3 0xFFFFFF AND EQ DUP1 PUSH2 0x1AF2 JUMPI POP PUSH0 PUSH1 0xC PUSH0 DUP7 DUP2 MSTORE PUSH1 0x20 ADD SWAP1 DUP2 MSTORE PUSH1 0x20 ADD PUSH0 KECCAK256 PUSH0 DUP9 PUSH20 0xFFFFFFFFFFFFFFFFFFFFFFFFFFFFFFFFFFFFFFFF AND PUSH20 0xFFFFFFFFFFFFFFFFFFFFFFFFFFFFFFFFFFFFFFFF AND DUP2 MSTORE PUSH1 0x20 ADD SWAP1 DUP2 MSTORE PUSH1 0x20 ADD PUSH0 KECCAK256 PUSH0 SWAP1 SLOAD SWAP1 PUSH2 0x100 EXP SWAP1 DIV PUSH3 0xFFFFFF AND PUSH3 0xFFFFFF AND EQ JUMPDEST DUP1 PUSH2 0x1B5B JUMPI POP PUSH0 PUSH1 0xC PUSH0 DUP7 DUP2 MSTORE PUSH1 0x20 ADD SWAP1 DUP2 MSTORE PUSH1 0x20 ADD PUSH0 KECCAK256 PUSH0 DUP8 PUSH20 0xFFFFFFFFFFFFFFFFFFFFFFFFFFFFFFFFFFFFFFFF AND PUSH20 0xFFFFFFFFFFFFFFFFFFFFFFFFFFFFFFFFFFFFFFFF AND DUP2 MSTORE PUSH1 0x20 ADD SWAP1 DUP2 MSTORE PUSH1 0x20 ADD PUSH0 KECCAK256 PUSH0 SWAP1 SLOAD SWAP1 PUSH2 0x100 EXP SWAP1 DIV PUSH3 0xFFFFFF AND PUSH3 0xFFFFFF AND EQ JUMPDEST ISZERO PUSH2 0x1C2F JUMPI PUSH1 0xD PUSH0 DUP5 PUSH1 0x20 ADD CALLDATALOAD DUP2 MSTORE PUSH1 0x20 ADD SWAP1 DUP2 MSTORE PUSH1 0x20 ADD PUSH0 KECCAK256 PUSH0 SWAP1 SLOAD SWAP1 PUSH2 0x100 EXP SWAP1 DIV PUSH1 0xFF AND PUSH2 0x1C26 JUMPI PUSH1 0x1 PUSH1 0xD PUSH0 DUP6 PUSH1 0x20 ADD CALLDATALOAD DUP2 MSTORE PUSH1 0x20 ADD SWAP1 DUP2 MSTORE PUSH1 0x20 ADD PUSH0 KECCAK256 PUSH0 PUSH2 0x100 EXP DUP2 SLOAD DUP2 PUSH1 0xFF MUL NOT AND SWAP1 DUP4 ISZERO ISZERO MUL OR SWAP1 SSTORE POP DUP3 PUSH0 ADD CALLDATALOAD PUSH1 0xE PUSH0 DUP6 PUSH1 0x20 ADD CALLDATALOAD DUP2 MSTORE PUSH1 0x20 ADD SWAP1 DUP2 MSTORE PUSH1 0x20 ADD PUSH0 KECCAK256 DUP2 SWAP1 SSTORE POP DUP4 DUP4 PUSH1 0x20 ADD CALLDATALOAD PUSH32 0x573EA6C6D729CB63F2227625589B742119E9A3E33C15DB35DE47409A861F00E3 DUP10 DUP10 DUP10 PUSH0 DUP10 DUP1 PUSH1 0x80 ADD SWAP1 PUSH2 0x1C0B SWAP2 SWAP1 PUSH2 0x4647 JUMP JUMPDEST PUSH1 0x40 MLOAD PUSH2 0x1C1D SWAP7 SWAP6 SWAP5 SWAP4 SWAP3 SWAP2 SWAP1 PUSH2 0x46A9 JUMP JUMPDEST PUSH1 0x40 MLOAD DUP1 SWAP2 SUB SWAP1 LOG3 JUMPDEST PUSH0 SWAP2 POP POP PUSH2 0x1DC4 JUMP JUMPDEST PUSH1 0xC PUSH0 DUP6 DUP2 MSTORE PUSH1 0x20 ADD SWAP1 DUP2 MSTORE PUSH1 0x20 ADD PUSH0 KECCAK256 PUSH0 DUP7 PUSH20 0xFFFFFFFFFFFFFFFFFFFFFFFFFFFFFFFFFFFFFFFF AND PUSH20 0xFFFFFFFFFFFFFFFFFFFFFFFFFFFFFFFFFFFFFFFF AND DUP2 MSTORE PUSH1 0x20 ADD SWAP1 DUP2 MSTORE PUSH1 0x20 ADD PUSH0 KECCAK256 PUSH0 SWAP1 SLOAD SWAP1 PUSH2 0x100 EXP SWAP1 DIV PUSH3 0xFFFFFF AND PUSH3 0xFFFFFF AND PUSH2 0x1CF4 DUP3 PUSH1 0xC PUSH0 DUP9 DUP2 MSTORE PUSH1 0x20 ADD SWAP1 DUP2 MSTORE PUSH1 0x20 ADD PUSH0 KECCAK256 PUSH0 DUP11 PUSH20 0xFFFFFFFFFFFFFFFFFFFFFFFFFFFFFFFFFFFFFFFF AND PUSH20 0xFFFFFFFFFFFFFFFFFFFFFFFFFFFFFFFFFFFFFFFF AND DUP2 MSTORE PUSH1 0x20 ADD SWAP1 DUP2 MSTORE PUSH1 0x20 ADD PUSH0 KECCAK256 PUSH0 SWAP1 SLOAD SWAP1 PUSH2 0x100 EXP SWAP1 DIV PUSH3 0xFFFFFF AND DUP8 PUSH2 0x2DDB JUMP JUMPDEST PUSH3 0xFFFFFF AND EQ SWAP2 POP PUSH1 0xD PUSH0 DUP5 PUSH1 0x20 ADD CALLDATALOAD DUP2 MSTORE PUSH1 0x20 ADD SWAP1 DUP2 MSTORE PUSH1 0x20 ADD PUSH0 KECCAK256 PUSH0 SWAP1 SLOAD SWAP1 PUSH2 0x100 EXP SWAP1 DIV PUSH1 0xFF AND PUSH2 0x1DC2 JUMPI PUSH1 0x1 PUSH1 0xD PUSH0 DUP6 PUSH1 0x20 ADD CALLDATALOAD DUP2 MSTORE PUSH1 0x20 ADD SWAP1 DUP2 MSTORE PUSH1 0x20 ADD PUSH0 KECCAK256 PUSH0 PUSH2 0x100 EXP DUP2 SLOAD DUP2 PUSH1 0xFF MUL NOT AND SWAP1 DUP4 ISZERO ISZERO MUL OR SWAP1 SSTORE POP DUP3 PUSH0 ADD CALLDATALOAD PUSH1 0xE PUSH0 DUP6 PUSH1 0x20 ADD CALLDATALOAD DUP2 MSTORE PUSH1 0x20 ADD SWAP1 DUP2 MSTORE PUSH1 0x20 ADD PUSH0 KECCAK256 DUP2 SWAP1 SSTORE POP DUP4 DUP4 PUSH1 0x20 ADD CALLDATALOAD PUSH32 0x573EA6C6D729CB63F2227625589B742119E9A3E33C15DB35DE47409A861F00E3 DUP10 DUP10 DUP10 DUP8 DUP10 DUP1 PUSH1 0x80 ADD SWAP1 PUSH2 0x1DA7 SWAP2 SWAP1 PUSH2 0x4647 JUMP JUMPDEST PUSH1 0x40 MLOAD PUSH2 0x1DB9 SWAP7 SWAP6 SWAP5 SWAP4 SWAP3 SWAP2 SWAP1 PUSH2 0x46A9 JUMP JUMPDEST PUSH1 0x40 MLOAD DUP1 SWAP2 SUB SWAP1 LOG3 JUMPDEST POP JUMPDEST SWAP6 SWAP5 POP POP POP POP POP JUMP JUMPDEST PUSH32 0x5C121EE8B573E4E6586BCAFEC852BD980B83EA2AA4A37F9FCCB6FA546927C42B DUP2 JUMP JUMPDEST PUSH32 0x72F7DDC62C67E3943091F9C7B899298A6C6B0287758C513C5036EDA57075E6E3 DUP2 JUMP JUMPDEST PUSH1 0x9 PUSH0 SWAP1 SLOAD SWAP1 PUSH2 0x100 EXP SWAP1 DIV PUSH20 0xFFFFFFFFFFFFFFFFFFFFFFFFFFFFFFFFFFFFFFFF AND PUSH20 0xFFFFFFFFFFFFFFFFFFFFFFFFFFFFFFFFFFFFFFFF AND CALLER PUSH20 0xFFFFFFFFFFFFFFFFFFFFFFFFFFFFFFFFFFFFFFFF AND EQ PUSH2 0x1EA4 JUMPI PUSH1 0x40 MLOAD PUSH32 0x8C379A000000000000000000000000000000000000000000000000000000000 DUP2 MSTORE PUSH1 0x4 ADD PUSH2 0x1E9B SWAP1 PUSH2 0x3EBA JUMP JUMPDEST PUSH1 0x40 MLOAD DUP1 SWAP2 SUB SWAP1 REVERT JUMPDEST DUP1 PUSH1 0xC PUSH0 DUP6 DUP2 MSTORE PUSH1 0x20 ADD SWAP1 DUP2 MSTORE PUSH1 0x20 ADD PUSH0 KECCAK256 PUSH0 DUP5 PUSH20 0xFFFFFFFFFFFFFFFFFFFFFFFFFFFFFFFFFFFFFFFF AND PUSH20 0xFFFFFFFFFFFFFFFFFFFFFFFFFFFFFFFFFFFFFFFF AND DUP2 MSTORE PUSH1 0x20 ADD SWAP1 DUP2 MSTORE PUSH1 0x20 ADD PUSH0 KECCAK256 PUSH0 PUSH2 0x100 EXP DUP2 SLOAD DUP2 PUSH3 0xFFFFFF MUL NOT AND SWAP1 DUP4 PUSH3 0xFFFFFF AND MUL OR SWAP1 SSTORE POP POP POP POP JUMP JUMPDEST PUSH1 0x9 PUSH0 SWAP1 SLOAD SWAP1 PUSH2 0x100 EXP SWAP1 DIV PUSH20 0xFFFFFFFFFFFFFFFFFFFFFFFFFFFFFFFFFFFFFFFF AND DUP2 JUMP JUMPDEST PUSH1 0x6 PUSH0 SWAP1 SLOAD SWAP1 PUSH2 0x100 EXP SWAP1 DIV PUSH20 0xFFFFFFFFFFFFFFFFFFFFFFFFFFFFFFFFFFFFFFFF AND DUP2 JUMP JUMPDEST PUSH0 PUSH2 0x1F67 DUP5 DUP5 DUP5 PUSH2 0x2D3F JUMP JUMPDEST SWAP1 POP SWAP4 SWAP3 POP POP POP JUMP JUMPDEST PUSH1 0x2 PUSH0 SWAP1 SLOAD SWAP1 PUSH2 0x100 EXP SWAP1 DIV PUSH20 0xFFFFFFFFFFFFFFFFFFFFFFFFFFFFFFFFFFFFFFFF AND DUP2 JUMP JUMPDEST PUSH1 0x5 PUSH0 SWAP1 SLOAD SWAP1 PUSH2 0x100 EXP SWAP1 DIV PUSH20 0xFFFFFFFFFFFFFFFFFFFFFFFFFFFFFFFFFFFFFFFF AND DUP2 JUMP JUMPDEST PUSH1 0xD PUSH1 0x20 MSTORE DUP1 PUSH0 MSTORE PUSH1 0x40 PUSH0 KECCAK256 PUSH0 SWAP2 POP SLOAD SWAP1 PUSH2 0x100 EXP SWAP1 DIV PUSH1 0xFF AND DUP2 JUMP JUMPDEST PUSH1 0xE PUSH1 0x20 MSTORE DUP1 PUSH0 MSTORE PUSH1 0x40 PUSH0 KECCAK256 PUSH0 SWAP2 POP SWAP1 POP SLOAD DUP2 JUMP JUMPDEST PUSH1 0x7 PUSH0 SWAP1 SLOAD SWAP1 PUSH2 0x100 EXP SWAP1 DIV PUSH20 0xFFFFFFFFFFFFFFFFFFFFFFFFFFFFFFFFFFFFFFFF AND DUP2 JUMP JUMPDEST PUSH0 PUSH1 0xD PUSH0 DUP4 DUP2 MSTORE PUSH1 0x20 ADD SWAP1 DUP2 MSTORE PUSH1 0x20 ADD PUSH0 KECCAK256 PUSH0 SWAP1 SLOAD SWAP1 PUSH2 0x100 EXP SWAP1 DIV PUSH1 0xFF AND SWAP1 POP SWAP2 SWAP1 POP JUMP JUMPDEST PUSH32 0x9E30E0ACF846B25B3E72D06E58BDE205E6320ACD3F4B095D11ECE290A6885188 DUP2 JUMP JUMPDEST PUSH0 DUP1 PUSH32 0xBBFA335032189CB97BE17F01FA1CD9C18587BE58CB71231405D2EA8F0E38FC42 DUP5 PUSH32 0x72F7DDC62C67E3943091F9C7B899298A6C6B0287758C513C5036EDA57075E6E3 DUP1 DUP8 EQ PUSH1 0x40 MLOAD PUSH2 0x20B2 SWAP4 SWAP3 SWAP2 SWAP1 PUSH2 0x4703 JUMP JUMPDEST PUSH1 0x40 MLOAD DUP1 SWAP2 SUB SWAP1 LOG1 PUSH32 0x72F7DDC62C67E3943091F9C7B899298A6C6B0287758C513C5036EDA57075E6E3 DUP5 EQ PUSH2 0x211C JUMPI PUSH1 0x40 MLOAD PUSH32 0x8C379A000000000000000000000000000000000000000000000000000000000 DUP2 MSTORE PUSH1 0x4 ADD PUSH2 0x2113 SWAP1 PUSH2 0x4782 JUMP JUMPDEST PUSH1 0x40 MLOAD DUP1 SWAP2 SUB SWAP1 REVERT JUMPDEST PUSH0 PUSH2 0x2128 DUP8 DUP8 DUP8 PUSH2 0x2D3F JUMP JUMPDEST SWAP1 POP PUSH32 0xBBFA335032189CB97BE17F01FA1CD9C18587BE58CB71231405D2EA8F0E38FC42 DUP5 PUSH0 ADD CALLDATALOAD DUP3 DUP4 DUP8 PUSH0 ADD CALLDATALOAD EQ PUSH1 0x40 MLOAD PUSH2 0x2165 SWAP4 SWAP3 SWAP2 SWAP1 PUSH2 0x4703 JUMP JUMPDEST PUSH1 0x40 MLOAD DUP1 SWAP2 SUB SWAP1 LOG1 DUP1 DUP5 PUSH0 ADD CALLDATALOAD EQ PUSH2 0x21B2 JUMPI PUSH1 0x40 MLOAD PUSH32 0x8C379A000000000000000000000000000000000000000000000000000000000 DUP2 MSTORE PUSH1 0x4 ADD PUSH2 0x21A9 SWAP1 PUSH2 0x461D JUMP JUMPDEST PUSH1 0x40 MLOAD DUP1 SWAP2 SUB SWAP1 REVERT JUMPDEST PUSH1 0xD PUSH0 DUP6 PUSH1 0x20 ADD CALLDATALOAD DUP2 MSTORE PUSH1 0x20 ADD SWAP1 DUP2 MSTORE PUSH1 0x20 ADD PUSH0 KECCAK256 PUSH0 SWAP1 SLOAD SWAP1 PUSH2 0x100 EXP SWAP1 DIV PUSH1 0xFF AND ISZERO PUSH2 0x22DD JUMPI CALLER PUSH20 0xFFFFFFFFFFFFFFFFFFFFFFFFFFFFFFFFFFFFFFFF AND DUP5 PUSH1 0x20 ADD CALLDATALOAD PUSH32 0x3CD6D293D93FFFB5C4505ED423476E083CFE17C7E58820E30BE3EFEA7283221A PUSH1 0x40 MLOAD PUSH1 0x40 MLOAD DUP1 SWAP2 SUB SWAP1 LOG3 PUSH0 PUSH1 0xF PUSH0 DUP7 PUSH1 0x20 ADD CALLDATALOAD DUP2 MSTORE PUSH1 0x20 ADD SWAP1 DUP2 MSTORE PUSH1 0x20 ADD PUSH0 KECCAK256 PUSH1 0x40 MLOAD DUP1 PUSH1 0x40 ADD PUSH1 0x40 MSTORE SWAP1 DUP2 PUSH0 DUP3 ADD PUSH0 SWAP1 SLOAD SWAP1 PUSH2 0x100 EXP SWAP1 DIV PUSH20 0xFFFFFFFFFFFFFFFFFFFFFFFFFFFFFFFFFFFFFFFF AND PUSH20 0xFFFFFFFFFFFFFFFFFFFFFFFFFFFFFFFFFFFFFFFF AND PUSH20 0xFFFFFFFFFFFFFFFFFFFFFFFFFFFFFFFFFFFFFFFF AND DUP2 MSTORE PUSH1 0x20 ADD PUSH0 DUP3 ADD PUSH1 0x14 SWAP1 SLOAD SWAP1 PUSH2 0x100 EXP SWAP1 DIV PUSH8 0xFFFFFFFFFFFFFFFF AND PUSH8 0xFFFFFFFFFFFFFFFF AND PUSH8 0xFFFFFFFFFFFFFFFF AND DUP2 MSTORE POP POP SWAP1 POP DUP1 PUSH0 ADD MLOAD DUP2 PUSH1 0x20 ADD MLOAD SWAP4 POP SWAP4 POP POP POP PUSH2 0x2582 JUMP JUMPDEST PUSH2 0x22E7 DUP8 DUP8 PUSH2 0x2E57 JUMP JUMPDEST DUP1 SWAP4 POP DUP2 SWAP5 POP POP POP PUSH0 PUSH2 0x167 PUSH20 0xFFFFFFFFFFFFFFFFFFFFFFFFFFFFFFFFFFFFFFFF AND PUSH4 0x278E0B88 DUP6 DUP6 PUSH0 PUSH8 0xFFFFFFFFFFFFFFFF DUP2 GT ISZERO PUSH2 0x232A JUMPI PUSH2 0x2329 PUSH2 0x3ED8 JUMP JUMPDEST JUMPDEST PUSH1 0x40 MLOAD SWAP1 DUP1 DUP3 MSTORE DUP1 PUSH1 0x20 MUL PUSH1 0x20 ADD DUP3 ADD PUSH1 0x40 MSTORE DUP1 ISZERO PUSH2 0x235D JUMPI DUP2 PUSH1 0x20 ADD JUMPDEST PUSH1 0x60 DUP2 MSTORE PUSH1 0x20 ADD SWAP1 PUSH1 0x1 SWAP1 SUB SWAP1 DUP2 PUSH2 0x2348 JUMPI SWAP1 POP JUMPDEST POP PUSH1 0x40 MLOAD DUP5 PUSH4 0xFFFFFFFF AND PUSH1 0xE0 SHL DUP2 MSTORE PUSH1 0x4 ADD PUSH2 0x237C SWAP4 SWAP3 SWAP2 SWAP1 PUSH2 0x4415 JUMP JUMPDEST PUSH0 PUSH1 0x40 MLOAD DUP1 DUP4 SUB DUP2 PUSH0 DUP8 GAS CALL ISZERO DUP1 ISZERO PUSH2 0x2397 JUMPI RETURNDATASIZE PUSH0 DUP1 RETURNDATACOPY RETURNDATASIZE PUSH0 REVERT JUMPDEST POP POP POP POP PUSH1 0x40 MLOAD RETURNDATASIZE PUSH0 DUP3 RETURNDATACOPY RETURNDATASIZE PUSH1 0x1F NOT PUSH1 0x1F DUP3 ADD AND DUP3 ADD DUP1 PUSH1 0x40 MSTORE POP DUP2 ADD SWAP1 PUSH2 0x23BF SWAP2 SWAP1 PUSH2 0x4214 JUMP JUMPDEST POP POP SWAP1 POP PUSH1 0x16 DUP2 PUSH1 0x7 SIGNEXTEND EQ PUSH2 0x2409 JUMPI PUSH1 0x40 MLOAD PUSH32 0x8C379A000000000000000000000000000000000000000000000000000000000 DUP2 MSTORE PUSH1 0x4 ADD PUSH2 0x2400 SWAP1 PUSH2 0x42CA JUMP JUMPDEST PUSH1 0x40 MLOAD DUP1 SWAP2 SUB SWAP1 REVERT JUMPDEST PUSH1 0x1 PUSH1 0xD PUSH0 DUP8 PUSH1 0x20 ADD CALLDATALOAD DUP2 MSTORE PUSH1 0x20 ADD SWAP1 DUP2 MSTORE PUSH1 0x20 ADD PUSH0 KECCAK256 PUSH0 PUSH2 0x100 EXP DUP2 SLOAD DUP2 PUSH1 0xFF MUL NOT AND SWAP1 DUP4 ISZERO ISZERO MUL OR SWAP1 SSTORE POP DUP5 PUSH0 ADD CALLDATALOAD PUSH1 0xE PUSH0 DUP8 PUSH1 0x20 ADD CALLDATALOAD DUP2 MSTORE PUSH1 0x20 ADD SWAP1 DUP2 MSTORE PUSH1 0x20 ADD PUSH0 KECCAK256 DUP2 SWAP1 SSTORE POP PUSH1 0x40 MLOAD DUP1 PUSH1 0x40 ADD PUSH1 0x40 MSTORE DUP1 DUP6 PUSH20 0xFFFFFFFFFFFFFFFFFFFFFFFFFFFFFFFFFFFFFFFF AND DUP2 MSTORE PUSH1 0x20 ADD DUP5 PUSH8 0xFFFFFFFFFFFFFFFF AND DUP2 MSTORE POP PUSH1 0xF PUSH0 DUP8 PUSH1 0x20 ADD CALLDATALOAD DUP2 MSTORE PUSH1 0x20 ADD SWAP1 DUP2 MSTORE PUSH1 0x20 ADD PUSH0 KECCAK256 PUSH0 DUP3 ADD MLOAD DUP2 PUSH0 ADD PUSH0 PUSH2 0x100 EXP DUP2 SLOAD DUP2 PUSH20 0xFFFFFFFFFFFFFFFFFFFFFFFFFFFFFFFFFFFFFFFF MUL NOT AND SWAP1 DUP4 PUSH20 0xFFFFFFFFFFFFFFFFFFFFFFFFFFFFFFFFFFFFFFFF AND MUL OR SWAP1 SSTORE POP PUSH1 0x20 DUP3 ADD MLOAD DUP2 PUSH0 ADD PUSH1 0x14 PUSH2 0x100 EXP DUP2 SLOAD DUP2 PUSH8 0xFFFFFFFFFFFFFFFF MUL NOT AND SWAP1 DUP4 PUSH8 0xFFFFFFFFFFFFFFFF AND MUL OR SWAP1 SSTORE POP SWAP1 POP POP DUP5 PUSH1 0x20 ADD CALLDATALOAD CALLER PUSH20 0xFFFFFFFFFFFFFFFFFFFFFFFFFFFFFFFFFFFFFFFF AND DUP7 PUSH1 0x20 ADD CALLDATALOAD PUSH32 0x6153F55C528EDCEC957D2FA67D63CB136DEE382001A3487CCF80D636A17BAE84 PUSH1 0x1 DUP8 DUP11 DUP1 PUSH1 0x80 ADD SWAP1 PUSH2 0x2567 SWAP2 SWAP1 PUSH2 0x4647 JUMP JUMPDEST PUSH1 0x40 MLOAD PUSH2 0x2577 SWAP5 SWAP4 SWAP3 SWAP2 SWAP1 PUSH2 0x47A0 JUMP JUMPDEST PUSH1 0x40 MLOAD DUP1 SWAP2 SUB SWAP1 LOG4 POP POP JUMPDEST SWAP5 POP SWAP5 SWAP3 POP POP POP JUMP JUMPDEST PUSH1 0x1 PUSH0 SWAP1 SLOAD SWAP1 PUSH2 0x100 EXP SWAP1 DIV PUSH20 0xFFFFFFFFFFFFFFFFFFFFFFFFFFFFFFFFFFFFFFFF AND DUP2 JUMP JUMPDEST PUSH1 0x4 PUSH0 SWAP1 SLOAD SWAP1 PUSH2 0x100 EXP SWAP1 DIV PUSH20 0xFFFFFFFFFFFFFFFFFFFFFFFFFFFFFFFFFFFFFFFF AND DUP2 JUMP JUMPDEST PUSH0 DUP1 SLOAD SWAP1 PUSH2 0x100 EXP SWAP1 DIV PUSH20 0xFFFFFFFFFFFFFFFFFFFFFFFFFFFFFFFFFFFFFFFF AND DUP2 JUMP JUMPDEST PUSH0 PUSH1 0x9 PUSH0 SWAP1 SLOAD SWAP1 PUSH2 0x100 EXP SWAP1 DIV PUSH20 0xFFFFFFFFFFFFFFFFFFFFFFFFFFFFFFFFFFFFFFFF AND PUSH20 0xFFFFFFFFFFFFFFFFFFFFFFFFFFFFFFFFFFFFFFFF AND CALLER PUSH20 0xFFFFFFFFFFFFFFFFFFFFFFFFFFFFFFFFFFFFFFFF AND EQ PUSH2 0x2688 JUMPI PUSH1 0x40 MLOAD PUSH32 0x8C379A000000000000000000000000000000000000000000000000000000000 DUP2 MSTORE PUSH1 0x4 ADD PUSH2 0x267F SWAP1 PUSH2 0x3EBA JUMP JUMPDEST PUSH1 0x40 MLOAD DUP1 SWAP2 SUB SWAP1 REVERT JUMPDEST PUSH1 0x2 DUP6 DUP6 SWAP1 POP LT ISZERO DUP1 ISZERO PUSH2 0x26A0 JUMPI POP PUSH1 0x3 DUP6 DUP6 SWAP1 POP GT ISZERO JUMPDEST PUSH2 0x26DF JUMPI PUSH1 0x40 MLOAD PUSH32 0x8C379A000000000000000000000000000000000000000000000000000000000 DUP2 MSTORE PUSH1 0x4 ADD PUSH2 0x26D6 SWAP1 PUSH2 0x4828 JUMP JUMPDEST PUSH1 0x40 MLOAD DUP1 SWAP2 SUB SWAP1 REVERT JUMPDEST PUSH0 PUSH20 0xFFFFFFFFFFFFFFFFFFFFFFFFFFFFFFFFFFFFFFFF AND DUP4 PUSH20 0xFFFFFFFFFFFFFFFFFFFFFFFFFFFFFFFFFFFFFFFF AND SUB PUSH2 0x274D JUMPI PUSH1 0x40 MLOAD PUSH32 0x8C379A000000000000000000000000000000000000000000000000000000000 DUP2 MSTORE PUSH1 0x4 ADD PUSH2 0x2744 SWAP1 PUSH2 0x4890 JUMP JUMPDEST PUSH1 0x40 MLOAD DUP1 SWAP2 SUB SWAP1 REVERT JUMPDEST PUSH0 DUP3 PUSH8 0xFFFFFFFFFFFFFFFF AND GT PUSH2 0x2799 JUMPI PUSH1 0x40 MLOAD PUSH32 0x8C379A000000000000000000000000000000000000000000000000000000000 DUP2 MSTORE PUSH1 0x4 ADD PUSH2 0x2790 SWAP1 PUSH2 0x48F8 JUMP JUMPDEST PUSH1 0x40 MLOAD DUP1 SWAP2 SUB SWAP1 REVERT JUMPDEST PUSH0 JUMPDEST DUP6 DUP6 SWAP1 POP DUP2 LT ISZERO PUSH2 0x29CF JUMPI PUSH0 PUSH20 0xFFFFFFFFFFFFFFFFFFFFFFFFFFFFFFFFFFFFFFFF AND DUP7 DUP7 DUP4 DUP2 DUP2 LT PUSH2 0x27D0 JUMPI PUSH2 0x27CF PUSH2 0x448F JUMP JUMPDEST JUMPDEST SWAP1 POP PUSH1 0x20 MUL ADD PUSH1 0x20 DUP2 ADD SWAP1 PUSH2 0x27E5 SWAP2 SWAP1 PUSH2 0x4916 JUMP JUMPDEST PUSH20 0xFFFFFFFFFFFFFFFFFFFFFFFFFFFFFFFFFFFFFFFF AND SUB PUSH2 0x283B JUMPI PUSH1 0x40 MLOAD PUSH32 0x8C379A000000000000000000000000000000000000000000000000000000000 DUP2 MSTORE PUSH1 0x4 ADD PUSH2 0x2832 SWAP1 PUSH2 0x498B JUMP JUMPDEST PUSH1 0x40 MLOAD DUP1 SWAP2 SUB SWAP1 REVERT JUMPDEST PUSH0 PUSH1 0x1 DUP3 PUSH2 0x2849 SWAP2 SWAP1 PUSH2 0x49A9 JUMP JUMPDEST SWAP1 POP JUMPDEST DUP7 DUP7 SWAP1 POP DUP2 LT ISZERO PUSH2 0x2926 JUMPI DUP7 DUP7 DUP3 DUP2 DUP2 LT PUSH2 0x286A JUMPI PUSH2 0x2869 PUSH2 0x448F JUMP JUMPDEST JUMPDEST SWAP1 POP PUSH1 0x20 MUL ADD PUSH1 0x20 DUP2 ADD SWAP1 PUSH2 0x287F SWAP2 SWAP1 PUSH2 0x4916 JUMP JUMPDEST PUSH20 0xFFFFFFFFFFFFFFFFFFFFFFFFFFFFFFFFFFFFFFFF AND DUP8 DUP8 DUP5 DUP2 DUP2 LT PUSH2 0x28A8 JUMPI PUSH2 0x28A7 PUSH2 0x448F JUMP JUMPDEST JUMPDEST SWAP1 POP PUSH1 0x20 MUL ADD PUSH1 0x20 DUP2 ADD SWAP1 PUSH2 0x28BD SWAP2 SWAP1 PUSH2 0x4916 JUMP JUMPDEST PUSH20 0xFFFFFFFFFFFFFFFFFFFFFFFFFFFFFFFFFFFFFFFF AND SUB PUSH2 0x2913 JUMPI PUSH1 0x40 MLOAD PUSH32 0x8C379A000000000000000000000000000000000000000000000000000000000 DUP2 MSTORE PUSH1 0x4 ADD PUSH2 0x290A SWAP1 PUSH2 0x4A26 JUMP JUMPDEST PUSH1 0x40 MLOAD DUP1 SWAP2 SUB SWAP1 REVERT JUMPDEST DUP1 DUP1 PUSH2 0x291E SWAP1 PUSH2 0x44C5 JUMP JUMPDEST SWAP2 POP POP PUSH2 0x284C JUMP JUMPDEST POP DUP4 PUSH20 0xFFFFFFFFFFFFFFFFFFFFFFFFFFFFFFFFFFFFFFFF AND DUP7 DUP7 DUP4 DUP2 DUP2 LT PUSH2 0x2951 JUMPI PUSH2 0x2950 PUSH2 0x448F JUMP JUMPDEST JUMPDEST SWAP1 POP PUSH1 0x20 MUL ADD PUSH1 0x20 DUP2 ADD SWAP1 PUSH2 0x2966 SWAP2 SWAP1 PUSH2 0x4916 JUMP JUMPDEST PUSH20 0xFFFFFFFFFFFFFFFFFFFFFFFFFFFFFFFFFFFFFFFF AND SUB PUSH2 0x29BC JUMPI PUSH1 0x40 MLOAD PUSH32 0x8C379A000000000000000000000000000000000000000000000000000000000 DUP2 MSTORE PUSH1 0x4 ADD PUSH2 0x29B3 SWAP1 PUSH2 0x4A8E JUMP JUMPDEST PUSH1 0x40 MLOAD DUP1 SWAP2 SUB SWAP1 REVERT JUMPDEST DUP1 DUP1 PUSH2 0x29C7 SWAP1 PUSH2 0x44C5 JUMP JUMPDEST SWAP2 POP POP PUSH2 0x279B JUMP JUMPDEST POP DUP7 DUP7 DUP7 DUP7 DUP7 PUSH1 0x40 MLOAD PUSH1 0x20 ADD PUSH2 0x29E9 SWAP6 SWAP5 SWAP4 SWAP3 SWAP2 SWAP1 PUSH2 0x4B68 JUMP JUMPDEST PUSH1 0x40 MLOAD PUSH1 0x20 DUP2 DUP4 SUB SUB DUP2 MSTORE SWAP1 PUSH1 0x40 MSTORE DUP1 MLOAD SWAP1 PUSH1 0x20 ADD KECCAK256 SWAP1 POP PUSH0 PUSH20 0xFFFFFFFFFFFFFFFFFFFFFFFFFFFFFFFFFFFFFFFF AND PUSH1 0xB PUSH0 DUP4 DUP2 MSTORE PUSH1 0x20 ADD SWAP1 DUP2 MSTORE PUSH1 0x20 ADD PUSH0 KECCAK256 PUSH1 0x3 ADD PUSH0 SWAP1 SLOAD SWAP1 PUSH2 0x100 EXP SWAP1 DIV PUSH20 0xFFFFFFFFFFFFFFFFFFFFFFFFFFFFFFFFFFFFFFFF AND PUSH20 0xFFFFFFFFFFFFFFFFFFFFFFFFFFFFFFFFFFFFFFFF AND EQ PUSH2 0x2AA2 JUMPI PUSH1 0x40 MLOAD PUSH32 0x8C379A000000000000000000000000000000000000000000000000000000000 DUP2 MSTORE PUSH1 0x4 ADD PUSH2 0x2A99 SWAP1 PUSH2 0x4BFE JUMP JUMPDEST PUSH1 0x40 MLOAD DUP1 SWAP2 SUB SWAP1 REVERT JUMPDEST PUSH1 0x40 MLOAD DUP1 PUSH1 0xC0 ADD PUSH1 0x40 MSTORE DUP1 DUP9 DUP2 MSTORE PUSH1 0x20 ADD DUP8 DUP2 MSTORE PUSH1 0x20 ADD DUP7 DUP7 DUP1 DUP1 PUSH1 0x20 MUL PUSH1 0x20 ADD PUSH1 0x40 MLOAD SWAP1 DUP2 ADD PUSH1 0x40 MSTORE DUP1 SWAP4 SWAP3 SWAP2 SWAP1 DUP2 DUP2 MSTORE PUSH1 0x20 ADD DUP4 DUP4 PUSH1 0x20 MUL DUP1 DUP3 DUP5 CALLDATACOPY PUSH0 DUP2 DUP5 ADD MSTORE PUSH1 0x1F NOT PUSH1 0x1F DUP3 ADD AND SWAP1 POP DUP1 DUP4 ADD SWAP3 POP POP POP POP POP POP POP DUP2 MSTORE PUSH1 0x20 ADD DUP5 PUSH20 0xFFFFFFFFFFFFFFFFFFFFFFFFFFFFFFFFFFFFFFFF AND DUP2 MSTORE PUSH1 0x20 ADD DUP4 PUSH8 0xFFFFFFFFFFFFFFFF AND DUP2 MSTORE PUSH1 0x20 ADD PUSH1 0x1 ISZERO ISZERO DUP2 MSTORE POP PUSH1 0xB PUSH0 DUP4 DUP2 MSTORE PUSH1 0x20 ADD SWAP1 DUP2 MSTORE PUSH1 0x20 ADD PUSH0 KECCAK256 PUSH0 DUP3 ADD MLOAD DUP2 PUSH0 ADD SSTORE PUSH1 0x20 DUP3 ADD MLOAD DUP2 PUSH1 0x1 ADD SSTORE PUSH1 0x40 DUP3 ADD MLOAD DUP2 PUSH1 0x2 ADD SWAP1 DUP1 MLOAD SWAP1 PUSH1 0x20 ADD SWAP1 PUSH2 0x2B71 SWAP3 SWAP2 SWAP1 PUSH2 0x33A6 JUMP JUMPDEST POP PUSH1 0x60 DUP3 ADD MLOAD DUP2 PUSH1 0x3 ADD PUSH0 PUSH2 0x100 EXP DUP2 SLOAD DUP2 PUSH20 0xFFFFFFFFFFFFFFFFFFFFFFFFFFFFFFFFFFFFFFFF MUL NOT AND SWAP1 DUP4 PUSH20 0xFFFFFFFFFFFFFFFFFFFFFFFFFFFFFFFFFFFFFFFF AND MUL OR SWAP1 SSTORE POP PUSH1 0x80 DUP3 ADD MLOAD DUP2 PUSH1 0x3 ADD PUSH1 0x14 PUSH2 0x100 EXP DUP2 SLOAD DUP2 PUSH8 0xFFFFFFFFFFFFFFFF MUL NOT AND SWAP1 DUP4 PUSH8 0xFFFFFFFFFFFFFFFF AND MUL OR SWAP1 SSTORE POP PUSH1 0xA0 DUP3 ADD MLOAD DUP2 PUSH1 0x3 ADD PUSH1 0x1C PUSH2 0x100 EXP DUP2 SLOAD DUP2 PUSH1 0xFF MUL NOT AND SWAP1 DUP4 ISZERO ISZERO MUL OR SWAP1 SSTORE POP SWAP1 POP POP DUP1 PUSH32 0xAD9207819DD7ABB936F2B1637265BF626978AF91D6F25A44322FB43FE34AADFB DUP9 DUP9 DUP9 DUP9 DUP9 DUP9 PUSH1 0x40 MLOAD PUSH2 0x2C44 SWAP7 SWAP6 SWAP5 SWAP4 SWAP3 SWAP2 SWAP1 PUSH2 0x4C1C JUMP JUMPDEST PUSH1 0x40 MLOAD DUP1 SWAP2 SUB SWAP1 LOG2 SWAP7 SWAP6 POP POP POP POP POP POP JUMP JUMPDEST PUSH0 PUSH1 0xC PUSH0 DUP5 DUP2 MSTORE PUSH1 0x20 ADD SWAP1 DUP2 MSTORE PUSH1 0x20 ADD PUSH0 KECCAK256 PUSH0 DUP4 PUSH20 0xFFFFFFFFFFFFFFFFFFFFFFFFFFFFFFFFFFFFFFFF AND PUSH20 0xFFFFFFFFFFFFFFFFFFFFFFFFFFFFFFFFFFFFFFFF AND DUP2 MSTORE PUSH1 0x20 ADD SWAP1 DUP2 MSTORE PUSH1 0x20 ADD PUSH0 KECCAK256 PUSH0 SWAP1 SLOAD SWAP1 PUSH2 0x100 EXP SWAP1 DIV PUSH3 0xFFFFFF AND SWAP1 POP SWAP3 SWAP2 POP POP JUMP JUMPDEST PUSH1 0xA SLOAD DUP2 JUMP JUMPDEST PUSH1 0x3 PUSH0 SWAP1 SLOAD SWAP1 PUSH2 0x100 EXP SWAP1 DIV PUSH20 0xFFFFFFFFFFFFFFFFFFFFFFFFFFFFFFFFFFFFFFFF AND DUP2 JUMP JUMPDEST PUSH0 DUP5 DUP5 DUP5 DUP5 PUSH32 0x217FFB743E749E59632E1A39A53634096481CB82EE5F27B44698DCC2C7453F01 PUSH1 0x40 MLOAD PUSH1 0x20 ADD PUSH2 0x2D1F SWAP6 SWAP5 SWAP4 SWAP3 SWAP2 SWAP1 PUSH2 0x4C76 JUMP JUMPDEST PUSH1 0x40 MLOAD PUSH1 0x20 DUP2 DUP4 SUB SUB DUP2 MSTORE SWAP1 PUSH1 0x40 MSTORE DUP1 MLOAD SWAP1 PUSH1 0x20 ADD KECCAK256 SWAP1 POP SWAP5 SWAP4 POP POP POP POP JUMP JUMPDEST PUSH0 DUP1 PUSH0 DUP5 PUSH20 0xFFFFFFFFFFFFFFFFFFFFFFFFFFFFFFFFFFFFFFFF AND DUP7 PUSH20 0xFFFFFFFFFFFFFFFFFFFFFFFFFFFFFFFFFFFFFFFF AND LT PUSH2 0x2D7C JUMPI DUP5 DUP7 PUSH2 0x2D7F JUMP JUMPDEST DUP6 DUP6 JUMPDEST SWAP2 POP SWAP2 POP DUP2 DUP2 DUP6 PUSH32 0x892486F2DB77FEBA50B67FD68CCCF02ECCA6D746664216A0449ECB5BA18F8DE PUSH1 0x40 MLOAD PUSH1 0x20 ADD PUSH2 0x2DBA SWAP5 SWAP4 SWAP3 SWAP2 SWAP1 PUSH2 0x4CC7 JUMP JUMPDEST PUSH1 0x40 MLOAD PUSH1 0x20 DUP2 DUP4 SUB SUB DUP2 MSTORE SWAP1 PUSH1 0x40 MSTORE DUP1 MLOAD SWAP1 PUSH1 0x20 ADD KECCAK256 SWAP3 POP POP POP SWAP4 SWAP3 POP POP POP JUMP JUMPDEST PUSH0 PUSH32 0x72F7DDC62C67E3943091F9C7B899298A6C6B0287758C513C5036EDA57075E6E3 DUP3 SUB PUSH2 0x2E14 JUMPI PUSH2 0x2E0D DUP5 DUP5 PUSH2 0x316E JUMP JUMPDEST SWAP1 POP PUSH2 0x2E50 JUMP JUMPDEST PUSH32 0x5C121EE8B573E4E6586BCAFEC852BD980B83EA2AA4A37F9FCCB6FA546927C42B DUP3 SUB PUSH2 0x2E4C JUMPI PUSH2 0x2E45 DUP5 DUP5 PUSH2 0x3245 JUMP JUMPDEST SWAP1 POP PUSH2 0x2E50 JUMP JUMPDEST PUSH0 SWAP1 POP JUMPDEST SWAP4 SWAP3 POP POP POP JUMP JUMPDEST PUSH0 DUP1 PUSH0 DUP1 DUP5 PUSH20 0xFFFFFFFFFFFFFFFFFFFFFFFFFFFFFFFFFFFFFFFF AND DUP7 PUSH20 0xFFFFFFFFFFFFFFFFFFFFFFFFFFFFFFFFFFFFFFFF AND LT PUSH2 0x2E95 JUMPI DUP5 DUP7 PUSH2 0x2E98 JUMP JUMPDEST DUP6 DUP6 JUMPDEST SWAP2 POP SWAP2 POP PUSH0 DUP1 SLOAD SWAP1 PUSH2 0x100 EXP SWAP1 DIV PUSH20 0xFFFFFFFFFFFFFFFFFFFFFFFFFFFFFFFFFFFFFFFF AND PUSH20 0xFFFFFFFFFFFFFFFFFFFFFFFFFFFFFFFFFFFFFFFF AND DUP3 PUSH20 0xFFFFFFFFFFFFFFFFFFFFFFFFFFFFFFFFFFFFFFFF AND EQ DUP1 ISZERO PUSH2 0x2F42 JUMPI POP PUSH1 0x1 PUSH0 SWAP1 SLOAD SWAP1 PUSH2 0x100 EXP SWAP1 DIV PUSH20 0xFFFFFFFFFFFFFFFFFFFFFFFFFFFFFFFFFFFFFFFF AND PUSH20 0xFFFFFFFFFFFFFFFFFFFFFFFFFFFFFFFFFFFFFFFF AND DUP2 PUSH20 0xFFFFFFFFFFFFFFFFFFFFFFFFFFFFFFFFFFFFFFFF AND EQ JUMPDEST ISZERO PUSH2 0x2F76 JUMPI PUSH1 0x3 PUSH0 SWAP1 SLOAD SWAP1 PUSH2 0x100 EXP SWAP1 DIV PUSH20 0xFFFFFFFFFFFFFFFFFFFFFFFFFFFFFFFFFFFFFFFF AND PUSH1 0x1 SWAP4 POP SWAP4 POP POP POP PUSH2 0x3167 JUMP JUMPDEST PUSH1 0x1 PUSH0 SWAP1 SLOAD SWAP1 PUSH2 0x100 EXP SWAP1 DIV PUSH20 0xFFFFFFFFFFFFFFFFFFFFFFFFFFFFFFFFFFFFFFFF AND PUSH20 0xFFFFFFFFFFFFFFFFFFFFFFFFFFFFFFFFFFFFFFFF AND DUP3 PUSH20 0xFFFFFFFFFFFFFFFFFFFFFFFFFFFFFFFFFFFFFFFF AND EQ DUP1 ISZERO PUSH2 0x301E JUMPI POP PUSH1 0x2 PUSH0 SWAP1 SLOAD SWAP1 PUSH2 0x100 EXP SWAP1 DIV PUSH20 0xFFFFFFFFFFFFFFFFFFFFFFFFFFFFFFFFFFFFFFFF AND PUSH20 0xFFFFFFFFFFFFFFFFFFFFFFFFFFFFFFFFFFFFFFFF AND DUP2 PUSH20 0xFFFFFFFFFFFFFFFFFFFFFFFFFFFFFFFFFFFFFFFF AND EQ JUMPDEST ISZERO PUSH2 0x3052 JUMPI PUSH1 0x4 PUSH0 SWAP1 SLOAD SWAP1 PUSH2 0x100 EXP SWAP1 DIV PUSH20 0xFFFFFFFFFFFFFFFFFFFFFFFFFFFFFFFFFFFFFFFF AND PUSH1 0x1 SWAP4 POP SWAP4 POP POP POP PUSH2 0x3167 JUMP JUMPDEST PUSH0 DUP1 SLOAD SWAP1 PUSH2 0x100 EXP SWAP1 DIV PUSH20 0xFFFFFFFFFFFFFFFFFFFFFFFFFFFFFFFFFFFFFFFF AND PUSH20 0xFFFFFFFFFFFFFFFFFFFFFFFFFFFFFFFFFFFFFFFF AND DUP3 PUSH20 0xFFFFFFFFFFFFFFFFFFFFFFFFFFFFFFFFFFFFFFFF AND EQ DUP1 ISZERO PUSH2 0x30F8 JUMPI POP PUSH1 0x2 PUSH0 SWAP1 SLOAD SWAP1 PUSH2 0x100 EXP SWAP1 DIV PUSH20 0xFFFFFFFFFFFFFFFFFFFFFFFFFFFFFFFFFFFFFFFF AND PUSH20 0xFFFFFFFFFFFFFFFFFFFFFFFFFFFFFFFFFFFFFFFF AND DUP2 PUSH20 0xFFFFFFFFFFFFFFFFFFFFFFFFFFFFFFFFFFFFFFFF AND EQ JUMPDEST ISZERO PUSH2 0x312C JUMPI PUSH1 0x5 PUSH0 SWAP1 SLOAD SWAP1 PUSH2 0x100 EXP SWAP1 DIV PUSH20 0xFFFFFFFFFFFFFFFFFFFFFFFFFFFFFFFFFFFFFFFF AND PUSH1 0x1 SWAP4 POP SWAP4 POP POP POP PUSH2 0x3167 JUMP JUMPDEST PUSH1 0x40 MLOAD PUSH32 0x8C379A000000000000000000000000000000000000000000000000000000000 DUP2 MSTORE PUSH1 0x4 ADD PUSH2 0x315E SWAP1 PUSH2 0x4D54 JUMP JUMPDEST PUSH1 0x40 MLOAD DUP1 SWAP2 SUB SWAP1 REVERT JUMPDEST SWAP3 POP SWAP3 SWAP1 POP JUMP JUMPDEST PUSH0 DUP1 PUSH1 0x10 DUP5 PUSH3 0xFFFFFF AND SWAP1 SHR SWAP1 POP PUSH0 PUSH1 0x8 DUP6 PUSH3 0xFFFFFF AND SWAP1 SHR SWAP1 POP PUSH0 DUP6 SWAP1 POP PUSH0 PUSH1 0x10 DUP7 PUSH3 0xFFFFFF AND SWAP1 SHR SWAP1 POP PUSH0 PUSH1 0x8 DUP8 PUSH3 0xFFFFFF AND SWAP1 SHR SWAP1 POP PUSH0 DUP8 SWAP1 POP PUSH0 DUP4 PUSH1 0xFF AND DUP8 PUSH1 0xFF AND GT PUSH2 0x31BF JUMPI PUSH0 PUSH2 0x31CC JUMP JUMPDEST DUP4 DUP8 PUSH2 0x31CB SWAP2 SWAP1 PUSH2 0x4D7E JUMP JUMPDEST JUMPDEST SWAP1 POP PUSH0 DUP4 PUSH1 0xFF AND DUP8 PUSH1 0xFF AND GT PUSH2 0x31E2 JUMPI PUSH0 PUSH2 0x31EF JUMP JUMPDEST DUP4 DUP8 PUSH2 0x31EE SWAP2 SWAP1 PUSH2 0x4D7E JUMP JUMPDEST JUMPDEST SWAP1 POP PUSH0 DUP4 PUSH1 0xFF AND DUP8 PUSH1 0xFF AND GT PUSH2 0x3205 JUMPI PUSH0 PUSH2 0x3212 JUMP JUMPDEST DUP4 DUP8 PUSH2 0x3211 SWAP2 SWAP1 PUSH2 0x4D7E JUMP JUMPDEST JUMPDEST SWAP1 POP DUP1 PUSH1 0xFF AND PUSH1 0x8 DUP4 PUSH1 0xFF AND PUSH3 0xFFFFFF AND SWAP1 SHL PUSH1 0x10 DUP6 PUSH1 0xFF AND PUSH3 0xFFFFFF AND SWAP1 SHL OR OR SWAP10 POP POP POP POP POP POP POP POP POP POP SWAP3 SWAP2 POP POP JUMP JUMPDEST PUSH0 DUP1 PUSH1 0x10 DUP5 PUSH3 0xFFFFFF AND SWAP1 SHR SWAP1 POP PUSH0 PUSH1 0x8 DUP6 PUSH3 0xFFFFFF AND SWAP1 SHR SWAP1 POP PUSH0 DUP6 SWAP1 POP PUSH0 PUSH1 0x10 DUP7 PUSH3 0xFFFFFF AND SWAP1 SHR SWAP1 POP PUSH0 PUSH1 0x8 DUP8 PUSH3 0xFFFFFF AND SWAP1 SHR SWAP1 POP PUSH0 DUP8 SWAP1 POP PUSH0 DUP7 PUSH1 0xFF PUSH2 0x3290 SWAP2 SWAP1 PUSH2 0x4D7E JUMP JUMPDEST SWAP1 POP PUSH0 DUP7 PUSH1 0xFF PUSH2 0x32A0 SWAP2 SWAP1 PUSH2 0x4D7E JUMP JUMPDEST SWAP1 POP PUSH0 DUP7 PUSH1 0xFF PUSH2 0x32B0 SWAP2 SWAP1 PUSH2 0x4D7E JUMP JUMPDEST SWAP1 POP PUSH0 DUP7 PUSH1 0xFF PUSH2 0x32C0 SWAP2 SWAP1 PUSH2 0x4D7E JUMP JUMPDEST SWAP1 POP PUSH0 DUP7 PUSH1 0xFF PUSH2 0x32D0 SWAP2 SWAP1 PUSH2 0x4D7E JUMP JUMPDEST SWAP1 POP PUSH0 DUP7 PUSH1 0xFF PUSH2 0x32E0 SWAP2 SWAP1 PUSH2 0x4D7E JUMP JUMPDEST SWAP1 POP PUSH0 DUP4 PUSH1 0xFF AND DUP8 PUSH1 0xFF AND GT PUSH2 0x32F6 JUMPI PUSH0 PUSH2 0x3303 JUMP JUMPDEST DUP4 DUP8 PUSH2 0x3302 SWAP2 SWAP1 PUSH2 0x4D7E JUMP JUMPDEST JUMPDEST SWAP1 POP PUSH0 DUP4 PUSH1 0xFF AND DUP8 PUSH1 0xFF AND GT PUSH2 0x3319 JUMPI PUSH0 PUSH2 0x3326 JUMP JUMPDEST DUP4 DUP8 PUSH2 0x3325 SWAP2 SWAP1 PUSH2 0x4D7E JUMP JUMPDEST JUMPDEST SWAP1 POP PUSH0 DUP4 PUSH1 0xFF AND DUP8 PUSH1 0xFF AND GT PUSH2 0x333C JUMPI PUSH0 PUSH2 0x3349 JUMP JUMPDEST DUP4 DUP8 PUSH2 0x3348 SWAP2 SWAP1 PUSH2 0x4D7E JUMP JUMPDEST JUMPDEST SWAP1 POP DUP1 PUSH1 0xFF PUSH2 0x3358 SWAP2 SWAP1 PUSH2 0x4D7E JUMP JUMPDEST PUSH1 0xFF AND PUSH1 0x8 DUP4 PUSH1 0xFF PUSH2 0x336A SWAP2 SWAP1 PUSH2 0x4D7E JUMP JUMPDEST PUSH1 0xFF AND PUSH3 0xFFFFFF AND SWAP1 SHL PUSH1 0x10 DUP6 PUSH1 0xFF PUSH2 0x3383 SWAP2 SWAP1 PUSH2 0x4D7E JUMP JUMPDEST PUSH1 0xFF AND PUSH3 0xFFFFFF AND SWAP1 SHL OR OR SWAP16 POP POP POP POP POP POP POP POP POP POP POP POP POP POP POP POP SWAP3 SWAP2 POP POP JUMP JUMPDEST DUP3 DUP1 SLOAD DUP3 DUP3 SSTORE SWAP1 PUSH0 MSTORE PUSH1 0x20 PUSH0 KECCAK256 SWAP1 DUP2 ADD SWAP3 DUP3 ISZERO PUSH2 0x341C JUMPI SWAP2 PUSH1 0x20 MUL DUP3 ADD JUMPDEST DUP3 DUP2 GT ISZERO PUSH2 0x341B JUMPI DUP3 MLOAD DUP3 PUSH0 PUSH2 0x100 EXP DUP2 SLOAD DUP2 PUSH20 0xFFFFFFFFFFFFFFFFFFFFFFFFFFFFFFFFFFFFFFFF MUL NOT AND SWAP1 DUP4 PUSH20 0xFFFFFFFFFFFFFFFFFFFFFFFFFFFFFFFFFFFFFFFF AND MUL OR SWAP1 SSTORE POP SWAP2 PUSH1 0x20 ADD SWAP2 SWAP1 PUSH1 0x1 ADD SWAP1 PUSH2 0x33C4 JUMP JUMPDEST JUMPDEST POP SWAP1 POP PUSH2 0x3429 SWAP2 SWAP1 PUSH2 0x342D JUMP JUMPDEST POP SWAP1 JUMP JUMPDEST JUMPDEST DUP1 DUP3 GT ISZERO PUSH2 0x3444 JUMPI PUSH0 DUP2 PUSH0 SWAP1 SSTORE POP PUSH1 0x1 ADD PUSH2 0x342E JUMP JUMPDEST POP SWAP1 JUMP JUMPDEST PUSH0 DUP2 SWAP1 POP SWAP2 SWAP1 POP JUMP JUMPDEST PUSH2 0x345A DUP2 PUSH2 0x3448 JUMP JUMPDEST DUP3 MSTORE POP POP JUMP JUMPDEST PUSH0 PUSH1 0x20 DUP3 ADD SWAP1 POP PUSH2 0x3473 PUSH0 DUP4 ADD DUP5 PUSH2 0x3451 JUMP JUMPDEST SWAP3 SWAP2 POP POP JUMP JUMPDEST PUSH0 PUSH1 0x40 MLOAD SWAP1 POP SWAP1 JUMP JUMPDEST PUSH0 DUP1 REVERT JUMPDEST PUSH0 DUP1 REVERT JUMPDEST PUSH2 0x3493 DUP2 PUSH2 0x3448 JUMP JUMPDEST DUP2 EQ PUSH2 0x349D JUMPI PUSH0 DUP1 REVERT JUMPDEST POP JUMP JUMPDEST PUSH0 DUP2 CALLDATALOAD SWAP1 POP PUSH2 0x34AE DUP2 PUSH2 0x348A JUMP JUMPDEST SWAP3 SWAP2 POP POP JUMP JUMPDEST PUSH0 PUSH1 0x20 DUP3 DUP5 SUB SLT ISZERO PUSH2 0x34C9 JUMPI PUSH2 0x34C8 PUSH2 0x3482 JUMP JUMPDEST JUMPDEST PUSH0 PUSH2 0x34D6 DUP5 DUP3 DUP6 ADD PUSH2 0x34A0 JUMP JUMPDEST SWAP2 POP POP SWAP3 SWAP2 POP POP JUMP JUMPDEST PUSH0 PUSH20 0xFFFFFFFFFFFFFFFFFFFFFFFFFFFFFFFFFFFFFFFF DUP3 AND SWAP1 POP SWAP2 SWAP1 POP JUMP JUMPDEST PUSH0 PUSH2 0x3508 DUP3 PUSH2 0x34DF JUMP JUMPDEST SWAP1 POP SWAP2 SWAP1 POP JUMP JUMPDEST PUSH2 0x3518 DUP2 PUSH2 0x34FE JUMP JUMPDEST DUP3 MSTORE POP POP JUMP JUMPDEST PUSH0 PUSH8 0xFFFFFFFFFFFFFFFF DUP3 AND SWAP1 POP SWAP2 SWAP1 POP JUMP JUMPDEST PUSH2 0x353A DUP2 PUSH2 0x351E JUMP JUMPDEST DUP3 MSTORE POP POP JUMP JUMPDEST PUSH0 PUSH1 0x40 DUP3 ADD SWAP1 POP PUSH2 0x3553 PUSH0 DUP4 ADD DUP6 PUSH2 0x350F JUMP JUMPDEST PUSH2 0x3560 PUSH1 0x20 DUP4 ADD DUP5 PUSH2 0x3531 JUMP JUMPDEST SWAP4 SWAP3 POP POP POP JUMP JUMPDEST PUSH0 DUP2 SWAP1 POP SWAP2 SWAP1 POP JUMP JUMPDEST PUSH0 PUSH2 0x358A PUSH2 0x3585 PUSH2 0x3580 DUP5 PUSH2 0x34DF JUMP JUMPDEST PUSH2 0x3567 JUMP JUMPDEST PUSH2 0x34DF JUMP JUMPDEST SWAP1 POP SWAP2 SWAP1 POP JUMP JUMPDEST PUSH0 PUSH2 0x359B DUP3 PUSH2 0x3570 JUMP JUMPDEST SWAP1 POP SWAP2 SWAP1 POP JUMP JUMPDEST PUSH0 PUSH2 0x35AC DUP3 PUSH2 0x3591 JUMP JUMPDEST SWAP1 POP SWAP2 SWAP1 POP JUMP JUMPDEST PUSH2 0x35BC DUP2 PUSH2 0x35A2 JUMP JUMPDEST DUP3 MSTORE POP POP JUMP JUMPDEST PUSH0 PUSH1 0x20 DUP3 ADD SWAP1 POP PUSH2 0x35D5 PUSH0 DUP4 ADD DUP5 PUSH2 0x35B3 JUMP JUMPDEST SWAP3 SWAP2 POP POP JUMP JUMPDEST PUSH0 DUP2 ISZERO ISZERO SWAP1 POP SWAP2 SWAP1 POP JUMP JUMPDEST PUSH2 0x35EF DUP2 PUSH2 0x35DB JUMP JUMPDEST DUP3 MSTORE POP POP JUMP JUMPDEST PUSH0 PUSH1 0xA0 DUP3 ADD SWAP1 POP PUSH2 0x3608 PUSH0 DUP4 ADD DUP9 PUSH2 0x3451 JUMP JUMPDEST PUSH2 0x3615 PUSH1 0x20 DUP4 ADD DUP8 PUSH2 0x3451 JUMP JUMPDEST PUSH2 0x3622 PUSH1 0x40 DUP4 ADD DUP7 PUSH2 0x350F JUMP JUMPDEST PUSH2 0x362F PUSH1 0x60 DUP4 ADD DUP6 PUSH2 0x3531 JUMP JUMPDEST PUSH2 0x363C PUSH1 0x80 DUP4 ADD DUP5 PUSH2 0x35E6 JUMP JUMPDEST SWAP7 SWAP6 POP POP POP POP POP POP JUMP JUMPDEST PUSH2 0x364F DUP2 PUSH2 0x34FE JUMP JUMPDEST DUP2 EQ PUSH2 0x3659 JUMPI PUSH0 DUP1 REVERT JUMPDEST POP JUMP JUMPDEST PUSH0 DUP2 CALLDATALOAD SWAP1 POP PUSH2 0x366A DUP2 PUSH2 0x3646 JUMP JUMPDEST SWAP3 SWAP2 POP POP JUMP JUMPDEST PUSH0 DUP1 REVERT JUMPDEST PUSH0 DUP1 REVERT JUMPDEST PUSH0 DUP1 REVERT JUMPDEST PUSH0 DUP1 DUP4 PUSH1 0x1F DUP5 ADD SLT PUSH2 0x3691 JUMPI PUSH2 0x3690 PUSH2 0x3670 JUMP JUMPDEST JUMPDEST DUP3 CALLDATALOAD SWAP1 POP PUSH8 0xFFFFFFFFFFFFFFFF DUP2 GT ISZERO PUSH2 0x36AE JUMPI PUSH2 0x36AD PUSH2 0x3674 JUMP JUMPDEST JUMPDEST PUSH1 0x20 DUP4 ADD SWAP2 POP DUP4 PUSH1 0x1 DUP3 MUL DUP4 ADD GT ISZERO PUSH2 0x36CA JUMPI PUSH2 0x36C9 PUSH2 0x3678 JUMP JUMPDEST JUMPDEST SWAP3 POP SWAP3 SWAP1 POP JUMP JUMPDEST PUSH0 DUP1 PUSH0 DUP1 PUSH1 0x60 DUP6 DUP8 SUB SLT ISZERO PUSH2 0x36E9 JUMPI PUSH2 0x36E8 PUSH2 0x3482 JUMP JUMPDEST JUMPDEST PUSH0 PUSH2 0x36F6 DUP8 DUP3 DUP9 ADD PUSH2 0x365C JUMP JUMPDEST SWAP5 POP POP PUSH1 0x20 PUSH2 0x3707 DUP8 DUP3 DUP9 ADD PUSH2 0x34A0 JUMP JUMPDEST SWAP4 POP POP PUSH1 0x40 DUP6 ADD CALLDATALOAD PUSH8 0xFFFFFFFFFFFFFFFF DUP2 GT ISZERO PUSH2 0x3728 JUMPI PUSH2 0x3727 PUSH2 0x3486 JUMP JUMPDEST JUMPDEST PUSH2 0x3734 DUP8 DUP3 DUP9 ADD PUSH2 0x367C JUMP JUMPDEST SWAP3 POP SWAP3 POP POP SWAP3 SWAP6 SWAP2 SWAP5 POP SWAP3 POP JUMP JUMPDEST PUSH0 PUSH1 0x20 DUP3 ADD SWAP1 POP PUSH2 0x3755 PUSH0 DUP4 ADD DUP5 PUSH2 0x35E6 JUMP JUMPDEST SWAP3 SWAP2 POP POP JUMP JUMPDEST PUSH2 0x3764 DUP2 PUSH2 0x351E JUMP JUMPDEST DUP2 EQ PUSH2 0x376E JUMPI PUSH0 DUP1 REVERT JUMPDEST POP JUMP JUMPDEST PUSH0 DUP2 CALLDATALOAD SWAP1 POP PUSH2 0x377F DUP2 PUSH2 0x375B JUMP JUMPDEST SWAP3 SWAP2 POP POP JUMP JUMPDEST PUSH0 DUP1 PUSH0 DUP1 PUSH0 PUSH1 0x80 DUP7 DUP9 SUB SLT ISZERO PUSH2 0x379E JUMPI PUSH2 0x379D PUSH2 0x3482 JUMP JUMPDEST JUMPDEST PUSH0 PUSH2 0x37AB DUP9 DUP3 DUP10 ADD PUSH2 0x34A0 JUMP JUMPDEST SWAP6 POP POP PUSH1 0x20 PUSH2 0x37BC DUP9 DUP3 DUP10 ADD PUSH2 0x3771 JUMP JUMPDEST SWAP5 POP POP PUSH1 0x40 PUSH2 0x37CD DUP9 DUP3 DUP10 ADD PUSH2 0x34A0 JUMP JUMPDEST SWAP4 POP POP PUSH1 0x60 DUP7 ADD CALLDATALOAD PUSH8 0xFFFFFFFFFFFFFFFF DUP2 GT ISZERO PUSH2 0x37EE JUMPI PUSH2 0x37ED PUSH2 0x3486 JUMP JUMPDEST JUMPDEST PUSH2 0x37FA DUP9 DUP3 DUP10 ADD PUSH2 0x367C JUMP JUMPDEST SWAP3 POP SWAP3 POP POP SWAP3 SWAP6 POP SWAP3 SWAP6 SWAP1 SWAP4 POP JUMP JUMPDEST PUSH0 PUSH1 0x20 DUP3 ADD SWAP1 POP PUSH2 0x381C PUSH0 DUP4 ADD DUP5 PUSH2 0x3531 JUMP JUMPDEST SWAP3 SWAP2 POP POP JUMP JUMPDEST PUSH0 DUP1 PUSH1 0x40 DUP4 DUP6 SUB SLT ISZERO PUSH2 0x3838 JUMPI PUSH2 0x3837 PUSH2 0x3482 JUMP JUMPDEST JUMPDEST PUSH0 PUSH2 0x3845 DUP6 DUP3 DUP7 ADD PUSH2 0x34A0 JUMP JUMPDEST SWAP3 POP POP PUSH1 0x20 PUSH2 0x3856 DUP6 DUP3 DUP7 ADD PUSH2 0x365C JUMP JUMPDEST SWAP2 POP POP SWAP3 POP SWAP3 SWAP1 POP JUMP JUMPDEST PUSH0 PUSH3 0xFFFFFF DUP3 AND SWAP1 POP SWAP2 SWAP1 POP JUMP JUMPDEST PUSH2 0x3877 DUP2 PUSH2 0x3860 JUMP JUMPDEST DUP3 MSTORE POP POP JUMP JUMPDEST PUSH0 PUSH1 0x20 DUP3 ADD SWAP1 POP PUSH2 0x3890 PUSH0 DUP4 ADD DUP5 PUSH2 0x386E JUMP JUMPDEST SWAP3 SWAP2 POP POP JUMP JUMPDEST PUSH0 DUP1 PUSH0 DUP1 PUSH1 0x80 DUP6 DUP8 SUB SLT ISZERO PUSH2 0x38AE JUMPI PUSH2 0x38AD PUSH2 0x3482 JUMP JUMPDEST JUMPDEST PUSH0 PUSH2 0x38BB DUP8 DUP3 DUP9 ADD PUSH2 0x365C JUMP JUMPDEST SWAP5 POP POP PUSH1 0x20 PUSH2 0x38CC DUP8 DUP3 DUP9 ADD PUSH2 0x365C JUMP JUMPDEST SWAP4 POP POP PUSH1 0x40 PUSH2 0x38DD DUP8 DUP3 DUP9 ADD PUSH2 0x34A0 JUMP JUMPDEST SWAP3 POP POP PUSH1 0x60 PUSH2 0x38EE DUP8 DUP3 DUP9 ADD PUSH2 0x34A0 JUMP JUMPDEST SWAP2 POP POP SWAP3 SWAP6 SWAP2 SWAP5 POP SWAP3 POP JUMP JUMPDEST PUSH0 PUSH1 0x80 DUP3 ADD SWAP1 POP PUSH2 0x390D PUSH0 DUP4 ADD DUP8 PUSH2 0x3451 JUMP JUMPDEST PUSH2 0x391A PUSH1 0x20 DUP4 ADD DUP7 PUSH2 0x3451 JUMP JUMPDEST PUSH2 0x3927 PUSH1 0x40 DUP4 ADD DUP6 PUSH2 0x35E6 JUMP JUMPDEST PUSH2 0x3934 PUSH1 0x60 DUP4 ADD DUP5 PUSH2 0x35E6 JUMP JUMPDEST SWAP6 SWAP5 POP POP POP POP POP JUMP JUMPDEST PUSH0 PUSH1 0x20 DUP3 ADD SWAP1 POP PUSH2 0x3950 PUSH0 DUP4 ADD DUP5 PUSH2 0x350F JUMP JUMPDEST SWAP3 SWAP2 POP POP JUMP JUMPDEST PUSH0 DUP1 DUP4 PUSH1 0x1F DUP5 ADD SLT PUSH2 0x396B JUMPI PUSH2 0x396A PUSH2 0x3670 JUMP JUMPDEST JUMPDEST DUP3 CALLDATALOAD SWAP1 POP PUSH8 0xFFFFFFFFFFFFFFFF DUP2 GT ISZERO PUSH2 0x3988 JUMPI PUSH2 0x3987 PUSH2 0x3674 JUMP JUMPDEST JUMPDEST PUSH1 0x20 DUP4 ADD SWAP2 POP DUP4 PUSH1 0x20 DUP3 MUL DUP4 ADD GT ISZERO PUSH2 0x39A4 JUMPI PUSH2 0x39A3 PUSH2 0x3678 JUMP JUMPDEST JUMPDEST SWAP3 POP SWAP3 SWAP1 POP JUMP JUMPDEST PUSH0 DUP1 PUSH0 DUP1 PUSH0 DUP1 PUSH1 0x80 DUP8 DUP10 SUB SLT ISZERO PUSH2 0x39C5 JUMPI PUSH2 0x39C4 PUSH2 0x3482 JUMP JUMPDEST JUMPDEST PUSH0 PUSH2 0x39D2 DUP10 DUP3 DUP11 ADD PUSH2 0x365C JUMP JUMPDEST SWAP7 POP POP PUSH1 0x20 PUSH2 0x39E3 DUP10 DUP3 DUP11 ADD PUSH2 0x34A0 JUMP JUMPDEST SWAP6 POP POP PUSH1 0x40 DUP8 ADD CALLDATALOAD PUSH8 0xFFFFFFFFFFFFFFFF DUP2 GT ISZERO PUSH2 0x3A04 JUMPI PUSH2 0x3A03 PUSH2 0x3486 JUMP JUMPDEST JUMPDEST PUSH2 0x3A10 DUP10 DUP3 DUP11 ADD PUSH2 0x367C JUMP JUMPDEST SWAP5 POP SWAP5 POP POP PUSH1 0x60 DUP8 ADD CALLDATALOAD PUSH8 0xFFFFFFFFFFFFFFFF DUP2 GT ISZERO PUSH2 0x3A33 JUMPI PUSH2 0x3A32 PUSH2 0x3486 JUMP JUMPDEST JUMPDEST PUSH2 0x3A3F DUP10 DUP3 DUP11 ADD PUSH2 0x3956 JUMP JUMPDEST SWAP3 POP SWAP3 POP POP SWAP3 SWAP6 POP SWAP3 SWAP6 POP SWAP3 SWAP6 JUMP JUMPDEST PUSH0 DUP1 PUSH0 DUP1 PUSH0 DUP1 PUSH0 DUP1 PUSH0 PUSH2 0x120 DUP11 DUP13 SUB SLT ISZERO PUSH2 0x3A6C JUMPI PUSH2 0x3A6B PUSH2 0x3482 JUMP JUMPDEST JUMPDEST PUSH0 PUSH2 0x3A79 DUP13 DUP3 DUP14 ADD PUSH2 0x365C JUMP JUMPDEST SWAP10 POP POP PUSH1 0x20 PUSH2 0x3A8A DUP13 DUP3 DUP14 ADD PUSH2 0x365C JUMP JUMPDEST SWAP9 POP POP PUSH1 0x40 PUSH2 0x3A9B DUP13 DUP3 DUP14 ADD PUSH2 0x365C JUMP JUMPDEST SWAP8 POP POP PUSH1 0x60 PUSH2 0x3AAC DUP13 DUP3 DUP14 ADD PUSH2 0x365C JUMP JUMPDEST SWAP7 POP POP PUSH1 0x80 PUSH2 0x3ABD DUP13 DUP3 DUP14 ADD PUSH2 0x365C JUMP JUMPDEST SWAP6 POP POP PUSH1 0xA0 PUSH2 0x3ACE DUP13 DUP3 DUP14 ADD PUSH2 0x365C JUMP JUMPDEST SWAP5 POP POP PUSH1 0xC0 PUSH2 0x3ADF DUP13 DUP3 DUP14 ADD PUSH2 0x365C JUMP JUMPDEST SWAP4 POP POP PUSH1 0xE0 PUSH2 0x3AF0 DUP13 DUP3 DUP14 ADD PUSH2 0x365C JUMP JUMPDEST SWAP3 POP POP PUSH2 0x100 PUSH2 0x3B02 DUP13 DUP3 DUP14 ADD PUSH2 0x365C JUMP JUMPDEST SWAP2 POP POP SWAP3 SWAP6 SWAP9 POP SWAP3 SWAP6 SWAP9 POP SWAP3 SWAP6 SWAP9 JUMP JUMPDEST PUSH0 DUP1 REVERT JUMPDEST PUSH0 PUSH1 0xA0 DUP3 DUP5 SUB SLT ISZERO PUSH2 0x3B2B JUMPI PUSH2 0x3B2A PUSH2 0x3B12 JUMP JUMPDEST JUMPDEST DUP2 SWAP1 POP SWAP3 SWAP2 POP POP JUMP JUMPDEST PUSH0 DUP1 PUSH0 DUP1 PUSH0 PUSH1 0xA0 DUP7 DUP9 SUB SLT ISZERO PUSH2 0x3B4D JUMPI PUSH2 0x3B4C PUSH2 0x3482 JUMP JUMPDEST JUMPDEST PUSH0 PUSH2 0x3B5A DUP9 DUP3 DUP10 ADD PUSH2 0x365C JUMP JUMPDEST SWAP6 POP POP PUSH1 0x20 PUSH2 0x3B6B DUP9 DUP3 DUP10 ADD PUSH2 0x365C JUMP JUMPDEST SWAP5 POP POP PUSH1 0x40 PUSH2 0x3B7C DUP9 DUP3 DUP10 ADD PUSH2 0x365C JUMP JUMPDEST SWAP4 POP POP PUSH1 0x60 PUSH2 0x3B8D DUP9 DUP3 DUP10 ADD PUSH2 0x34A0 JUMP JUMPDEST SWAP3 POP POP PUSH1 0x80 DUP7 ADD CALLDATALOAD PUSH8 0xFFFFFFFFFFFFFFFF DUP2 GT ISZERO PUSH2 0x3BAE JUMPI PUSH2 0x3BAD PUSH2 0x3486 JUMP JUMPDEST JUMPDEST PUSH2 0x3BBA DUP9 DUP3 DUP10 ADD PUSH2 0x3B16 JUMP JUMPDEST SWAP2 POP POP SWAP3 SWAP6 POP SWAP3 SWAP6 SWAP1 SWAP4 POP JUMP JUMPDEST PUSH2 0x3BD0 DUP2 PUSH2 0x3860 JUMP JUMPDEST DUP2 EQ PUSH2 0x3BDA JUMPI PUSH0 DUP1 REVERT JUMPDEST POP JUMP JUMPDEST PUSH0 DUP2 CALLDATALOAD SWAP1 POP PUSH2 0x3BEB DUP2 PUSH2 0x3BC7 JUMP JUMPDEST SWAP3 SWAP2 POP POP JUMP JUMPDEST PUSH0 DUP1 PUSH0 PUSH1 0x60 DUP5 DUP7 SUB SLT ISZERO PUSH2 0x3C08 JUMPI PUSH2 0x3C07 PUSH2 0x3482 JUMP JUMPDEST JUMPDEST PUSH0 PUSH2 0x3C15 DUP7 DUP3 DUP8 ADD PUSH2 0x34A0 JUMP JUMPDEST SWAP4 POP POP PUSH1 0x20 PUSH2 0x3C26 DUP7 DUP3 DUP8 ADD PUSH2 0x365C JUMP JUMPDEST SWAP3 POP POP PUSH1 0x40 PUSH2 0x3C37 DUP7 DUP3 DUP8 ADD PUSH2 0x3BDD JUMP JUMPDEST SWAP2 POP POP SWAP3 POP SWAP3 POP SWAP3 JUMP JUMPDEST PUSH0 DUP1 PUSH0 PUSH1 0x60 DUP5 DUP7 SUB SLT ISZERO PUSH2 0x3C58 JUMPI PUSH2 0x3C57 PUSH2 0x3482 JUMP JUMPDEST JUMPDEST PUSH0 PUSH2 0x3C65 DUP7 DUP3 DUP8 ADD PUSH2 0x365C JUMP JUMPDEST SWAP4 POP POP PUSH1 0x20 PUSH2 0x3C76 DUP7 DUP3 DUP8 ADD PUSH2 0x365C JUMP JUMPDEST SWAP3 POP POP PUSH1 0x40 PUSH2 0x3C87 DUP7 DUP3 DUP8 ADD PUSH2 0x34A0 JUMP JUMPDEST SWAP2 POP POP SWAP3 POP SWAP3 POP SWAP3 JUMP JUMPDEST PUSH0 DUP1 PUSH0 DUP1 PUSH1 0x80 DUP6 DUP8 SUB SLT ISZERO PUSH2 0x3CA9 JUMPI PUSH2 0x3CA8 PUSH2 0x3482 JUMP JUMPDEST JUMPDEST PUSH0 PUSH2 0x3CB6 DUP8 DUP3 DUP9 ADD PUSH2 0x365C JUMP JUMPDEST SWAP5 POP POP PUSH1 0x20 PUSH2 0x3CC7 DUP8 DUP3 DUP9 ADD PUSH2 0x365C JUMP JUMPDEST SWAP4 POP POP PUSH1 0x40 PUSH2 0x3CD8 DUP8 DUP3 DUP9 ADD PUSH2 0x34A0 JUMP JUMPDEST SWAP3 POP POP PUSH1 0x60 DUP6 ADD CALLDATALOAD PUSH8 0xFFFFFFFFFFFFFFFF DUP2 GT ISZERO PUSH2 0x3CF9 JUMPI PUSH2 0x3CF8 PUSH2 0x3486 JUMP JUMPDEST JUMPDEST PUSH2 0x3D05 DUP8 DUP3 DUP9 ADD PUSH2 0x3B16 JUMP JUMPDEST SWAP2 POP POP SWAP3 SWAP6 SWAP2 SWAP5 POP SWAP3 POP JUMP JUMPDEST PUSH0 DUP1 DUP4 PUSH1 0x1F DUP5 ADD SLT PUSH2 0x3D26 JUMPI PUSH2 0x3D25 PUSH2 0x3670 JUMP JUMPDEST JUMPDEST DUP3 CALLDATALOAD SWAP1 POP PUSH8 0xFFFFFFFFFFFFFFFF DUP2 GT ISZERO PUSH2 0x3D43 JUMPI PUSH2 0x3D42 PUSH2 0x3674 JUMP JUMPDEST JUMPDEST PUSH1 0x20 DUP4 ADD SWAP2 POP DUP4 PUSH1 0x20 DUP3 MUL DUP4 ADD GT ISZERO PUSH2 0x3D5F JUMPI PUSH2 0x3D5E PUSH2 0x3678 JUMP JUMPDEST JUMPDEST SWAP3 POP SWAP3 SWAP1 POP JUMP JUMPDEST PUSH0 DUP1 PUSH0 DUP1 PUSH0 DUP1 PUSH1 0xA0 DUP8 DUP10 SUB SLT ISZERO PUSH2 0x3D80 JUMPI PUSH2 0x3D7F PUSH2 0x3482 JUMP JUMPDEST JUMPDEST PUSH0 PUSH2 0x3D8D DUP10 DUP3 DUP11 ADD PUSH2 0x34A0 JUMP JUMPDEST SWAP7 POP POP PUSH1 0x20 PUSH2 0x3D9E DUP10 DUP3 DUP11 ADD PUSH2 0x34A0 JUMP JUMPDEST SWAP6 POP POP PUSH1 0x40 DUP8 ADD CALLDATALOAD PUSH8 0xFFFFFFFFFFFFFFFF DUP2 GT ISZERO PUSH2 0x3DBF JUMPI PUSH2 0x3DBE PUSH2 0x3486 JUMP JUMPDEST JUMPDEST PUSH2 0x3DCB DUP10 DUP3 DUP11 ADD PUSH2 0x3D11 JUMP JUMPDEST SWAP5 POP SWAP5 POP POP PUSH1 0x60 PUSH2 0x3DDE DUP10 DUP3 DUP11 ADD PUSH2 0x365C JUMP JUMPDEST SWAP3 POP POP PUSH1 0x80 PUSH2 0x3DEF DUP10 DUP3 DUP11 ADD PUSH2 0x3771 JUMP JUMPDEST SWAP2 POP POP SWAP3 SWAP6 POP SWAP3 SWAP6 POP SWAP3 SWAP6 JUMP JUMPDEST PUSH0 DUP1 PUSH0 DUP1 PUSH1 0x80 DUP6 DUP8 SUB SLT ISZERO PUSH2 0x3E14 JUMPI PUSH2 0x3E13 PUSH2 0x3482 JUMP JUMPDEST JUMPDEST PUSH0 PUSH2 0x3E21 DUP8 DUP3 DUP9 ADD PUSH2 0x365C JUMP JUMPDEST SWAP5 POP POP PUSH1 0x20 PUSH2 0x3E32 DUP8 DUP3 DUP9 ADD PUSH2 0x365C JUMP JUMPDEST SWAP4 POP POP PUSH1 0x40 PUSH2 0x3E43 DUP8 DUP3 DUP9 ADD PUSH2 0x365C JUMP JUMPDEST SWAP3 POP POP PUSH1 0x60 PUSH2 0x3E54 DUP8 DUP3 DUP9 ADD PUSH2 0x34A0 JUMP JUMPDEST SWAP2 POP POP SWAP3 SWAP6 SWAP2 SWAP5 POP SWAP3 POP JUMP JUMPDEST PUSH0 DUP3 DUP3 MSTORE PUSH1 0x20 DUP3 ADD SWAP1 POP SWAP3 SWAP2 POP POP JUMP JUMPDEST PUSH32 0x6E6F74206F776E65720000000000000000000000000000000000000000000000 PUSH0 DUP3 ADD MSTORE POP JUMP JUMPDEST PUSH0 PUSH2 0x3EA4 PUSH1 0x9 DUP4 PUSH2 0x3E60 JUMP JUMPDEST SWAP2 POP PUSH2 0x3EAF DUP3 PUSH2 0x3E70 JUMP JUMPDEST PUSH1 0x20 DUP3 ADD SWAP1 POP SWAP2 SWAP1 POP JUMP JUMPDEST PUSH0 PUSH1 0x20 DUP3 ADD SWAP1 POP DUP2 DUP2 SUB PUSH0 DUP4 ADD MSTORE PUSH2 0x3ED1 DUP2 PUSH2 0x3E98 JUMP JUMPDEST SWAP1 POP SWAP2 SWAP1 POP JUMP JUMPDEST PUSH32 0x4E487B7100000000000000000000000000000000000000000000000000000000 PUSH0 MSTORE PUSH1 0x41 PUSH1 0x4 MSTORE PUSH1 0x24 PUSH0 REVERT JUMPDEST PUSH0 DUP2 SWAP1 POP SWAP2 SWAP1 POP JUMP JUMPDEST PUSH0 PUSH2 0x3F28 PUSH2 0x3F23 PUSH2 0x3F1E DUP5 PUSH2 0x3F05 JUMP JUMPDEST PUSH2 0x3567 JUMP JUMPDEST PUSH2 0x351E JUMP JUMPDEST SWAP1 POP SWAP2 SWAP1 POP JUMP JUMPDEST PUSH2 0x3F38 DUP2 PUSH2 0x3F0E JUMP JUMPDEST DUP3 MSTORE POP POP JUMP JUMPDEST PUSH0 DUP2 MLOAD SWAP1 POP SWAP2 SWAP1 POP JUMP JUMPDEST PUSH0 DUP3 DUP3 MSTORE PUSH1 0x20 DUP3 ADD SWAP1 POP SWAP3 SWAP2 POP POP JUMP JUMPDEST PUSH0 DUP2 SWAP1 POP PUSH1 0x20 DUP3 ADD SWAP1 POP SWAP2 SWAP1 POP JUMP JUMPDEST PUSH0 DUP2 MLOAD SWAP1 POP SWAP2 SWAP1 POP JUMP JUMPDEST PUSH0 DUP3 DUP3 MSTORE PUSH1 0x20 DUP3 ADD SWAP1 POP SWAP3 SWAP2 POP POP JUMP JUMPDEST PUSH0 JUMPDEST DUP4 DUP2 LT ISZERO PUSH2 0x3F9E JUMPI DUP1 DUP3 ADD MLOAD DUP2 DUP5 ADD MSTORE PUSH1 0x20 DUP2 ADD SWAP1 POP PUSH2 0x3F83 JUMP JUMPDEST PUSH0 DUP5 DUP5 ADD MSTORE POP POP POP POP JUMP JUMPDEST PUSH0 PUSH1 0x1F NOT PUSH1 0x1F DUP4 ADD AND SWAP1 POP SWAP2 SWAP1 POP JUMP JUMPDEST PUSH0 PUSH2 0x3FC3 DUP3 PUSH2 0x3F67 JUMP JUMPDEST PUSH2 0x3FCD DUP2 DUP6 PUSH2 0x3F71 JUMP JUMPDEST SWAP4 POP PUSH2 0x3FDD DUP2 DUP6 PUSH1 0x20 DUP7 ADD PUSH2 0x3F81 JUMP JUMPDEST PUSH2 0x3FE6 DUP2 PUSH2 0x3FA9 JUMP JUMPDEST DUP5 ADD SWAP2 POP POP SWAP3 SWAP2 POP POP JUMP JUMPDEST PUSH0 PUSH2 0x3FFC DUP4 DUP4 PUSH2 0x3FB9 JUMP JUMPDEST SWAP1 POP SWAP3 SWAP2 POP POP JUMP JUMPDEST PUSH0 PUSH1 0x20 DUP3 ADD SWAP1 POP SWAP2 SWAP1 POP JUMP JUMPDEST PUSH0 PUSH2 0x401A DUP3 PUSH2 0x3F3E JUMP JUMPDEST PUSH2 0x4024 DUP2 DUP6 PUSH2 0x3F48 JUMP JUMPDEST SWAP4 POP DUP4 PUSH1 0x20 DUP3 MUL DUP6 ADD PUSH2 0x4036 DUP6 PUSH2 0x3F58 JUMP JUMPDEST DUP1 PUSH0 JUMPDEST DUP6 DUP2 LT ISZERO PUSH2 0x4071 JUMPI DUP5 DUP5 SUB DUP10 MSTORE DUP2 MLOAD PUSH2 0x4052 DUP6 DUP3 PUSH2 0x3FF1 JUMP JUMPDEST SWAP5 POP PUSH2 0x405D DUP4 PUSH2 0x4004 JUMP JUMPDEST SWAP3 POP PUSH1 0x20 DUP11 ADD SWAP10 POP POP PUSH1 0x1 DUP2 ADD SWAP1 POP PUSH2 0x4039 JUMP JUMPDEST POP DUP3 SWAP8 POP DUP8 SWAP6 POP POP POP POP POP POP SWAP3 SWAP2 POP POP JUMP JUMPDEST PUSH0 PUSH1 0x60 DUP3 ADD SWAP1 POP PUSH2 0x4096 PUSH0 DUP4 ADD DUP7 PUSH2 0x350F JUMP JUMPDEST PUSH2 0x40A3 PUSH1 0x20 DUP4 ADD DUP6 PUSH2 0x3F2F JUMP JUMPDEST DUP2 DUP2 SUB PUSH1 0x40 DUP4 ADD MSTORE PUSH2 0x40B5 DUP2 DUP5 PUSH2 0x4010 JUMP JUMPDEST SWAP1 POP SWAP5 SWAP4 POP POP POP POP JUMP JUMPDEST PUSH0 DUP2 PUSH1 0x7 SIGNEXTEND SWAP1 POP SWAP2 SWAP1 POP JUMP JUMPDEST PUSH2 0x40D4 DUP2 PUSH2 0x40BF JUMP JUMPDEST DUP2 EQ PUSH2 0x40DE JUMPI PUSH0 DUP1 REVERT JUMPDEST POP JUMP JUMPDEST PUSH0 DUP2 MLOAD SWAP1 POP PUSH2 0x40EF DUP2 PUSH2 0x40CB JUMP JUMPDEST SWAP3 SWAP2 POP POP JUMP JUMPDEST PUSH0 DUP2 MLOAD SWAP1 POP PUSH2 0x4103 DUP2 PUSH2 0x375B JUMP JUMPDEST SWAP3 SWAP2 POP POP JUMP JUMPDEST PUSH2 0x4112 DUP3 PUSH2 0x3FA9 JUMP JUMPDEST DUP2 ADD DUP2 DUP2 LT PUSH8 0xFFFFFFFFFFFFFFFF DUP3 GT OR ISZERO PUSH2 0x4131 JUMPI PUSH2 0x4130 PUSH2 0x3ED8 JUMP JUMPDEST JUMPDEST DUP1 PUSH1 0x40 MSTORE POP POP POP JUMP JUMPDEST PUSH0 PUSH2 0x4143 PUSH2 0x3479 JUMP JUMPDEST SWAP1 POP PUSH2 0x414F DUP3 DUP3 PUSH2 0x4109 JUMP JUMPDEST SWAP2 SWAP1 POP JUMP JUMPDEST PUSH0 PUSH8 0xFFFFFFFFFFFFFFFF DUP3 GT ISZERO PUSH2 0x416E JUMPI PUSH2 0x416D PUSH2 0x3ED8 JUMP JUMPDEST JUMPDEST PUSH1 0x20 DUP3 MUL SWAP1 POP PUSH1 0x20 DUP2 ADD SWAP1 POP SWAP2 SWAP1 POP JUMP JUMPDEST PUSH0 PUSH2 0x4191 PUSH2 0x418C DUP5 PUSH2 0x4154 JUMP JUMPDEST PUSH2 0x413A JUMP JUMPDEST SWAP1 POP DUP1 DUP4 DUP3 MSTORE PUSH1 0x20 DUP3 ADD SWAP1 POP PUSH1 0x20 DUP5 MUL DUP4 ADD DUP6 DUP2 GT ISZERO PUSH2 0x41B4 JUMPI PUSH2 0x41B3 PUSH2 0x3678 JUMP JUMPDEST JUMPDEST DUP4 JUMPDEST DUP2 DUP2 LT ISZERO PUSH2 0x41DD JUMPI DUP1 PUSH2 0x41C9 DUP9 DUP3 PUSH2 0x40E1 JUMP JUMPDEST DUP5 MSTORE PUSH1 0x20 DUP5 ADD SWAP4 POP POP PUSH1 0x20 DUP2 ADD SWAP1 POP PUSH2 0x41B6 JUMP JUMPDEST POP POP POP SWAP4 SWAP3 POP POP POP JUMP JUMPDEST PUSH0 DUP3 PUSH1 0x1F DUP4 ADD SLT PUSH2 0x41FB JUMPI PUSH2 0x41FA PUSH2 0x3670 JUMP JUMPDEST JUMPDEST DUP2 MLOAD PUSH2 0x420B DUP5 DUP3 PUSH1 0x20 DUP7 ADD PUSH2 0x417F JUMP JUMPDEST SWAP2 POP POP SWAP3 SWAP2 POP POP JUMP JUMPDEST PUSH0 DUP1 PUSH0 PUSH1 0x60 DUP5 DUP7 SUB SLT ISZERO PUSH2 0x422B JUMPI PUSH2 0x422A PUSH2 0x3482 JUMP JUMPDEST JUMPDEST PUSH0 PUSH2 0x4238 DUP7 DUP3 DUP8 ADD PUSH2 0x40E1 JUMP JUMPDEST SWAP4 POP POP PUSH1 0x20 PUSH2 0x4249 DUP7 DUP3 DUP8 ADD PUSH2 0x40F5 JUMP JUMPDEST SWAP3 POP POP PUSH1 0x40 DUP5 ADD MLOAD PUSH8 0xFFFFFFFFFFFFFFFF DUP2 GT ISZERO PUSH2 0x426A JUMPI PUSH2 0x4269 PUSH2 0x3486 JUMP JUMPDEST JUMPDEST PUSH2 0x4276 DUP7 DUP3 DUP8 ADD PUSH2 0x41E7 JUMP JUMPDEST SWAP2 POP POP SWAP3 POP SWAP3 POP SWAP3 JUMP JUMPDEST PUSH32 0x6D696E74206661696C0000000000000000000000000000000000000000000000 PUSH0 DUP3 ADD MSTORE POP JUMP JUMPDEST PUSH0 PUSH2 0x42B4 PUSH1 0x9 DUP4 PUSH2 0x3E60 JUMP JUMPDEST SWAP2 POP PUSH2 0x42BF DUP3 PUSH2 0x4280 JUMP JUMPDEST PUSH1 0x20 DUP3 ADD SWAP1 POP SWAP2 SWAP1 POP JUMP JUMPDEST PUSH0 PUSH1 0x20 DUP3 ADD SWAP1 POP DUP2 DUP2 SUB PUSH0 DUP4 ADD MSTORE PUSH2 0x42E1 DUP2 PUSH2 0x42A8 JUMP JUMPDEST SWAP1 POP SWAP2 SWAP1 POP JUMP JUMPDEST DUP3 DUP2 DUP4 CALLDATACOPY PUSH0 DUP4 DUP4 ADD MSTORE POP POP POP JUMP JUMPDEST PUSH0 PUSH2 0x4301 DUP4 DUP6 PUSH2 0x3E60 JUMP JUMPDEST SWAP4 POP PUSH2 0x430E DUP4 DUP6 DUP5 PUSH2 0x42E8 JUMP JUMPDEST PUSH2 0x4317 DUP4 PUSH2 0x3FA9 JUMP JUMPDEST DUP5 ADD SWAP1 POP SWAP4 SWAP3 POP POP POP JUMP JUMPDEST PUSH0 PUSH1 0x20 DUP3 ADD SWAP1 POP DUP2 DUP2 SUB PUSH0 DUP4 ADD MSTORE PUSH2 0x433B DUP2 DUP5 DUP7 PUSH2 0x42F6 JUMP JUMPDEST SWAP1 POP SWAP4 SWAP3 POP POP POP JUMP JUMPDEST PUSH32 0x72756C65206F6666000000000000000000000000000000000000000000000000 PUSH0 DUP3 ADD MSTORE POP JUMP JUMPDEST PUSH0 PUSH2 0x4378 PUSH1 0x8 DUP4 PUSH2 0x3E60 JUMP JUMPDEST SWAP2 POP PUSH2 0x4383 DUP3 PUSH2 0x4344 JUMP JUMPDEST PUSH1 0x20 DUP3 ADD SWAP1 POP SWAP2 SWAP1 POP JUMP JUMPDEST PUSH0 PUSH1 0x20 DUP3 ADD SWAP1 POP DUP2 DUP2 SUB PUSH0 DUP4 ADD MSTORE PUSH2 0x43A5 DUP2 PUSH2 0x436C JUMP JUMPDEST SWAP1 POP SWAP2 SWAP1 POP JUMP JUMPDEST PUSH32 0x4E487B7100000000000000000000000000000000000000000000000000000000 PUSH0 MSTORE PUSH1 0x11 PUSH1 0x4 MSTORE PUSH1 0x24 PUSH0 REVERT JUMPDEST PUSH0 PUSH2 0x43E3 DUP3 PUSH2 0x351E JUMP JUMPDEST SWAP2 POP PUSH2 0x43EE DUP4 PUSH2 0x351E JUMP JUMPDEST SWAP3 POP DUP3 DUP3 MUL PUSH2 0x43FC DUP2 PUSH2 0x351E JUMP JUMPDEST SWAP2 POP DUP1 DUP3 EQ PUSH2 0x440E JUMPI PUSH2 0x440D PUSH2 0x43AC JUMP JUMPDEST JUMPDEST POP SWAP3 SWAP2 POP POP JUMP JUMPDEST PUSH0 PUSH1 0x60 DUP3 ADD SWAP1 POP PUSH2 0x4428 PUSH0 DUP4 ADD DUP7 PUSH2 0x350F JUMP JUMPDEST PUSH2 0x4435 PUSH1 0x20 DUP4 ADD DUP6 PUSH2 0x3531 JUMP JUMPDEST DUP2 DUP2 SUB PUSH1 0x40 DUP4 ADD MSTORE PUSH2 0x4447 DUP2 DUP5 PUSH2 0x4010 JUMP JUMPDEST SWAP1 POP SWAP5 SWAP4 POP POP POP POP JUMP JUMPDEST PUSH0 PUSH1 0x60 DUP3 ADD SWAP1 POP PUSH2 0x4464 PUSH0 DUP4 ADD DUP8 PUSH2 0x3531 JUMP JUMPDEST PUSH2 0x4471 PUSH1 0x20 DUP4 ADD DUP7 PUSH2 0x3531 JUMP JUMPDEST DUP2 DUP2 SUB PUSH1 0x40 DUP4 ADD MSTORE PUSH2 0x4484 DUP2 DUP5 DUP7 PUSH2 0x42F6 JUMP JUMPDEST SWAP1 POP SWAP6 SWAP5 POP POP POP POP POP JUMP JUMPDEST PUSH32 0x4E487B7100000000000000000000000000000000000000000000000000000000 PUSH0 MSTORE PUSH1 0x32 PUSH1 0x4 MSTORE PUSH1 0x24 PUSH0 REVERT JUMPDEST PUSH0 DUP2 SWAP1 POP SWAP2 SWAP1 POP JUMP JUMPDEST PUSH0 PUSH2 0x44CF DUP3 PUSH2 0x44BC JUMP JUMPDEST SWAP2 POP PUSH32 0xFFFFFFFFFFFFFFFFFFFFFFFFFFFFFFFFFFFFFFFFFFFFFFFFFFFFFFFFFFFFFFFF DUP3 SUB PUSH2 0x4501 JUMPI PUSH2 0x4500 PUSH2 0x43AC JUMP JUMPDEST JUMPDEST PUSH1 0x1 DUP3 ADD SWAP1 POP SWAP2 SWAP1 POP JUMP JUMPDEST PUSH32 0x7A65726F20616464720000000000000000000000000000000000000000000000 PUSH0 DUP3 ADD MSTORE POP JUMP JUMPDEST PUSH0 PUSH2 0x4540 PUSH1 0x9 DUP4 PUSH2 0x3E60 JUMP JUMPDEST SWAP2 POP PUSH2 0x454B DUP3 PUSH2 0x450C JUMP JUMPDEST PUSH1 0x20 DUP3 ADD SWAP1 POP SWAP2 SWAP1 POP JUMP JUMPDEST PUSH0 PUSH1 0x20 DUP3 ADD SWAP1 POP DUP2 DUP2 SUB PUSH0 DUP4 ADD MSTORE PUSH2 0x456D DUP2 PUSH2 0x4534 JUMP JUMPDEST SWAP1 POP SWAP2 SWAP1 POP JUMP JUMPDEST PUSH0 PUSH1 0xC0 DUP3 ADD SWAP1 POP PUSH2 0x4587 PUSH0 DUP4 ADD DUP10 PUSH2 0x350F JUMP JUMPDEST PUSH2 0x4594 PUSH1 0x20 DUP4 ADD DUP9 PUSH2 0x350F JUMP JUMPDEST PUSH2 0x45A1 PUSH1 0x40 DUP4 ADD DUP8 PUSH2 0x350F JUMP JUMPDEST PUSH2 0x45AE PUSH1 0x60 DUP4 ADD DUP7 PUSH2 0x350F JUMP JUMPDEST PUSH2 0x45BB PUSH1 0x80 DUP4 ADD DUP6 PUSH2 0x350F JUMP JUMPDEST PUSH2 0x45C8 PUSH1 0xA0 DUP4 ADD DUP5 PUSH2 0x350F JUMP JUMPDEST SWAP8 SWAP7 POP POP POP POP POP POP POP JUMP JUMPDEST PUSH32 0x696E70757473486173682D6D69736D6174636800000000000000000000000000 PUSH0 DUP3 ADD MSTORE POP JUMP JUMPDEST PUSH0 PUSH2 0x4607 PUSH1 0x13 DUP4 PUSH2 0x3E60 JUMP JUMPDEST SWAP2 POP PUSH2 0x4612 DUP3 PUSH2 0x45D3 JUMP JUMPDEST PUSH1 0x20 DUP3 ADD SWAP1 POP SWAP2 SWAP1 POP JUMP JUMPDEST PUSH0 PUSH1 0x20 DUP3 ADD SWAP1 POP DUP2 DUP2 SUB PUSH0 DUP4 ADD MSTORE PUSH2 0x4634 DUP2 PUSH2 0x45FB JUMP JUMPDEST SWAP1 POP SWAP2 SWAP1 POP JUMP JUMPDEST PUSH0 DUP1 REVERT JUMPDEST PUSH0 DUP1 REVERT JUMPDEST PUSH0 DUP1 REVERT JUMPDEST PUSH0 DUP1 DUP4 CALLDATALOAD PUSH1 0x1 PUSH1 0x20 SUB DUP5 CALLDATASIZE SUB SUB DUP2 SLT PUSH2 0x4663 JUMPI PUSH2 0x4662 PUSH2 0x463B JUMP JUMPDEST JUMPDEST DUP1 DUP5 ADD SWAP3 POP DUP3 CALLDATALOAD SWAP2 POP PUSH8 0xFFFFFFFFFFFFFFFF DUP3 GT ISZERO PUSH2 0x4685 JUMPI PUSH2 0x4684 PUSH2 0x463F JUMP JUMPDEST JUMPDEST PUSH1 0x20 DUP4 ADD SWAP3 POP PUSH1 0x1 DUP3 MUL CALLDATASIZE SUB DUP4 SGT ISZERO PUSH2 0x46A1 JUMPI PUSH2 0x46A0 PUSH2 0x4643 JUMP JUMPDEST JUMPDEST POP SWAP3 POP SWAP3 SWAP1 POP JUMP JUMPDEST PUSH0 PUSH1 0xA0 DUP3 ADD SWAP1 POP PUSH2 0x46BC PUSH0 DUP4 ADD DUP10 PUSH2 0x350F JUMP JUMPDEST PUSH2 0x46C9 PUSH1 0x20 DUP4 ADD DUP9 PUSH2 0x350F JUMP JUMPDEST PUSH2 0x46D6 PUSH1 0x40 DUP4 ADD DUP8 PUSH2 0x350F JUMP JUMPDEST PUSH2 0x46E3 PUSH1 0x60 DUP4 ADD DUP7 PUSH2 0x35E6 JUMP JUMPDEST DUP2 DUP2 SUB PUSH1 0x80 DUP4 ADD MSTORE PUSH2 0x46F6 DUP2 DUP5 DUP7 PUSH2 0x42F6 JUMP JUMPDEST SWAP1 POP SWAP8 SWAP7 POP POP POP POP POP POP POP JUMP JUMPDEST PUSH0 PUSH1 0x60 DUP3 ADD SWAP1 POP PUSH2 0x4716 PUSH0 DUP4 ADD DUP7 PUSH2 0x3451 JUMP JUMPDEST PUSH2 0x4723 PUSH1 0x20 DUP4 ADD DUP6 PUSH2 0x3451 JUMP JUMPDEST PUSH2 0x4730 PUSH1 0x40 DUP4 ADD DUP5 PUSH2 0x35E6 JUMP JUMPDEST SWAP5 SWAP4 POP POP POP POP JUMP JUMPDEST PUSH32 0x646F6D61696E206D75737420626520445F4C4947485400000000000000000000 PUSH0 DUP3 ADD MSTORE POP JUMP JUMPDEST PUSH0 PUSH2 0x476C PUSH1 0x16 DUP4 PUSH2 0x3E60 JUMP JUMPDEST SWAP2 POP PUSH2 0x4777 DUP3 PUSH2 0x4738 JUMP JUMPDEST PUSH1 0x20 DUP3 ADD SWAP1 POP SWAP2 SWAP1 POP JUMP JUMPDEST PUSH0 PUSH1 0x20 DUP3 ADD SWAP1 POP DUP2 DUP2 SUB PUSH0 DUP4 ADD MSTORE PUSH2 0x4799 DUP2 PUSH2 0x4760 JUMP JUMPDEST SWAP1 POP SWAP2 SWAP1 POP JUMP JUMPDEST PUSH0 PUSH1 0x60 DUP3 ADD SWAP1 POP PUSH2 0x47B3 PUSH0 DUP4 ADD DUP8 PUSH2 0x3F2F JUMP JUMPDEST PUSH2 0x47C0 PUSH1 0x20 DUP4 ADD DUP7 PUSH2 0x3531 JUMP JUMPDEST DUP2 DUP2 SUB PUSH1 0x40 DUP4 ADD MSTORE PUSH2 0x47D3 DUP2 DUP5 DUP7 PUSH2 0x42F6 JUMP JUMPDEST SWAP1 POP SWAP6 SWAP5 POP POP POP POP POP JUMP JUMPDEST PUSH32 0x6D7573742070726F766964652032206F72203320696E70757473000000000000 PUSH0 DUP3 ADD MSTORE POP JUMP JUMPDEST PUSH0 PUSH2 0x4812 PUSH1 0x1A DUP4 PUSH2 0x3E60 JUMP JUMPDEST SWAP2 POP PUSH2 0x481D DUP3 PUSH2 0x47DE JUMP JUMPDEST PUSH1 0x20 DUP3 ADD SWAP1 POP SWAP2 SWAP1 POP JUMP JUMPDEST PUSH0 PUSH1 0x20 DUP3 ADD SWAP1 POP DUP2 DUP2 SUB PUSH0 DUP4 ADD MSTORE PUSH2 0x483F DUP2 PUSH2 0x4806 JUMP JUMPDEST SWAP1 POP SWAP2 SWAP1 POP JUMP JUMPDEST PUSH32 0x6F75747075742063616E6E6F74206265207A65726F0000000000000000000000 PUSH0 DUP3 ADD MSTORE POP JUMP JUMPDEST PUSH0 PUSH2 0x487A PUSH1 0x15 DUP4 PUSH2 0x3E60 JUMP JUMPDEST SWAP2 POP PUSH2 0x4885 DUP3 PUSH2 0x4846 JUMP JUMPDEST PUSH1 0x20 DUP3 ADD SWAP1 POP SWAP2 SWAP1 POP JUMP JUMPDEST PUSH0 PUSH1 0x20 DUP3 ADD SWAP1 POP DUP2 DUP2 SUB PUSH0 DUP4 ADD MSTORE PUSH2 0x48A7 DUP2 PUSH2 0x486E JUMP JUMPDEST SWAP1 POP SWAP2 SWAP1 POP JUMP JUMPDEST PUSH32 0x726174696F206D75737420626520706F73697469766500000000000000000000 PUSH0 DUP3 ADD MSTORE POP JUMP JUMPDEST PUSH0 PUSH2 0x48E2 PUSH1 0x16 DUP4 PUSH2 0x3E60 JUMP JUMPDEST SWAP2 POP PUSH2 0x48ED DUP3 PUSH2 0x48AE JUMP JUMPDEST PUSH1 0x20 DUP3 ADD SWAP1 POP SWAP2 SWAP1 POP JUMP JUMPDEST PUSH0 PUSH1 0x20 DUP3 ADD SWAP1 POP DUP2 DUP2 SUB PUSH0 DUP4 ADD MSTORE PUSH2 0x490F DUP2 PUSH2 0x48D6 JUMP JUMPDEST SWAP1 POP SWAP2 SWAP1 POP JUMP JUMPDEST PUSH0 PUSH1 0x20 DUP3 DUP5 SUB SLT ISZERO PUSH2 0x492B JUMPI PUSH2 0x492A PUSH2 0x3482 JUMP JUMPDEST JUMPDEST PUSH0 PUSH2 0x4938 DUP5 DUP3 DUP6 ADD PUSH2 0x365C JUMP JUMPDEST SWAP2 POP POP SWAP3 SWAP2 POP POP JUMP JUMPDEST PUSH32 0x696E7075742063616E6E6F74206265207A65726F000000000000000000000000 PUSH0 DUP3 ADD MSTORE POP JUMP JUMPDEST PUSH0 PUSH2 0x4975 PUSH1 0x14 DUP4 PUSH2 0x3E60 JUMP JUMPDEST SWAP2 POP PUSH2 0x4980 DUP3 PUSH2 0x4941 JUMP JUMPDEST PUSH1 0x20 DUP3 ADD SWAP1 POP SWAP2 SWAP1 POP JUMP JUMPDEST PUSH0 PUSH1 0x20 DUP3 ADD SWAP1 POP DUP2 DUP2 SUB PUSH0 DUP4 ADD MSTORE PUSH2 0x49A2 DUP2 PUSH2 0x4969 JUMP JUMPDEST SWAP1 POP SWAP2 SWAP1 POP JUMP JUMPDEST PUSH0 PUSH2 0x49B3 DUP3 PUSH2 0x44BC JUMP JUMPDEST SWAP2 POP PUSH2 0x49BE DUP4 PUSH2 0x44BC JUMP JUMPDEST SWAP3 POP DUP3 DUP3 ADD SWAP1 POP DUP1 DUP3 GT ISZERO PUSH2 0x49D6 JUMPI PUSH2 0x49D5 PUSH2 0x43AC JUMP JUMPDEST JUMPDEST SWAP3 SWAP2 POP POP JUMP JUMPDEST PUSH32 0x696E70757473206D7573742062652064697374696E6374000000000000000000 PUSH0 DUP3 ADD MSTORE POP JUMP JUMPDEST PUSH0 PUSH2 0x4A10 PUSH1 0x17 DUP4 PUSH2 0x3E60 JUMP JUMPDEST SWAP2 POP PUSH2 0x4A1B DUP3 PUSH2 0x49DC JUMP JUMPDEST PUSH1 0x20 DUP3 ADD SWAP1 POP SWAP2 SWAP1 POP JUMP JUMPDEST PUSH0 PUSH1 0x20 DUP3 ADD SWAP1 POP DUP2 DUP2 SUB PUSH0 DUP4 ADD MSTORE PUSH2 0x4A3D DUP2 PUSH2 0x4A04 JUMP JUMPDEST SWAP1 POP SWAP2 SWAP1 POP JUMP JUMPDEST PUSH32 0x6F75747075742063616E6E6F7420626520616E20696E70757400000000000000 PUSH0 DUP3 ADD MSTORE POP JUMP JUMPDEST PUSH0 PUSH2 0x4A78 PUSH1 0x19 DUP4 PUSH2 0x3E60 JUMP JUMPDEST SWAP2 POP PUSH2 0x4A83 DUP3 PUSH2 0x4A44 JUMP JUMPDEST PUSH1 0x20 DUP3 ADD SWAP1 POP SWAP2 SWAP1 POP JUMP JUMPDEST PUSH0 PUSH1 0x20 DUP3 ADD SWAP1 POP DUP2 DUP2 SUB PUSH0 DUP4 ADD MSTORE PUSH2 0x4AA5 DUP2 PUSH2 0x4A6C JUMP JUMPDEST SWAP1 POP SWAP2 SWAP1 POP JUMP JUMPDEST PUSH0 DUP3 DUP3 MSTORE PUSH1 0x20 DUP3 ADD SWAP1 POP SWAP3 SWAP2 POP POP JUMP JUMPDEST PUSH0 DUP2 SWAP1 POP SWAP2 SWAP1 POP JUMP JUMPDEST PUSH2 0x4ACE DUP2 PUSH2 0x34FE JUMP JUMPDEST DUP3 MSTORE POP POP JUMP JUMPDEST PUSH0 PUSH2 0x4ADF DUP4 DUP4 PUSH2 0x4AC5 JUMP JUMPDEST PUSH1 0x20 DUP4 ADD SWAP1 POP SWAP3 SWAP2 POP POP JUMP JUMPDEST PUSH0 PUSH2 0x4AF9 PUSH1 0x20 DUP5 ADD DUP5 PUSH2 0x365C JUMP JUMPDEST SWAP1 POP SWAP3 SWAP2 POP POP JUMP JUMPDEST PUSH0 PUSH1 0x20 DUP3 ADD SWAP1 POP SWAP2 SWAP1 POP JUMP JUMPDEST PUSH0 PUSH2 0x4B18 DUP4 DUP6 PUSH2 0x4AAC JUMP JUMPDEST SWAP4 POP PUSH2 0x4B23 DUP3 PUSH2 0x4ABC JUMP JUMPDEST DUP1 PUSH0 JUMPDEST DUP6 DUP2 LT ISZERO PUSH2 0x4B5B JUMPI PUSH2 0x4B38 DUP3 DUP5 PUSH2 0x4AEB JUMP JUMPDEST PUSH2 0x4B42 DUP9 DUP3 PUSH2 0x4AD4 JUMP JUMPDEST SWAP8 POP PUSH2 0x4B4D DUP4 PUSH2 0x4B01 JUMP JUMPDEST SWAP3 POP POP PUSH1 0x1 DUP2 ADD SWAP1 POP PUSH2 0x4B26 JUMP JUMPDEST POP DUP6 SWAP3 POP POP POP SWAP4 SWAP3 POP POP POP JUMP JUMPDEST PUSH0 PUSH1 0x80 DUP3 ADD SWAP1 POP PUSH2 0x4B7B PUSH0 DUP4 ADD DUP9 PUSH2 0x3451 JUMP JUMPDEST PUSH2 0x4B88 PUSH1 0x20 DUP4 ADD DUP8 PUSH2 0x3451 JUMP JUMPDEST DUP2 DUP2 SUB PUSH1 0x40 DUP4 ADD MSTORE PUSH2 0x4B9B DUP2 DUP6 DUP8 PUSH2 0x4B0D JUMP JUMPDEST SWAP1 POP PUSH2 0x4BAA PUSH1 0x60 DUP4 ADD DUP5 PUSH2 0x350F JUMP JUMPDEST SWAP7 SWAP6 POP POP POP POP POP POP JUMP JUMPDEST PUSH32 0x72756C6520616C72656164792065786973747300000000000000000000000000 PUSH0 DUP3 ADD MSTORE POP JUMP JUMPDEST PUSH0 PUSH2 0x4BE8 PUSH1 0x13 DUP4 PUSH2 0x3E60 JUMP JUMPDEST SWAP2 POP PUSH2 0x4BF3 DUP3 PUSH2 0x4BB4 JUMP JUMPDEST PUSH1 0x20 DUP3 ADD SWAP1 POP SWAP2 SWAP1 POP JUMP JUMPDEST PUSH0 PUSH1 0x20 DUP3 ADD SWAP1 POP DUP2 DUP2 SUB PUSH0 DUP4 ADD MSTORE PUSH2 0x4C15 DUP2 PUSH2 0x4BDC JUMP JUMPDEST SWAP1 POP SWAP2 SWAP1 POP JUMP JUMPDEST PUSH0 PUSH1 0xA0 DUP3 ADD SWAP1 POP PUSH2 0x4C2F PUSH0 DUP4 ADD DUP10 PUSH2 0x3451 JUMP JUMPDEST PUSH2 0x4C3C PUSH1 0x20 DUP4 ADD DUP9 PUSH2 0x3451 JUMP JUMPDEST DUP2 DUP2 SUB PUSH1 0x40 DUP4 ADD MSTORE PUSH2 0x4C4F DUP2 DUP7 DUP9 PUSH2 0x4B0D JUMP JUMPDEST SWAP1 POP PUSH2 0x4C5E PUSH1 0x60 DUP4 ADD DUP6 PUSH2 0x350F JUMP JUMPDEST PUSH2 0x4C6B PUSH1 0x80 DUP4 ADD DUP5 PUSH2 0x3531 JUMP JUMPDEST SWAP8 SWAP7 POP POP POP POP POP POP POP JUMP JUMPDEST PUSH0 PUSH1 0xA0 DUP3 ADD SWAP1 POP PUSH2 0x4C89 PUSH0 DUP4 ADD DUP9 PUSH2 0x350F JUMP JUMPDEST PUSH2 0x4C96 PUSH1 0x20 DUP4 ADD DUP8 PUSH2 0x350F JUMP JUMPDEST PUSH2 0x4CA3 PUSH1 0x40 DUP4 ADD DUP7 PUSH2 0x350F JUMP JUMPDEST PUSH2 0x4CB0 PUSH1 0x60 DUP4 ADD DUP6 PUSH2 0x3451 JUMP JUMPDEST PUSH2 0x4CBD PUSH1 0x80 DUP4 ADD DUP5 PUSH2 0x3451 JUMP JUMPDEST SWAP7 SWAP6 POP POP POP POP POP POP JUMP JUMPDEST PUSH0 PUSH1 0x80 DUP3 ADD SWAP1 POP PUSH2 0x4CDA PUSH0 DUP4 ADD DUP8 PUSH2 0x350F JUMP JUMPDEST PUSH2 0x4CE7 PUSH1 0x20 DUP4 ADD DUP7 PUSH2 0x350F JUMP JUMPDEST PUSH2 0x4CF4 PUSH1 0x40 DUP4 ADD DUP6 PUSH2 0x3451 JUMP JUMPDEST PUSH2 0x4D01 PUSH1 0x60 DUP4 ADD DUP5 PUSH2 0x3451 JUMP JUMPDEST SWAP6 SWAP5 POP POP POP POP POP JUMP JUMPDEST PUSH32 0x756E737570706F727465642D61646469746976652D7061697200000000000000 PUSH0 DUP3 ADD MSTORE POP JUMP JUMPDEST PUSH0 PUSH2 0x4D3E PUSH1 0x19 DUP4 PUSH2 0x3E60 JUMP JUMPDEST SWAP2 POP PUSH2 0x4D49 DUP3 PUSH2 0x4D0A JUMP JUMPDEST PUSH1 0x20 DUP3 ADD SWAP1 POP SWAP2 SWAP1 POP JUMP JUMPDEST PUSH0 PUSH1 0x20 DUP3 ADD SWAP1 POP DUP2 DUP2 SUB PUSH0 DUP4 ADD MSTORE PUSH2 0x4D6B DUP2 PUSH2 0x4D32 JUMP JUMPDEST SWAP1 POP SWAP2 SWAP1 POP JUMP JUMPDEST PUSH0 PUSH1 0xFF DUP3 AND SWAP1 POP SWAP2 SWAP1 POP JUMP JUMPDEST PUSH0 PUSH2 0x4D88 DUP3 PUSH2 0x4D72 JUMP JUMPDEST SWAP2 POP PUSH2 0x4D93 DUP4 PUSH2 0x4D72 JUMP JUMPDEST SWAP3 POP DUP3 DUP3 SUB SWAP1 POP PUSH1 0xFF DUP2 GT ISZERO PUSH2 0x4DAC JUMPI PUSH2 0x4DAB PUSH2 0x43AC JUMP JUMPDEST JUMPDEST SWAP3 SWAP2 POP POP JUMP INVALID LOG2 PUSH5 0x6970667358 0x22 SLT KECCAK256 SWAP2 OR JUMPDEST XOR CALLDATALOAD STOP LOG4 0xB4 DUP16 0xC6 SWAP15 SWAP8 PREVRANDAO DUP7 PUSH14 0x8BF9E0D58B8A2A38C97B1851FA77 PUSH30 0xF5A864736F6C634300081400330000000000000000000000000000000000 "},"methodIdentifiers":{"BLACK_TOKEN_ADDR()":"b2b8e2a1","BLUE_TOKEN_ADDR()":"9d5d42ca","CYAN_TOKEN_ADDR()":"d59a70dd","D_ENTITY_LIGHT()":"c1b2daf4","D_ENTITY_PAINT()":"34e98c62","D_LIGHT()":"795bb332","D_PAINT()":"74832db5","GREEN_TOKEN_ADDR()":"c984d759","HTS()":"1bc92162","MAGENTA_TOKEN_ADDR()":"a59ee59e","OP_ADD()":"2602c01e","OP_ATTEST()":"695fee64","OP_SUB()":"0548a9e7","PURPLE_TOKEN_ADDR()":"53f1bc1d","RED_TOKEN_ADDR()":"d6dd7673","WHITE_TOKEN_ADDR()":"903ac6d4","YELLOW_TOKEN_ADDR()":"f1385a1a","cachedOutputs(bytes32)":"0ff62e93","debugValidation(address,address,bytes32,bytes32)":"487cd70a","getInputsHash(bytes32)":"35e64e57","getRGB(bytes32,address)":"dfbc9772","inputsHashAdd(address,address,bytes32)":"9ca6d971","inputsHashOf(bytes32)":"b1fbccd2","inputsHashSub(address,address,address,bytes32)":"f5803560","owner()":"8da5cb5b","projections(bytes32,address)":"3e69d025","proofSeen(bytes32)":"a70f0ad7","publishEntity(address,bytes32,string)":"3b958a53","publishEntityV2(address,bytes32,string,bytes32[])":"5eaa48af","reason(bytes32,uint64,bytes32,string)":"3d7b86de","reasonAdd(address,address,bytes32,(bytes32,bytes32,bytes32,bytes32,string))":"c687cfeb","reasonCheckSub(address,address,address,bytes32,(bytes32,bytes32,bytes32,bytes32,string))":"72775a9b","reasoningSchemaHash()":"ed92df13","registerProjection(bytes32,address,uint24)":"81ac8b6a","rules(bytes32)":"216b8577","seen(bytes32)":"beeb3f34","setRule(bytes32,bytes32,address[],address,uint64)":"dec40116","setSchemaHash(bytes32)":"12fc39c7","setTokenAddresses(address,address,address,address,address,address,address,address,address)":"66692c3a"}}}}}