{"project/contracts/reasoningContract.sol":{"ReasoningContract":{"abi":[{"inputs":[{"internalType":"bytes32","name":"_schemaHash","type":"bytes32"}],"stateMutability":"nonpayable","type":"constructor"},{"inputs":[],"name":"Ontologic_InvalidEntity","type":"error"},{"inputs":[],"name":"Ontologic_MissingEvidence","type":"error"},{"inputs":[],"name":"Ontologic_UnknownEntityDomain","type":"error"},{"anonymous":false,"inputs":[{"indexed":false,"internalType":"bytes32","name":"clientHash","type":"bytes32"},{"indexed":false,"internalType":"bytes32","name":"contractHash","type":"bytes32"},{"indexed":false,"internalType":"bool","name":"matches","type":"bool"}],"name":"DebugInputsHash","type":"event"},{"anonymous":false,"inputs":[{"indexed":true,"internalType":"bytes32","name":"ruleId","type":"bytes32"},{"indexed":true,"internalType":"address","name":"caller","type":"address"},{"indexed":false,"internalType":"uint64","name":"inputUnits","type":"uint64"},{"indexed":false,"internalType":"uint64","name":"mintedUnits","type":"uint64"},{"indexed":true,"internalType":"bytes32","name":"proofHash","type":"bytes32"},{"indexed":false,"internalType":"string","name":"canonicalUri","type":"string"}],"name":"ProofAdd","type":"event"},{"anonymous":false,"inputs":[{"indexed":true,"internalType":"bytes32","name":"proofHash","type":"bytes32"},{"indexed":true,"internalType":"bytes32","name":"domain","type":"bytes32"},{"indexed":false,"internalType":"address","name":"A","type":"address"},{"indexed":false,"internalType":"address","name":"B","type":"address"},{"indexed":false,"internalType":"address","name":"C","type":"address"},{"indexed":false,"internalType":"bool","name":"verdict","type":"bool"},{"indexed":false,"internalType":"string","name":"canonicalUri","type":"string"}],"name":"ProofCheck","type":"event"},{"anonymous":false,"inputs":[{"indexed":true,"internalType":"bytes32","name":"manifestHash","type":"bytes32"},{"indexed":true,"internalType":"address","name":"token","type":"address"},{"indexed":false,"internalType":"string","name":"uri","type":"string"},{"indexed":true,"internalType":"address","name":"controller","type":"address"}],"name":"ProofEntity","type":"event"},{"anonymous":false,"inputs":[{"indexed":true,"internalType":"bytes32","name":"proofHash","type":"bytes32"},{"indexed":true,"internalType":"address","name":"caller","type":"address"}],"name":"ProofReplay","type":"event"},{"anonymous":false,"inputs":[{"indexed":true,"internalType":"bytes32","name":"ruleId","type":"bytes32"},{"indexed":false,"internalType":"bytes32","name":"domain","type":"bytes32"},{"indexed":false,"internalType":"bytes32","name":"operator","type":"bytes32"},{"indexed":false,"internalType":"address[]","name":"inputs","type":"address[]"},{"indexed":false,"internalType":"address","name":"outputToken","type":"address"},{"indexed":false,"internalType":"uint64","name":"ratio","type":"uint64"}],"name":"RuleSet","type":"event"},{"anonymous":false,"inputs":[{"indexed":true,"internalType":"address","name":"red","type":"address"},{"indexed":true,"internalType":"address","name":"green","type":"address"},{"indexed":true,"internalType":"address","name":"blue","type":"address"},{"indexed":false,"internalType":"address","name":"yellow","type":"address"},{"indexed":false,"internalType":"address","name":"cyan","type":"address"},{"indexed":false,"internalType":"address","name":"magenta","type":"address"},{"indexed":false,"internalType":"address","name":"white","type":"address"},{"indexed":false,"internalType":"address","name":"black","type":"address"},{"indexed":false,"internalType":"address","name":"purple","type":"address"}],"name":"TokenAddressesUpdated","type":"event"},{"inputs":[],"name":"BLACK_TOKEN_ADDR","outputs":[{"internalType":"address","name":"","type":"address"}],"stateMutability":"view","type":"function"},{"inputs":[],"name":"BLUE_TOKEN_ADDR","outputs":[{"internalType":"address","name":"","type":"address"}],"stateMutability":"view","type":"function"},{"inputs":[],"name":"CYAN_TOKEN_ADDR","outputs":[{"internalType":"address","name":"","type":"address"}],"stateMutability":"view","type":"function"},{"inputs":[],"name":"D_ENTITY_LIGHT","outputs":[{"internalType":"bytes32","name":"","type":"bytes32"}],"stateMutability":"view","type":"function"},{"inputs":[],"name":"D_ENTITY_PAINT","outputs":[{"internalType":"bytes32","name":"","type":"bytes32"}],"stateMutability":"view","type":"function"},{"inputs":[],"name":"D_LIGHT","outputs":[{"internalType":"bytes32","name":"","type":"bytes32"}],"stateMutability":"view","type":"function"},{"inputs":[],"name":"D_PAINT","outputs":[{"internalType":"bytes32","name":"","type":"bytes32"}],"stateMutability":"view","type":"function"},{"inputs":[],"name":"GREEN_TOKEN_ADDR","outputs":[{"internalType":"address","name":"","type":"address"}],"stateMutability":"view","type":"function"},{"inputs":[],"name":"HTS","outputs":[{"internalType":"contract IHederaTokenService","name":"","type":"address"}],"stateMutability":"view","type":"function"},{"inputs":[],"name":"MAGENTA_TOKEN_ADDR","outputs":[{"internalType":"address","name":"","type":"address"}],"stateMutability":"view","type":"function"},{"inputs":[],"name":"OP_ADD","outputs":[{"internalType":"bytes32","name":"","type":"bytes32"}],"stateMutability":"view","type":"function"},{"inputs":[],"name":"OP_ATTEST","outputs":[{"internalType":"bytes32","name":"","type":"bytes32"}],"stateMutability":"view","type":"function"},{"inputs":[],"name":"OP_SUB","outputs":[{"internalType":"bytes32","name":"","type":"bytes32"}],"stateMutability":"view","type":"function"},{"inputs":[],"name":"PURPLE_TOKEN_ADDR","outputs":[{"internalType":"address","name":"","type":"address"}],"stateMutability":"view","type":"function"},{"inputs":[],"name":"RED_TOKEN_ADDR","outputs":[{"internalType":"address","name":"","type":"address"}],"stateMutability":"view","type":"function"},{"inputs":[],"name":"WHITE_TOKEN_ADDR","outputs":[{"internalType":"address","name":"","type":"address"}],"stateMutability":"view","type":"function"},{"inputs":[],"name":"YELLOW_TOKEN_ADDR","outputs":[{"internalType":"address","name":"","type":"address"}],"stateMutability":"view","type":"function"},{"inputs":[{"internalType":"bytes32","name":"","type":"bytes32"}],"name":"cachedOutputs","outputs":[{"internalType":"address","name":"token","type":"address"},{"internalType":"uint64","name":"amount","type":"uint64"}],"stateMutability":"view","type":"function"},{"inputs":[{"internalType":"address","name":"A","type":"address"},{"internalType":"address","name":"B","type":"address"},{"internalType":"bytes32","name":"domainHash","type":"bytes32"},{"internalType":"bytes32","name":"inputsHash","type":"bytes32"}],"name":"debugValidation","outputs":[{"internalType":"bytes32","name":"expectedDomain","type":"bytes32"},{"internalType":"bytes32","name":"expectedInputs","type":"bytes32"},{"internalType":"bool","name":"domainMatch","type":"bool"},{"internalType":"bool","name":"inputMatch","type":"bool"}],"stateMutability":"view","type":"function"},{"inputs":[{"internalType":"bytes32","name":"proofHash","type":"bytes32"}],"name":"getInputsHash","outputs":[{"internalType":"bytes32","name":"","type":"bytes32"}],"stateMutability":"view","type":"function"},{"inputs":[{"internalType":"bytes32","name":"domainHash","type":"bytes32"},{"internalType":"address","name":"token","type":"address"}],"name":"getRGB","outputs":[{"internalType":"uint24","name":"","type":"uint24"}],"stateMutability":"view","type":"function"},{"inputs":[{"internalType":"address","name":"A","type":"address"},{"internalType":"address","name":"B","type":"address"},{"internalType":"bytes32","name":"domainHash","type":"bytes32"}],"name":"inputsHashAdd","outputs":[{"internalType":"bytes32","name":"","type":"bytes32"}],"stateMutability":"pure","type":"function"},{"inputs":[{"internalType":"bytes32","name":"","type":"bytes32"}],"name":"inputsHashOf","outputs":[{"internalType":"bytes32","name":"","type":"bytes32"}],"stateMutability":"view","type":"function"},{"inputs":[{"internalType":"address","name":"A","type":"address"},{"internalType":"address","name":"B","type":"address"},{"internalType":"address","name":"C","type":"address"},{"internalType":"bytes32","name":"domainHash","type":"bytes32"}],"name":"inputsHashSub","outputs":[{"internalType":"bytes32","name":"","type":"bytes32"}],"stateMutability":"pure","type":"function"},{"inputs":[],"name":"owner","outputs":[{"internalType":"address","name":"","type":"address"}],"stateMutability":"view","type":"function"},{"inputs":[{"internalType":"bytes32","name":"","type":"bytes32"},{"internalType":"address","name":"","type":"address"}],"name":"projections","outputs":[{"internalType":"uint24","name":"","type":"uint24"}],"stateMutability":"view","type":"function"},{"inputs":[{"internalType":"bytes32","name":"","type":"bytes32"}],"name":"proofSeen","outputs":[{"internalType":"bool","name":"","type":"bool"}],"stateMutability":"view","type":"function"},{"inputs":[{"internalType":"address","name":"token","type":"address"},{"internalType":"bytes32","name":"manifestHash","type":"bytes32"},{"internalType":"string","name":"uri","type":"string"}],"name":"publishEntity","outputs":[{"internalType":"bool","name":"ok","type":"bool"}],"stateMutability":"nonpayable","type":"function"},{"inputs":[{"internalType":"bytes32","name":"ruleId","type":"bytes32"},{"internalType":"uint64","name":"inputUnits","type":"uint64"},{"internalType":"bytes32","name":"proofHash","type":"bytes32"},{"internalType":"string","name":"canonicalUri","type":"string"}],"name":"reason","outputs":[{"internalType":"uint64","name":"minted","type":"uint64"}],"stateMutability":"nonpayable","type":"function"},{"inputs":[{"internalType":"address","name":"A","type":"address"},{"internalType":"address","name":"B","type":"address"},{"internalType":"bytes32","name":"domainHash","type":"bytes32"},{"components":[{"internalType":"bytes32","name":"inputsHash","type":"bytes32"},{"internalType":"bytes32","name":"proofHash","type":"bytes32"},{"internalType":"bytes32","name":"factHash","type":"bytes32"},{"internalType":"bytes32","name":"ruleHash","type":"bytes32"},{"internalType":"string","name":"canonicalUri","type":"string"}],"internalType":"struct ReasoningContract.ProofData","name":"p","type":"tuple"}],"name":"reasonAdd","outputs":[{"internalType":"address","name":"outToken","type":"address"},{"internalType":"uint64","name":"amount","type":"uint64"}],"stateMutability":"nonpayable","type":"function"},{"inputs":[{"internalType":"address","name":"A","type":"address"},{"internalType":"address","name":"B","type":"address"},{"internalType":"address","name":"C","type":"address"},{"internalType":"bytes32","name":"domainHash","type":"bytes32"},{"components":[{"internalType":"bytes32","name":"inputsHash","type":"bytes32"},{"internalType":"bytes32","name":"proofHash","type":"bytes32"},{"internalType":"bytes32","name":"factHash","type":"bytes32"},{"internalType":"bytes32","name":"ruleHash","type":"bytes32"},{"internalType":"string","name":"canonicalUri","type":"string"}],"internalType":"struct ReasoningContract.ProofData","name":"p","type":"tuple"}],"name":"reasonCheckSub","outputs":[{"internalType":"bool","name":"verdict","type":"bool"}],"stateMutability":"nonpayable","type":"function"},{"inputs":[],"name":"reasoningSchemaHash","outputs":[{"internalType":"bytes32","name":"","type":"bytes32"}],"stateMutability":"view","type":"function"},{"inputs":[{"internalType":"bytes32","name":"domain","type":"bytes32"},{"internalType":"address","name":"token","type":"address"},{"internalType":"uint24","name":"rgb24","type":"uint24"}],"name":"registerProjection","outputs":[],"stateMutability":"nonpayable","type":"function"},{"inputs":[{"internalType":"bytes32","name":"","type":"bytes32"}],"name":"rules","outputs":[{"internalType":"bytes32","name":"domain","type":"bytes32"},{"internalType":"bytes32","name":"operator","type":"bytes32"},{"internalType":"address","name":"outputToken","type":"address"},{"internalType":"uint64","name":"ratioNumerator","type":"uint64"},{"internalType":"bool","name":"active","type":"bool"}],"stateMutability":"view","type":"function"},{"inputs":[{"internalType":"bytes32","name":"proofHash","type":"bytes32"}],"name":"seen","outputs":[{"internalType":"bool","name":"","type":"bool"}],"stateMutability":"view","type":"function"},{"inputs":[{"internalType":"bytes32","name":"domain","type":"bytes32"},{"internalType":"bytes32","name":"operator","type":"bytes32"},{"internalType":"address[]","name":"inputs","type":"address[]"},{"internalType":"address","name":"outputToken","type":"address"},{"internalType":"uint64","name":"ratioNumerator","type":"uint64"}],"name":"setRule","outputs":[{"internalType":"bytes32","name":"ruleId","type":"bytes32"}],"stateMutability":"nonpayable","type":"function"},{"inputs":[{"internalType":"bytes32","name":"_schemaHash","type":"bytes32"}],"name":"setSchemaHash","outputs":[],"stateMutability":"nonpayable","type":"function"},{"inputs":[{"internalType":"address","name":"_red","type":"address"},{"internalType":"address","name":"_green","type":"address"},{"internalType":"address","name":"_blue","type":"address"},{"internalType":"address","name":"_yellow","type":"address"},{"internalType":"address","name":"_cyan","type":"address"},{"internalType":"address","name":"_magenta","type":"address"},{"internalType":"address","name":"_white","type":"address"},{"internalType":"address","name":"_black","type":"address"},{"internalType":"address","name":"_purple","type":"address"}],"name":"setTokenAddresses","outputs":[],"stateMutability":"nonpayable","type":"function"}],"evm":{"bytecode":{"linkReferences":{},"object":"608060405234801562000010575f80fd5b50604051620048a4380380620048a48339818101604052810190620000369190620000c0565b3360095f6101000a81548173ffffffffffffffffffffffffffffffffffffffff021916908373ffffffffffffffffffffffffffffffffffffffff16021790555080600a8190555050620000f0565b5f80fd5b5f819050919050565b6200009c8162000088565b8114620000a7575f80fd5b50565b5f81519050620000ba8162000091565b92915050565b5f60208284031215620000d857620000d762000084565b5b5f620000e784828501620000aa565b91505092915050565b6147a680620000fe5f395ff3fe608060405234801561000f575f80fd5b5060043610610230575f3560e01c80638da5cb5b1161012e578063c1b2daf4116100b6578063dec401161161007a578063dec40116146106ff578063dfbc97721461072f578063ed92df131461075f578063f1385a1a1461077d578063f58035601461079b57610230565b8063c1b2daf414610656578063c687cfeb14610674578063c984d759146106a5578063d59a70dd146106c3578063d6dd7673146106e157610230565b8063a59ee59e116100fd578063a59ee59e1461058a578063a70f0ad7146105a8578063b1fbccd2146105d8578063b2b8e2a114610608578063beeb3f341461062657610230565b80638da5cb5b14610500578063903ac6d41461051e5780639ca6d9711461053c5780639d5d42ca1461056c57610230565b80633d7b86de116101bc578063695fee6411610180578063695fee641461045a57806372775a9b1461047857806374832db5146104a8578063795bb332146104c657806381ac8b6a146104e457610230565b80633d7b86de1461038d5780633e69d025146103bd578063487cd70a146103ed57806353f1bc1d1461042057806366692c3a1461043e57610230565b8063216b857711610203578063216b8577146102bd5780632602c01e146102f157806334e98c621461030f57806335e64e571461032d5780633b958a531461035d57610230565b80630548a9e7146102345780630ff62e931461025257806312fc39c7146102835780631bc921621461029f575b5f80fd5b61023c6107cb565b6040516102499190612fdb565b60405180910390f35b61026c6004803603810190610267919061302f565b6107ef565b60405161027a9291906130bb565b60405180910390f35b61029d6004803603810190610298919061302f565b610841565b005b6102a76108da565b6040516102b4919061313d565b60405180910390f35b6102d760048036038101906102d2919061302f565b6108e0565b6040516102e8959493929190613170565b60405180910390f35b6102f9610952565b6040516103069190612fdb565b60405180910390f35b610317610976565b6040516103249190612fdb565b60405180910390f35b6103476004803603810190610342919061302f565b61099a565b6040516103549190612fdb565b60405180910390f35b6103776004803603810190610372919061324c565b6109b4565b60405161038491906132bd565b60405180910390f35b6103a760048036038101906103a29190613300565b610cbc565b6040516103b49190613384565b60405180910390f35b6103d760048036038101906103d2919061339d565b610ee6565b6040516103e491906133f8565b60405180910390f35b61040760048036038101906104029190613411565b610f12565b6040516104179493929190613475565b60405180910390f35b610428610f7b565b60405161043591906134b8565b60405180910390f35b610458600480360381019061045391906134d1565b610fa0565b005b61046261152e565b60405161046f9190612fdb565b60405180910390f35b610492600480360381019061048d91906135b7565b611552565b60405161049f91906132bd565b60405180910390f35b6104b06119bd565b6040516104bd9190612fdb565b60405180910390f35b6104ce6119e1565b6040516104db9190612fdb565b60405180910390f35b6104fe60048036038101906104f99190613674565b611a05565b005b610508611b01565b60405161051591906134b8565b60405180910390f35b610526611b26565b60405161053391906134b8565b60405180910390f35b610556600480360381019061055191906136c4565b611b4b565b6040516105639190612fdb565b60405180910390f35b610574611b60565b60405161058191906134b8565b60405180910390f35b610592611b85565b60405161059f91906134b8565b60405180910390f35b6105c260048036038101906105bd919061302f565b611baa565b6040516105cf91906132bd565b60405180910390f35b6105f260048036038101906105ed919061302f565b611bc7565b6040516105ff9190612fdb565b60405180910390f35b610610611bdc565b60405161061d91906134b8565b60405180910390f35b610640600480360381019061063b919061302f565b611c01565b60405161064d91906132bd565b60405180910390f35b61065e611c27565b60405161066b9190612fdb565b60405180910390f35b61068e60048036038101906106899190613714565b611c4b565b60405161069c9291906130bb565b60405180910390f35b6106ad61217b565b6040516106ba91906134b8565b60405180910390f35b6106cb6121a0565b6040516106d891906134b8565b60405180910390f35b6106e96121c5565b6040516106f691906134b8565b60405180910390f35b610719600480360381019061071491906137e9565b6121e8565b6040516107269190612fdb565b60405180910390f35b6107496004803603810190610744919061339d565b6127d1565b60405161075691906133f8565b60405180910390f35b610767612835565b6040516107749190612fdb565b60405180910390f35b61078561283b565b60405161079291906134b8565b60405180910390f35b6107b560048036038101906107b0919061387f565b612860565b6040516107c29190612fdb565b60405180910390f35b7f217ffb743e749e59632e1a39a53634096481cb82ee5f27b44698dcc2c7453f0181565b600f602052805f5260405f205f91509050805f015f9054906101000a900473ffffffffffffffffffffffffffffffffffffffff1690805f0160149054906101000a900467ffffffffffffffff16905082565b60095f9054906101000a900473ffffffffffffffffffffffffffffffffffffffff1673ffffffffffffffffffffffffffffffffffffffff163373ffffffffffffffffffffffffffffffffffffffff16146108d0576040517f08c379a00000000000000000000000000000000000000000000000000000000081526004016108c79061393d565b60405180910390fd5b80600a8190555050565b61016781565b600b602052805f5260405f205f91509050805f015490806001015490806003015f9054906101000a900473ffffffffffffffffffffffffffffffffffffffff16908060030160149054906101000a900467ffffffffffffffff169080600301601c9054906101000a900460ff16905085565b7f0892486f2db77feba50b67fd68cccf02ecca6d746664216a0449ecb5ba18f8de81565b7f120eb869162558440f242ff96357d8b58e4e92e3931e5fa2cd26b86718abc0e281565b5f600e5f8381526020019081526020015f20549050919050565b5f805f60065f9054906101000a900473ffffffffffffffffffffffffffffffffffffffff1673ffffffffffffffffffffffffffffffffffffffff168773ffffffffffffffffffffffffffffffffffffffff1603610a57577f9e30e0acf846b25b3e72d06e58bde205e6320acd3f4b095d11ece290a6885188915060065f9054906101000a900473ffffffffffffffffffffffffffffffffffffffff169050610b2a565b60075f9054906101000a900473ffffffffffffffffffffffffffffffffffffffff1673ffffffffffffffffffffffffffffffffffffffff168773ffffffffffffffffffffffffffffffffffffffff1603610af7577f120eb869162558440f242ff96357d8b58e4e92e3931e5fa2cd26b86718abc0e2915060075f9054906101000a900473ffffffffffffffffffffffffffffffffffffffff169050610b29565b6040517fbb55abbb00000000000000000000000000000000000000000000000000000000815260040160405180910390fd5b5b5f61016773ffffffffffffffffffffffffffffffffffffffff1663278e0b888360015f67ffffffffffffffff811115610b6657610b6561395b565b5b604051908082528060200260200182016040528015610b9957816020015b6060815260200190600190039081610b845790505b506040518463ffffffff1660e01b8152600401610bb893929190613b06565b5f604051808303815f875af1158015610bd3573d5f803e3d5ffd5b505050506040513d5f823e3d601f19601f82011682018060405250810190610bfb9190613c97565b5050905060168160070b14610c45576040517f08c379a0000000000000000000000000000000000000000000000000000000008152600401610c3c90613d4d565b60405180910390fd5b3373ffffffffffffffffffffffffffffffffffffffff168873ffffffffffffffffffffffffffffffffffffffff16887ffd005e0f9ba958f7c6b1a0fa8518fbab37952f760666c5da196f2c5591e88b7d8989604051610ca5929190613da5565b60405180910390a460019350505050949350505050565b5f80600b5f8881526020019081526020015f20905080600301601c9054906101000a900460ff16610d22576040517f08c379a0000000000000000000000000000000000000000000000000000000008152600401610d1990613e11565b60405180910390fd5b8060030160149054906101000a900467ffffffffffffffff1686610d469190613e5c565b91505f61016773ffffffffffffffffffffffffffffffffffffffff1663278e0b88836003015f9054906101000a900473ffffffffffffffffffffffffffffffffffffffff16855f67ffffffffffffffff811115610da657610da561395b565b5b604051908082528060200260200182016040528015610dd957816020015b6060815260200190600190039081610dc45790505b506040518463ffffffff1660e01b8152600401610df893929190613e98565b5f604051808303815f875af1158015610e13573d5f803e3d5ffd5b505050506040513d5f823e3d601f19601f82011682018060405250810190610e3b9190613c97565b5050905060168160070b14610e85576040517f08c379a0000000000000000000000000000000000000000000000000000000008152600401610e7c90613d4d565b60405180910390fd5b853373ffffffffffffffffffffffffffffffffffffffff16897f6153f55c528edcec957d2fa67d63cb136dee382001a3487ccf80d636a17bae848a878a8a604051610ed39493929190613ed4565b60405180910390a4505095945050505050565b600c602052815f5260405f20602052805f5260405f205f915091509054906101000a900462ffffff1681565b5f805f807f72f7ddc62c67e3943091f9c7b899298a6c6b0287758c513c5036eda57075e6e39350610f448888886128ba565b92507f72f7ddc62c67e3943091f9c7b899298a6c6b0287758c513c5036eda57075e6e3861491508285149050945094509450949050565b60085f9054906101000a900473ffffffffffffffffffffffffffffffffffffffff1681565b60095f9054906101000a900473ffffffffffffffffffffffffffffffffffffffff1673ffffffffffffffffffffffffffffffffffffffff163373ffffffffffffffffffffffffffffffffffffffff161461102f576040517f08c379a00000000000000000000000000000000000000000000000000000000081526004016110269061393d565b60405180910390fd5b5f73ffffffffffffffffffffffffffffffffffffffff168973ffffffffffffffffffffffffffffffffffffffff161415801561109757505f73ffffffffffffffffffffffffffffffffffffffff168873ffffffffffffffffffffffffffffffffffffffff1614155b80156110cf57505f73ffffffffffffffffffffffffffffffffffffffff168773ffffffffffffffffffffffffffffffffffffffff1614155b801561110757505f73ffffffffffffffffffffffffffffffffffffffff168673ffffffffffffffffffffffffffffffffffffffff1614155b801561113f57505f73ffffffffffffffffffffffffffffffffffffffff168573ffffffffffffffffffffffffffffffffffffffff1614155b801561117757505f73ffffffffffffffffffffffffffffffffffffffff168473ffffffffffffffffffffffffffffffffffffffff1614155b80156111af57505f73ffffffffffffffffffffffffffffffffffffffff168373ffffffffffffffffffffffffffffffffffffffff1614155b80156111e757505f73ffffffffffffffffffffffffffffffffffffffff168273ffffffffffffffffffffffffffffffffffffffff1614155b801561121f57505f73ffffffffffffffffffffffffffffffffffffffff168173ffffffffffffffffffffffffffffffffffffffff1614155b61125e576040517f08c379a000000000000000000000000000000000000000000000000000000000815260040161125590613f5c565b60405180910390fd5b885f806101000a81548173ffffffffffffffffffffffffffffffffffffffff021916908373ffffffffffffffffffffffffffffffffffffffff1602179055508760015f6101000a81548173ffffffffffffffffffffffffffffffffffffffff021916908373ffffffffffffffffffffffffffffffffffffffff1602179055508660025f6101000a81548173ffffffffffffffffffffffffffffffffffffffff021916908373ffffffffffffffffffffffffffffffffffffffff1602179055508560035f6101000a81548173ffffffffffffffffffffffffffffffffffffffff021916908373ffffffffffffffffffffffffffffffffffffffff1602179055508460045f6101000a81548173ffffffffffffffffffffffffffffffffffffffff021916908373ffffffffffffffffffffffffffffffffffffffff1602179055508360055f6101000a81548173ffffffffffffffffffffffffffffffffffffffff021916908373ffffffffffffffffffffffffffffffffffffffff1602179055508260065f6101000a81548173ffffffffffffffffffffffffffffffffffffffff021916908373ffffffffffffffffffffffffffffffffffffffff1602179055508160075f6101000a81548173ffffffffffffffffffffffffffffffffffffffff021916908373ffffffffffffffffffffffffffffffffffffffff1602179055508060085f6101000a81548173ffffffffffffffffffffffffffffffffffffffff021916908373ffffffffffffffffffffffffffffffffffffffff1602179055508673ffffffffffffffffffffffffffffffffffffffff168873ffffffffffffffffffffffffffffffffffffffff168a73ffffffffffffffffffffffffffffffffffffffff167f08f38f72d705d71b37b305aae9270050f10c5e566ef6c0aba8c3fb04a84f35d589898989898960405161151b96959493929190613f7a565b60405180910390a4505050505050505050565b7fc6874c1610beae6daec7914c79000f79f8f3fbac13f2862fde2bddf71eea74ef81565b5f61155f86868686612860565b825f0135146115a3576040517f08c379a000000000000000000000000000000000000000000000000000000000815260040161159a90614023565b60405180910390fd5b600d5f836020013581526020019081526020015f205f9054906101000a900460ff1615611613573373ffffffffffffffffffffffffffffffffffffffff1682602001357f3cd6d293d93fffb5c4505ed423476e083cfe17c7e58820e30be3efea7283221a60405160405180910390a35b5f600c5f8581526020019081526020015f205f8873ffffffffffffffffffffffffffffffffffffffff1673ffffffffffffffffffffffffffffffffffffffff1681526020019081526020015f205f9054906101000a900462ffffff1690505f8162ffffff1614806116e257505f600c5f8681526020019081526020015f205f8873ffffffffffffffffffffffffffffffffffffffff1673ffffffffffffffffffffffffffffffffffffffff1681526020019081526020015f205f9054906101000a900462ffffff1662ffffff16145b8061174b57505f600c5f8681526020019081526020015f205f8773ffffffffffffffffffffffffffffffffffffffff1673ffffffffffffffffffffffffffffffffffffffff1681526020019081526020015f205f9054906101000a900462ffffff1662ffffff16145b1561181f57600d5f846020013581526020019081526020015f205f9054906101000a900460ff16611816576001600d5f856020013581526020019081526020015f205f6101000a81548160ff021916908315150217905550825f0135600e5f856020013581526020019081526020015f20819055508383602001357f573ea6c6d729cb63f2227625589b742119e9a3e33c15db35de47409a861f00e38989895f8980608001906117fb919061404d565b60405161180d969594939291906140af565b60405180910390a35b5f9150506119b4565b600c5f8581526020019081526020015f205f8673ffffffffffffffffffffffffffffffffffffffff1673ffffffffffffffffffffffffffffffffffffffff1681526020019081526020015f205f9054906101000a900462ffffff1662ffffff166118e482600c5f8881526020019081526020015f205f8a73ffffffffffffffffffffffffffffffffffffffff1673ffffffffffffffffffffffffffffffffffffffff1681526020019081526020015f205f9054906101000a900462ffffff1687612956565b62ffffff16149150600d5f846020013581526020019081526020015f205f9054906101000a900460ff166119b2576001600d5f856020013581526020019081526020015f205f6101000a81548160ff021916908315150217905550825f0135600e5f856020013581526020019081526020015f20819055508383602001357f573ea6c6d729cb63f2227625589b742119e9a3e33c15db35de47409a861f00e389898987898060800190611997919061404d565b6040516119a9969594939291906140af565b60405180910390a35b505b95945050505050565b7f5c121ee8b573e4e6586bcafec852bd980b83ea2aa4a37f9fccb6fa546927c42b81565b7f72f7ddc62c67e3943091f9c7b899298a6c6b0287758c513c5036eda57075e6e381565b60095f9054906101000a900473ffffffffffffffffffffffffffffffffffffffff1673ffffffffffffffffffffffffffffffffffffffff163373ffffffffffffffffffffffffffffffffffffffff1614611a94576040517f08c379a0000000000000000000000000000000000000000000000000000000008152600401611a8b9061393d565b60405180910390fd5b80600c5f8581526020019081526020015f205f8473ffffffffffffffffffffffffffffffffffffffff1673ffffffffffffffffffffffffffffffffffffffff1681526020019081526020015f205f6101000a81548162ffffff021916908362ffffff160217905550505050565b60095f9054906101000a900473ffffffffffffffffffffffffffffffffffffffff1681565b60065f9054906101000a900473ffffffffffffffffffffffffffffffffffffffff1681565b5f611b578484846128ba565b90509392505050565b60025f9054906101000a900473ffffffffffffffffffffffffffffffffffffffff1681565b60055f9054906101000a900473ffffffffffffffffffffffffffffffffffffffff1681565b600d602052805f5260405f205f915054906101000a900460ff1681565b600e602052805f5260405f205f915090505481565b60075f9054906101000a900473ffffffffffffffffffffffffffffffffffffffff1681565b5f600d5f8381526020019081526020015f205f9054906101000a900460ff169050919050565b7f9e30e0acf846b25b3e72d06e58bde205e6320acd3f4b095d11ece290a688518881565b5f807fbbfa335032189cb97be17f01fa1cd9c18587be58cb71231405d2ea8f0e38fc42847f72f7ddc62c67e3943091f9c7b899298a6c6b0287758c513c5036eda57075e6e3808714604051611ca293929190614109565b60405180910390a17f72f7ddc62c67e3943091f9c7b899298a6c6b0287758c513c5036eda57075e6e38414611d0c576040517f08c379a0000000000000000000000000000000000000000000000000000000008152600401611d0390614188565b60405180910390fd5b5f611d188787876128ba565b90507fbbfa335032189cb97be17f01fa1cd9c18587be58cb71231405d2ea8f0e38fc42845f01358283875f013514604051611d5593929190614109565b60405180910390a180845f013514611da2576040517f08c379a0000000000000000000000000000000000000000000000000000000008152600401611d9990614023565b60405180910390fd5b600d5f856020013581526020019081526020015f205f9054906101000a900460ff1615611ecd573373ffffffffffffffffffffffffffffffffffffffff1684602001357f3cd6d293d93fffb5c4505ed423476e083cfe17c7e58820e30be3efea7283221a60405160405180910390a35f600f5f866020013581526020019081526020015f206040518060400160405290815f82015f9054906101000a900473ffffffffffffffffffffffffffffffffffffffff1673ffffffffffffffffffffffffffffffffffffffff1673ffffffffffffffffffffffffffffffffffffffff1681526020015f820160149054906101000a900467ffffffffffffffff1667ffffffffffffffff1667ffffffffffffffff16815250509050805f01518160200151935093505050612172565b611ed787876129d2565b80935081945050505f61016773ffffffffffffffffffffffffffffffffffffffff1663278e0b8885855f67ffffffffffffffff811115611f1a57611f1961395b565b5b604051908082528060200260200182016040528015611f4d57816020015b6060815260200190600190039081611f385790505b506040518463ffffffff1660e01b8152600401611f6c93929190613e98565b5f604051808303815f875af1158015611f87573d5f803e3d5ffd5b505050506040513d5f823e3d601f19601f82011682018060405250810190611faf9190613c97565b5050905060168160070b14611ff9576040517f08c379a0000000000000000000000000000000000000000000000000000000008152600401611ff090613d4d565b60405180910390fd5b6001600d5f876020013581526020019081526020015f205f6101000a81548160ff021916908315150217905550845f0135600e5f876020013581526020019081526020015f208190555060405180604001604052808573ffffffffffffffffffffffffffffffffffffffff1681526020018467ffffffffffffffff16815250600f5f876020013581526020019081526020015f205f820151815f015f6101000a81548173ffffffffffffffffffffffffffffffffffffffff021916908373ffffffffffffffffffffffffffffffffffffffff1602179055506020820151815f0160146101000a81548167ffffffffffffffff021916908367ffffffffffffffff16021790555090505084602001353373ffffffffffffffffffffffffffffffffffffffff1686602001357f6153f55c528edcec957d2fa67d63cb136dee382001a3487ccf80d636a17bae846001878a8060800190612157919061404d565b60405161216794939291906141a6565b60405180910390a450505b94509492505050565b60015f9054906101000a900473ffffffffffffffffffffffffffffffffffffffff1681565b60045f9054906101000a900473ffffffffffffffffffffffffffffffffffffffff1681565b5f8054906101000a900473ffffffffffffffffffffffffffffffffffffffff1681565b5f60095f9054906101000a900473ffffffffffffffffffffffffffffffffffffffff1673ffffffffffffffffffffffffffffffffffffffff163373ffffffffffffffffffffffffffffffffffffffff1614612278576040517f08c379a000000000000000000000000000000000000000000000000000000000815260040161226f9061393d565b60405180910390fd5b60018585905010158015612290575060048585905011155b6122cf576040517f08c379a00000000000000000000000000000000000000000000000000000000081526004016122c69061422e565b60405180910390fd5b5f73ffffffffffffffffffffffffffffffffffffffff168373ffffffffffffffffffffffffffffffffffffffff160361233d576040517f08c379a000000000000000000000000000000000000000000000000000000000815260040161233490614296565b60405180910390fd5b60028585905014806123525750600385859050145b612391576040517f08c379a0000000000000000000000000000000000000000000000000000000008152600401612388906142fe565b60405180910390fd5b5f805f805b88889050811015612532575f8054906101000a900473ffffffffffffffffffffffffffffffffffffffff1673ffffffffffffffffffffffffffffffffffffffff168989838181106123ea576123e961431c565b5b90506020020160208101906123ff9190614349565b73ffffffffffffffffffffffffffffffffffffffff160361241f57600193505b60015f9054906101000a900473ffffffffffffffffffffffffffffffffffffffff1673ffffffffffffffffffffffffffffffffffffffff1689898381811061246a5761246961431c565b5b905060200201602081019061247f9190614349565b73ffffffffffffffffffffffffffffffffffffffff160361249f57600192505b60025f9054906101000a900473ffffffffffffffffffffffffffffffffffffffff1673ffffffffffffffffffffffffffffffffffffffff168989838181106124ea576124e961431c565b5b90506020020160208101906124ff9190614349565b73ffffffffffffffffffffffffffffffffffffffff160361251f57600191505b808061252a9061437d565b915050612396565b506002888890500361258c578280156125485750805b612587576040517f08c379a000000000000000000000000000000000000000000000000000000000815260040161257e90614434565b60405180910390fd5b6125eb565b600388889050036125ea578280156125a15750815b80156125aa5750805b6125e9576040517f08c379a00000000000000000000000000000000000000000000000000000000081526004016125e0906144c2565b60405180910390fd5b5b5b89898989604051602001612602949392919061459c565b6040516020818303038152906040528051906020012093506040518060c001604052808b81526020018a81526020018989808060200260200160405190810160405280939291908181526020018383602002808284375f81840152601f19601f8201169050808301925050505050505081526020018773ffffffffffffffffffffffffffffffffffffffff1681526020018667ffffffffffffffff16815260200160011515815250600b5f8681526020019081526020015f205f820151815f01556020820151816001015560408201518160020190805190602001906126e9929190612f21565b506060820151816003015f6101000a81548173ffffffffffffffffffffffffffffffffffffffff021916908373ffffffffffffffffffffffffffffffffffffffff16021790555060808201518160030160146101000a81548167ffffffffffffffff021916908367ffffffffffffffff16021790555060a082015181600301601c6101000a81548160ff021916908315150217905550905050837fad9207819dd7abb936f2b1637265bf626978af91d6f25a44322fb43fe34aadfb8b8b8b8b8b8b6040516127bc969594939291906145da565b60405180910390a25050509695505050505050565b5f600c5f8481526020019081526020015f205f8373ffffffffffffffffffffffffffffffffffffffff1673ffffffffffffffffffffffffffffffffffffffff1681526020019081526020015f205f9054906101000a900462ffffff16905092915050565b600a5481565b60035f9054906101000a900473ffffffffffffffffffffffffffffffffffffffff1681565b5f848484847f217ffb743e749e59632e1a39a53634096481cb82ee5f27b44698dcc2c7453f0160405160200161289a959493929190614634565b604051602081830303815290604052805190602001209050949350505050565b5f805f8473ffffffffffffffffffffffffffffffffffffffff168673ffffffffffffffffffffffffffffffffffffffff16106128f75784866128fa565b85855b915091508181857f0892486f2db77feba50b67fd68cccf02ecca6d746664216a0449ecb5ba18f8de6040516020016129359493929190614685565b60405160208183030381529060405280519060200120925050509392505050565b5f7f72f7ddc62c67e3943091f9c7b899298a6c6b0287758c513c5036eda57075e6e3820361298f576129888484612ce9565b90506129cb565b7f5c121ee8b573e4e6586bcafec852bd980b83ea2aa4a37f9fccb6fa546927c42b82036129c7576129c08484612dc0565b90506129cb565b5f90505b9392505050565b5f805f808473ffffffffffffffffffffffffffffffffffffffff168673ffffffffffffffffffffffffffffffffffffffff1610612a10578486612a13565b85855b915091505f8054906101000a900473ffffffffffffffffffffffffffffffffffffffff1673ffffffffffffffffffffffffffffffffffffffff168273ffffffffffffffffffffffffffffffffffffffff16148015612abd575060015f9054906101000a900473ffffffffffffffffffffffffffffffffffffffff1673ffffffffffffffffffffffffffffffffffffffff168173ffffffffffffffffffffffffffffffffffffffff16145b15612af15760035f9054906101000a900473ffffffffffffffffffffffffffffffffffffffff166001935093505050612ce2565b60015f9054906101000a900473ffffffffffffffffffffffffffffffffffffffff1673ffffffffffffffffffffffffffffffffffffffff168273ffffffffffffffffffffffffffffffffffffffff16148015612b99575060025f9054906101000a900473ffffffffffffffffffffffffffffffffffffffff1673ffffffffffffffffffffffffffffffffffffffff168173ffffffffffffffffffffffffffffffffffffffff16145b15612bcd5760045f9054906101000a900473ffffffffffffffffffffffffffffffffffffffff166001935093505050612ce2565b5f8054906101000a900473ffffffffffffffffffffffffffffffffffffffff1673ffffffffffffffffffffffffffffffffffffffff168273ffffffffffffffffffffffffffffffffffffffff16148015612c73575060025f9054906101000a900473ffffffffffffffffffffffffffffffffffffffff1673ffffffffffffffffffffffffffffffffffffffff168173ffffffffffffffffffffffffffffffffffffffff16145b15612ca75760055f9054906101000a900473ffffffffffffffffffffffffffffffffffffffff166001935093505050612ce2565b6040517f08c379a0000000000000000000000000000000000000000000000000000000008152600401612cd990614712565b60405180910390fd5b9250929050565b5f8060108462ffffff16901c90505f60088562ffffff16901c90505f8590505f60108662ffffff16901c90505f60088762ffffff16901c90505f8790505f8360ff168760ff1611612d3a575f612d47565b8387612d46919061473c565b5b90505f8360ff168760ff1611612d5d575f612d6a565b8387612d69919061473c565b5b90505f8360ff168760ff1611612d80575f612d8d565b8387612d8c919061473c565b5b90508060ff1660088360ff1662ffffff16901b60108560ff1662ffffff16901b1717995050505050505050505092915050565b5f8060108462ffffff16901c90505f60088562ffffff16901c90505f8590505f60108662ffffff16901c90505f60088762ffffff16901c90505f8790505f8660ff612e0b919061473c565b90505f8660ff612e1b919061473c565b90505f8660ff612e2b919061473c565b90505f8660ff612e3b919061473c565b90505f8660ff612e4b919061473c565b90505f8660ff612e5b919061473c565b90505f8360ff168760ff1611612e71575f612e7e565b8387612e7d919061473c565b5b90505f8360ff168760ff1611612e94575f612ea1565b8387612ea0919061473c565b5b90505f8360ff168760ff1611612eb7575f612ec4565b8387612ec3919061473c565b5b90508060ff612ed3919061473c565b60ff1660088360ff612ee5919061473c565b60ff1662ffffff16901b60108560ff612efe919061473c565b60ff1662ffffff16901b17179f5050505050505050505050505050505092915050565b828054828255905f5260205f20908101928215612f97579160200282015b82811115612f96578251825f6101000a81548173ffffffffffffffffffffffffffffffffffffffff021916908373ffffffffffffffffffffffffffffffffffffffff16021790555091602001919060010190612f3f565b5b509050612fa49190612fa8565b5090565b5b80821115612fbf575f815f905550600101612fa9565b5090565b5f819050919050565b612fd581612fc3565b82525050565b5f602082019050612fee5f830184612fcc565b92915050565b5f604051905090565b5f80fd5b5f80fd5b61300e81612fc3565b8114613018575f80fd5b50565b5f8135905061302981613005565b92915050565b5f6020828403121561304457613043612ffd565b5b5f6130518482850161301b565b91505092915050565b5f73ffffffffffffffffffffffffffffffffffffffff82169050919050565b5f6130838261305a565b9050919050565b61309381613079565b82525050565b5f67ffffffffffffffff82169050919050565b6130b581613099565b82525050565b5f6040820190506130ce5f83018561308a565b6130db60208301846130ac565b9392505050565b5f819050919050565b5f6131056131006130fb8461305a565b6130e2565b61305a565b9050919050565b5f613116826130eb565b9050919050565b5f6131278261310c565b9050919050565b6131378161311d565b82525050565b5f6020820190506131505f83018461312e565b92915050565b5f8115159050919050565b61316a81613156565b82525050565b5f60a0820190506131835f830188612fcc565b6131906020830187612fcc565b61319d604083018661308a565b6131aa60608301856130ac565b6131b76080830184613161565b9695505050505050565b6131ca81613079565b81146131d4575f80fd5b50565b5f813590506131e5816131c1565b92915050565b5f80fd5b5f80fd5b5f80fd5b5f8083601f84011261320c5761320b6131eb565b5b8235905067ffffffffffffffff811115613229576132286131ef565b5b602083019150836001820283011115613245576132446131f3565b5b9250929050565b5f805f806060858703121561326457613263612ffd565b5b5f613271878288016131d7565b94505060206132828782880161301b565b935050604085013567ffffffffffffffff8111156132a3576132a2613001565b5b6132af878288016131f7565b925092505092959194509250565b5f6020820190506132d05f830184613161565b92915050565b6132df81613099565b81146132e9575f80fd5b50565b5f813590506132fa816132d6565b92915050565b5f805f805f6080868803121561331957613318612ffd565b5b5f6133268882890161301b565b9550506020613337888289016132ec565b94505060406133488882890161301b565b935050606086013567ffffffffffffffff81111561336957613368613001565b5b613375888289016131f7565b92509250509295509295909350565b5f6020820190506133975f8301846130ac565b92915050565b5f80604083850312156133b3576133b2612ffd565b5b5f6133c08582860161301b565b92505060206133d1858286016131d7565b9150509250929050565b5f62ffffff82169050919050565b6133f2816133db565b82525050565b5f60208201905061340b5f8301846133e9565b92915050565b5f805f806080858703121561342957613428612ffd565b5b5f613436878288016131d7565b9450506020613447878288016131d7565b93505060406134588782880161301b565b92505060606134698782880161301b565b91505092959194509250565b5f6080820190506134885f830187612fcc565b6134956020830186612fcc565b6134a26040830185613161565b6134af6060830184613161565b95945050505050565b5f6020820190506134cb5f83018461308a565b92915050565b5f805f805f805f805f6101208a8c0312156134ef576134ee612ffd565b5b5f6134fc8c828d016131d7565b995050602061350d8c828d016131d7565b985050604061351e8c828d016131d7565b975050606061352f8c828d016131d7565b96505060806135408c828d016131d7565b95505060a06135518c828d016131d7565b94505060c06135628c828d016131d7565b93505060e06135738c828d016131d7565b9250506101006135858c828d016131d7565b9150509295985092959850929598565b5f80fd5b5f60a082840312156135ae576135ad613595565b5b81905092915050565b5f805f805f60a086880312156135d0576135cf612ffd565b5b5f6135dd888289016131d7565b95505060206135ee888289016131d7565b94505060406135ff888289016131d7565b93505060606136108882890161301b565b925050608086013567ffffffffffffffff81111561363157613630613001565b5b61363d88828901613599565b9150509295509295909350565b613653816133db565b811461365d575f80fd5b50565b5f8135905061366e8161364a565b92915050565b5f805f6060848603121561368b5761368a612ffd565b5b5f6136988682870161301b565b93505060206136a9868287016131d7565b92505060406136ba86828701613660565b9150509250925092565b5f805f606084860312156136db576136da612ffd565b5b5f6136e8868287016131d7565b93505060206136f9868287016131d7565b925050604061370a8682870161301b565b9150509250925092565b5f805f806080858703121561372c5761372b612ffd565b5b5f613739878288016131d7565b945050602061374a878288016131d7565b935050604061375b8782880161301b565b925050606085013567ffffffffffffffff81111561377c5761377b613001565b5b61378887828801613599565b91505092959194509250565b5f8083601f8401126137a9576137a86131eb565b5b8235905067ffffffffffffffff8111156137c6576137c56131ef565b5b6020830191508360208202830111156137e2576137e16131f3565b5b9250929050565b5f805f805f8060a0878903121561380357613802612ffd565b5b5f61381089828a0161301b565b965050602061382189828a0161301b565b955050604087013567ffffffffffffffff81111561384257613841613001565b5b61384e89828a01613794565b9450945050606061386189828a016131d7565b925050608061387289828a016132ec565b9150509295509295509295565b5f805f806080858703121561389757613896612ffd565b5b5f6138a4878288016131d7565b94505060206138b5878288016131d7565b93505060406138c6878288016131d7565b92505060606138d78782880161301b565b91505092959194509250565b5f82825260208201905092915050565b7f6e6f74206f776e657200000000000000000000000000000000000000000000005f82015250565b5f6139276009836138e3565b9150613932826138f3565b602082019050919050565b5f6020820190508181035f8301526139548161391b565b9050919050565b7f4e487b71000000000000000000000000000000000000000000000000000000005f52604160045260245ffd5b5f819050919050565b5f6139ab6139a66139a184613988565b6130e2565b613099565b9050919050565b6139bb81613991565b82525050565b5f81519050919050565b5f82825260208201905092915050565b5f819050602082019050919050565b5f81519050919050565b5f82825260208201905092915050565b5f5b83811015613a21578082015181840152602081019050613a06565b5f8484015250505050565b5f601f19601f8301169050919050565b5f613a46826139ea565b613a5081856139f4565b9350613a60818560208601613a04565b613a6981613a2c565b840191505092915050565b5f613a7f8383613a3c565b905092915050565b5f602082019050919050565b5f613a9d826139c1565b613aa781856139cb565b935083602082028501613ab9856139db565b805f5b85811015613af45784840389528151613ad58582613a74565b9450613ae083613a87565b925060208a01995050600181019050613abc565b50829750879550505050505092915050565b5f606082019050613b195f83018661308a565b613b2660208301856139b2565b8181036040830152613b388184613a93565b9050949350505050565b5f8160070b9050919050565b613b5781613b42565b8114613b61575f80fd5b50565b5f81519050613b7281613b4e565b92915050565b5f81519050613b86816132d6565b92915050565b613b9582613a2c565b810181811067ffffffffffffffff82111715613bb457613bb361395b565b5b80604052505050565b5f613bc6612ff4565b9050613bd28282613b8c565b919050565b5f67ffffffffffffffff821115613bf157613bf061395b565b5b602082029050602081019050919050565b5f613c14613c0f84613bd7565b613bbd565b90508083825260208201905060208402830185811115613c3757613c366131f3565b5b835b81811015613c605780613c4c8882613b64565b845260208401935050602081019050613c39565b5050509392505050565b5f82601f830112613c7e57613c7d6131eb565b5b8151613c8e848260208601613c02565b91505092915050565b5f805f60608486031215613cae57613cad612ffd565b5b5f613cbb86828701613b64565b9350506020613ccc86828701613b78565b925050604084015167ffffffffffffffff811115613ced57613cec613001565b5b613cf986828701613c6a565b9150509250925092565b7f6d696e74206661696c00000000000000000000000000000000000000000000005f82015250565b5f613d376009836138e3565b9150613d4282613d03565b602082019050919050565b5f6020820190508181035f830152613d6481613d2b565b9050919050565b828183375f83830152505050565b5f613d8483856138e3565b9350613d91838584613d6b565b613d9a83613a2c565b840190509392505050565b5f6020820190508181035f830152613dbe818486613d79565b90509392505050565b7f72756c65206f66660000000000000000000000000000000000000000000000005f82015250565b5f613dfb6008836138e3565b9150613e0682613dc7565b602082019050919050565b5f6020820190508181035f830152613e2881613def565b9050919050565b7f4e487b71000000000000000000000000000000000000000000000000000000005f52601160045260245ffd5b5f613e6682613099565b9150613e7183613099565b9250828202613e7f81613099565b9150808214613e9157613e90613e2f565b5b5092915050565b5f606082019050613eab5f83018661308a565b613eb860208301856130ac565b8181036040830152613eca8184613a93565b9050949350505050565b5f606082019050613ee75f8301876130ac565b613ef460208301866130ac565b8181036040830152613f07818486613d79565b905095945050505050565b7f7a65726f206164647200000000000000000000000000000000000000000000005f82015250565b5f613f466009836138e3565b9150613f5182613f12565b602082019050919050565b5f6020820190508181035f830152613f7381613f3a565b9050919050565b5f60c082019050613f8d5f83018961308a565b613f9a602083018861308a565b613fa7604083018761308a565b613fb4606083018661308a565b613fc1608083018561308a565b613fce60a083018461308a565b979650505050505050565b7f696e70757473486173682d6d69736d61746368000000000000000000000000005f82015250565b5f61400d6013836138e3565b915061401882613fd9565b602082019050919050565b5f6020820190508181035f83015261403a81614001565b9050919050565b5f80fd5b5f80fd5b5f80fd5b5f808335600160200384360303811261406957614068614041565b5b80840192508235915067ffffffffffffffff82111561408b5761408a614045565b5b6020830192506001820236038313156140a7576140a6614049565b5b509250929050565b5f60a0820190506140c25f83018961308a565b6140cf602083018861308a565b6140dc604083018761308a565b6140e96060830186613161565b81810360808301526140fc818486613d79565b9050979650505050505050565b5f60608201905061411c5f830186612fcc565b6141296020830185612fcc565b6141366040830184613161565b949350505050565b7f646f6d61696e206d75737420626520445f4c49474854000000000000000000005f82015250565b5f6141726016836138e3565b915061417d8261413e565b602082019050919050565b5f6020820190508181035f83015261419f81614166565b9050919050565b5f6060820190506141b95f8301876139b2565b6141c660208301866130ac565b81810360408301526141d9818486613d79565b905095945050505050565b7f62616420617269747900000000000000000000000000000000000000000000005f82015250565b5f6142186009836138e3565b9150614223826141e4565b602082019050919050565b5f6020820190508181035f8301526142458161420c565b9050919050565b7f6e6f206f757470757400000000000000000000000000000000000000000000005f82015250565b5f6142806009836138e3565b915061428b8261424c565b602082019050919050565b5f6020820190508181035f8301526142ad81614274565b9050919050565b7f6d7573742070726f766964652032206f72203320696e707574730000000000005f82015250565b5f6142e8601a836138e3565b91506142f3826142b4565b602082019050919050565b5f6020820190508181035f830152614315816142dc565b9050919050565b7f4e487b71000000000000000000000000000000000000000000000000000000005f52603260045260245ffd5b5f6020828403121561435e5761435d612ffd565b5b5f61436b848285016131d7565b91505092915050565b5f819050919050565b5f61438782614374565b91507fffffffffffffffffffffffffffffffffffffffffffffffffffffffffffffffff82036143b9576143b8613e2f565b5b600182019050919050565b7f322d746f6b656e2072756c657320726571756972652052454420616e6420424c5f8201527f5545000000000000000000000000000000000000000000000000000000000000602082015250565b5f61441e6022836138e3565b9150614429826143c4565b604082019050919050565b5f6020820190508181035f83015261444b81614412565b9050919050565b7f332d746f6b656e2072756c65732072657175697265205245442c20475245454e5f8201527f2c20616e6420424c554500000000000000000000000000000000000000000000602082015250565b5f6144ac602a836138e3565b91506144b782614452565b604082019050919050565b5f6020820190508181035f8301526144d9816144a0565b9050919050565b5f82825260208201905092915050565b5f819050919050565b61450281613079565b82525050565b5f61451383836144f9565b60208301905092915050565b5f61452d60208401846131d7565b905092915050565b5f602082019050919050565b5f61454c83856144e0565b9350614557826144f0565b805f5b8581101561458f5761456c828461451f565b6145768882614508565b975061458183614535565b92505060018101905061455a565b5085925050509392505050565b5f6060820190506145af5f830187612fcc565b6145bc6020830186612fcc565b81810360408301526145cf818486614541565b905095945050505050565b5f60a0820190506145ed5f830189612fcc565b6145fa6020830188612fcc565b818103604083015261460d818688614541565b905061461c606083018561308a565b61462960808301846130ac565b979650505050505050565b5f60a0820190506146475f83018861308a565b614654602083018761308a565b614661604083018661308a565b61466e6060830185612fcc565b61467b6080830184612fcc565b9695505050505050565b5f6080820190506146985f83018761308a565b6146a5602083018661308a565b6146b26040830185612fcc565b6146bf6060830184612fcc565b95945050505050565b7f756e737570706f727465642d61646469746976652d70616972000000000000005f82015250565b5f6146fc6019836138e3565b9150614707826146c8565b602082019050919050565b5f6020820190508181035f830152614729816146f0565b9050919050565b5f60ff82169050919050565b5f61474682614730565b915061475183614730565b9250828203905060ff81111561476a57614769613e2f565b5b9291505056fea2646970667358221220d583fe73f0286e5dd50145e546129ef78f2d8c2dbfd9c1ae3bc99c0b7b5bbaf464736f6c63430008140033","opcodes":"PUSH1 0x80 PUSH1 0x40 MSTORE CALLVALUE DUP1 ISZERO PUSH3 0x10 JUMPI PUSH0 DUP1 REVERT JUMPDEST POP PUSH1 0x40 MLOAD PUSH3 0x48A4 CODESIZE SUB DUP1 PUSH3 0x48A4 DUP4 CODECOPY DUP2 DUP2 ADD PUSH1 0x40 MSTORE DUP2 ADD SWAP1 PUSH3 0x36 SWAP2 SWAP1 PUSH3 0xC0 JUMP JUMPDEST CALLER PUSH1 0x9 PUSH0 PUSH2 0x100 EXP DUP2 SLOAD DUP2 PUSH20 0xFFFFFFFFFFFFFFFFFFFFFFFFFFFFFFFFFFFFFFFF MUL NOT AND SWAP1 DUP4 PUSH20 0xFFFFFFFFFFFFFFFFFFFFFFFFFFFFFFFFFFFFFFFF AND MUL OR SWAP1 SSTORE POP DUP1 PUSH1 0xA DUP2 SWAP1 SSTORE POP POP PUSH3 0xF0 JUMP JUMPDEST PUSH0 DUP1 REVERT JUMPDEST PUSH0 DUP2 SWAP1 POP SWAP2 SWAP1 POP JUMP JUMPDEST PUSH3 0x9C DUP2 PUSH3 0x88 JUMP JUMPDEST DUP2 EQ PUSH3 0xA7 JUMPI PUSH0 DUP1 REVERT JUMPDEST POP JUMP JUMPDEST PUSH0 DUP2 MLOAD SWAP1 POP PUSH3 0xBA DUP2 PUSH3 0x91 JUMP JUMPDEST SWAP3 SWAP2 POP POP JUMP JUMPDEST PUSH0 PUSH1 0x20 DUP3 DUP5 SUB SLT ISZERO PUSH3 0xD8 JUMPI PUSH3 0xD7 PUSH3 0x84 JUMP JUMPDEST JUMPDEST PUSH0 PUSH3 0xE7 DUP5 DUP3 DUP6 ADD PUSH3 0xAA JUMP JUMPDEST SWAP2 POP POP SWAP3 SWAP2 POP POP JUMP JUMPDEST PUSH2 0x47A6 DUP1 PUSH3 0xFE PUSH0 CODECOPY PUSH0 RETURN INVALID PUSH1 0x80 PUSH1 0x40 MSTORE CALLVALUE DUP1 ISZERO PUSH2 0xF JUMPI PUSH0 DUP1 REVERT JUMPDEST POP PUSH1 0x4 CALLDATASIZE LT PUSH2 0x230 JUMPI PUSH0 CALLDATALOAD PUSH1 0xE0 SHR DUP1 PUSH4 0x8DA5CB5B GT PUSH2 0x12E JUMPI DUP1 PUSH4 0xC1B2DAF4 GT PUSH2 0xB6 JUMPI DUP1 PUSH4 0xDEC40116 GT PUSH2 0x7A JUMPI DUP1 PUSH4 0xDEC40116 EQ PUSH2 0x6FF JUMPI DUP1 PUSH4 0xDFBC9772 EQ PUSH2 0x72F JUMPI DUP1 PUSH4 0xED92DF13 EQ PUSH2 0x75F JUMPI DUP1 PUSH4 0xF1385A1A EQ PUSH2 0x77D JUMPI DUP1 PUSH4 0xF5803560 EQ PUSH2 0x79B JUMPI PUSH2 0x230 JUMP JUMPDEST DUP1 PUSH4 0xC1B2DAF4 EQ PUSH2 0x656 JUMPI DUP1 PUSH4 0xC687CFEB EQ PUSH2 0x674 JUMPI DUP1 PUSH4 0xC984D759 EQ PUSH2 0x6A5 JUMPI DUP1 PUSH4 0xD59A70DD EQ PUSH2 0x6C3 JUMPI DUP1 PUSH4 0xD6DD7673 EQ PUSH2 0x6E1 JUMPI PUSH2 0x230 JUMP JUMPDEST DUP1 PUSH4 0xA59EE59E GT PUSH2 0xFD JUMPI DUP1 PUSH4 0xA59EE59E EQ PUSH2 0x58A JUMPI DUP1 PUSH4 0xA70F0AD7 EQ PUSH2 0x5A8 JUMPI DUP1 PUSH4 0xB1FBCCD2 EQ PUSH2 0x5D8 JUMPI DUP1 PUSH4 0xB2B8E2A1 EQ PUSH2 0x608 JUMPI DUP1 PUSH4 0xBEEB3F34 EQ PUSH2 0x626 JUMPI PUSH2 0x230 JUMP JUMPDEST DUP1 PUSH4 0x8DA5CB5B EQ PUSH2 0x500 JUMPI DUP1 PUSH4 0x903AC6D4 EQ PUSH2 0x51E JUMPI DUP1 PUSH4 0x9CA6D971 EQ PUSH2 0x53C JUMPI DUP1 PUSH4 0x9D5D42CA EQ PUSH2 0x56C JUMPI PUSH2 0x230 JUMP JUMPDEST DUP1 PUSH4 0x3D7B86DE GT PUSH2 0x1BC JUMPI DUP1 PUSH4 0x695FEE64 GT PUSH2 0x180 JUMPI DUP1 PUSH4 0x695FEE64 EQ PUSH2 0x45A JUMPI DUP1 PUSH4 0x72775A9B EQ PUSH2 0x478 JUMPI DUP1 PUSH4 0x74832DB5 EQ PUSH2 0x4A8 JUMPI DUP1 PUSH4 0x795BB332 EQ PUSH2 0x4C6 JUMPI DUP1 PUSH4 0x81AC8B6A EQ PUSH2 0x4E4 JUMPI PUSH2 0x230 JUMP JUMPDEST DUP1 PUSH4 0x3D7B86DE EQ PUSH2 0x38D JUMPI DUP1 PUSH4 0x3E69D025 EQ PUSH2 0x3BD JUMPI DUP1 PUSH4 0x487CD70A EQ PUSH2 0x3ED JUMPI DUP1 PUSH4 0x53F1BC1D EQ PUSH2 0x420 JUMPI DUP1 PUSH4 0x66692C3A EQ PUSH2 0x43E JUMPI PUSH2 0x230 JUMP JUMPDEST DUP1 PUSH4 0x216B8577 GT PUSH2 0x203 JUMPI DUP1 PUSH4 0x216B8577 EQ PUSH2 0x2BD JUMPI DUP1 PUSH4 0x2602C01E EQ PUSH2 0x2F1 JUMPI DUP1 PUSH4 0x34E98C62 EQ PUSH2 0x30F JUMPI DUP1 PUSH4 0x35E64E57 EQ PUSH2 0x32D JUMPI DUP1 PUSH4 0x3B958A53 EQ PUSH2 0x35D JUMPI PUSH2 0x230 JUMP JUMPDEST DUP1 PUSH4 0x548A9E7 EQ PUSH2 0x234 JUMPI DUP1 PUSH4 0xFF62E93 EQ PUSH2 0x252 JUMPI DUP1 PUSH4 0x12FC39C7 EQ PUSH2 0x283 JUMPI DUP1 PUSH4 0x1BC92162 EQ PUSH2 0x29F JUMPI JUMPDEST PUSH0 DUP1 REVERT JUMPDEST PUSH2 0x23C PUSH2 0x7CB JUMP JUMPDEST PUSH1 0x40 MLOAD PUSH2 0x249 SWAP2 SWAP1 PUSH2 0x2FDB JUMP JUMPDEST PUSH1 0x40 MLOAD DUP1 SWAP2 SUB SWAP1 RETURN JUMPDEST PUSH2 0x26C PUSH1 0x4 DUP1 CALLDATASIZE SUB DUP2 ADD SWAP1 PUSH2 0x267 SWAP2 SWAP1 PUSH2 0x302F JUMP JUMPDEST PUSH2 0x7EF JUMP JUMPDEST PUSH1 0x40 MLOAD PUSH2 0x27A SWAP3 SWAP2 SWAP1 PUSH2 0x30BB JUMP JUMPDEST PUSH1 0x40 MLOAD DUP1 SWAP2 SUB SWAP1 RETURN JUMPDEST PUSH2 0x29D PUSH1 0x4 DUP1 CALLDATASIZE SUB DUP2 ADD SWAP1 PUSH2 0x298 SWAP2 SWAP1 PUSH2 0x302F JUMP JUMPDEST PUSH2 0x841 JUMP JUMPDEST STOP JUMPDEST PUSH2 0x2A7 PUSH2 0x8DA JUMP JUMPDEST PUSH1 0x40 MLOAD PUSH2 0x2B4 SWAP2 SWAP1 PUSH2 0x313D JUMP JUMPDEST PUSH1 0x40 MLOAD DUP1 SWAP2 SUB SWAP1 RETURN JUMPDEST PUSH2 0x2D7 PUSH1 0x4 DUP1 CALLDATASIZE SUB DUP2 ADD SWAP1 PUSH2 0x2D2 SWAP2 SWAP1 PUSH2 0x302F JUMP JUMPDEST PUSH2 0x8E0 JUMP JUMPDEST PUSH1 0x40 MLOAD PUSH2 0x2E8 SWAP6 SWAP5 SWAP4 SWAP3 SWAP2 SWAP1 PUSH2 0x3170 JUMP JUMPDEST PUSH1 0x40 MLOAD DUP1 SWAP2 SUB SWAP1 RETURN JUMPDEST PUSH2 0x2F9 PUSH2 0x952 JUMP JUMPDEST PUSH1 0x40 MLOAD PUSH2 0x306 SWAP2 SWAP1 PUSH2 0x2FDB JUMP JUMPDEST PUSH1 0x40 MLOAD DUP1 SWAP2 SUB SWAP1 RETURN JUMPDEST PUSH2 0x317 PUSH2 0x976 JUMP JUMPDEST PUSH1 0x40 MLOAD PUSH2 0x324 SWAP2 SWAP1 PUSH2 0x2FDB JUMP JUMPDEST PUSH1 0x40 MLOAD DUP1 SWAP2 SUB SWAP1 RETURN JUMPDEST PUSH2 0x347 PUSH1 0x4 DUP1 CALLDATASIZE SUB DUP2 ADD SWAP1 PUSH2 0x342 SWAP2 SWAP1 PUSH2 0x302F JUMP JUMPDEST PUSH2 0x99A JUMP JUMPDEST PUSH1 0x40 MLOAD PUSH2 0x354 SWAP2 SWAP1 PUSH2 0x2FDB JUMP JUMPDEST PUSH1 0x40 MLOAD DUP1 SWAP2 SUB SWAP1 RETURN JUMPDEST PUSH2 0x377 PUSH1 0x4 DUP1 CALLDATASIZE SUB DUP2 ADD SWAP1 PUSH2 0x372 SWAP2 SWAP1 PUSH2 0x324C JUMP JUMPDEST PUSH2 0x9B4 JUMP JUMPDEST PUSH1 0x40 MLOAD PUSH2 0x384 SWAP2 SWAP1 PUSH2 0x32BD JUMP JUMPDEST PUSH1 0x40 MLOAD DUP1 SWAP2 SUB SWAP1 RETURN JUMPDEST PUSH2 0x3A7 PUSH1 0x4 DUP1 CALLDATASIZE SUB DUP2 ADD SWAP1 PUSH2 0x3A2 SWAP2 SWAP1 PUSH2 0x3300 JUMP JUMPDEST PUSH2 0xCBC JUMP JUMPDEST PUSH1 0x40 MLOAD PUSH2 0x3B4 SWAP2 SWAP1 PUSH2 0x3384 JUMP JUMPDEST PUSH1 0x40 MLOAD DUP1 SWAP2 SUB SWAP1 RETURN JUMPDEST PUSH2 0x3D7 PUSH1 0x4 DUP1 CALLDATASIZE SUB DUP2 ADD SWAP1 PUSH2 0x3D2 SWAP2 SWAP1 PUSH2 0x339D JUMP JUMPDEST PUSH2 0xEE6 JUMP JUMPDEST PUSH1 0x40 MLOAD PUSH2 0x3E4 SWAP2 SWAP1 PUSH2 0x33F8 JUMP JUMPDEST PUSH1 0x40 MLOAD DUP1 SWAP2 SUB SWAP1 RETURN JUMPDEST PUSH2 0x407 PUSH1 0x4 DUP1 CALLDATASIZE SUB DUP2 ADD SWAP1 PUSH2 0x402 SWAP2 SWAP1 PUSH2 0x3411 JUMP JUMPDEST PUSH2 0xF12 JUMP JUMPDEST PUSH1 0x40 MLOAD PUSH2 0x417 SWAP5 SWAP4 SWAP3 SWAP2 SWAP1 PUSH2 0x3475 JUMP JUMPDEST PUSH1 0x40 MLOAD DUP1 SWAP2 SUB SWAP1 RETURN JUMPDEST PUSH2 0x428 PUSH2 0xF7B JUMP JUMPDEST PUSH1 0x40 MLOAD PUSH2 0x435 SWAP2 SWAP1 PUSH2 0x34B8 JUMP JUMPDEST PUSH1 0x40 MLOAD DUP1 SWAP2 SUB SWAP1 RETURN JUMPDEST PUSH2 0x458 PUSH1 0x4 DUP1 CALLDATASIZE SUB DUP2 ADD SWAP1 PUSH2 0x453 SWAP2 SWAP1 PUSH2 0x34D1 JUMP JUMPDEST PUSH2 0xFA0 JUMP JUMPDEST STOP JUMPDEST PUSH2 0x462 PUSH2 0x152E JUMP JUMPDEST PUSH1 0x40 MLOAD PUSH2 0x46F SWAP2 SWAP1 PUSH2 0x2FDB JUMP JUMPDEST PUSH1 0x40 MLOAD DUP1 SWAP2 SUB SWAP1 RETURN JUMPDEST PUSH2 0x492 PUSH1 0x4 DUP1 CALLDATASIZE SUB DUP2 ADD SWAP1 PUSH2 0x48D SWAP2 SWAP1 PUSH2 0x35B7 JUMP JUMPDEST PUSH2 0x1552 JUMP JUMPDEST PUSH1 0x40 MLOAD PUSH2 0x49F SWAP2 SWAP1 PUSH2 0x32BD JUMP JUMPDEST PUSH1 0x40 MLOAD DUP1 SWAP2 SUB SWAP1 RETURN JUMPDEST PUSH2 0x4B0 PUSH2 0x19BD JUMP JUMPDEST PUSH1 0x40 MLOAD PUSH2 0x4BD SWAP2 SWAP1 PUSH2 0x2FDB JUMP JUMPDEST PUSH1 0x40 MLOAD DUP1 SWAP2 SUB SWAP1 RETURN JUMPDEST PUSH2 0x4CE PUSH2 0x19E1 JUMP JUMPDEST PUSH1 0x40 MLOAD PUSH2 0x4DB SWAP2 SWAP1 PUSH2 0x2FDB JUMP JUMPDEST PUSH1 0x40 MLOAD DUP1 SWAP2 SUB SWAP1 RETURN JUMPDEST PUSH2 0x4FE PUSH1 0x4 DUP1 CALLDATASIZE SUB DUP2 ADD SWAP1 PUSH2 0x4F9 SWAP2 SWAP1 PUSH2 0x3674 JUMP JUMPDEST PUSH2 0x1A05 JUMP JUMPDEST STOP JUMPDEST PUSH2 0x508 PUSH2 0x1B01 JUMP JUMPDEST PUSH1 0x40 MLOAD PUSH2 0x515 SWAP2 SWAP1 PUSH2 0x34B8 JUMP JUMPDEST PUSH1 0x40 MLOAD DUP1 SWAP2 SUB SWAP1 RETURN JUMPDEST PUSH2 0x526 PUSH2 0x1B26 JUMP JUMPDEST PUSH1 0x40 MLOAD PUSH2 0x533 SWAP2 SWAP1 PUSH2 0x34B8 JUMP JUMPDEST PUSH1 0x40 MLOAD DUP1 SWAP2 SUB SWAP1 RETURN JUMPDEST PUSH2 0x556 PUSH1 0x4 DUP1 CALLDATASIZE SUB DUP2 ADD SWAP1 PUSH2 0x551 SWAP2 SWAP1 PUSH2 0x36C4 JUMP JUMPDEST PUSH2 0x1B4B JUMP JUMPDEST PUSH1 0x40 MLOAD PUSH2 0x563 SWAP2 SWAP1 PUSH2 0x2FDB JUMP JUMPDEST PUSH1 0x40 MLOAD DUP1 SWAP2 SUB SWAP1 RETURN JUMPDEST PUSH2 0x574 PUSH2 0x1B60 JUMP JUMPDEST PUSH1 0x40 MLOAD PUSH2 0x581 SWAP2 SWAP1 PUSH2 0x34B8 JUMP JUMPDEST PUSH1 0x40 MLOAD DUP1 SWAP2 SUB SWAP1 RETURN JUMPDEST PUSH2 0x592 PUSH2 0x1B85 JUMP JUMPDEST PUSH1 0x40 MLOAD PUSH2 0x59F SWAP2 SWAP1 PUSH2 0x34B8 JUMP JUMPDEST PUSH1 0x40 MLOAD DUP1 SWAP2 SUB SWAP1 RETURN JUMPDEST PUSH2 0x5C2 PUSH1 0x4 DUP1 CALLDATASIZE SUB DUP2 ADD SWAP1 PUSH2 0x5BD SWAP2 SWAP1 PUSH2 0x302F JUMP JUMPDEST PUSH2 0x1BAA JUMP JUMPDEST PUSH1 0x40 MLOAD PUSH2 0x5CF SWAP2 SWAP1 PUSH2 0x32BD JUMP JUMPDEST PUSH1 0x40 MLOAD DUP1 SWAP2 SUB SWAP1 RETURN JUMPDEST PUSH2 0x5F2 PUSH1 0x4 DUP1 CALLDATASIZE SUB DUP2 ADD SWAP1 PUSH2 0x5ED SWAP2 SWAP1 PUSH2 0x302F JUMP JUMPDEST PUSH2 0x1BC7 JUMP JUMPDEST PUSH1 0x40 MLOAD PUSH2 0x5FF SWAP2 SWAP1 PUSH2 0x2FDB JUMP JUMPDEST PUSH1 0x40 MLOAD DUP1 SWAP2 SUB SWAP1 RETURN JUMPDEST PUSH2 0x610 PUSH2 0x1BDC JUMP JUMPDEST PUSH1 0x40 MLOAD PUSH2 0x61D SWAP2 SWAP1 PUSH2 0x34B8 JUMP JUMPDEST PUSH1 0x40 MLOAD DUP1 SWAP2 SUB SWAP1 RETURN JUMPDEST PUSH2 0x640 PUSH1 0x4 DUP1 CALLDATASIZE SUB DUP2 ADD SWAP1 PUSH2 0x63B SWAP2 SWAP1 PUSH2 0x302F JUMP JUMPDEST PUSH2 0x1C01 JUMP JUMPDEST PUSH1 0x40 MLOAD PUSH2 0x64D SWAP2 SWAP1 PUSH2 0x32BD JUMP JUMPDEST PUSH1 0x40 MLOAD DUP1 SWAP2 SUB SWAP1 RETURN JUMPDEST PUSH2 0x65E PUSH2 0x1C27 JUMP JUMPDEST PUSH1 0x40 MLOAD PUSH2 0x66B SWAP2 SWAP1 PUSH2 0x2FDB JUMP JUMPDEST PUSH1 0x40 MLOAD DUP1 SWAP2 SUB SWAP1 RETURN JUMPDEST PUSH2 0x68E PUSH1 0x4 DUP1 CALLDATASIZE SUB DUP2 ADD SWAP1 PUSH2 0x689 SWAP2 SWAP1 PUSH2 0x3714 JUMP JUMPDEST PUSH2 0x1C4B JUMP JUMPDEST PUSH1 0x40 MLOAD PUSH2 0x69C SWAP3 SWAP2 SWAP1 PUSH2 0x30BB JUMP JUMPDEST PUSH1 0x40 MLOAD DUP1 SWAP2 SUB SWAP1 RETURN JUMPDEST PUSH2 0x6AD PUSH2 0x217B JUMP JUMPDEST PUSH1 0x40 MLOAD PUSH2 0x6BA SWAP2 SWAP1 PUSH2 0x34B8 JUMP JUMPDEST PUSH1 0x40 MLOAD DUP1 SWAP2 SUB SWAP1 RETURN JUMPDEST PUSH2 0x6CB PUSH2 0x21A0 JUMP JUMPDEST PUSH1 0x40 MLOAD PUSH2 0x6D8 SWAP2 SWAP1 PUSH2 0x34B8 JUMP JUMPDEST PUSH1 0x40 MLOAD DUP1 SWAP2 SUB SWAP1 RETURN JUMPDEST PUSH2 0x6E9 PUSH2 0x21C5 JUMP JUMPDEST PUSH1 0x40 MLOAD PUSH2 0x6F6 SWAP2 SWAP1 PUSH2 0x34B8 JUMP JUMPDEST PUSH1 0x40 MLOAD DUP1 SWAP2 SUB SWAP1 RETURN JUMPDEST PUSH2 0x719 PUSH1 0x4 DUP1 CALLDATASIZE SUB DUP2 ADD SWAP1 PUSH2 0x714 SWAP2 SWAP1 PUSH2 0x37E9 JUMP JUMPDEST PUSH2 0x21E8 JUMP JUMPDEST PUSH1 0x40 MLOAD PUSH2 0x726 SWAP2 SWAP1 PUSH2 0x2FDB JUMP JUMPDEST PUSH1 0x40 MLOAD DUP1 SWAP2 SUB SWAP1 RETURN JUMPDEST PUSH2 0x749 PUSH1 0x4 DUP1 CALLDATASIZE SUB DUP2 ADD SWAP1 PUSH2 0x744 SWAP2 SWAP1 PUSH2 0x339D JUMP JUMPDEST PUSH2 0x27D1 JUMP JUMPDEST PUSH1 0x40 MLOAD PUSH2 0x756 SWAP2 SWAP1 PUSH2 0x33F8 JUMP JUMPDEST PUSH1 0x40 MLOAD DUP1 SWAP2 SUB SWAP1 RETURN JUMPDEST PUSH2 0x767 PUSH2 0x2835 JUMP JUMPDEST PUSH1 0x40 MLOAD PUSH2 0x774 SWAP2 SWAP1 PUSH2 0x2FDB JUMP JUMPDEST PUSH1 0x40 MLOAD DUP1 SWAP2 SUB SWAP1 RETURN JUMPDEST PUSH2 0x785 PUSH2 0x283B JUMP JUMPDEST PUSH1 0x40 MLOAD PUSH2 0x792 SWAP2 SWAP1 PUSH2 0x34B8 JUMP JUMPDEST PUSH1 0x40 MLOAD DUP1 SWAP2 SUB SWAP1 RETURN JUMPDEST PUSH2 0x7B5 PUSH1 0x4 DUP1 CALLDATASIZE SUB DUP2 ADD SWAP1 PUSH2 0x7B0 SWAP2 SWAP1 PUSH2 0x387F JUMP JUMPDEST PUSH2 0x2860 JUMP JUMPDEST PUSH1 0x40 MLOAD PUSH2 0x7C2 SWAP2 SWAP1 PUSH2 0x2FDB JUMP JUMPDEST PUSH1 0x40 MLOAD DUP1 SWAP2 SUB SWAP1 RETURN JUMPDEST PUSH32 0x217FFB743E749E59632E1A39A53634096481CB82EE5F27B44698DCC2C7453F01 DUP2 JUMP JUMPDEST PUSH1 0xF PUSH1 0x20 MSTORE DUP1 PUSH0 MSTORE PUSH1 0x40 PUSH0 KECCAK256 PUSH0 SWAP2 POP SWAP1 POP DUP1 PUSH0 ADD PUSH0 SWAP1 SLOAD SWAP1 PUSH2 0x100 EXP SWAP1 DIV PUSH20 0xFFFFFFFFFFFFFFFFFFFFFFFFFFFFFFFFFFFFFFFF AND SWAP1 DUP1 PUSH0 ADD PUSH1 0x14 SWAP1 SLOAD SWAP1 PUSH2 0x100 EXP SWAP1 DIV PUSH8 0xFFFFFFFFFFFFFFFF AND SWAP1 POP DUP3 JUMP JUMPDEST PUSH1 0x9 PUSH0 SWAP1 SLOAD SWAP1 PUSH2 0x100 EXP SWAP1 DIV PUSH20 0xFFFFFFFFFFFFFFFFFFFFFFFFFFFFFFFFFFFFFFFF AND PUSH20 0xFFFFFFFFFFFFFFFFFFFFFFFFFFFFFFFFFFFFFFFF AND CALLER PUSH20 0xFFFFFFFFFFFFFFFFFFFFFFFFFFFFFFFFFFFFFFFF AND EQ PUSH2 0x8D0 JUMPI PUSH1 0x40 MLOAD PUSH32 0x8C379A000000000000000000000000000000000000000000000000000000000 DUP2 MSTORE PUSH1 0x4 ADD PUSH2 0x8C7 SWAP1 PUSH2 0x393D JUMP JUMPDEST PUSH1 0x40 MLOAD DUP1 SWAP2 SUB SWAP1 REVERT JUMPDEST DUP1 PUSH1 0xA DUP2 SWAP1 SSTORE POP POP JUMP JUMPDEST PUSH2 0x167 DUP2 JUMP JUMPDEST PUSH1 0xB PUSH1 0x20 MSTORE DUP1 PUSH0 MSTORE PUSH1 0x40 PUSH0 KECCAK256 PUSH0 SWAP2 POP SWAP1 POP DUP1 PUSH0 ADD SLOAD SWAP1 DUP1 PUSH1 0x1 ADD SLOAD SWAP1 DUP1 PUSH1 0x3 ADD PUSH0 SWAP1 SLOAD SWAP1 PUSH2 0x100 EXP SWAP1 DIV PUSH20 0xFFFFFFFFFFFFFFFFFFFFFFFFFFFFFFFFFFFFFFFF AND SWAP1 DUP1 PUSH1 0x3 ADD PUSH1 0x14 SWAP1 SLOAD SWAP1 PUSH2 0x100 EXP SWAP1 DIV PUSH8 0xFFFFFFFFFFFFFFFF AND SWAP1 DUP1 PUSH1 0x3 ADD PUSH1 0x1C SWAP1 SLOAD SWAP1 PUSH2 0x100 EXP SWAP1 DIV PUSH1 0xFF AND SWAP1 POP DUP6 JUMP JUMPDEST PUSH32 0x892486F2DB77FEBA50B67FD68CCCF02ECCA6D746664216A0449ECB5BA18F8DE DUP2 JUMP JUMPDEST PUSH32 0x120EB869162558440F242FF96357D8B58E4E92E3931E5FA2CD26B86718ABC0E2 DUP2 JUMP JUMPDEST PUSH0 PUSH1 0xE PUSH0 DUP4 DUP2 MSTORE PUSH1 0x20 ADD SWAP1 DUP2 MSTORE PUSH1 0x20 ADD PUSH0 KECCAK256 SLOAD SWAP1 POP SWAP2 SWAP1 POP JUMP JUMPDEST PUSH0 DUP1 PUSH0 PUSH1 0x6 PUSH0 SWAP1 SLOAD SWAP1 PUSH2 0x100 EXP SWAP1 DIV PUSH20 0xFFFFFFFFFFFFFFFFFFFFFFFFFFFFFFFFFFFFFFFF AND PUSH20 0xFFFFFFFFFFFFFFFFFFFFFFFFFFFFFFFFFFFFFFFF AND DUP8 PUSH20 0xFFFFFFFFFFFFFFFFFFFFFFFFFFFFFFFFFFFFFFFF AND SUB PUSH2 0xA57 JUMPI PUSH32 0x9E30E0ACF846B25B3E72D06E58BDE205E6320ACD3F4B095D11ECE290A6885188 SWAP2 POP PUSH1 0x6 PUSH0 SWAP1 SLOAD SWAP1 PUSH2 0x100 EXP SWAP1 DIV PUSH20 0xFFFFFFFFFFFFFFFFFFFFFFFFFFFFFFFFFFFFFFFF AND SWAP1 POP PUSH2 0xB2A JUMP JUMPDEST PUSH1 0x7 PUSH0 SWAP1 SLOAD SWAP1 PUSH2 0x100 EXP SWAP1 DIV PUSH20 0xFFFFFFFFFFFFFFFFFFFFFFFFFFFFFFFFFFFFFFFF AND PUSH20 0xFFFFFFFFFFFFFFFFFFFFFFFFFFFFFFFFFFFFFFFF AND DUP8 PUSH20 0xFFFFFFFFFFFFFFFFFFFFFFFFFFFFFFFFFFFFFFFF AND SUB PUSH2 0xAF7 JUMPI PUSH32 0x120EB869162558440F242FF96357D8B58E4E92E3931E5FA2CD26B86718ABC0E2 SWAP2 POP PUSH1 0x7 PUSH0 SWAP1 SLOAD SWAP1 PUSH2 0x100 EXP SWAP1 DIV PUSH20 0xFFFFFFFFFFFFFFFFFFFFFFFFFFFFFFFFFFFFFFFF AND SWAP1 POP PUSH2 0xB29 JUMP JUMPDEST PUSH1 0x40 MLOAD PUSH32 0xBB55ABBB00000000000000000000000000000000000000000000000000000000 DUP2 MSTORE PUSH1 0x4 ADD PUSH1 0x40 MLOAD DUP1 SWAP2 SUB SWAP1 REVERT JUMPDEST JUMPDEST PUSH0 PUSH2 0x167 PUSH20 0xFFFFFFFFFFFFFFFFFFFFFFFFFFFFFFFFFFFFFFFF AND PUSH4 0x278E0B88 DUP4 PUSH1 0x1 PUSH0 PUSH8 0xFFFFFFFFFFFFFFFF DUP2 GT ISZERO PUSH2 0xB66 JUMPI PUSH2 0xB65 PUSH2 0x395B JUMP JUMPDEST JUMPDEST PUSH1 0x40 MLOAD SWAP1 DUP1 DUP3 MSTORE DUP1 PUSH1 0x20 MUL PUSH1 0x20 ADD DUP3 ADD PUSH1 0x40 MSTORE DUP1 ISZERO PUSH2 0xB99 JUMPI DUP2 PUSH1 0x20 ADD JUMPDEST PUSH1 0x60 DUP2 MSTORE PUSH1 0x20 ADD SWAP1 PUSH1 0x1 SWAP1 SUB SWAP1 DUP2 PUSH2 0xB84 JUMPI SWAP1 POP JUMPDEST POP PUSH1 0x40 MLOAD DUP5 PUSH4 0xFFFFFFFF AND PUSH1 0xE0 SHL DUP2 MSTORE PUSH1 0x4 ADD PUSH2 0xBB8 SWAP4 SWAP3 SWAP2 SWAP1 PUSH2 0x3B06 JUMP JUMPDEST PUSH0 PUSH1 0x40 MLOAD DUP1 DUP4 SUB DUP2 PUSH0 DUP8 GAS CALL ISZERO DUP1 ISZERO PUSH2 0xBD3 JUMPI RETURNDATASIZE PUSH0 DUP1 RETURNDATACOPY RETURNDATASIZE PUSH0 REVERT JUMPDEST POP POP POP POP PUSH1 0x40 MLOAD RETURNDATASIZE PUSH0 DUP3 RETURNDATACOPY RETURNDATASIZE PUSH1 0x1F NOT PUSH1 0x1F DUP3 ADD AND DUP3 ADD DUP1 PUSH1 0x40 MSTORE POP DUP2 ADD SWAP1 PUSH2 0xBFB SWAP2 SWAP1 PUSH2 0x3C97 JUMP JUMPDEST POP POP SWAP1 POP PUSH1 0x16 DUP2 PUSH1 0x7 SIGNEXTEND EQ PUSH2 0xC45 JUMPI PUSH1 0x40 MLOAD PUSH32 0x8C379A000000000000000000000000000000000000000000000000000000000 DUP2 MSTORE PUSH1 0x4 ADD PUSH2 0xC3C SWAP1 PUSH2 0x3D4D JUMP JUMPDEST PUSH1 0x40 MLOAD DUP1 SWAP2 SUB SWAP1 REVERT JUMPDEST CALLER PUSH20 0xFFFFFFFFFFFFFFFFFFFFFFFFFFFFFFFFFFFFFFFF AND DUP9 PUSH20 0xFFFFFFFFFFFFFFFFFFFFFFFFFFFFFFFFFFFFFFFF AND DUP9 PUSH32 0xFD005E0F9BA958F7C6B1A0FA8518FBAB37952F760666C5DA196F2C5591E88B7D DUP10 DUP10 PUSH1 0x40 MLOAD PUSH2 0xCA5 SWAP3 SWAP2 SWAP1 PUSH2 0x3DA5 JUMP JUMPDEST PUSH1 0x40 MLOAD DUP1 SWAP2 SUB SWAP1 LOG4 PUSH1 0x1 SWAP4 POP POP POP POP SWAP5 SWAP4 POP POP POP POP JUMP JUMPDEST PUSH0 DUP1 PUSH1 0xB PUSH0 DUP9 DUP2 MSTORE PUSH1 0x20 ADD SWAP1 DUP2 MSTORE PUSH1 0x20 ADD PUSH0 KECCAK256 SWAP1 POP DUP1 PUSH1 0x3 ADD PUSH1 0x1C SWAP1 SLOAD SWAP1 PUSH2 0x100 EXP SWAP1 DIV PUSH1 0xFF AND PUSH2 0xD22 JUMPI PUSH1 0x40 MLOAD PUSH32 0x8C379A000000000000000000000000000000000000000000000000000000000 DUP2 MSTORE PUSH1 0x4 ADD PUSH2 0xD19 SWAP1 PUSH2 0x3E11 JUMP JUMPDEST PUSH1 0x40 MLOAD DUP1 SWAP2 SUB SWAP1 REVERT JUMPDEST DUP1 PUSH1 0x3 ADD PUSH1 0x14 SWAP1 SLOAD SWAP1 PUSH2 0x100 EXP SWAP1 DIV PUSH8 0xFFFFFFFFFFFFFFFF AND DUP7 PUSH2 0xD46 SWAP2 SWAP1 PUSH2 0x3E5C JUMP JUMPDEST SWAP2 POP PUSH0 PUSH2 0x167 PUSH20 0xFFFFFFFFFFFFFFFFFFFFFFFFFFFFFFFFFFFFFFFF AND PUSH4 0x278E0B88 DUP4 PUSH1 0x3 ADD PUSH0 SWAP1 SLOAD SWAP1 PUSH2 0x100 EXP SWAP1 DIV PUSH20 0xFFFFFFFFFFFFFFFFFFFFFFFFFFFFFFFFFFFFFFFF AND DUP6 PUSH0 PUSH8 0xFFFFFFFFFFFFFFFF DUP2 GT ISZERO PUSH2 0xDA6 JUMPI PUSH2 0xDA5 PUSH2 0x395B JUMP JUMPDEST JUMPDEST PUSH1 0x40 MLOAD SWAP1 DUP1 DUP3 MSTORE DUP1 PUSH1 0x20 MUL PUSH1 0x20 ADD DUP3 ADD PUSH1 0x40 MSTORE DUP1 ISZERO PUSH2 0xDD9 JUMPI DUP2 PUSH1 0x20 ADD JUMPDEST PUSH1 0x60 DUP2 MSTORE PUSH1 0x20 ADD SWAP1 PUSH1 0x1 SWAP1 SUB SWAP1 DUP2 PUSH2 0xDC4 JUMPI SWAP1 POP JUMPDEST POP PUSH1 0x40 MLOAD DUP5 PUSH4 0xFFFFFFFF AND PUSH1 0xE0 SHL DUP2 MSTORE PUSH1 0x4 ADD PUSH2 0xDF8 SWAP4 SWAP3 SWAP2 SWAP1 PUSH2 0x3E98 JUMP JUMPDEST PUSH0 PUSH1 0x40 MLOAD DUP1 DUP4 SUB DUP2 PUSH0 DUP8 GAS CALL ISZERO DUP1 ISZERO PUSH2 0xE13 JUMPI RETURNDATASIZE PUSH0 DUP1 RETURNDATACOPY RETURNDATASIZE PUSH0 REVERT JUMPDEST POP POP POP POP PUSH1 0x40 MLOAD RETURNDATASIZE PUSH0 DUP3 RETURNDATACOPY RETURNDATASIZE PUSH1 0x1F NOT PUSH1 0x1F DUP3 ADD AND DUP3 ADD DUP1 PUSH1 0x40 MSTORE POP DUP2 ADD SWAP1 PUSH2 0xE3B SWAP2 SWAP1 PUSH2 0x3C97 JUMP JUMPDEST POP POP SWAP1 POP PUSH1 0x16 DUP2 PUSH1 0x7 SIGNEXTEND EQ PUSH2 0xE85 JUMPI PUSH1 0x40 MLOAD PUSH32 0x8C379A000000000000000000000000000000000000000000000000000000000 DUP2 MSTORE PUSH1 0x4 ADD PUSH2 0xE7C SWAP1 PUSH2 0x3D4D JUMP JUMPDEST PUSH1 0x40 MLOAD DUP1 SWAP2 SUB SWAP1 REVERT JUMPDEST DUP6 CALLER PUSH20 0xFFFFFFFFFFFFFFFFFFFFFFFFFFFFFFFFFFFFFFFF AND DUP10 PUSH32 0x6153F55C528EDCEC957D2FA67D63CB136DEE382001A3487CCF80D636A17BAE84 DUP11 DUP8 DUP11 DUP11 PUSH1 0x40 MLOAD PUSH2 0xED3 SWAP5 SWAP4 SWAP3 SWAP2 SWAP1 PUSH2 0x3ED4 JUMP JUMPDEST PUSH1 0x40 MLOAD DUP1 SWAP2 SUB SWAP1 LOG4 POP POP SWAP6 SWAP5 POP POP POP POP POP JUMP JUMPDEST PUSH1 0xC PUSH1 0x20 MSTORE DUP2 PUSH0 MSTORE PUSH1 0x40 PUSH0 KECCAK256 PUSH1 0x20 MSTORE DUP1 PUSH0 MSTORE PUSH1 0x40 PUSH0 KECCAK256 PUSH0 SWAP2 POP SWAP2 POP SWAP1 SLOAD SWAP1 PUSH2 0x100 EXP SWAP1 DIV PUSH3 0xFFFFFF AND DUP2 JUMP JUMPDEST PUSH0 DUP1 PUSH0 DUP1 PUSH32 0x72F7DDC62C67E3943091F9C7B899298A6C6B0287758C513C5036EDA57075E6E3 SWAP4 POP PUSH2 0xF44 DUP9 DUP9 DUP9 PUSH2 0x28BA JUMP JUMPDEST SWAP3 POP PUSH32 0x72F7DDC62C67E3943091F9C7B899298A6C6B0287758C513C5036EDA57075E6E3 DUP7 EQ SWAP2 POP DUP3 DUP6 EQ SWAP1 POP SWAP5 POP SWAP5 POP SWAP5 POP SWAP5 SWAP1 POP JUMP JUMPDEST PUSH1 0x8 PUSH0 SWAP1 SLOAD SWAP1 PUSH2 0x100 EXP SWAP1 DIV PUSH20 0xFFFFFFFFFFFFFFFFFFFFFFFFFFFFFFFFFFFFFFFF AND DUP2 JUMP JUMPDEST PUSH1 0x9 PUSH0 SWAP1 SLOAD SWAP1 PUSH2 0x100 EXP SWAP1 DIV PUSH20 0xFFFFFFFFFFFFFFFFFFFFFFFFFFFFFFFFFFFFFFFF AND PUSH20 0xFFFFFFFFFFFFFFFFFFFFFFFFFFFFFFFFFFFFFFFF AND CALLER PUSH20 0xFFFFFFFFFFFFFFFFFFFFFFFFFFFFFFFFFFFFFFFF AND EQ PUSH2 0x102F JUMPI PUSH1 0x40 MLOAD PUSH32 0x8C379A000000000000000000000000000000000000000000000000000000000 DUP2 MSTORE PUSH1 0x4 ADD PUSH2 0x1026 SWAP1 PUSH2 0x393D JUMP JUMPDEST PUSH1 0x40 MLOAD DUP1 SWAP2 SUB SWAP1 REVERT JUMPDEST PUSH0 PUSH20 0xFFFFFFFFFFFFFFFFFFFFFFFFFFFFFFFFFFFFFFFF AND DUP10 PUSH20 0xFFFFFFFFFFFFFFFFFFFFFFFFFFFFFFFFFFFFFFFF AND EQ ISZERO DUP1 ISZERO PUSH2 0x1097 JUMPI POP PUSH0 PUSH20 0xFFFFFFFFFFFFFFFFFFFFFFFFFFFFFFFFFFFFFFFF AND DUP9 PUSH20 0xFFFFFFFFFFFFFFFFFFFFFFFFFFFFFFFFFFFFFFFF AND EQ ISZERO JUMPDEST DUP1 ISZERO PUSH2 0x10CF JUMPI POP PUSH0 PUSH20 0xFFFFFFFFFFFFFFFFFFFFFFFFFFFFFFFFFFFFFFFF AND DUP8 PUSH20 0xFFFFFFFFFFFFFFFFFFFFFFFFFFFFFFFFFFFFFFFF AND EQ ISZERO JUMPDEST DUP1 ISZERO PUSH2 0x1107 JUMPI POP PUSH0 PUSH20 0xFFFFFFFFFFFFFFFFFFFFFFFFFFFFFFFFFFFFFFFF AND DUP7 PUSH20 0xFFFFFFFFFFFFFFFFFFFFFFFFFFFFFFFFFFFFFFFF AND EQ ISZERO JUMPDEST DUP1 ISZERO PUSH2 0x113F JUMPI POP PUSH0 PUSH20 0xFFFFFFFFFFFFFFFFFFFFFFFFFFFFFFFFFFFFFFFF AND DUP6 PUSH20 0xFFFFFFFFFFFFFFFFFFFFFFFFFFFFFFFFFFFFFFFF AND EQ ISZERO JUMPDEST DUP1 ISZERO PUSH2 0x1177 JUMPI POP PUSH0 PUSH20 0xFFFFFFFFFFFFFFFFFFFFFFFFFFFFFFFFFFFFFFFF AND DUP5 PUSH20 0xFFFFFFFFFFFFFFFFFFFFFFFFFFFFFFFFFFFFFFFF AND EQ ISZERO JUMPDEST DUP1 ISZERO PUSH2 0x11AF JUMPI POP PUSH0 PUSH20 0xFFFFFFFFFFFFFFFFFFFFFFFFFFFFFFFFFFFFFFFF AND DUP4 PUSH20 0xFFFFFFFFFFFFFFFFFFFFFFFFFFFFFFFFFFFFFFFF AND EQ ISZERO JUMPDEST DUP1 ISZERO PUSH2 0x11E7 JUMPI POP PUSH0 PUSH20 0xFFFFFFFFFFFFFFFFFFFFFFFFFFFFFFFFFFFFFFFF AND DUP3 PUSH20 0xFFFFFFFFFFFFFFFFFFFFFFFFFFFFFFFFFFFFFFFF AND EQ ISZERO JUMPDEST DUP1 ISZERO PUSH2 0x121F JUMPI POP PUSH0 PUSH20 0xFFFFFFFFFFFFFFFFFFFFFFFFFFFFFFFFFFFFFFFF AND DUP2 PUSH20 0xFFFFFFFFFFFFFFFFFFFFFFFFFFFFFFFFFFFFFFFF AND EQ ISZERO JUMPDEST PUSH2 0x125E JUMPI PUSH1 0x40 MLOAD PUSH32 0x8C379A000000000000000000000000000000000000000000000000000000000 DUP2 MSTORE PUSH1 0x4 ADD PUSH2 0x1255 SWAP1 PUSH2 0x3F5C JUMP JUMPDEST PUSH1 0x40 MLOAD DUP1 SWAP2 SUB SWAP1 REVERT JUMPDEST DUP9 PUSH0 DUP1 PUSH2 0x100 EXP DUP2 SLOAD DUP2 PUSH20 0xFFFFFFFFFFFFFFFFFFFFFFFFFFFFFFFFFFFFFFFF MUL NOT AND SWAP1 DUP4 PUSH20 0xFFFFFFFFFFFFFFFFFFFFFFFFFFFFFFFFFFFFFFFF AND MUL OR SWAP1 SSTORE POP DUP8 PUSH1 0x1 PUSH0 PUSH2 0x100 EXP DUP2 SLOAD DUP2 PUSH20 0xFFFFFFFFFFFFFFFFFFFFFFFFFFFFFFFFFFFFFFFF MUL NOT AND SWAP1 DUP4 PUSH20 0xFFFFFFFFFFFFFFFFFFFFFFFFFFFFFFFFFFFFFFFF AND MUL OR SWAP1 SSTORE POP DUP7 PUSH1 0x2 PUSH0 PUSH2 0x100 EXP DUP2 SLOAD DUP2 PUSH20 0xFFFFFFFFFFFFFFFFFFFFFFFFFFFFFFFFFFFFFFFF MUL NOT AND SWAP1 DUP4 PUSH20 0xFFFFFFFFFFFFFFFFFFFFFFFFFFFFFFFFFFFFFFFF AND MUL OR SWAP1 SSTORE POP DUP6 PUSH1 0x3 PUSH0 PUSH2 0x100 EXP DUP2 SLOAD DUP2 PUSH20 0xFFFFFFFFFFFFFFFFFFFFFFFFFFFFFFFFFFFFFFFF MUL NOT AND SWAP1 DUP4 PUSH20 0xFFFFFFFFFFFFFFFFFFFFFFFFFFFFFFFFFFFFFFFF AND MUL OR SWAP1 SSTORE POP DUP5 PUSH1 0x4 PUSH0 PUSH2 0x100 EXP DUP2 SLOAD DUP2 PUSH20 0xFFFFFFFFFFFFFFFFFFFFFFFFFFFFFFFFFFFFFFFF MUL NOT AND SWAP1 DUP4 PUSH20 0xFFFFFFFFFFFFFFFFFFFFFFFFFFFFFFFFFFFFFFFF AND MUL OR SWAP1 SSTORE POP DUP4 PUSH1 0x5 PUSH0 PUSH2 0x100 EXP DUP2 SLOAD DUP2 PUSH20 0xFFFFFFFFFFFFFFFFFFFFFFFFFFFFFFFFFFFFFFFF MUL NOT AND SWAP1 DUP4 PUSH20 0xFFFFFFFFFFFFFFFFFFFFFFFFFFFFFFFFFFFFFFFF AND MUL OR SWAP1 SSTORE POP DUP3 PUSH1 0x6 PUSH0 PUSH2 0x100 EXP DUP2 SLOAD DUP2 PUSH20 0xFFFFFFFFFFFFFFFFFFFFFFFFFFFFFFFFFFFFFFFF MUL NOT AND SWAP1 DUP4 PUSH20 0xFFFFFFFFFFFFFFFFFFFFFFFFFFFFFFFFFFFFFFFF AND MUL OR SWAP1 SSTORE POP DUP2 PUSH1 0x7 PUSH0 PUSH2 0x100 EXP DUP2 SLOAD DUP2 PUSH20 0xFFFFFFFFFFFFFFFFFFFFFFFFFFFFFFFFFFFFFFFF MUL NOT AND SWAP1 DUP4 PUSH20 0xFFFFFFFFFFFFFFFFFFFFFFFFFFFFFFFFFFFFFFFF AND MUL OR SWAP1 SSTORE POP DUP1 PUSH1 0x8 PUSH0 PUSH2 0x100 EXP DUP2 SLOAD DUP2 PUSH20 0xFFFFFFFFFFFFFFFFFFFFFFFFFFFFFFFFFFFFFFFF MUL NOT AND SWAP1 DUP4 PUSH20 0xFFFFFFFFFFFFFFFFFFFFFFFFFFFFFFFFFFFFFFFF AND MUL OR SWAP1 SSTORE POP DUP7 PUSH20 0xFFFFFFFFFFFFFFFFFFFFFFFFFFFFFFFFFFFFFFFF AND DUP9 PUSH20 0xFFFFFFFFFFFFFFFFFFFFFFFFFFFFFFFFFFFFFFFF AND DUP11 PUSH20 0xFFFFFFFFFFFFFFFFFFFFFFFFFFFFFFFFFFFFFFFF AND PUSH32 0x8F38F72D705D71B37B305AAE9270050F10C5E566EF6C0ABA8C3FB04A84F35D5 DUP10 DUP10 DUP10 DUP10 DUP10 DUP10 PUSH1 0x40 MLOAD PUSH2 0x151B SWAP7 SWAP6 SWAP5 SWAP4 SWAP3 SWAP2 SWAP1 PUSH2 0x3F7A JUMP JUMPDEST PUSH1 0x40 MLOAD DUP1 SWAP2 SUB SWAP1 LOG4 POP POP POP POP POP POP POP POP POP JUMP JUMPDEST PUSH32 0xC6874C1610BEAE6DAEC7914C79000F79F8F3FBAC13F2862FDE2BDDF71EEA74EF DUP2 JUMP JUMPDEST PUSH0 PUSH2 0x155F DUP7 DUP7 DUP7 DUP7 PUSH2 0x2860 JUMP JUMPDEST DUP3 PUSH0 ADD CALLDATALOAD EQ PUSH2 0x15A3 JUMPI PUSH1 0x40 MLOAD PUSH32 0x8C379A000000000000000000000000000000000000000000000000000000000 DUP2 MSTORE PUSH1 0x4 ADD PUSH2 0x159A SWAP1 PUSH2 0x4023 JUMP JUMPDEST PUSH1 0x40 MLOAD DUP1 SWAP2 SUB SWAP1 REVERT JUMPDEST PUSH1 0xD PUSH0 DUP4 PUSH1 0x20 ADD CALLDATALOAD DUP2 MSTORE PUSH1 0x20 ADD SWAP1 DUP2 MSTORE PUSH1 0x20 ADD PUSH0 KECCAK256 PUSH0 SWAP1 SLOAD SWAP1 PUSH2 0x100 EXP SWAP1 DIV PUSH1 0xFF AND ISZERO PUSH2 0x1613 JUMPI CALLER PUSH20 0xFFFFFFFFFFFFFFFFFFFFFFFFFFFFFFFFFFFFFFFF AND DUP3 PUSH1 0x20 ADD CALLDATALOAD PUSH32 0x3CD6D293D93FFFB5C4505ED423476E083CFE17C7E58820E30BE3EFEA7283221A PUSH1 0x40 MLOAD PUSH1 0x40 MLOAD DUP1 SWAP2 SUB SWAP1 LOG3 JUMPDEST PUSH0 PUSH1 0xC PUSH0 DUP6 DUP2 MSTORE PUSH1 0x20 ADD SWAP1 DUP2 MSTORE PUSH1 0x20 ADD PUSH0 KECCAK256 PUSH0 DUP9 PUSH20 0xFFFFFFFFFFFFFFFFFFFFFFFFFFFFFFFFFFFFFFFF AND PUSH20 0xFFFFFFFFFFFFFFFFFFFFFFFFFFFFFFFFFFFFFFFF AND DUP2 MSTORE PUSH1 0x20 ADD SWAP1 DUP2 MSTORE PUSH1 0x20 ADD PUSH0 KECCAK256 PUSH0 SWAP1 SLOAD SWAP1 PUSH2 0x100 EXP SWAP1 DIV PUSH3 0xFFFFFF AND SWAP1 POP PUSH0 DUP2 PUSH3 0xFFFFFF AND EQ DUP1 PUSH2 0x16E2 JUMPI POP PUSH0 PUSH1 0xC PUSH0 DUP7 DUP2 MSTORE PUSH1 0x20 ADD SWAP1 DUP2 MSTORE PUSH1 0x20 ADD PUSH0 KECCAK256 PUSH0 DUP9 PUSH20 0xFFFFFFFFFFFFFFFFFFFFFFFFFFFFFFFFFFFFFFFF AND PUSH20 0xFFFFFFFFFFFFFFFFFFFFFFFFFFFFFFFFFFFFFFFF AND DUP2 MSTORE PUSH1 0x20 ADD SWAP1 DUP2 MSTORE PUSH1 0x20 ADD PUSH0 KECCAK256 PUSH0 SWAP1 SLOAD SWAP1 PUSH2 0x100 EXP SWAP1 DIV PUSH3 0xFFFFFF AND PUSH3 0xFFFFFF AND EQ JUMPDEST DUP1 PUSH2 0x174B JUMPI POP PUSH0 PUSH1 0xC PUSH0 DUP7 DUP2 MSTORE PUSH1 0x20 ADD SWAP1 DUP2 MSTORE PUSH1 0x20 ADD PUSH0 KECCAK256 PUSH0 DUP8 PUSH20 0xFFFFFFFFFFFFFFFFFFFFFFFFFFFFFFFFFFFFFFFF AND PUSH20 0xFFFFFFFFFFFFFFFFFFFFFFFFFFFFFFFFFFFFFFFF AND DUP2 MSTORE PUSH1 0x20 ADD SWAP1 DUP2 MSTORE PUSH1 0x20 ADD PUSH0 KECCAK256 PUSH0 SWAP1 SLOAD SWAP1 PUSH2 0x100 EXP SWAP1 DIV PUSH3 0xFFFFFF AND PUSH3 0xFFFFFF AND EQ JUMPDEST ISZERO PUSH2 0x181F JUMPI PUSH1 0xD PUSH0 DUP5 PUSH1 0x20 ADD CALLDATALOAD DUP2 MSTORE PUSH1 0x20 ADD SWAP1 DUP2 MSTORE PUSH1 0x20 ADD PUSH0 KECCAK256 PUSH0 SWAP1 SLOAD SWAP1 PUSH2 0x100 EXP SWAP1 DIV PUSH1 0xFF AND PUSH2 0x1816 JUMPI PUSH1 0x1 PUSH1 0xD PUSH0 DUP6 PUSH1 0x20 ADD CALLDATALOAD DUP2 MSTORE PUSH1 0x20 ADD SWAP1 DUP2 MSTORE PUSH1 0x20 ADD PUSH0 KECCAK256 PUSH0 PUSH2 0x100 EXP DUP2 SLOAD DUP2 PUSH1 0xFF MUL NOT AND SWAP1 DUP4 ISZERO ISZERO MUL OR SWAP1 SSTORE POP DUP3 PUSH0 ADD CALLDATALOAD PUSH1 0xE PUSH0 DUP6 PUSH1 0x20 ADD CALLDATALOAD DUP2 MSTORE PUSH1 0x20 ADD SWAP1 DUP2 MSTORE PUSH1 0x20 ADD PUSH0 KECCAK256 DUP2 SWAP1 SSTORE POP DUP4 DUP4 PUSH1 0x20 ADD CALLDATALOAD PUSH32 0x573EA6C6D729CB63F2227625589B742119E9A3E33C15DB35DE47409A861F00E3 DUP10 DUP10 DUP10 PUSH0 DUP10 DUP1 PUSH1 0x80 ADD SWAP1 PUSH2 0x17FB SWAP2 SWAP1 PUSH2 0x404D JUMP JUMPDEST PUSH1 0x40 MLOAD PUSH2 0x180D SWAP7 SWAP6 SWAP5 SWAP4 SWAP3 SWAP2 SWAP1 PUSH2 0x40AF JUMP JUMPDEST PUSH1 0x40 MLOAD DUP1 SWAP2 SUB SWAP1 LOG3 JUMPDEST PUSH0 SWAP2 POP POP PUSH2 0x19B4 JUMP JUMPDEST PUSH1 0xC PUSH0 DUP6 DUP2 MSTORE PUSH1 0x20 ADD SWAP1 DUP2 MSTORE PUSH1 0x20 ADD PUSH0 KECCAK256 PUSH0 DUP7 PUSH20 0xFFFFFFFFFFFFFFFFFFFFFFFFFFFFFFFFFFFFFFFF AND PUSH20 0xFFFFFFFFFFFFFFFFFFFFFFFFFFFFFFFFFFFFFFFF AND DUP2 MSTORE PUSH1 0x20 ADD SWAP1 DUP2 MSTORE PUSH1 0x20 ADD PUSH0 KECCAK256 PUSH0 SWAP1 SLOAD SWAP1 PUSH2 0x100 EXP SWAP1 DIV PUSH3 0xFFFFFF AND PUSH3 0xFFFFFF AND PUSH2 0x18E4 DUP3 PUSH1 0xC PUSH0 DUP9 DUP2 MSTORE PUSH1 0x20 ADD SWAP1 DUP2 MSTORE PUSH1 0x20 ADD PUSH0 KECCAK256 PUSH0 DUP11 PUSH20 0xFFFFFFFFFFFFFFFFFFFFFFFFFFFFFFFFFFFFFFFF AND PUSH20 0xFFFFFFFFFFFFFFFFFFFFFFFFFFFFFFFFFFFFFFFF AND DUP2 MSTORE PUSH1 0x20 ADD SWAP1 DUP2 MSTORE PUSH1 0x20 ADD PUSH0 KECCAK256 PUSH0 SWAP1 SLOAD SWAP1 PUSH2 0x100 EXP SWAP1 DIV PUSH3 0xFFFFFF AND DUP8 PUSH2 0x2956 JUMP JUMPDEST PUSH3 0xFFFFFF AND EQ SWAP2 POP PUSH1 0xD PUSH0 DUP5 PUSH1 0x20 ADD CALLDATALOAD DUP2 MSTORE PUSH1 0x20 ADD SWAP1 DUP2 MSTORE PUSH1 0x20 ADD PUSH0 KECCAK256 PUSH0 SWAP1 SLOAD SWAP1 PUSH2 0x100 EXP SWAP1 DIV PUSH1 0xFF AND PUSH2 0x19B2 JUMPI PUSH1 0x1 PUSH1 0xD PUSH0 DUP6 PUSH1 0x20 ADD CALLDATALOAD DUP2 MSTORE PUSH1 0x20 ADD SWAP1 DUP2 MSTORE PUSH1 0x20 ADD PUSH0 KECCAK256 PUSH0 PUSH2 0x100 EXP DUP2 SLOAD DUP2 PUSH1 0xFF MUL NOT AND SWAP1 DUP4 ISZERO ISZERO MUL OR SWAP1 SSTORE POP DUP3 PUSH0 ADD CALLDATALOAD PUSH1 0xE PUSH0 DUP6 PUSH1 0x20 ADD CALLDATALOAD DUP2 MSTORE PUSH1 0x20 ADD SWAP1 DUP2 MSTORE PUSH1 0x20 ADD PUSH0 KECCAK256 DUP2 SWAP1 SSTORE POP DUP4 DUP4 PUSH1 0x20 ADD CALLDATALOAD PUSH32 0x573EA6C6D729CB63F2227625589B742119E9A3E33C15DB35DE47409A861F00E3 DUP10 DUP10 DUP10 DUP8 DUP10 DUP1 PUSH1 0x80 ADD SWAP1 PUSH2 0x1997 SWAP2 SWAP1 PUSH2 0x404D JUMP JUMPDEST PUSH1 0x40 MLOAD PUSH2 0x19A9 SWAP7 SWAP6 SWAP5 SWAP4 SWAP3 SWAP2 SWAP1 PUSH2 0x40AF JUMP JUMPDEST PUSH1 0x40 MLOAD DUP1 SWAP2 SUB SWAP1 LOG3 JUMPDEST POP JUMPDEST SWAP6 SWAP5 POP POP POP POP POP JUMP JUMPDEST PUSH32 0x5C121EE8B573E4E6586BCAFEC852BD980B83EA2AA4A37F9FCCB6FA546927C42B DUP2 JUMP JUMPDEST PUSH32 0x72F7DDC62C67E3943091F9C7B899298A6C6B0287758C513C5036EDA57075E6E3 DUP2 JUMP JUMPDEST PUSH1 0x9 PUSH0 SWAP1 SLOAD SWAP1 PUSH2 0x100 EXP SWAP1 DIV PUSH20 0xFFFFFFFFFFFFFFFFFFFFFFFFFFFFFFFFFFFFFFFF AND PUSH20 0xFFFFFFFFFFFFFFFFFFFFFFFFFFFFFFFFFFFFFFFF AND CALLER PUSH20 0xFFFFFFFFFFFFFFFFFFFFFFFFFFFFFFFFFFFFFFFF AND EQ PUSH2 0x1A94 JUMPI PUSH1 0x40 MLOAD PUSH32 0x8C379A000000000000000000000000000000000000000000000000000000000 DUP2 MSTORE PUSH1 0x4 ADD PUSH2 0x1A8B SWAP1 PUSH2 0x393D JUMP JUMPDEST PUSH1 0x40 MLOAD DUP1 SWAP2 SUB SWAP1 REVERT JUMPDEST DUP1 PUSH1 0xC PUSH0 DUP6 DUP2 MSTORE PUSH1 0x20 ADD SWAP1 DUP2 MSTORE PUSH1 0x20 ADD PUSH0 KECCAK256 PUSH0 DUP5 PUSH20 0xFFFFFFFFFFFFFFFFFFFFFFFFFFFFFFFFFFFFFFFF AND PUSH20 0xFFFFFFFFFFFFFFFFFFFFFFFFFFFFFFFFFFFFFFFF AND DUP2 MSTORE PUSH1 0x20 ADD SWAP1 DUP2 MSTORE PUSH1 0x20 ADD PUSH0 KECCAK256 PUSH0 PUSH2 0x100 EXP DUP2 SLOAD DUP2 PUSH3 0xFFFFFF MUL NOT AND SWAP1 DUP4 PUSH3 0xFFFFFF AND MUL OR SWAP1 SSTORE POP POP POP POP JUMP JUMPDEST PUSH1 0x9 PUSH0 SWAP1 SLOAD SWAP1 PUSH2 0x100 EXP SWAP1 DIV PUSH20 0xFFFFFFFFFFFFFFFFFFFFFFFFFFFFFFFFFFFFFFFF AND DUP2 JUMP JUMPDEST PUSH1 0x6 PUSH0 SWAP1 SLOAD SWAP1 PUSH2 0x100 EXP SWAP1 DIV PUSH20 0xFFFFFFFFFFFFFFFFFFFFFFFFFFFFFFFFFFFFFFFF AND DUP2 JUMP JUMPDEST PUSH0 PUSH2 0x1B57 DUP5 DUP5 DUP5 PUSH2 0x28BA JUMP JUMPDEST SWAP1 POP SWAP4 SWAP3 POP POP POP JUMP JUMPDEST PUSH1 0x2 PUSH0 SWAP1 SLOAD SWAP1 PUSH2 0x100 EXP SWAP1 DIV PUSH20 0xFFFFFFFFFFFFFFFFFFFFFFFFFFFFFFFFFFFFFFFF AND DUP2 JUMP JUMPDEST PUSH1 0x5 PUSH0 SWAP1 SLOAD SWAP1 PUSH2 0x100 EXP SWAP1 DIV PUSH20 0xFFFFFFFFFFFFFFFFFFFFFFFFFFFFFFFFFFFFFFFF AND DUP2 JUMP JUMPDEST PUSH1 0xD PUSH1 0x20 MSTORE DUP1 PUSH0 MSTORE PUSH1 0x40 PUSH0 KECCAK256 PUSH0 SWAP2 POP SLOAD SWAP1 PUSH2 0x100 EXP SWAP1 DIV PUSH1 0xFF AND DUP2 JUMP JUMPDEST PUSH1 0xE PUSH1 0x20 MSTORE DUP1 PUSH0 MSTORE PUSH1 0x40 PUSH0 KECCAK256 PUSH0 SWAP2 POP SWAP1 POP SLOAD DUP2 JUMP JUMPDEST PUSH1 0x7 PUSH0 SWAP1 SLOAD SWAP1 PUSH2 0x100 EXP SWAP1 DIV PUSH20 0xFFFFFFFFFFFFFFFFFFFFFFFFFFFFFFFFFFFFFFFF AND DUP2 JUMP JUMPDEST PUSH0 PUSH1 0xD PUSH0 DUP4 DUP2 MSTORE PUSH1 0x20 ADD SWAP1 DUP2 MSTORE PUSH1 0x20 ADD PUSH0 KECCAK256 PUSH0 SWAP1 SLOAD SWAP1 PUSH2 0x100 EXP SWAP1 DIV PUSH1 0xFF AND SWAP1 POP SWAP2 SWAP1 POP JUMP JUMPDEST PUSH32 0x9E30E0ACF846B25B3E72D06E58BDE205E6320ACD3F4B095D11ECE290A6885188 DUP2 JUMP JUMPDEST PUSH0 DUP1 PUSH32 0xBBFA335032189CB97BE17F01FA1CD9C18587BE58CB71231405D2EA8F0E38FC42 DUP5 PUSH32 0x72F7DDC62C67E3943091F9C7B899298A6C6B0287758C513C5036EDA57075E6E3 DUP1 DUP8 EQ PUSH1 0x40 MLOAD PUSH2 0x1CA2 SWAP4 SWAP3 SWAP2 SWAP1 PUSH2 0x4109 JUMP JUMPDEST PUSH1 0x40 MLOAD DUP1 SWAP2 SUB SWAP1 LOG1 PUSH32 0x72F7DDC62C67E3943091F9C7B899298A6C6B0287758C513C5036EDA57075E6E3 DUP5 EQ PUSH2 0x1D0C JUMPI PUSH1 0x40 MLOAD PUSH32 0x8C379A000000000000000000000000000000000000000000000000000000000 DUP2 MSTORE PUSH1 0x4 ADD PUSH2 0x1D03 SWAP1 PUSH2 0x4188 JUMP JUMPDEST PUSH1 0x40 MLOAD DUP1 SWAP2 SUB SWAP1 REVERT JUMPDEST PUSH0 PUSH2 0x1D18 DUP8 DUP8 DUP8 PUSH2 0x28BA JUMP JUMPDEST SWAP1 POP PUSH32 0xBBFA335032189CB97BE17F01FA1CD9C18587BE58CB71231405D2EA8F0E38FC42 DUP5 PUSH0 ADD CALLDATALOAD DUP3 DUP4 DUP8 PUSH0 ADD CALLDATALOAD EQ PUSH1 0x40 MLOAD PUSH2 0x1D55 SWAP4 SWAP3 SWAP2 SWAP1 PUSH2 0x4109 JUMP JUMPDEST PUSH1 0x40 MLOAD DUP1 SWAP2 SUB SWAP1 LOG1 DUP1 DUP5 PUSH0 ADD CALLDATALOAD EQ PUSH2 0x1DA2 JUMPI PUSH1 0x40 MLOAD PUSH32 0x8C379A000000000000000000000000000000000000000000000000000000000 DUP2 MSTORE PUSH1 0x4 ADD PUSH2 0x1D99 SWAP1 PUSH2 0x4023 JUMP JUMPDEST PUSH1 0x40 MLOAD DUP1 SWAP2 SUB SWAP1 REVERT JUMPDEST PUSH1 0xD PUSH0 DUP6 PUSH1 0x20 ADD CALLDATALOAD DUP2 MSTORE PUSH1 0x20 ADD SWAP1 DUP2 MSTORE PUSH1 0x20 ADD PUSH0 KECCAK256 PUSH0 SWAP1 SLOAD SWAP1 PUSH2 0x100 EXP SWAP1 DIV PUSH1 0xFF AND ISZERO PUSH2 0x1ECD JUMPI CALLER PUSH20 0xFFFFFFFFFFFFFFFFFFFFFFFFFFFFFFFFFFFFFFFF AND DUP5 PUSH1 0x20 ADD CALLDATALOAD PUSH32 0x3CD6D293D93FFFB5C4505ED423476E083CFE17C7E58820E30BE3EFEA7283221A PUSH1 0x40 MLOAD PUSH1 0x40 MLOAD DUP1 SWAP2 SUB SWAP1 LOG3 PUSH0 PUSH1 0xF PUSH0 DUP7 PUSH1 0x20 ADD CALLDATALOAD DUP2 MSTORE PUSH1 0x20 ADD SWAP1 DUP2 MSTORE PUSH1 0x20 ADD PUSH0 KECCAK256 PUSH1 0x40 MLOAD DUP1 PUSH1 0x40 ADD PUSH1 0x40 MSTORE SWAP1 DUP2 PUSH0 DUP3 ADD PUSH0 SWAP1 SLOAD SWAP1 PUSH2 0x100 EXP SWAP1 DIV PUSH20 0xFFFFFFFFFFFFFFFFFFFFFFFFFFFFFFFFFFFFFFFF AND PUSH20 0xFFFFFFFFFFFFFFFFFFFFFFFFFFFFFFFFFFFFFFFF AND PUSH20 0xFFFFFFFFFFFFFFFFFFFFFFFFFFFFFFFFFFFFFFFF AND DUP2 MSTORE PUSH1 0x20 ADD PUSH0 DUP3 ADD PUSH1 0x14 SWAP1 SLOAD SWAP1 PUSH2 0x100 EXP SWAP1 DIV PUSH8 0xFFFFFFFFFFFFFFFF AND PUSH8 0xFFFFFFFFFFFFFFFF AND PUSH8 0xFFFFFFFFFFFFFFFF AND DUP2 MSTORE POP POP SWAP1 POP DUP1 PUSH0 ADD MLOAD DUP2 PUSH1 0x20 ADD MLOAD SWAP4 POP SWAP4 POP POP POP PUSH2 0x2172 JUMP JUMPDEST PUSH2 0x1ED7 DUP8 DUP8 PUSH2 0x29D2 JUMP JUMPDEST DUP1 SWAP4 POP DUP2 SWAP5 POP POP POP PUSH0 PUSH2 0x167 PUSH20 0xFFFFFFFFFFFFFFFFFFFFFFFFFFFFFFFFFFFFFFFF AND PUSH4 0x278E0B88 DUP6 DUP6 PUSH0 PUSH8 0xFFFFFFFFFFFFFFFF DUP2 GT ISZERO PUSH2 0x1F1A JUMPI PUSH2 0x1F19 PUSH2 0x395B JUMP JUMPDEST JUMPDEST PUSH1 0x40 MLOAD SWAP1 DUP1 DUP3 MSTORE DUP1 PUSH1 0x20 MUL PUSH1 0x20 ADD DUP3 ADD PUSH1 0x40 MSTORE DUP1 ISZERO PUSH2 0x1F4D JUMPI DUP2 PUSH1 0x20 ADD JUMPDEST PUSH1 0x60 DUP2 MSTORE PUSH1 0x20 ADD SWAP1 PUSH1 0x1 SWAP1 SUB SWAP1 DUP2 PUSH2 0x1F38 JUMPI SWAP1 POP JUMPDEST POP PUSH1 0x40 MLOAD DUP5 PUSH4 0xFFFFFFFF AND PUSH1 0xE0 SHL DUP2 MSTORE PUSH1 0x4 ADD PUSH2 0x1F6C SWAP4 SWAP3 SWAP2 SWAP1 PUSH2 0x3E98 JUMP JUMPDEST PUSH0 PUSH1 0x40 MLOAD DUP1 DUP4 SUB DUP2 PUSH0 DUP8 GAS CALL ISZERO DUP1 ISZERO PUSH2 0x1F87 JUMPI RETURNDATASIZE PUSH0 DUP1 RETURNDATACOPY RETURNDATASIZE PUSH0 REVERT JUMPDEST POP POP POP POP PUSH1 0x40 MLOAD RETURNDATASIZE PUSH0 DUP3 RETURNDATACOPY RETURNDATASIZE PUSH1 0x1F NOT PUSH1 0x1F DUP3 ADD AND DUP3 ADD DUP1 PUSH1 0x40 MSTORE POP DUP2 ADD SWAP1 PUSH2 0x1FAF SWAP2 SWAP1 PUSH2 0x3C97 JUMP JUMPDEST POP POP SWAP1 POP PUSH1 0x16 DUP2 PUSH1 0x7 SIGNEXTEND EQ PUSH2 0x1FF9 JUMPI PUSH1 0x40 MLOAD PUSH32 0x8C379A000000000000000000000000000000000000000000000000000000000 DUP2 MSTORE PUSH1 0x4 ADD PUSH2 0x1FF0 SWAP1 PUSH2 0x3D4D JUMP JUMPDEST PUSH1 0x40 MLOAD DUP1 SWAP2 SUB SWAP1 REVERT JUMPDEST PUSH1 0x1 PUSH1 0xD PUSH0 DUP8 PUSH1 0x20 ADD CALLDATALOAD DUP2 MSTORE PUSH1 0x20 ADD SWAP1 DUP2 MSTORE PUSH1 0x20 ADD PUSH0 KECCAK256 PUSH0 PUSH2 0x100 EXP DUP2 SLOAD DUP2 PUSH1 0xFF MUL NOT AND SWAP1 DUP4 ISZERO ISZERO MUL OR SWAP1 SSTORE POP DUP5 PUSH0 ADD CALLDATALOAD PUSH1 0xE PUSH0 DUP8 PUSH1 0x20 ADD CALLDATALOAD DUP2 MSTORE PUSH1 0x20 ADD SWAP1 DUP2 MSTORE PUSH1 0x20 ADD PUSH0 KECCAK256 DUP2 SWAP1 SSTORE POP PUSH1 0x40 MLOAD DUP1 PUSH1 0x40 ADD PUSH1 0x40 MSTORE DUP1 DUP6 PUSH20 0xFFFFFFFFFFFFFFFFFFFFFFFFFFFFFFFFFFFFFFFF AND DUP2 MSTORE PUSH1 0x20 ADD DUP5 PUSH8 0xFFFFFFFFFFFFFFFF AND DUP2 MSTORE POP PUSH1 0xF PUSH0 DUP8 PUSH1 0x20 ADD CALLDATALOAD DUP2 MSTORE PUSH1 0x20 ADD SWAP1 DUP2 MSTORE PUSH1 0x20 ADD PUSH0 KECCAK256 PUSH0 DUP3 ADD MLOAD DUP2 PUSH0 ADD PUSH0 PUSH2 0x100 EXP DUP2 SLOAD DUP2 PUSH20 0xFFFFFFFFFFFFFFFFFFFFFFFFFFFFFFFFFFFFFFFF MUL NOT AND SWAP1 DUP4 PUSH20 0xFFFFFFFFFFFFFFFFFFFFFFFFFFFFFFFFFFFFFFFF AND MUL OR SWAP1 SSTORE POP PUSH1 0x20 DUP3 ADD MLOAD DUP2 PUSH0 ADD PUSH1 0x14 PUSH2 0x100 EXP DUP2 SLOAD DUP2 PUSH8 0xFFFFFFFFFFFFFFFF MUL NOT AND SWAP1 DUP4 PUSH8 0xFFFFFFFFFFFFFFFF AND MUL OR SWAP1 SSTORE POP SWAP1 POP POP DUP5 PUSH1 0x20 ADD CALLDATALOAD CALLER PUSH20 0xFFFFFFFFFFFFFFFFFFFFFFFFFFFFFFFFFFFFFFFF AND DUP7 PUSH1 0x20 ADD CALLDATALOAD PUSH32 0x6153F55C528EDCEC957D2FA67D63CB136DEE382001A3487CCF80D636A17BAE84 PUSH1 0x1 DUP8 DUP11 DUP1 PUSH1 0x80 ADD SWAP1 PUSH2 0x2157 SWAP2 SWAP1 PUSH2 0x404D JUMP JUMPDEST PUSH1 0x40 MLOAD PUSH2 0x2167 SWAP5 SWAP4 SWAP3 SWAP2 SWAP1 PUSH2 0x41A6 JUMP JUMPDEST PUSH1 0x40 MLOAD DUP1 SWAP2 SUB SWAP1 LOG4 POP POP JUMPDEST SWAP5 POP SWAP5 SWAP3 POP POP POP JUMP JUMPDEST PUSH1 0x1 PUSH0 SWAP1 SLOAD SWAP1 PUSH2 0x100 EXP SWAP1 DIV PUSH20 0xFFFFFFFFFFFFFFFFFFFFFFFFFFFFFFFFFFFFFFFF AND DUP2 JUMP JUMPDEST PUSH1 0x4 PUSH0 SWAP1 SLOAD SWAP1 PUSH2 0x100 EXP SWAP1 DIV PUSH20 0xFFFFFFFFFFFFFFFFFFFFFFFFFFFFFFFFFFFFFFFF AND DUP2 JUMP JUMPDEST PUSH0 DUP1 SLOAD SWAP1 PUSH2 0x100 EXP SWAP1 DIV PUSH20 0xFFFFFFFFFFFFFFFFFFFFFFFFFFFFFFFFFFFFFFFF AND DUP2 JUMP JUMPDEST PUSH0 PUSH1 0x9 PUSH0 SWAP1 SLOAD SWAP1 PUSH2 0x100 EXP SWAP1 DIV PUSH20 0xFFFFFFFFFFFFFFFFFFFFFFFFFFFFFFFFFFFFFFFF AND PUSH20 0xFFFFFFFFFFFFFFFFFFFFFFFFFFFFFFFFFFFFFFFF AND CALLER PUSH20 0xFFFFFFFFFFFFFFFFFFFFFFFFFFFFFFFFFFFFFFFF AND EQ PUSH2 0x2278 JUMPI PUSH1 0x40 MLOAD PUSH32 0x8C379A000000000000000000000000000000000000000000000000000000000 DUP2 MSTORE PUSH1 0x4 ADD PUSH2 0x226F SWAP1 PUSH2 0x393D JUMP JUMPDEST PUSH1 0x40 MLOAD DUP1 SWAP2 SUB SWAP1 REVERT JUMPDEST PUSH1 0x1 DUP6 DUP6 SWAP1 POP LT ISZERO DUP1 ISZERO PUSH2 0x2290 JUMPI POP PUSH1 0x4 DUP6 DUP6 SWAP1 POP GT ISZERO JUMPDEST PUSH2 0x22CF JUMPI PUSH1 0x40 MLOAD PUSH32 0x8C379A000000000000000000000000000000000000000000000000000000000 DUP2 MSTORE PUSH1 0x4 ADD PUSH2 0x22C6 SWAP1 PUSH2 0x422E JUMP JUMPDEST PUSH1 0x40 MLOAD DUP1 SWAP2 SUB SWAP1 REVERT JUMPDEST PUSH0 PUSH20 0xFFFFFFFFFFFFFFFFFFFFFFFFFFFFFFFFFFFFFFFF AND DUP4 PUSH20 0xFFFFFFFFFFFFFFFFFFFFFFFFFFFFFFFFFFFFFFFF AND SUB PUSH2 0x233D JUMPI PUSH1 0x40 MLOAD PUSH32 0x8C379A000000000000000000000000000000000000000000000000000000000 DUP2 MSTORE PUSH1 0x4 ADD PUSH2 0x2334 SWAP1 PUSH2 0x4296 JUMP JUMPDEST PUSH1 0x40 MLOAD DUP1 SWAP2 SUB SWAP1 REVERT JUMPDEST PUSH1 0x2 DUP6 DUP6 SWAP1 POP EQ DUP1 PUSH2 0x2352 JUMPI POP PUSH1 0x3 DUP6 DUP6 SWAP1 POP EQ JUMPDEST PUSH2 0x2391 JUMPI PUSH1 0x40 MLOAD PUSH32 0x8C379A000000000000000000000000000000000000000000000000000000000 DUP2 MSTORE PUSH1 0x4 ADD PUSH2 0x2388 SWAP1 PUSH2 0x42FE JUMP JUMPDEST PUSH1 0x40 MLOAD DUP1 SWAP2 SUB SWAP1 REVERT JUMPDEST PUSH0 DUP1 PUSH0 DUP1 JUMPDEST DUP9 DUP9 SWAP1 POP DUP2 LT ISZERO PUSH2 0x2532 JUMPI PUSH0 DUP1 SLOAD SWAP1 PUSH2 0x100 EXP SWAP1 DIV PUSH20 0xFFFFFFFFFFFFFFFFFFFFFFFFFFFFFFFFFFFFFFFF AND PUSH20 0xFFFFFFFFFFFFFFFFFFFFFFFFFFFFFFFFFFFFFFFF AND DUP10 DUP10 DUP4 DUP2 DUP2 LT PUSH2 0x23EA JUMPI PUSH2 0x23E9 PUSH2 0x431C JUMP JUMPDEST JUMPDEST SWAP1 POP PUSH1 0x20 MUL ADD PUSH1 0x20 DUP2 ADD SWAP1 PUSH2 0x23FF SWAP2 SWAP1 PUSH2 0x4349 JUMP JUMPDEST PUSH20 0xFFFFFFFFFFFFFFFFFFFFFFFFFFFFFFFFFFFFFFFF AND SUB PUSH2 0x241F JUMPI PUSH1 0x1 SWAP4 POP JUMPDEST PUSH1 0x1 PUSH0 SWAP1 SLOAD SWAP1 PUSH2 0x100 EXP SWAP1 DIV PUSH20 0xFFFFFFFFFFFFFFFFFFFFFFFFFFFFFFFFFFFFFFFF AND PUSH20 0xFFFFFFFFFFFFFFFFFFFFFFFFFFFFFFFFFFFFFFFF AND DUP10 DUP10 DUP4 DUP2 DUP2 LT PUSH2 0x246A JUMPI PUSH2 0x2469 PUSH2 0x431C JUMP JUMPDEST JUMPDEST SWAP1 POP PUSH1 0x20 MUL ADD PUSH1 0x20 DUP2 ADD SWAP1 PUSH2 0x247F SWAP2 SWAP1 PUSH2 0x4349 JUMP JUMPDEST PUSH20 0xFFFFFFFFFFFFFFFFFFFFFFFFFFFFFFFFFFFFFFFF AND SUB PUSH2 0x249F JUMPI PUSH1 0x1 SWAP3 POP JUMPDEST PUSH1 0x2 PUSH0 SWAP1 SLOAD SWAP1 PUSH2 0x100 EXP SWAP1 DIV PUSH20 0xFFFFFFFFFFFFFFFFFFFFFFFFFFFFFFFFFFFFFFFF AND PUSH20 0xFFFFFFFFFFFFFFFFFFFFFFFFFFFFFFFFFFFFFFFF AND DUP10 DUP10 DUP4 DUP2 DUP2 LT PUSH2 0x24EA JUMPI PUSH2 0x24E9 PUSH2 0x431C JUMP JUMPDEST JUMPDEST SWAP1 POP PUSH1 0x20 MUL ADD PUSH1 0x20 DUP2 ADD SWAP1 PUSH2 0x24FF SWAP2 SWAP1 PUSH2 0x4349 JUMP JUMPDEST PUSH20 0xFFFFFFFFFFFFFFFFFFFFFFFFFFFFFFFFFFFFFFFF AND SUB PUSH2 0x251F JUMPI PUSH1 0x1 SWAP2 POP JUMPDEST DUP1 DUP1 PUSH2 0x252A SWAP1 PUSH2 0x437D JUMP JUMPDEST SWAP2 POP POP PUSH2 0x2396 JUMP JUMPDEST POP PUSH1 0x2 DUP9 DUP9 SWAP1 POP SUB PUSH2 0x258C JUMPI DUP3 DUP1 ISZERO PUSH2 0x2548 JUMPI POP DUP1 JUMPDEST PUSH2 0x2587 JUMPI PUSH1 0x40 MLOAD PUSH32 0x8C379A000000000000000000000000000000000000000000000000000000000 DUP2 MSTORE PUSH1 0x4 ADD PUSH2 0x257E SWAP1 PUSH2 0x4434 JUMP JUMPDEST PUSH1 0x40 MLOAD DUP1 SWAP2 SUB SWAP1 REVERT JUMPDEST PUSH2 0x25EB JUMP JUMPDEST PUSH1 0x3 DUP9 DUP9 SWAP1 POP SUB PUSH2 0x25EA JUMPI DUP3 DUP1 ISZERO PUSH2 0x25A1 JUMPI POP DUP2 JUMPDEST DUP1 ISZERO PUSH2 0x25AA JUMPI POP DUP1 JUMPDEST PUSH2 0x25E9 JUMPI PUSH1 0x40 MLOAD PUSH32 0x8C379A000000000000000000000000000000000000000000000000000000000 DUP2 MSTORE PUSH1 0x4 ADD PUSH2 0x25E0 SWAP1 PUSH2 0x44C2 JUMP JUMPDEST PUSH1 0x40 MLOAD DUP1 SWAP2 SUB SWAP1 REVERT JUMPDEST JUMPDEST JUMPDEST DUP10 DUP10 DUP10 DUP10 PUSH1 0x40 MLOAD PUSH1 0x20 ADD PUSH2 0x2602 SWAP5 SWAP4 SWAP3 SWAP2 SWAP1 PUSH2 0x459C JUMP JUMPDEST PUSH1 0x40 MLOAD PUSH1 0x20 DUP2 DUP4 SUB SUB DUP2 MSTORE SWAP1 PUSH1 0x40 MSTORE DUP1 MLOAD SWAP1 PUSH1 0x20 ADD KECCAK256 SWAP4 POP PUSH1 0x40 MLOAD DUP1 PUSH1 0xC0 ADD PUSH1 0x40 MSTORE DUP1 DUP12 DUP2 MSTORE PUSH1 0x20 ADD DUP11 DUP2 MSTORE PUSH1 0x20 ADD DUP10 DUP10 DUP1 DUP1 PUSH1 0x20 MUL PUSH1 0x20 ADD PUSH1 0x40 MLOAD SWAP1 DUP2 ADD PUSH1 0x40 MSTORE DUP1 SWAP4 SWAP3 SWAP2 SWAP1 DUP2 DUP2 MSTORE PUSH1 0x20 ADD DUP4 DUP4 PUSH1 0x20 MUL DUP1 DUP3 DUP5 CALLDATACOPY PUSH0 DUP2 DUP5 ADD MSTORE PUSH1 0x1F NOT PUSH1 0x1F DUP3 ADD AND SWAP1 POP DUP1 DUP4 ADD SWAP3 POP POP POP POP POP POP POP DUP2 MSTORE PUSH1 0x20 ADD DUP8 PUSH20 0xFFFFFFFFFFFFFFFFFFFFFFFFFFFFFFFFFFFFFFFF AND DUP2 MSTORE PUSH1 0x20 ADD DUP7 PUSH8 0xFFFFFFFFFFFFFFFF AND DUP2 MSTORE PUSH1 0x20 ADD PUSH1 0x1 ISZERO ISZERO DUP2 MSTORE POP PUSH1 0xB PUSH0 DUP7 DUP2 MSTORE PUSH1 0x20 ADD SWAP1 DUP2 MSTORE PUSH1 0x20 ADD PUSH0 KECCAK256 PUSH0 DUP3 ADD MLOAD DUP2 PUSH0 ADD SSTORE PUSH1 0x20 DUP3 ADD MLOAD DUP2 PUSH1 0x1 ADD SSTORE PUSH1 0x40 DUP3 ADD MLOAD DUP2 PUSH1 0x2 ADD SWAP1 DUP1 MLOAD SWAP1 PUSH1 0x20 ADD SWAP1 PUSH2 0x26E9 SWAP3 SWAP2 SWAP1 PUSH2 0x2F21 JUMP JUMPDEST POP PUSH1 0x60 DUP3 ADD MLOAD DUP2 PUSH1 0x3 ADD PUSH0 PUSH2 0x100 EXP DUP2 SLOAD DUP2 PUSH20 0xFFFFFFFFFFFFFFFFFFFFFFFFFFFFFFFFFFFFFFFF MUL NOT AND SWAP1 DUP4 PUSH20 0xFFFFFFFFFFFFFFFFFFFFFFFFFFFFFFFFFFFFFFFF AND MUL OR SWAP1 SSTORE POP PUSH1 0x80 DUP3 ADD MLOAD DUP2 PUSH1 0x3 ADD PUSH1 0x14 PUSH2 0x100 EXP DUP2 SLOAD DUP2 PUSH8 0xFFFFFFFFFFFFFFFF MUL NOT AND SWAP1 DUP4 PUSH8 0xFFFFFFFFFFFFFFFF AND MUL OR SWAP1 SSTORE POP PUSH1 0xA0 DUP3 ADD MLOAD DUP2 PUSH1 0x3 ADD PUSH1 0x1C PUSH2 0x100 EXP DUP2 SLOAD DUP2 PUSH1 0xFF MUL NOT AND SWAP1 DUP4 ISZERO ISZERO MUL OR SWAP1 SSTORE POP SWAP1 POP POP DUP4 PUSH32 0xAD9207819DD7ABB936F2B1637265BF626978AF91D6F25A44322FB43FE34AADFB DUP12 DUP12 DUP12 DUP12 DUP12 DUP12 PUSH1 0x40 MLOAD PUSH2 0x27BC SWAP7 SWAP6 SWAP5 SWAP4 SWAP3 SWAP2 SWAP1 PUSH2 0x45DA JUMP JUMPDEST PUSH1 0x40 MLOAD DUP1 SWAP2 SUB SWAP1 LOG2 POP POP POP SWAP7 SWAP6 POP POP POP POP POP POP JUMP JUMPDEST PUSH0 PUSH1 0xC PUSH0 DUP5 DUP2 MSTORE PUSH1 0x20 ADD SWAP1 DUP2 MSTORE PUSH1 0x20 ADD PUSH0 KECCAK256 PUSH0 DUP4 PUSH20 0xFFFFFFFFFFFFFFFFFFFFFFFFFFFFFFFFFFFFFFFF AND PUSH20 0xFFFFFFFFFFFFFFFFFFFFFFFFFFFFFFFFFFFFFFFF AND DUP2 MSTORE PUSH1 0x20 ADD SWAP1 DUP2 MSTORE PUSH1 0x20 ADD PUSH0 KECCAK256 PUSH0 SWAP1 SLOAD SWAP1 PUSH2 0x100 EXP SWAP1 DIV PUSH3 0xFFFFFF AND SWAP1 POP SWAP3 SWAP2 POP POP JUMP JUMPDEST PUSH1 0xA SLOAD DUP2 JUMP JUMPDEST PUSH1 0x3 PUSH0 SWAP1 SLOAD SWAP1 PUSH2 0x100 EXP SWAP1 DIV PUSH20 0xFFFFFFFFFFFFFFFFFFFFFFFFFFFFFFFFFFFFFFFF AND DUP2 JUMP JUMPDEST PUSH0 DUP5 DUP5 DUP5 DUP5 PUSH32 0x217FFB743E749E59632E1A39A53634096481CB82EE5F27B44698DCC2C7453F01 PUSH1 0x40 MLOAD PUSH1 0x20 ADD PUSH2 0x289A SWAP6 SWAP5 SWAP4 SWAP3 SWAP2 SWAP1 PUSH2 0x4634 JUMP JUMPDEST PUSH1 0x40 MLOAD PUSH1 0x20 DUP2 DUP4 SUB SUB DUP2 MSTORE SWAP1 PUSH1 0x40 MSTORE DUP1 MLOAD SWAP1 PUSH1 0x20 ADD KECCAK256 SWAP1 POP SWAP5 SWAP4 POP POP POP POP JUMP JUMPDEST PUSH0 DUP1 PUSH0 DUP5 PUSH20 0xFFFFFFFFFFFFFFFFFFFFFFFFFFFFFFFFFFFFFFFF AND DUP7 PUSH20 0xFFFFFFFFFFFFFFFFFFFFFFFFFFFFFFFFFFFFFFFF AND LT PUSH2 0x28F7 JUMPI DUP5 DUP7 PUSH2 0x28FA JUMP JUMPDEST DUP6 DUP6 JUMPDEST SWAP2 POP SWAP2 POP DUP2 DUP2 DUP6 PUSH32 0x892486F2DB77FEBA50B67FD68CCCF02ECCA6D746664216A0449ECB5BA18F8DE PUSH1 0x40 MLOAD PUSH1 0x20 ADD PUSH2 0x2935 SWAP5 SWAP4 SWAP3 SWAP2 SWAP1 PUSH2 0x4685 JUMP JUMPDEST PUSH1 0x40 MLOAD PUSH1 0x20 DUP2 DUP4 SUB SUB DUP2 MSTORE SWAP1 PUSH1 0x40 MSTORE DUP1 MLOAD SWAP1 PUSH1 0x20 ADD KECCAK256 SWAP3 POP POP POP SWAP4 SWAP3 POP POP POP JUMP JUMPDEST PUSH0 PUSH32 0x72F7DDC62C67E3943091F9C7B899298A6C6B0287758C513C5036EDA57075E6E3 DUP3 SUB PUSH2 0x298F JUMPI PUSH2 0x2988 DUP5 DUP5 PUSH2 0x2CE9 JUMP JUMPDEST SWAP1 POP PUSH2 0x29CB JUMP JUMPDEST PUSH32 0x5C121EE8B573E4E6586BCAFEC852BD980B83EA2AA4A37F9FCCB6FA546927C42B DUP3 SUB PUSH2 0x29C7 JUMPI PUSH2 0x29C0 DUP5 DUP5 PUSH2 0x2DC0 JUMP JUMPDEST SWAP1 POP PUSH2 0x29CB JUMP JUMPDEST PUSH0 SWAP1 POP JUMPDEST SWAP4 SWAP3 POP POP POP JUMP JUMPDEST PUSH0 DUP1 PUSH0 DUP1 DUP5 PUSH20 0xFFFFFFFFFFFFFFFFFFFFFFFFFFFFFFFFFFFFFFFF AND DUP7 PUSH20 0xFFFFFFFFFFFFFFFFFFFFFFFFFFFFFFFFFFFFFFFF AND LT PUSH2 0x2A10 JUMPI DUP5 DUP7 PUSH2 0x2A13 JUMP JUMPDEST DUP6 DUP6 JUMPDEST SWAP2 POP SWAP2 POP PUSH0 DUP1 SLOAD SWAP1 PUSH2 0x100 EXP SWAP1 DIV PUSH20 0xFFFFFFFFFFFFFFFFFFFFFFFFFFFFFFFFFFFFFFFF AND PUSH20 0xFFFFFFFFFFFFFFFFFFFFFFFFFFFFFFFFFFFFFFFF AND DUP3 PUSH20 0xFFFFFFFFFFFFFFFFFFFFFFFFFFFFFFFFFFFFFFFF AND EQ DUP1 ISZERO PUSH2 0x2ABD JUMPI POP PUSH1 0x1 PUSH0 SWAP1 SLOAD SWAP1 PUSH2 0x100 EXP SWAP1 DIV PUSH20 0xFFFFFFFFFFFFFFFFFFFFFFFFFFFFFFFFFFFFFFFF AND PUSH20 0xFFFFFFFFFFFFFFFFFFFFFFFFFFFFFFFFFFFFFFFF AND DUP2 PUSH20 0xFFFFFFFFFFFFFFFFFFFFFFFFFFFFFFFFFFFFFFFF AND EQ JUMPDEST ISZERO PUSH2 0x2AF1 JUMPI PUSH1 0x3 PUSH0 SWAP1 SLOAD SWAP1 PUSH2 0x100 EXP SWAP1 DIV PUSH20 0xFFFFFFFFFFFFFFFFFFFFFFFFFFFFFFFFFFFFFFFF AND PUSH1 0x1 SWAP4 POP SWAP4 POP POP POP PUSH2 0x2CE2 JUMP JUMPDEST PUSH1 0x1 PUSH0 SWAP1 SLOAD SWAP1 PUSH2 0x100 EXP SWAP1 DIV PUSH20 0xFFFFFFFFFFFFFFFFFFFFFFFFFFFFFFFFFFFFFFFF AND PUSH20 0xFFFFFFFFFFFFFFFFFFFFFFFFFFFFFFFFFFFFFFFF AND DUP3 PUSH20 0xFFFFFFFFFFFFFFFFFFFFFFFFFFFFFFFFFFFFFFFF AND EQ DUP1 ISZERO PUSH2 0x2B99 JUMPI POP PUSH1 0x2 PUSH0 SWAP1 SLOAD SWAP1 PUSH2 0x100 EXP SWAP1 DIV PUSH20 0xFFFFFFFFFFFFFFFFFFFFFFFFFFFFFFFFFFFFFFFF AND PUSH20 0xFFFFFFFFFFFFFFFFFFFFFFFFFFFFFFFFFFFFFFFF AND DUP2 PUSH20 0xFFFFFFFFFFFFFFFFFFFFFFFFFFFFFFFFFFFFFFFF AND EQ JUMPDEST ISZERO PUSH2 0x2BCD JUMPI PUSH1 0x4 PUSH0 SWAP1 SLOAD SWAP1 PUSH2 0x100 EXP SWAP1 DIV PUSH20 0xFFFFFFFFFFFFFFFFFFFFFFFFFFFFFFFFFFFFFFFF AND PUSH1 0x1 SWAP4 POP SWAP4 POP POP POP PUSH2 0x2CE2 JUMP JUMPDEST PUSH0 DUP1 SLOAD SWAP1 PUSH2 0x100 EXP SWAP1 DIV PUSH20 0xFFFFFFFFFFFFFFFFFFFFFFFFFFFFFFFFFFFFFFFF AND PUSH20 0xFFFFFFFFFFFFFFFFFFFFFFFFFFFFFFFFFFFFFFFF AND DUP3 PUSH20 0xFFFFFFFFFFFFFFFFFFFFFFFFFFFFFFFFFFFFFFFF AND EQ DUP1 ISZERO PUSH2 0x2C73 JUMPI POP PUSH1 0x2 PUSH0 SWAP1 SLOAD SWAP1 PUSH2 0x100 EXP SWAP1 DIV PUSH20 0xFFFFFFFFFFFFFFFFFFFFFFFFFFFFFFFFFFFFFFFF AND PUSH20 0xFFFFFFFFFFFFFFFFFFFFFFFFFFFFFFFFFFFFFFFF AND DUP2 PUSH20 0xFFFFFFFFFFFFFFFFFFFFFFFFFFFFFFFFFFFFFFFF AND EQ JUMPDEST ISZERO PUSH2 0x2CA7 JUMPI PUSH1 0x5 PUSH0 SWAP1 SLOAD SWAP1 PUSH2 0x100 EXP SWAP1 DIV PUSH20 0xFFFFFFFFFFFFFFFFFFFFFFFFFFFFFFFFFFFFFFFF AND PUSH1 0x1 SWAP4 POP SWAP4 POP POP POP PUSH2 0x2CE2 JUMP JUMPDEST PUSH1 0x40 MLOAD PUSH32 0x8C379A000000000000000000000000000000000000000000000000000000000 DUP2 MSTORE PUSH1 0x4 ADD PUSH2 0x2CD9 SWAP1 PUSH2 0x4712 JUMP JUMPDEST PUSH1 0x40 MLOAD DUP1 SWAP2 SUB SWAP1 REVERT JUMPDEST SWAP3 POP SWAP3 SWAP1 POP JUMP JUMPDEST PUSH0 DUP1 PUSH1 0x10 DUP5 PUSH3 0xFFFFFF AND SWAP1 SHR SWAP1 POP PUSH0 PUSH1 0x8 DUP6 PUSH3 0xFFFFFF AND SWAP1 SHR SWAP1 POP PUSH0 DUP6 SWAP1 POP PUSH0 PUSH1 0x10 DUP7 PUSH3 0xFFFFFF AND SWAP1 SHR SWAP1 POP PUSH0 PUSH1 0x8 DUP8 PUSH3 0xFFFFFF AND SWAP1 SHR SWAP1 POP PUSH0 DUP8 SWAP1 POP PUSH0 DUP4 PUSH1 0xFF AND DUP8 PUSH1 0xFF AND GT PUSH2 0x2D3A JUMPI PUSH0 PUSH2 0x2D47 JUMP JUMPDEST DUP4 DUP8 PUSH2 0x2D46 SWAP2 SWAP1 PUSH2 0x473C JUMP JUMPDEST JUMPDEST SWAP1 POP PUSH0 DUP4 PUSH1 0xFF AND DUP8 PUSH1 0xFF AND GT PUSH2 0x2D5D JUMPI PUSH0 PUSH2 0x2D6A JUMP JUMPDEST DUP4 DUP8 PUSH2 0x2D69 SWAP2 SWAP1 PUSH2 0x473C JUMP JUMPDEST JUMPDEST SWAP1 POP PUSH0 DUP4 PUSH1 0xFF AND DUP8 PUSH1 0xFF AND GT PUSH2 0x2D80 JUMPI PUSH0 PUSH2 0x2D8D JUMP JUMPDEST DUP4 DUP8 PUSH2 0x2D8C SWAP2 SWAP1 PUSH2 0x473C JUMP JUMPDEST JUMPDEST SWAP1 POP DUP1 PUSH1 0xFF AND PUSH1 0x8 DUP4 PUSH1 0xFF AND PUSH3 0xFFFFFF AND SWAP1 SHL PUSH1 0x10 DUP6 PUSH1 0xFF AND PUSH3 0xFFFFFF AND SWAP1 SHL OR OR SWAP10 POP POP POP POP POP POP POP POP POP POP SWAP3 SWAP2 POP POP JUMP JUMPDEST PUSH0 DUP1 PUSH1 0x10 DUP5 PUSH3 0xFFFFFF AND SWAP1 SHR SWAP1 POP PUSH0 PUSH1 0x8 DUP6 PUSH3 0xFFFFFF AND SWAP1 SHR SWAP1 POP PUSH0 DUP6 SWAP1 POP PUSH0 PUSH1 0x10 DUP7 PUSH3 0xFFFFFF AND SWAP1 SHR SWAP1 POP PUSH0 PUSH1 0x8 DUP8 PUSH3 0xFFFFFF AND SWAP1 SHR SWAP1 POP PUSH0 DUP8 SWAP1 POP PUSH0 DUP7 PUSH1 0xFF PUSH2 0x2E0B SWAP2 SWAP1 PUSH2 0x473C JUMP JUMPDEST SWAP1 POP PUSH0 DUP7 PUSH1 0xFF PUSH2 0x2E1B SWAP2 SWAP1 PUSH2 0x473C JUMP JUMPDEST SWAP1 POP PUSH0 DUP7 PUSH1 0xFF PUSH2 0x2E2B SWAP2 SWAP1 PUSH2 0x473C JUMP JUMPDEST SWAP1 POP PUSH0 DUP7 PUSH1 0xFF PUSH2 0x2E3B SWAP2 SWAP1 PUSH2 0x473C JUMP JUMPDEST SWAP1 POP PUSH0 DUP7 PUSH1 0xFF PUSH2 0x2E4B SWAP2 SWAP1 PUSH2 0x473C JUMP JUMPDEST SWAP1 POP PUSH0 DUP7 PUSH1 0xFF PUSH2 0x2E5B SWAP2 SWAP1 PUSH2 0x473C JUMP JUMPDEST SWAP1 POP PUSH0 DUP4 PUSH1 0xFF AND DUP8 PUSH1 0xFF AND GT PUSH2 0x2E71 JUMPI PUSH0 PUSH2 0x2E7E JUMP JUMPDEST DUP4 DUP8 PUSH2 0x2E7D SWAP2 SWAP1 PUSH2 0x473C JUMP JUMPDEST JUMPDEST SWAP1 POP PUSH0 DUP4 PUSH1 0xFF AND DUP8 PUSH1 0xFF AND GT PUSH2 0x2E94 JUMPI PUSH0 PUSH2 0x2EA1 JUMP JUMPDEST DUP4 DUP8 PUSH2 0x2EA0 SWAP2 SWAP1 PUSH2 0x473C JUMP JUMPDEST JUMPDEST SWAP1 POP PUSH0 DUP4 PUSH1 0xFF AND DUP8 PUSH1 0xFF AND GT PUSH2 0x2EB7 JUMPI PUSH0 PUSH2 0x2EC4 JUMP JUMPDEST DUP4 DUP8 PUSH2 0x2EC3 SWAP2 SWAP1 PUSH2 0x473C JUMP JUMPDEST JUMPDEST SWAP1 POP DUP1 PUSH1 0xFF PUSH2 0x2ED3 SWAP2 SWAP1 PUSH2 0x473C JUMP JUMPDEST PUSH1 0xFF AND PUSH1 0x8 DUP4 PUSH1 0xFF PUSH2 0x2EE5 SWAP2 SWAP1 PUSH2 0x473C JUMP JUMPDEST PUSH1 0xFF AND PUSH3 0xFFFFFF AND SWAP1 SHL PUSH1 0x10 DUP6 PUSH1 0xFF PUSH2 0x2EFE SWAP2 SWAP1 PUSH2 0x473C JUMP JUMPDEST PUSH1 0xFF AND PUSH3 0xFFFFFF AND SWAP1 SHL OR OR SWAP16 POP POP POP POP POP POP POP POP POP POP POP POP POP POP POP POP SWAP3 SWAP2 POP POP JUMP JUMPDEST DUP3 DUP1 SLOAD DUP3 DUP3 SSTORE SWAP1 PUSH0 MSTORE PUSH1 0x20 PUSH0 KECCAK256 SWAP1 DUP2 ADD SWAP3 DUP3 ISZERO PUSH2 0x2F97 JUMPI SWAP2 PUSH1 0x20 MUL DUP3 ADD JUMPDEST DUP3 DUP2 GT ISZERO PUSH2 0x2F96 JUMPI DUP3 MLOAD DUP3 PUSH0 PUSH2 0x100 EXP DUP2 SLOAD DUP2 PUSH20 0xFFFFFFFFFFFFFFFFFFFFFFFFFFFFFFFFFFFFFFFF MUL NOT AND SWAP1 DUP4 PUSH20 0xFFFFFFFFFFFFFFFFFFFFFFFFFFFFFFFFFFFFFFFF AND MUL OR SWAP1 SSTORE POP SWAP2 PUSH1 0x20 ADD SWAP2 SWAP1 PUSH1 0x1 ADD SWAP1 PUSH2 0x2F3F JUMP JUMPDEST JUMPDEST POP SWAP1 POP PUSH2 0x2FA4 SWAP2 SWAP1 PUSH2 0x2FA8 JUMP JUMPDEST POP SWAP1 JUMP JUMPDEST JUMPDEST DUP1 DUP3 GT ISZERO PUSH2 0x2FBF JUMPI PUSH0 DUP2 PUSH0 SWAP1 SSTORE POP PUSH1 0x1 ADD PUSH2 0x2FA9 JUMP JUMPDEST POP SWAP1 JUMP JUMPDEST PUSH0 DUP2 SWAP1 POP SWAP2 SWAP1 POP JUMP JUMPDEST PUSH2 0x2FD5 DUP2 PUSH2 0x2FC3 JUMP JUMPDEST DUP3 MSTORE POP POP JUMP JUMPDEST PUSH0 PUSH1 0x20 DUP3 ADD SWAP1 POP PUSH2 0x2FEE PUSH0 DUP4 ADD DUP5 PUSH2 0x2FCC JUMP JUMPDEST SWAP3 SWAP2 POP POP JUMP JUMPDEST PUSH0 PUSH1 0x40 MLOAD SWAP1 POP SWAP1 JUMP JUMPDEST PUSH0 DUP1 REVERT JUMPDEST PUSH0 DUP1 REVERT JUMPDEST PUSH2 0x300E DUP2 PUSH2 0x2FC3 JUMP JUMPDEST DUP2 EQ PUSH2 0x3018 JUMPI PUSH0 DUP1 REVERT JUMPDEST POP JUMP JUMPDEST PUSH0 DUP2 CALLDATALOAD SWAP1 POP PUSH2 0x3029 DUP2 PUSH2 0x3005 JUMP JUMPDEST SWAP3 SWAP2 POP POP JUMP JUMPDEST PUSH0 PUSH1 0x20 DUP3 DUP5 SUB SLT ISZERO PUSH2 0x3044 JUMPI PUSH2 0x3043 PUSH2 0x2FFD JUMP JUMPDEST JUMPDEST PUSH0 PUSH2 0x3051 DUP5 DUP3 DUP6 ADD PUSH2 0x301B JUMP JUMPDEST SWAP2 POP POP SWAP3 SWAP2 POP POP JUMP JUMPDEST PUSH0 PUSH20 0xFFFFFFFFFFFFFFFFFFFFFFFFFFFFFFFFFFFFFFFF DUP3 AND SWAP1 POP SWAP2 SWAP1 POP JUMP JUMPDEST PUSH0 PUSH2 0x3083 DUP3 PUSH2 0x305A JUMP JUMPDEST SWAP1 POP SWAP2 SWAP1 POP JUMP JUMPDEST PUSH2 0x3093 DUP2 PUSH2 0x3079 JUMP JUMPDEST DUP3 MSTORE POP POP JUMP JUMPDEST PUSH0 PUSH8 0xFFFFFFFFFFFFFFFF DUP3 AND SWAP1 POP SWAP2 SWAP1 POP JUMP JUMPDEST PUSH2 0x30B5 DUP2 PUSH2 0x3099 JUMP JUMPDEST DUP3 MSTORE POP POP JUMP JUMPDEST PUSH0 PUSH1 0x40 DUP3 ADD SWAP1 POP PUSH2 0x30CE PUSH0 DUP4 ADD DUP6 PUSH2 0x308A JUMP JUMPDEST PUSH2 0x30DB PUSH1 0x20 DUP4 ADD DUP5 PUSH2 0x30AC JUMP JUMPDEST SWAP4 SWAP3 POP POP POP JUMP JUMPDEST PUSH0 DUP2 SWAP1 POP SWAP2 SWAP1 POP JUMP JUMPDEST PUSH0 PUSH2 0x3105 PUSH2 0x3100 PUSH2 0x30FB DUP5 PUSH2 0x305A JUMP JUMPDEST PUSH2 0x30E2 JUMP JUMPDEST PUSH2 0x305A JUMP JUMPDEST SWAP1 POP SWAP2 SWAP1 POP JUMP JUMPDEST PUSH0 PUSH2 0x3116 DUP3 PUSH2 0x30EB JUMP JUMPDEST SWAP1 POP SWAP2 SWAP1 POP JUMP JUMPDEST PUSH0 PUSH2 0x3127 DUP3 PUSH2 0x310C JUMP JUMPDEST SWAP1 POP SWAP2 SWAP1 POP JUMP JUMPDEST PUSH2 0x3137 DUP2 PUSH2 0x311D JUMP JUMPDEST DUP3 MSTORE POP POP JUMP JUMPDEST PUSH0 PUSH1 0x20 DUP3 ADD SWAP1 POP PUSH2 0x3150 PUSH0 DUP4 ADD DUP5 PUSH2 0x312E JUMP JUMPDEST SWAP3 SWAP2 POP POP JUMP JUMPDEST PUSH0 DUP2 ISZERO ISZERO SWAP1 POP SWAP2 SWAP1 POP JUMP JUMPDEST PUSH2 0x316A DUP2 PUSH2 0x3156 JUMP JUMPDEST DUP3 MSTORE POP POP JUMP JUMPDEST PUSH0 PUSH1 0xA0 DUP3 ADD SWAP1 POP PUSH2 0x3183 PUSH0 DUP4 ADD DUP9 PUSH2 0x2FCC JUMP JUMPDEST PUSH2 0x3190 PUSH1 0x20 DUP4 ADD DUP8 PUSH2 0x2FCC JUMP JUMPDEST PUSH2 0x319D PUSH1 0x40 DUP4 ADD DUP7 PUSH2 0x308A JUMP JUMPDEST PUSH2 0x31AA PUSH1 0x60 DUP4 ADD DUP6 PUSH2 0x30AC JUMP JUMPDEST PUSH2 0x31B7 PUSH1 0x80 DUP4 ADD DUP5 PUSH2 0x3161 JUMP JUMPDEST SWAP7 SWAP6 POP POP POP POP POP POP JUMP JUMPDEST PUSH2 0x31CA DUP2 PUSH2 0x3079 JUMP JUMPDEST DUP2 EQ PUSH2 0x31D4 JUMPI PUSH0 DUP1 REVERT JUMPDEST POP JUMP JUMPDEST PUSH0 DUP2 CALLDATALOAD SWAP1 POP PUSH2 0x31E5 DUP2 PUSH2 0x31C1 JUMP JUMPDEST SWAP3 SWAP2 POP POP JUMP JUMPDEST PUSH0 DUP1 REVERT JUMPDEST PUSH0 DUP1 REVERT JUMPDEST PUSH0 DUP1 REVERT JUMPDEST PUSH0 DUP1 DUP4 PUSH1 0x1F DUP5 ADD SLT PUSH2 0x320C JUMPI PUSH2 0x320B PUSH2 0x31EB JUMP JUMPDEST JUMPDEST DUP3 CALLDATALOAD SWAP1 POP PUSH8 0xFFFFFFFFFFFFFFFF DUP2 GT ISZERO PUSH2 0x3229 JUMPI PUSH2 0x3228 PUSH2 0x31EF JUMP JUMPDEST JUMPDEST PUSH1 0x20 DUP4 ADD SWAP2 POP DUP4 PUSH1 0x1 DUP3 MUL DUP4 ADD GT ISZERO PUSH2 0x3245 JUMPI PUSH2 0x3244 PUSH2 0x31F3 JUMP JUMPDEST JUMPDEST SWAP3 POP SWAP3 SWAP1 POP JUMP JUMPDEST PUSH0 DUP1 PUSH0 DUP1 PUSH1 0x60 DUP6 DUP8 SUB SLT ISZERO PUSH2 0x3264 JUMPI PUSH2 0x3263 PUSH2 0x2FFD JUMP JUMPDEST JUMPDEST PUSH0 PUSH2 0x3271 DUP8 DUP3 DUP9 ADD PUSH2 0x31D7 JUMP JUMPDEST SWAP5 POP POP PUSH1 0x20 PUSH2 0x3282 DUP8 DUP3 DUP9 ADD PUSH2 0x301B JUMP JUMPDEST SWAP4 POP POP PUSH1 0x40 DUP6 ADD CALLDATALOAD PUSH8 0xFFFFFFFFFFFFFFFF DUP2 GT ISZERO PUSH2 0x32A3 JUMPI PUSH2 0x32A2 PUSH2 0x3001 JUMP JUMPDEST JUMPDEST PUSH2 0x32AF DUP8 DUP3 DUP9 ADD PUSH2 0x31F7 JUMP JUMPDEST SWAP3 POP SWAP3 POP POP SWAP3 SWAP6 SWAP2 SWAP5 POP SWAP3 POP JUMP JUMPDEST PUSH0 PUSH1 0x20 DUP3 ADD SWAP1 POP PUSH2 0x32D0 PUSH0 DUP4 ADD DUP5 PUSH2 0x3161 JUMP JUMPDEST SWAP3 SWAP2 POP POP JUMP JUMPDEST PUSH2 0x32DF DUP2 PUSH2 0x3099 JUMP JUMPDEST DUP2 EQ PUSH2 0x32E9 JUMPI PUSH0 DUP1 REVERT JUMPDEST POP JUMP JUMPDEST PUSH0 DUP2 CALLDATALOAD SWAP1 POP PUSH2 0x32FA DUP2 PUSH2 0x32D6 JUMP JUMPDEST SWAP3 SWAP2 POP POP JUMP JUMPDEST PUSH0 DUP1 PUSH0 DUP1 PUSH0 PUSH1 0x80 DUP7 DUP9 SUB SLT ISZERO PUSH2 0x3319 JUMPI PUSH2 0x3318 PUSH2 0x2FFD JUMP JUMPDEST JUMPDEST PUSH0 PUSH2 0x3326 DUP9 DUP3 DUP10 ADD PUSH2 0x301B JUMP JUMPDEST SWAP6 POP POP PUSH1 0x20 PUSH2 0x3337 DUP9 DUP3 DUP10 ADD PUSH2 0x32EC JUMP JUMPDEST SWAP5 POP POP PUSH1 0x40 PUSH2 0x3348 DUP9 DUP3 DUP10 ADD PUSH2 0x301B JUMP JUMPDEST SWAP4 POP POP PUSH1 0x60 DUP7 ADD CALLDATALOAD PUSH8 0xFFFFFFFFFFFFFFFF DUP2 GT ISZERO PUSH2 0x3369 JUMPI PUSH2 0x3368 PUSH2 0x3001 JUMP JUMPDEST JUMPDEST PUSH2 0x3375 DUP9 DUP3 DUP10 ADD PUSH2 0x31F7 JUMP JUMPDEST SWAP3 POP SWAP3 POP POP SWAP3 SWAP6 POP SWAP3 SWAP6 SWAP1 SWAP4 POP JUMP JUMPDEST PUSH0 PUSH1 0x20 DUP3 ADD SWAP1 POP PUSH2 0x3397 PUSH0 DUP4 ADD DUP5 PUSH2 0x30AC JUMP JUMPDEST SWAP3 SWAP2 POP POP JUMP JUMPDEST PUSH0 DUP1 PUSH1 0x40 DUP4 DUP6 SUB SLT ISZERO PUSH2 0x33B3 JUMPI PUSH2 0x33B2 PUSH2 0x2FFD JUMP JUMPDEST JUMPDEST PUSH0 PUSH2 0x33C0 DUP6 DUP3 DUP7 ADD PUSH2 0x301B JUMP JUMPDEST SWAP3 POP POP PUSH1 0x20 PUSH2 0x33D1 DUP6 DUP3 DUP7 ADD PUSH2 0x31D7 JUMP JUMPDEST SWAP2 POP POP SWAP3 POP SWAP3 SWAP1 POP JUMP JUMPDEST PUSH0 PUSH3 0xFFFFFF DUP3 AND SWAP1 POP SWAP2 SWAP1 POP JUMP JUMPDEST PUSH2 0x33F2 DUP2 PUSH2 0x33DB JUMP JUMPDEST DUP3 MSTORE POP POP JUMP JUMPDEST PUSH0 PUSH1 0x20 DUP3 ADD SWAP1 POP PUSH2 0x340B PUSH0 DUP4 ADD DUP5 PUSH2 0x33E9 JUMP JUMPDEST SWAP3 SWAP2 POP POP JUMP JUMPDEST PUSH0 DUP1 PUSH0 DUP1 PUSH1 0x80 DUP6 DUP8 SUB SLT ISZERO PUSH2 0x3429 JUMPI PUSH2 0x3428 PUSH2 0x2FFD JUMP JUMPDEST JUMPDEST PUSH0 PUSH2 0x3436 DUP8 DUP3 DUP9 ADD PUSH2 0x31D7 JUMP JUMPDEST SWAP5 POP POP PUSH1 0x20 PUSH2 0x3447 DUP8 DUP3 DUP9 ADD PUSH2 0x31D7 JUMP JUMPDEST SWAP4 POP POP PUSH1 0x40 PUSH2 0x3458 DUP8 DUP3 DUP9 ADD PUSH2 0x301B JUMP JUMPDEST SWAP3 POP POP PUSH1 0x60 PUSH2 0x3469 DUP8 DUP3 DUP9 ADD PUSH2 0x301B JUMP JUMPDEST SWAP2 POP POP SWAP3 SWAP6 SWAP2 SWAP5 POP SWAP3 POP JUMP JUMPDEST PUSH0 PUSH1 0x80 DUP3 ADD SWAP1 POP PUSH2 0x3488 PUSH0 DUP4 ADD DUP8 PUSH2 0x2FCC JUMP JUMPDEST PUSH2 0x3495 PUSH1 0x20 DUP4 ADD DUP7 PUSH2 0x2FCC JUMP JUMPDEST PUSH2 0x34A2 PUSH1 0x40 DUP4 ADD DUP6 PUSH2 0x3161 JUMP JUMPDEST PUSH2 0x34AF PUSH1 0x60 DUP4 ADD DUP5 PUSH2 0x3161 JUMP JUMPDEST SWAP6 SWAP5 POP POP POP POP POP JUMP JUMPDEST PUSH0 PUSH1 0x20 DUP3 ADD SWAP1 POP PUSH2 0x34CB PUSH0 DUP4 ADD DUP5 PUSH2 0x308A JUMP JUMPDEST SWAP3 SWAP2 POP POP JUMP JUMPDEST PUSH0 DUP1 PUSH0 DUP1 PUSH0 DUP1 PUSH0 DUP1 PUSH0 PUSH2 0x120 DUP11 DUP13 SUB SLT ISZERO PUSH2 0x34EF JUMPI PUSH2 0x34EE PUSH2 0x2FFD JUMP JUMPDEST JUMPDEST PUSH0 PUSH2 0x34FC DUP13 DUP3 DUP14 ADD PUSH2 0x31D7 JUMP JUMPDEST SWAP10 POP POP PUSH1 0x20 PUSH2 0x350D DUP13 DUP3 DUP14 ADD PUSH2 0x31D7 JUMP JUMPDEST SWAP9 POP POP PUSH1 0x40 PUSH2 0x351E DUP13 DUP3 DUP14 ADD PUSH2 0x31D7 JUMP JUMPDEST SWAP8 POP POP PUSH1 0x60 PUSH2 0x352F DUP13 DUP3 DUP14 ADD PUSH2 0x31D7 JUMP JUMPDEST SWAP7 POP POP PUSH1 0x80 PUSH2 0x3540 DUP13 DUP3 DUP14 ADD PUSH2 0x31D7 JUMP JUMPDEST SWAP6 POP POP PUSH1 0xA0 PUSH2 0x3551 DUP13 DUP3 DUP14 ADD PUSH2 0x31D7 JUMP JUMPDEST SWAP5 POP POP PUSH1 0xC0 PUSH2 0x3562 DUP13 DUP3 DUP14 ADD PUSH2 0x31D7 JUMP JUMPDEST SWAP4 POP POP PUSH1 0xE0 PUSH2 0x3573 DUP13 DUP3 DUP14 ADD PUSH2 0x31D7 JUMP JUMPDEST SWAP3 POP POP PUSH2 0x100 PUSH2 0x3585 DUP13 DUP3 DUP14 ADD PUSH2 0x31D7 JUMP JUMPDEST SWAP2 POP POP SWAP3 SWAP6 SWAP9 POP SWAP3 SWAP6 SWAP9 POP SWAP3 SWAP6 SWAP9 JUMP JUMPDEST PUSH0 DUP1 REVERT JUMPDEST PUSH0 PUSH1 0xA0 DUP3 DUP5 SUB SLT ISZERO PUSH2 0x35AE JUMPI PUSH2 0x35AD PUSH2 0x3595 JUMP JUMPDEST JUMPDEST DUP2 SWAP1 POP SWAP3 SWAP2 POP POP JUMP JUMPDEST PUSH0 DUP1 PUSH0 DUP1 PUSH0 PUSH1 0xA0 DUP7 DUP9 SUB SLT ISZERO PUSH2 0x35D0 JUMPI PUSH2 0x35CF PUSH2 0x2FFD JUMP JUMPDEST JUMPDEST PUSH0 PUSH2 0x35DD DUP9 DUP3 DUP10 ADD PUSH2 0x31D7 JUMP JUMPDEST SWAP6 POP POP PUSH1 0x20 PUSH2 0x35EE DUP9 DUP3 DUP10 ADD PUSH2 0x31D7 JUMP JUMPDEST SWAP5 POP POP PUSH1 0x40 PUSH2 0x35FF DUP9 DUP3 DUP10 ADD PUSH2 0x31D7 JUMP JUMPDEST SWAP4 POP POP PUSH1 0x60 PUSH2 0x3610 DUP9 DUP3 DUP10 ADD PUSH2 0x301B JUMP JUMPDEST SWAP3 POP POP PUSH1 0x80 DUP7 ADD CALLDATALOAD PUSH8 0xFFFFFFFFFFFFFFFF DUP2 GT ISZERO PUSH2 0x3631 JUMPI PUSH2 0x3630 PUSH2 0x3001 JUMP JUMPDEST JUMPDEST PUSH2 0x363D DUP9 DUP3 DUP10 ADD PUSH2 0x3599 JUMP JUMPDEST SWAP2 POP POP SWAP3 SWAP6 POP SWAP3 SWAP6 SWAP1 SWAP4 POP JUMP JUMPDEST PUSH2 0x3653 DUP2 PUSH2 0x33DB JUMP JUMPDEST DUP2 EQ PUSH2 0x365D JUMPI PUSH0 DUP1 REVERT JUMPDEST POP JUMP JUMPDEST PUSH0 DUP2 CALLDATALOAD SWAP1 POP PUSH2 0x366E DUP2 PUSH2 0x364A JUMP JUMPDEST SWAP3 SWAP2 POP POP JUMP JUMPDEST PUSH0 DUP1 PUSH0 PUSH1 0x60 DUP5 DUP7 SUB SLT ISZERO PUSH2 0x368B JUMPI PUSH2 0x368A PUSH2 0x2FFD JUMP JUMPDEST JUMPDEST PUSH0 PUSH2 0x3698 DUP7 DUP3 DUP8 ADD PUSH2 0x301B JUMP JUMPDEST SWAP4 POP POP PUSH1 0x20 PUSH2 0x36A9 DUP7 DUP3 DUP8 ADD PUSH2 0x31D7 JUMP JUMPDEST SWAP3 POP POP PUSH1 0x40 PUSH2 0x36BA DUP7 DUP3 DUP8 ADD PUSH2 0x3660 JUMP JUMPDEST SWAP2 POP POP SWAP3 POP SWAP3 POP SWAP3 JUMP JUMPDEST PUSH0 DUP1 PUSH0 PUSH1 0x60 DUP5 DUP7 SUB SLT ISZERO PUSH2 0x36DB JUMPI PUSH2 0x36DA PUSH2 0x2FFD JUMP JUMPDEST JUMPDEST PUSH0 PUSH2 0x36E8 DUP7 DUP3 DUP8 ADD PUSH2 0x31D7 JUMP JUMPDEST SWAP4 POP POP PUSH1 0x20 PUSH2 0x36F9 DUP7 DUP3 DUP8 ADD PUSH2 0x31D7 JUMP JUMPDEST SWAP3 POP POP PUSH1 0x40 PUSH2 0x370A DUP7 DUP3 DUP8 ADD PUSH2 0x301B JUMP JUMPDEST SWAP2 POP POP SWAP3 POP SWAP3 POP SWAP3 JUMP JUMPDEST PUSH0 DUP1 PUSH0 DUP1 PUSH1 0x80 DUP6 DUP8 SUB SLT ISZERO PUSH2 0x372C JUMPI PUSH2 0x372B PUSH2 0x2FFD JUMP JUMPDEST JUMPDEST PUSH0 PUSH2 0x3739 DUP8 DUP3 DUP9 ADD PUSH2 0x31D7 JUMP JUMPDEST SWAP5 POP POP PUSH1 0x20 PUSH2 0x374A DUP8 DUP3 DUP9 ADD PUSH2 0x31D7 JUMP JUMPDEST SWAP4 POP POP PUSH1 0x40 PUSH2 0x375B DUP8 DUP3 DUP9 ADD PUSH2 0x301B JUMP JUMPDEST SWAP3 POP POP PUSH1 0x60 DUP6 ADD CALLDATALOAD PUSH8 0xFFFFFFFFFFFFFFFF DUP2 GT ISZERO PUSH2 0x377C JUMPI PUSH2 0x377B PUSH2 0x3001 JUMP JUMPDEST JUMPDEST PUSH2 0x3788 DUP8 DUP3 DUP9 ADD PUSH2 0x3599 JUMP JUMPDEST SWAP2 POP POP SWAP3 SWAP6 SWAP2 SWAP5 POP SWAP3 POP JUMP JUMPDEST PUSH0 DUP1 DUP4 PUSH1 0x1F DUP5 ADD SLT PUSH2 0x37A9 JUMPI PUSH2 0x37A8 PUSH2 0x31EB JUMP JUMPDEST JUMPDEST DUP3 CALLDATALOAD SWAP1 POP PUSH8 0xFFFFFFFFFFFFFFFF DUP2 GT ISZERO PUSH2 0x37C6 JUMPI PUSH2 0x37C5 PUSH2 0x31EF JUMP JUMPDEST JUMPDEST PUSH1 0x20 DUP4 ADD SWAP2 POP DUP4 PUSH1 0x20 DUP3 MUL DUP4 ADD GT ISZERO PUSH2 0x37E2 JUMPI PUSH2 0x37E1 PUSH2 0x31F3 JUMP JUMPDEST JUMPDEST SWAP3 POP SWAP3 SWAP1 POP JUMP JUMPDEST PUSH0 DUP1 PUSH0 DUP1 PUSH0 DUP1 PUSH1 0xA0 DUP8 DUP10 SUB SLT ISZERO PUSH2 0x3803 JUMPI PUSH2 0x3802 PUSH2 0x2FFD JUMP JUMPDEST JUMPDEST PUSH0 PUSH2 0x3810 DUP10 DUP3 DUP11 ADD PUSH2 0x301B JUMP JUMPDEST SWAP7 POP POP PUSH1 0x20 PUSH2 0x3821 DUP10 DUP3 DUP11 ADD PUSH2 0x301B JUMP JUMPDEST SWAP6 POP POP PUSH1 0x40 DUP8 ADD CALLDATALOAD PUSH8 0xFFFFFFFFFFFFFFFF DUP2 GT ISZERO PUSH2 0x3842 JUMPI PUSH2 0x3841 PUSH2 0x3001 JUMP JUMPDEST JUMPDEST PUSH2 0x384E DUP10 DUP3 DUP11 ADD PUSH2 0x3794 JUMP JUMPDEST SWAP5 POP SWAP5 POP POP PUSH1 0x60 PUSH2 0x3861 DUP10 DUP3 DUP11 ADD PUSH2 0x31D7 JUMP JUMPDEST SWAP3 POP POP PUSH1 0x80 PUSH2 0x3872 DUP10 DUP3 DUP11 ADD PUSH2 0x32EC JUMP JUMPDEST SWAP2 POP POP SWAP3 SWAP6 POP SWAP3 SWAP6 POP SWAP3 SWAP6 JUMP JUMPDEST PUSH0 DUP1 PUSH0 DUP1 PUSH1 0x80 DUP6 DUP8 SUB SLT ISZERO PUSH2 0x3897 JUMPI PUSH2 0x3896 PUSH2 0x2FFD JUMP JUMPDEST JUMPDEST PUSH0 PUSH2 0x38A4 DUP8 DUP3 DUP9 ADD PUSH2 0x31D7 JUMP JUMPDEST SWAP5 POP POP PUSH1 0x20 PUSH2 0x38B5 DUP8 DUP3 DUP9 ADD PUSH2 0x31D7 JUMP JUMPDEST SWAP4 POP POP PUSH1 0x40 PUSH2 0x38C6 DUP8 DUP3 DUP9 ADD PUSH2 0x31D7 JUMP JUMPDEST SWAP3 POP POP PUSH1 0x60 PUSH2 0x38D7 DUP8 DUP3 DUP9 ADD PUSH2 0x301B JUMP JUMPDEST SWAP2 POP POP SWAP3 SWAP6 SWAP2 SWAP5 POP SWAP3 POP JUMP JUMPDEST PUSH0 DUP3 DUP3 MSTORE PUSH1 0x20 DUP3 ADD SWAP1 POP SWAP3 SWAP2 POP POP JUMP JUMPDEST PUSH32 0x6E6F74206F776E65720000000000000000000000000000000000000000000000 PUSH0 DUP3 ADD MSTORE POP JUMP JUMPDEST PUSH0 PUSH2 0x3927 PUSH1 0x9 DUP4 PUSH2 0x38E3 JUMP JUMPDEST SWAP2 POP PUSH2 0x3932 DUP3 PUSH2 0x38F3 JUMP JUMPDEST PUSH1 0x20 DUP3 ADD SWAP1 POP SWAP2 SWAP1 POP JUMP JUMPDEST PUSH0 PUSH1 0x20 DUP3 ADD SWAP1 POP DUP2 DUP2 SUB PUSH0 DUP4 ADD MSTORE PUSH2 0x3954 DUP2 PUSH2 0x391B JUMP JUMPDEST SWAP1 POP SWAP2 SWAP1 POP JUMP JUMPDEST PUSH32 0x4E487B7100000000000000000000000000000000000000000000000000000000 PUSH0 MSTORE PUSH1 0x41 PUSH1 0x4 MSTORE PUSH1 0x24 PUSH0 REVERT JUMPDEST PUSH0 DUP2 SWAP1 POP SWAP2 SWAP1 POP JUMP JUMPDEST PUSH0 PUSH2 0x39AB PUSH2 0x39A6 PUSH2 0x39A1 DUP5 PUSH2 0x3988 JUMP JUMPDEST PUSH2 0x30E2 JUMP JUMPDEST PUSH2 0x3099 JUMP JUMPDEST SWAP1 POP SWAP2 SWAP1 POP JUMP JUMPDEST PUSH2 0x39BB DUP2 PUSH2 0x3991 JUMP JUMPDEST DUP3 MSTORE POP POP JUMP JUMPDEST PUSH0 DUP2 MLOAD SWAP1 POP SWAP2 SWAP1 POP JUMP JUMPDEST PUSH0 DUP3 DUP3 MSTORE PUSH1 0x20 DUP3 ADD SWAP1 POP SWAP3 SWAP2 POP POP JUMP JUMPDEST PUSH0 DUP2 SWAP1 POP PUSH1 0x20 DUP3 ADD SWAP1 POP SWAP2 SWAP1 POP JUMP JUMPDEST PUSH0 DUP2 MLOAD SWAP1 POP SWAP2 SWAP1 POP JUMP JUMPDEST PUSH0 DUP3 DUP3 MSTORE PUSH1 0x20 DUP3 ADD SWAP1 POP SWAP3 SWAP2 POP POP JUMP JUMPDEST PUSH0 JUMPDEST DUP4 DUP2 LT ISZERO PUSH2 0x3A21 JUMPI DUP1 DUP3 ADD MLOAD DUP2 DUP5 ADD MSTORE PUSH1 0x20 DUP2 ADD SWAP1 POP PUSH2 0x3A06 JUMP JUMPDEST PUSH0 DUP5 DUP5 ADD MSTORE POP POP POP POP JUMP JUMPDEST PUSH0 PUSH1 0x1F NOT PUSH1 0x1F DUP4 ADD AND SWAP1 POP SWAP2 SWAP1 POP JUMP JUMPDEST PUSH0 PUSH2 0x3A46 DUP3 PUSH2 0x39EA JUMP JUMPDEST PUSH2 0x3A50 DUP2 DUP6 PUSH2 0x39F4 JUMP JUMPDEST SWAP4 POP PUSH2 0x3A60 DUP2 DUP6 PUSH1 0x20 DUP7 ADD PUSH2 0x3A04 JUMP JUMPDEST PUSH2 0x3A69 DUP2 PUSH2 0x3A2C JUMP JUMPDEST DUP5 ADD SWAP2 POP POP SWAP3 SWAP2 POP POP JUMP JUMPDEST PUSH0 PUSH2 0x3A7F DUP4 DUP4 PUSH2 0x3A3C JUMP JUMPDEST SWAP1 POP SWAP3 SWAP2 POP POP JUMP JUMPDEST PUSH0 PUSH1 0x20 DUP3 ADD SWAP1 POP SWAP2 SWAP1 POP JUMP JUMPDEST PUSH0 PUSH2 0x3A9D DUP3 PUSH2 0x39C1 JUMP JUMPDEST PUSH2 0x3AA7 DUP2 DUP6 PUSH2 0x39CB JUMP JUMPDEST SWAP4 POP DUP4 PUSH1 0x20 DUP3 MUL DUP6 ADD PUSH2 0x3AB9 DUP6 PUSH2 0x39DB JUMP JUMPDEST DUP1 PUSH0 JUMPDEST DUP6 DUP2 LT ISZERO PUSH2 0x3AF4 JUMPI DUP5 DUP5 SUB DUP10 MSTORE DUP2 MLOAD PUSH2 0x3AD5 DUP6 DUP3 PUSH2 0x3A74 JUMP JUMPDEST SWAP5 POP PUSH2 0x3AE0 DUP4 PUSH2 0x3A87 JUMP JUMPDEST SWAP3 POP PUSH1 0x20 DUP11 ADD SWAP10 POP POP PUSH1 0x1 DUP2 ADD SWAP1 POP PUSH2 0x3ABC JUMP JUMPDEST POP DUP3 SWAP8 POP DUP8 SWAP6 POP POP POP POP POP POP SWAP3 SWAP2 POP POP JUMP JUMPDEST PUSH0 PUSH1 0x60 DUP3 ADD SWAP1 POP PUSH2 0x3B19 PUSH0 DUP4 ADD DUP7 PUSH2 0x308A JUMP JUMPDEST PUSH2 0x3B26 PUSH1 0x20 DUP4 ADD DUP6 PUSH2 0x39B2 JUMP JUMPDEST DUP2 DUP2 SUB PUSH1 0x40 DUP4 ADD MSTORE PUSH2 0x3B38 DUP2 DUP5 PUSH2 0x3A93 JUMP JUMPDEST SWAP1 POP SWAP5 SWAP4 POP POP POP POP JUMP JUMPDEST PUSH0 DUP2 PUSH1 0x7 SIGNEXTEND SWAP1 POP SWAP2 SWAP1 POP JUMP JUMPDEST PUSH2 0x3B57 DUP2 PUSH2 0x3B42 JUMP JUMPDEST DUP2 EQ PUSH2 0x3B61 JUMPI PUSH0 DUP1 REVERT JUMPDEST POP JUMP JUMPDEST PUSH0 DUP2 MLOAD SWAP1 POP PUSH2 0x3B72 DUP2 PUSH2 0x3B4E JUMP JUMPDEST SWAP3 SWAP2 POP POP JUMP JUMPDEST PUSH0 DUP2 MLOAD SWAP1 POP PUSH2 0x3B86 DUP2 PUSH2 0x32D6 JUMP JUMPDEST SWAP3 SWAP2 POP POP JUMP JUMPDEST PUSH2 0x3B95 DUP3 PUSH2 0x3A2C JUMP JUMPDEST DUP2 ADD DUP2 DUP2 LT PUSH8 0xFFFFFFFFFFFFFFFF DUP3 GT OR ISZERO PUSH2 0x3BB4 JUMPI PUSH2 0x3BB3 PUSH2 0x395B JUMP JUMPDEST JUMPDEST DUP1 PUSH1 0x40 MSTORE POP POP POP JUMP JUMPDEST PUSH0 PUSH2 0x3BC6 PUSH2 0x2FF4 JUMP JUMPDEST SWAP1 POP PUSH2 0x3BD2 DUP3 DUP3 PUSH2 0x3B8C JUMP JUMPDEST SWAP2 SWAP1 POP JUMP JUMPDEST PUSH0 PUSH8 0xFFFFFFFFFFFFFFFF DUP3 GT ISZERO PUSH2 0x3BF1 JUMPI PUSH2 0x3BF0 PUSH2 0x395B JUMP JUMPDEST JUMPDEST PUSH1 0x20 DUP3 MUL SWAP1 POP PUSH1 0x20 DUP2 ADD SWAP1 POP SWAP2 SWAP1 POP JUMP JUMPDEST PUSH0 PUSH2 0x3C14 PUSH2 0x3C0F DUP5 PUSH2 0x3BD7 JUMP JUMPDEST PUSH2 0x3BBD JUMP JUMPDEST SWAP1 POP DUP1 DUP4 DUP3 MSTORE PUSH1 0x20 DUP3 ADD SWAP1 POP PUSH1 0x20 DUP5 MUL DUP4 ADD DUP6 DUP2 GT ISZERO PUSH2 0x3C37 JUMPI PUSH2 0x3C36 PUSH2 0x31F3 JUMP JUMPDEST JUMPDEST DUP4 JUMPDEST DUP2 DUP2 LT ISZERO PUSH2 0x3C60 JUMPI DUP1 PUSH2 0x3C4C DUP9 DUP3 PUSH2 0x3B64 JUMP JUMPDEST DUP5 MSTORE PUSH1 0x20 DUP5 ADD SWAP4 POP POP PUSH1 0x20 DUP2 ADD SWAP1 POP PUSH2 0x3C39 JUMP JUMPDEST POP POP POP SWAP4 SWAP3 POP POP POP JUMP JUMPDEST PUSH0 DUP3 PUSH1 0x1F DUP4 ADD SLT PUSH2 0x3C7E JUMPI PUSH2 0x3C7D PUSH2 0x31EB JUMP JUMPDEST JUMPDEST DUP2 MLOAD PUSH2 0x3C8E DUP5 DUP3 PUSH1 0x20 DUP7 ADD PUSH2 0x3C02 JUMP JUMPDEST SWAP2 POP POP SWAP3 SWAP2 POP POP JUMP JUMPDEST PUSH0 DUP1 PUSH0 PUSH1 0x60 DUP5 DUP7 SUB SLT ISZERO PUSH2 0x3CAE JUMPI PUSH2 0x3CAD PUSH2 0x2FFD JUMP JUMPDEST JUMPDEST PUSH0 PUSH2 0x3CBB DUP7 DUP3 DUP8 ADD PUSH2 0x3B64 JUMP JUMPDEST SWAP4 POP POP PUSH1 0x20 PUSH2 0x3CCC DUP7 DUP3 DUP8 ADD PUSH2 0x3B78 JUMP JUMPDEST SWAP3 POP POP PUSH1 0x40 DUP5 ADD MLOAD PUSH8 0xFFFFFFFFFFFFFFFF DUP2 GT ISZERO PUSH2 0x3CED JUMPI PUSH2 0x3CEC PUSH2 0x3001 JUMP JUMPDEST JUMPDEST PUSH2 0x3CF9 DUP7 DUP3 DUP8 ADD PUSH2 0x3C6A JUMP JUMPDEST SWAP2 POP POP SWAP3 POP SWAP3 POP SWAP3 JUMP JUMPDEST PUSH32 0x6D696E74206661696C0000000000000000000000000000000000000000000000 PUSH0 DUP3 ADD MSTORE POP JUMP JUMPDEST PUSH0 PUSH2 0x3D37 PUSH1 0x9 DUP4 PUSH2 0x38E3 JUMP JUMPDEST SWAP2 POP PUSH2 0x3D42 DUP3 PUSH2 0x3D03 JUMP JUMPDEST PUSH1 0x20 DUP3 ADD SWAP1 POP SWAP2 SWAP1 POP JUMP JUMPDEST PUSH0 PUSH1 0x20 DUP3 ADD SWAP1 POP DUP2 DUP2 SUB PUSH0 DUP4 ADD MSTORE PUSH2 0x3D64 DUP2 PUSH2 0x3D2B JUMP JUMPDEST SWAP1 POP SWAP2 SWAP1 POP JUMP JUMPDEST DUP3 DUP2 DUP4 CALLDATACOPY PUSH0 DUP4 DUP4 ADD MSTORE POP POP POP JUMP JUMPDEST PUSH0 PUSH2 0x3D84 DUP4 DUP6 PUSH2 0x38E3 JUMP JUMPDEST SWAP4 POP PUSH2 0x3D91 DUP4 DUP6 DUP5 PUSH2 0x3D6B JUMP JUMPDEST PUSH2 0x3D9A DUP4 PUSH2 0x3A2C JUMP JUMPDEST DUP5 ADD SWAP1 POP SWAP4 SWAP3 POP POP POP JUMP JUMPDEST PUSH0 PUSH1 0x20 DUP3 ADD SWAP1 POP DUP2 DUP2 SUB PUSH0 DUP4 ADD MSTORE PUSH2 0x3DBE DUP2 DUP5 DUP7 PUSH2 0x3D79 JUMP JUMPDEST SWAP1 POP SWAP4 SWAP3 POP POP POP JUMP JUMPDEST PUSH32 0x72756C65206F6666000000000000000000000000000000000000000000000000 PUSH0 DUP3 ADD MSTORE POP JUMP JUMPDEST PUSH0 PUSH2 0x3DFB PUSH1 0x8 DUP4 PUSH2 0x38E3 JUMP JUMPDEST SWAP2 POP PUSH2 0x3E06 DUP3 PUSH2 0x3DC7 JUMP JUMPDEST PUSH1 0x20 DUP3 ADD SWAP1 POP SWAP2 SWAP1 POP JUMP JUMPDEST PUSH0 PUSH1 0x20 DUP3 ADD SWAP1 POP DUP2 DUP2 SUB PUSH0 DUP4 ADD MSTORE PUSH2 0x3E28 DUP2 PUSH2 0x3DEF JUMP JUMPDEST SWAP1 POP SWAP2 SWAP1 POP JUMP JUMPDEST PUSH32 0x4E487B7100000000000000000000000000000000000000000000000000000000 PUSH0 MSTORE PUSH1 0x11 PUSH1 0x4 MSTORE PUSH1 0x24 PUSH0 REVERT JUMPDEST PUSH0 PUSH2 0x3E66 DUP3 PUSH2 0x3099 JUMP JUMPDEST SWAP2 POP PUSH2 0x3E71 DUP4 PUSH2 0x3099 JUMP JUMPDEST SWAP3 POP DUP3 DUP3 MUL PUSH2 0x3E7F DUP2 PUSH2 0x3099 JUMP JUMPDEST SWAP2 POP DUP1 DUP3 EQ PUSH2 0x3E91 JUMPI PUSH2 0x3E90 PUSH2 0x3E2F JUMP JUMPDEST JUMPDEST POP SWAP3 SWAP2 POP POP JUMP JUMPDEST PUSH0 PUSH1 0x60 DUP3 ADD SWAP1 POP PUSH2 0x3EAB PUSH0 DUP4 ADD DUP7 PUSH2 0x308A JUMP JUMPDEST PUSH2 0x3EB8 PUSH1 0x20 DUP4 ADD DUP6 PUSH2 0x30AC JUMP JUMPDEST DUP2 DUP2 SUB PUSH1 0x40 DUP4 ADD MSTORE PUSH2 0x3ECA DUP2 DUP5 PUSH2 0x3A93 JUMP JUMPDEST SWAP1 POP SWAP5 SWAP4 POP POP POP POP JUMP JUMPDEST PUSH0 PUSH1 0x60 DUP3 ADD SWAP1 POP PUSH2 0x3EE7 PUSH0 DUP4 ADD DUP8 PUSH2 0x30AC JUMP JUMPDEST PUSH2 0x3EF4 PUSH1 0x20 DUP4 ADD DUP7 PUSH2 0x30AC JUMP JUMPDEST DUP2 DUP2 SUB PUSH1 0x40 DUP4 ADD MSTORE PUSH2 0x3F07 DUP2 DUP5 DUP7 PUSH2 0x3D79 JUMP JUMPDEST SWAP1 POP SWAP6 SWAP5 POP POP POP POP POP JUMP JUMPDEST PUSH32 0x7A65726F20616464720000000000000000000000000000000000000000000000 PUSH0 DUP3 ADD MSTORE POP JUMP JUMPDEST PUSH0 PUSH2 0x3F46 PUSH1 0x9 DUP4 PUSH2 0x38E3 JUMP JUMPDEST SWAP2 POP PUSH2 0x3F51 DUP3 PUSH2 0x3F12 JUMP JUMPDEST PUSH1 0x20 DUP3 ADD SWAP1 POP SWAP2 SWAP1 POP JUMP JUMPDEST PUSH0 PUSH1 0x20 DUP3 ADD SWAP1 POP DUP2 DUP2 SUB PUSH0 DUP4 ADD MSTORE PUSH2 0x3F73 DUP2 PUSH2 0x3F3A JUMP JUMPDEST SWAP1 POP SWAP2 SWAP1 POP JUMP JUMPDEST PUSH0 PUSH1 0xC0 DUP3 ADD SWAP1 POP PUSH2 0x3F8D PUSH0 DUP4 ADD DUP10 PUSH2 0x308A JUMP JUMPDEST PUSH2 0x3F9A PUSH1 0x20 DUP4 ADD DUP9 PUSH2 0x308A JUMP JUMPDEST PUSH2 0x3FA7 PUSH1 0x40 DUP4 ADD DUP8 PUSH2 0x308A JUMP JUMPDEST PUSH2 0x3FB4 PUSH1 0x60 DUP4 ADD DUP7 PUSH2 0x308A JUMP JUMPDEST PUSH2 0x3FC1 PUSH1 0x80 DUP4 ADD DUP6 PUSH2 0x308A JUMP JUMPDEST PUSH2 0x3FCE PUSH1 0xA0 DUP4 ADD DUP5 PUSH2 0x308A JUMP JUMPDEST SWAP8 SWAP7 POP POP POP POP POP POP POP JUMP JUMPDEST PUSH32 0x696E70757473486173682D6D69736D6174636800000000000000000000000000 PUSH0 DUP3 ADD MSTORE POP JUMP JUMPDEST PUSH0 PUSH2 0x400D PUSH1 0x13 DUP4 PUSH2 0x38E3 JUMP JUMPDEST SWAP2 POP PUSH2 0x4018 DUP3 PUSH2 0x3FD9 JUMP JUMPDEST PUSH1 0x20 DUP3 ADD SWAP1 POP SWAP2 SWAP1 POP JUMP JUMPDEST PUSH0 PUSH1 0x20 DUP3 ADD SWAP1 POP DUP2 DUP2 SUB PUSH0 DUP4 ADD MSTORE PUSH2 0x403A DUP2 PUSH2 0x4001 JUMP JUMPDEST SWAP1 POP SWAP2 SWAP1 POP JUMP JUMPDEST PUSH0 DUP1 REVERT JUMPDEST PUSH0 DUP1 REVERT JUMPDEST PUSH0 DUP1 REVERT JUMPDEST PUSH0 DUP1 DUP4 CALLDATALOAD PUSH1 0x1 PUSH1 0x20 SUB DUP5 CALLDATASIZE SUB SUB DUP2 SLT PUSH2 0x4069 JUMPI PUSH2 0x4068 PUSH2 0x4041 JUMP JUMPDEST JUMPDEST DUP1 DUP5 ADD SWAP3 POP DUP3 CALLDATALOAD SWAP2 POP PUSH8 0xFFFFFFFFFFFFFFFF DUP3 GT ISZERO PUSH2 0x408B JUMPI PUSH2 0x408A PUSH2 0x4045 JUMP JUMPDEST JUMPDEST PUSH1 0x20 DUP4 ADD SWAP3 POP PUSH1 0x1 DUP3 MUL CALLDATASIZE SUB DUP4 SGT ISZERO PUSH2 0x40A7 JUMPI PUSH2 0x40A6 PUSH2 0x4049 JUMP JUMPDEST JUMPDEST POP SWAP3 POP SWAP3 SWAP1 POP JUMP JUMPDEST PUSH0 PUSH1 0xA0 DUP3 ADD SWAP1 POP PUSH2 0x40C2 PUSH0 DUP4 ADD DUP10 PUSH2 0x308A JUMP JUMPDEST PUSH2 0x40CF PUSH1 0x20 DUP4 ADD DUP9 PUSH2 0x308A JUMP JUMPDEST PUSH2 0x40DC PUSH1 0x40 DUP4 ADD DUP8 PUSH2 0x308A JUMP JUMPDEST PUSH2 0x40E9 PUSH1 0x60 DUP4 ADD DUP7 PUSH2 0x3161 JUMP JUMPDEST DUP2 DUP2 SUB PUSH1 0x80 DUP4 ADD MSTORE PUSH2 0x40FC DUP2 DUP5 DUP7 PUSH2 0x3D79 JUMP JUMPDEST SWAP1 POP SWAP8 SWAP7 POP POP POP POP POP POP POP JUMP JUMPDEST PUSH0 PUSH1 0x60 DUP3 ADD SWAP1 POP PUSH2 0x411C PUSH0 DUP4 ADD DUP7 PUSH2 0x2FCC JUMP JUMPDEST PUSH2 0x4129 PUSH1 0x20 DUP4 ADD DUP6 PUSH2 0x2FCC JUMP JUMPDEST PUSH2 0x4136 PUSH1 0x40 DUP4 ADD DUP5 PUSH2 0x3161 JUMP JUMPDEST SWAP5 SWAP4 POP POP POP POP JUMP JUMPDEST PUSH32 0x646F6D61696E206D75737420626520445F4C4947485400000000000000000000 PUSH0 DUP3 ADD MSTORE POP JUMP JUMPDEST PUSH0 PUSH2 0x4172 PUSH1 0x16 DUP4 PUSH2 0x38E3 JUMP JUMPDEST SWAP2 POP PUSH2 0x417D DUP3 PUSH2 0x413E JUMP JUMPDEST PUSH1 0x20 DUP3 ADD SWAP1 POP SWAP2 SWAP1 POP JUMP JUMPDEST PUSH0 PUSH1 0x20 DUP3 ADD SWAP1 POP DUP2 DUP2 SUB PUSH0 DUP4 ADD MSTORE PUSH2 0x419F DUP2 PUSH2 0x4166 JUMP JUMPDEST SWAP1 POP SWAP2 SWAP1 POP JUMP JUMPDEST PUSH0 PUSH1 0x60 DUP3 ADD SWAP1 POP PUSH2 0x41B9 PUSH0 DUP4 ADD DUP8 PUSH2 0x39B2 JUMP JUMPDEST PUSH2 0x41C6 PUSH1 0x20 DUP4 ADD DUP7 PUSH2 0x30AC JUMP JUMPDEST DUP2 DUP2 SUB PUSH1 0x40 DUP4 ADD MSTORE PUSH2 0x41D9 DUP2 DUP5 DUP7 PUSH2 0x3D79 JUMP JUMPDEST SWAP1 POP SWAP6 SWAP5 POP POP POP POP POP JUMP JUMPDEST PUSH32 0x6261642061726974790000000000000000000000000000000000000000000000 PUSH0 DUP3 ADD MSTORE POP JUMP JUMPDEST PUSH0 PUSH2 0x4218 PUSH1 0x9 DUP4 PUSH2 0x38E3 JUMP JUMPDEST SWAP2 POP PUSH2 0x4223 DUP3 PUSH2 0x41E4 JUMP JUMPDEST PUSH1 0x20 DUP3 ADD SWAP1 POP SWAP2 SWAP1 POP JUMP JUMPDEST PUSH0 PUSH1 0x20 DUP3 ADD SWAP1 POP DUP2 DUP2 SUB PUSH0 DUP4 ADD MSTORE PUSH2 0x4245 DUP2 PUSH2 0x420C JUMP JUMPDEST SWAP1 POP SWAP2 SWAP1 POP JUMP JUMPDEST PUSH32 0x6E6F206F75747075740000000000000000000000000000000000000000000000 PUSH0 DUP3 ADD MSTORE POP JUMP JUMPDEST PUSH0 PUSH2 0x4280 PUSH1 0x9 DUP4 PUSH2 0x38E3 JUMP JUMPDEST SWAP2 POP PUSH2 0x428B DUP3 PUSH2 0x424C JUMP JUMPDEST PUSH1 0x20 DUP3 ADD SWAP1 POP SWAP2 SWAP1 POP JUMP JUMPDEST PUSH0 PUSH1 0x20 DUP3 ADD SWAP1 POP DUP2 DUP2 SUB PUSH0 DUP4 ADD MSTORE PUSH2 0x42AD DUP2 PUSH2 0x4274 JUMP JUMPDEST SWAP1 POP SWAP2 SWAP1 POP JUMP JUMPDEST PUSH32 0x6D7573742070726F766964652032206F72203320696E70757473000000000000 PUSH0 DUP3 ADD MSTORE POP JUMP JUMPDEST PUSH0 PUSH2 0x42E8 PUSH1 0x1A DUP4 PUSH2 0x38E3 JUMP JUMPDEST SWAP2 POP PUSH2 0x42F3 DUP3 PUSH2 0x42B4 JUMP JUMPDEST PUSH1 0x20 DUP3 ADD SWAP1 POP SWAP2 SWAP1 POP JUMP JUMPDEST PUSH0 PUSH1 0x20 DUP3 ADD SWAP1 POP DUP2 DUP2 SUB PUSH0 DUP4 ADD MSTORE PUSH2 0x4315 DUP2 PUSH2 0x42DC JUMP JUMPDEST SWAP1 POP SWAP2 SWAP1 POP JUMP JUMPDEST PUSH32 0x4E487B7100000000000000000000000000000000000000000000000000000000 PUSH0 MSTORE PUSH1 0x32 PUSH1 0x4 MSTORE PUSH1 0x24 PUSH0 REVERT JUMPDEST PUSH0 PUSH1 0x20 DUP3 DUP5 SUB SLT ISZERO PUSH2 0x435E JUMPI PUSH2 0x435D PUSH2 0x2FFD JUMP JUMPDEST JUMPDEST PUSH0 PUSH2 0x436B DUP5 DUP3 DUP6 ADD PUSH2 0x31D7 JUMP JUMPDEST SWAP2 POP POP SWAP3 SWAP2 POP POP JUMP JUMPDEST PUSH0 DUP2 SWAP1 POP SWAP2 SWAP1 POP JUMP JUMPDEST PUSH0 PUSH2 0x4387 DUP3 PUSH2 0x4374 JUMP JUMPDEST SWAP2 POP PUSH32 0xFFFFFFFFFFFFFFFFFFFFFFFFFFFFFFFFFFFFFFFFFFFFFFFFFFFFFFFFFFFFFFFF DUP3 SUB PUSH2 0x43B9 JUMPI PUSH2 0x43B8 PUSH2 0x3E2F JUMP JUMPDEST JUMPDEST PUSH1 0x1 DUP3 ADD SWAP1 POP SWAP2 SWAP1 POP JUMP JUMPDEST PUSH32 0x322D746F6B656E2072756C657320726571756972652052454420616E6420424C PUSH0 DUP3 ADD MSTORE PUSH32 0x5545000000000000000000000000000000000000000000000000000000000000 PUSH1 0x20 DUP3 ADD MSTORE POP JUMP JUMPDEST PUSH0 PUSH2 0x441E PUSH1 0x22 DUP4 PUSH2 0x38E3 JUMP JUMPDEST SWAP2 POP PUSH2 0x4429 DUP3 PUSH2 0x43C4 JUMP JUMPDEST PUSH1 0x40 DUP3 ADD SWAP1 POP SWAP2 SWAP1 POP JUMP JUMPDEST PUSH0 PUSH1 0x20 DUP3 ADD SWAP1 POP DUP2 DUP2 SUB PUSH0 DUP4 ADD MSTORE PUSH2 0x444B DUP2 PUSH2 0x4412 JUMP JUMPDEST SWAP1 POP SWAP2 SWAP1 POP JUMP JUMPDEST PUSH32 0x332D746F6B656E2072756C65732072657175697265205245442C20475245454E PUSH0 DUP3 ADD MSTORE PUSH32 0x2C20616E6420424C554500000000000000000000000000000000000000000000 PUSH1 0x20 DUP3 ADD MSTORE POP JUMP JUMPDEST PUSH0 PUSH2 0x44AC PUSH1 0x2A DUP4 PUSH2 0x38E3 JUMP JUMPDEST SWAP2 POP PUSH2 0x44B7 DUP3 PUSH2 0x4452 JUMP JUMPDEST PUSH1 0x40 DUP3 ADD SWAP1 POP SWAP2 SWAP1 POP JUMP JUMPDEST PUSH0 PUSH1 0x20 DUP3 ADD SWAP1 POP DUP2 DUP2 SUB PUSH0 DUP4 ADD MSTORE PUSH2 0x44D9 DUP2 PUSH2 0x44A0 JUMP JUMPDEST SWAP1 POP SWAP2 SWAP1 POP JUMP JUMPDEST PUSH0 DUP3 DUP3 MSTORE PUSH1 0x20 DUP3 ADD SWAP1 POP SWAP3 SWAP2 POP POP JUMP JUMPDEST PUSH0 DUP2 SWAP1 POP SWAP2 SWAP1 POP JUMP JUMPDEST PUSH2 0x4502 DUP2 PUSH2 0x3079 JUMP JUMPDEST DUP3 MSTORE POP POP JUMP JUMPDEST PUSH0 PUSH2 0x4513 DUP4 DUP4 PUSH2 0x44F9 JUMP JUMPDEST PUSH1 0x20 DUP4 ADD SWAP1 POP SWAP3 SWAP2 POP POP JUMP JUMPDEST PUSH0 PUSH2 0x452D PUSH1 0x20 DUP5 ADD DUP5 PUSH2 0x31D7 JUMP JUMPDEST SWAP1 POP SWAP3 SWAP2 POP POP JUMP JUMPDEST PUSH0 PUSH1 0x20 DUP3 ADD SWAP1 POP SWAP2 SWAP1 POP JUMP JUMPDEST PUSH0 PUSH2 0x454C DUP4 DUP6 PUSH2 0x44E0 JUMP JUMPDEST SWAP4 POP PUSH2 0x4557 DUP3 PUSH2 0x44F0 JUMP JUMPDEST DUP1 PUSH0 JUMPDEST DUP6 DUP2 LT ISZERO PUSH2 0x458F JUMPI PUSH2 0x456C DUP3 DUP5 PUSH2 0x451F JUMP JUMPDEST PUSH2 0x4576 DUP9 DUP3 PUSH2 0x4508 JUMP JUMPDEST SWAP8 POP PUSH2 0x4581 DUP4 PUSH2 0x4535 JUMP JUMPDEST SWAP3 POP POP PUSH1 0x1 DUP2 ADD SWAP1 POP PUSH2 0x455A JUMP JUMPDEST POP DUP6 SWAP3 POP POP POP SWAP4 SWAP3 POP POP POP JUMP JUMPDEST PUSH0 PUSH1 0x60 DUP3 ADD SWAP1 POP PUSH2 0x45AF PUSH0 DUP4 ADD DUP8 PUSH2 0x2FCC JUMP JUMPDEST PUSH2 0x45BC PUSH1 0x20 DUP4 ADD DUP7 PUSH2 0x2FCC JUMP JUMPDEST DUP2 DUP2 SUB PUSH1 0x40 DUP4 ADD MSTORE PUSH2 0x45CF DUP2 DUP5 DUP7 PUSH2 0x4541 JUMP JUMPDEST SWAP1 POP SWAP6 SWAP5 POP POP POP POP POP JUMP JUMPDEST PUSH0 PUSH1 0xA0 DUP3 ADD SWAP1 POP PUSH2 0x45ED PUSH0 DUP4 ADD DUP10 PUSH2 0x2FCC JUMP JUMPDEST PUSH2 0x45FA PUSH1 0x20 DUP4 ADD DUP9 PUSH2 0x2FCC JUMP JUMPDEST DUP2 DUP2 SUB PUSH1 0x40 DUP4 ADD MSTORE PUSH2 0x460D DUP2 DUP7 DUP9 PUSH2 0x4541 JUMP JUMPDEST SWAP1 POP PUSH2 0x461C PUSH1 0x60 DUP4 ADD DUP6 PUSH2 0x308A JUMP JUMPDEST PUSH2 0x4629 PUSH1 0x80 DUP4 ADD DUP5 PUSH2 0x30AC JUMP JUMPDEST SWAP8 SWAP7 POP POP POP POP POP POP POP JUMP JUMPDEST PUSH0 PUSH1 0xA0 DUP3 ADD SWAP1 POP PUSH2 0x4647 PUSH0 DUP4 ADD DUP9 PUSH2 0x308A JUMP JUMPDEST PUSH2 0x4654 PUSH1 0x20 DUP4 ADD DUP8 PUSH2 0x308A JUMP JUMPDEST PUSH2 0x4661 PUSH1 0x40 DUP4 ADD DUP7 PUSH2 0x308A JUMP JUMPDEST PUSH2 0x466E PUSH1 0x60 DUP4 ADD DUP6 PUSH2 0x2FCC JUMP JUMPDEST PUSH2 0x467B PUSH1 0x80 DUP4 ADD DUP5 PUSH2 0x2FCC JUMP JUMPDEST SWAP7 SWAP6 POP POP POP POP POP POP JUMP JUMPDEST PUSH0 PUSH1 0x80 DUP3 ADD SWAP1 POP PUSH2 0x4698 PUSH0 DUP4 ADD DUP8 PUSH2 0x308A JUMP JUMPDEST PUSH2 0x46A5 PUSH1 0x20 DUP4 ADD DUP7 PUSH2 0x308A JUMP JUMPDEST PUSH2 0x46B2 PUSH1 0x40 DUP4 ADD DUP6 PUSH2 0x2FCC JUMP JUMPDEST PUSH2 0x46BF PUSH1 0x60 DUP4 ADD DUP5 PUSH2 0x2FCC JUMP JUMPDEST SWAP6 SWAP5 POP POP POP POP POP JUMP JUMPDEST PUSH32 0x756E737570706F727465642D61646469746976652D7061697200000000000000 PUSH0 DUP3 ADD MSTORE POP JUMP JUMPDEST PUSH0 PUSH2 0x46FC PUSH1 0x19 DUP4 PUSH2 0x38E3 JUMP JUMPDEST SWAP2 POP PUSH2 0x4707 DUP3 PUSH2 0x46C8 JUMP JUMPDEST PUSH1 0x20 DUP3 ADD SWAP1 POP SWAP2 SWAP1 POP JUMP JUMPDEST PUSH0 PUSH1 0x20 DUP3 ADD SWAP1 POP DUP2 DUP2 SUB PUSH0 DUP4 ADD MSTORE PUSH2 0x4729 DUP2 PUSH2 0x46F0 JUMP JUMPDEST SWAP1 POP SWAP2 SWAP1 POP JUMP JUMPDEST PUSH0 PUSH1 0xFF DUP3 AND SWAP1 POP SWAP2 SWAP1 POP JUMP JUMPDEST PUSH0 PUSH2 0x4746 DUP3 PUSH2 0x4730 JUMP JUMPDEST SWAP2 POP PUSH2 0x4751 DUP4 PUSH2 0x4730 JUMP JUMPDEST SWAP3 POP DUP3 DUP3 SUB SWAP1 POP PUSH1 0xFF DUP2 GT ISZERO PUSH2 0x476A JUMPI PUSH2 0x4769 PUSH2 0x3E2F JUMP JUMPDEST JUMPDEST SWAP3 SWAP2 POP POP JUMP INVALID LOG2 PUSH5 0x6970667358 0x22 SLT KECCAK256 0xD5 DUP4 INVALID PUSH20 0xF0286E5DD50145E546129EF78F2D8C2DBFD9C1AE EXTCODESIZE 0xC9 SWAP13 SIGNEXTEND PUSH28 0x5BBAF464736F6C634300081400330000000000000000000000000000 "},"methodIdentifiers":{"BLACK_TOKEN_ADDR()":"b2b8e2a1","BLUE_TOKEN_ADDR()":"9d5d42ca","CYAN_TOKEN_ADDR()":"d59a70dd","D_ENTITY_LIGHT()":"c1b2daf4","D_ENTITY_PAINT()":"34e98c62","D_LIGHT()":"795bb332","D_PAINT()":"74832db5","GREEN_TOKEN_ADDR()":"c984d759","HTS()":"1bc92162","MAGENTA_TOKEN_ADDR()":"a59ee59e","OP_ADD()":"2602c01e","OP_ATTEST()":"695fee64","OP_SUB()":"0548a9e7","PURPLE_TOKEN_ADDR()":"53f1bc1d","RED_TOKEN_ADDR()":"d6dd7673","WHITE_TOKEN_ADDR()":"903ac6d4","YELLOW_TOKEN_ADDR()":"f1385a1a","cachedOutputs(bytes32)":"0ff62e93","debugValidation(address,address,bytes32,bytes32)":"487cd70a","getInputsHash(bytes32)":"35e64e57","getRGB(bytes32,address)":"dfbc9772","inputsHashAdd(address,address,bytes32)":"9ca6d971","inputsHashOf(bytes32)":"b1fbccd2","inputsHashSub(address,address,address,bytes32)":"f5803560","owner()":"8da5cb5b","projections(bytes32,address)":"3e69d025","proofSeen(bytes32)":"a70f0ad7","publishEntity(address,bytes32,string)":"3b958a53","reason(bytes32,uint64,bytes32,string)":"3d7b86de","reasonAdd(address,address,bytes32,(bytes32,bytes32,bytes32,bytes32,string))":"c687cfeb","reasonCheckSub(address,address,address,bytes32,(bytes32,bytes32,bytes32,bytes32,string))":"72775a9b","reasoningSchemaHash()":"ed92df13","registerProjection(bytes32,address,uint24)":"81ac8b6a","rules(bytes32)":"216b8577","seen(bytes32)":"beeb3f34","setRule(bytes32,bytes32,address[],address,uint64)":"dec40116","setSchemaHash(bytes32)":"12fc39c7","setTokenAddresses(address,address,address,address,address,address,address,address,address)":"66692c3a"}}}}}