{"project/contracts/reasoningContract.sol":{"ReasoningContract":{"abi":[{"inputs":[{"internalType":"bytes32","name":"_schemaHash","type":"bytes32"}],"stateMutability":"nonpayable","type":"constructor"},{"anonymous":false,"inputs":[{"indexed":false,"internalType":"bytes32","name":"clientHash","type":"bytes32"},{"indexed":false,"internalType":"bytes32","name":"contractHash","type":"bytes32"},{"indexed":false,"internalType":"bool","name":"matches","type":"bool"}],"name":"DebugInputsHash","type":"event"},{"anonymous":false,"inputs":[{"indexed":false,"internalType":"address","name":"inputA","type":"address"},{"indexed":false,"internalType":"address","name":"inputB","type":"address"},{"indexed":false,"internalType":"address","name":"sortedX","type":"address"},{"indexed":false,"internalType":"address","name":"sortedY","type":"address"},{"indexed":false,"internalType":"address","name":"expectedRed","type":"address"},{"indexed":false,"internalType":"address","name":"expectedGreen","type":"address"},{"indexed":false,"internalType":"bool","name":"matchX","type":"bool"},{"indexed":false,"internalType":"bool","name":"matchY","type":"bool"}],"name":"DebugPair","type":"event"},{"anonymous":false,"inputs":[{"indexed":true,"internalType":"bytes32","name":"ruleId","type":"bytes32"},{"indexed":true,"internalType":"address","name":"caller","type":"address"},{"indexed":false,"internalType":"uint64","name":"inputUnits","type":"uint64"},{"indexed":false,"internalType":"uint64","name":"mintedUnits","type":"uint64"},{"indexed":true,"internalType":"bytes32","name":"proofHash","type":"bytes32"},{"indexed":false,"internalType":"string","name":"canonicalUri","type":"string"}],"name":"ProofAdd","type":"event"},{"anonymous":false,"inputs":[{"indexed":true,"internalType":"bytes32","name":"proofHash","type":"bytes32"},{"indexed":true,"internalType":"bytes32","name":"domain","type":"bytes32"},{"indexed":false,"internalType":"address","name":"A","type":"address"},{"indexed":false,"internalType":"address","name":"B","type":"address"},{"indexed":false,"internalType":"address","name":"C","type":"address"},{"indexed":false,"internalType":"bool","name":"verdict","type":"bool"},{"indexed":false,"internalType":"string","name":"canonicalUri","type":"string"}],"name":"ProofCheck","type":"event"},{"anonymous":false,"inputs":[{"indexed":true,"internalType":"bytes32","name":"manifestHash","type":"bytes32"},{"indexed":true,"internalType":"address","name":"token","type":"address"},{"indexed":false,"internalType":"string","name":"uri","type":"string"},{"indexed":true,"internalType":"address","name":"controller","type":"address"}],"name":"ProofEntity","type":"event"},{"anonymous":false,"inputs":[{"indexed":true,"internalType":"bytes32","name":"proofHash","type":"bytes32"},{"indexed":true,"internalType":"address","name":"caller","type":"address"}],"name":"ProofReplay","type":"event"},{"anonymous":false,"inputs":[{"indexed":true,"internalType":"bytes32","name":"ruleId","type":"bytes32"},{"indexed":false,"internalType":"bytes32","name":"domain","type":"bytes32"},{"indexed":false,"internalType":"bytes32","name":"operator","type":"bytes32"},{"indexed":false,"internalType":"address[]","name":"inputs","type":"address[]"},{"indexed":false,"internalType":"address","name":"outputToken","type":"address"},{"indexed":false,"internalType":"uint64","name":"ratio","type":"uint64"}],"name":"RuleSet","type":"event"},{"anonymous":false,"inputs":[{"indexed":true,"internalType":"address","name":"red","type":"address"},{"indexed":true,"internalType":"address","name":"green","type":"address"},{"indexed":true,"internalType":"address","name":"blue","type":"address"},{"indexed":false,"internalType":"address","name":"yellow","type":"address"},{"indexed":false,"internalType":"address","name":"cyan","type":"address"},{"indexed":false,"internalType":"address","name":"magenta","type":"address"},{"indexed":false,"internalType":"address","name":"white","type":"address"},{"indexed":false,"internalType":"address","name":"black","type":"address"},{"indexed":false,"internalType":"address","name":"purple","type":"address"}],"name":"TokenAddressesUpdated","type":"event"},{"inputs":[],"name":"BLACK_TOKEN_ADDR","outputs":[{"internalType":"address","name":"","type":"address"}],"stateMutability":"view","type":"function"},{"inputs":[],"name":"BLUE_TOKEN_ADDR","outputs":[{"internalType":"address","name":"","type":"address"}],"stateMutability":"view","type":"function"},{"inputs":[],"name":"CYAN_TOKEN_ADDR","outputs":[{"internalType":"address","name":"","type":"address"}],"stateMutability":"view","type":"function"},{"inputs":[],"name":"D_LIGHT","outputs":[{"internalType":"bytes32","name":"","type":"bytes32"}],"stateMutability":"view","type":"function"},{"inputs":[],"name":"D_PAINT","outputs":[{"internalType":"bytes32","name":"","type":"bytes32"}],"stateMutability":"view","type":"function"},{"inputs":[],"name":"GREEN_TOKEN_ADDR","outputs":[{"internalType":"address","name":"","type":"address"}],"stateMutability":"view","type":"function"},{"inputs":[],"name":"HTS","outputs":[{"internalType":"contract IHederaTokenService","name":"","type":"address"}],"stateMutability":"view","type":"function"},{"inputs":[],"name":"MAGENTA_TOKEN_ADDR","outputs":[{"internalType":"address","name":"","type":"address"}],"stateMutability":"view","type":"function"},{"inputs":[],"name":"OP_ADD","outputs":[{"internalType":"bytes32","name":"","type":"bytes32"}],"stateMutability":"view","type":"function"},{"inputs":[],"name":"OP_SUB","outputs":[{"internalType":"bytes32","name":"","type":"bytes32"}],"stateMutability":"view","type":"function"},{"inputs":[],"name":"PURPLE_TOKEN_ADDR","outputs":[{"internalType":"address","name":"","type":"address"}],"stateMutability":"view","type":"function"},{"inputs":[],"name":"RED_TOKEN_ADDR","outputs":[{"internalType":"address","name":"","type":"address"}],"stateMutability":"view","type":"function"},{"inputs":[],"name":"WHITE_TOKEN_ADDR","outputs":[{"internalType":"address","name":"","type":"address"}],"stateMutability":"view","type":"function"},{"inputs":[],"name":"YELLOW_TOKEN_ADDR","outputs":[{"internalType":"address","name":"","type":"address"}],"stateMutability":"view","type":"function"},{"inputs":[{"internalType":"bytes32","name":"","type":"bytes32"}],"name":"cachedOutputs","outputs":[{"internalType":"address","name":"token","type":"address"},{"internalType":"uint64","name":"amount","type":"uint64"}],"stateMutability":"view","type":"function"},{"inputs":[{"internalType":"address","name":"A","type":"address"},{"internalType":"address","name":"B","type":"address"},{"internalType":"bytes32","name":"domainHash","type":"bytes32"},{"internalType":"bytes32","name":"inputsHash","type":"bytes32"}],"name":"debugValidation","outputs":[{"internalType":"bytes32","name":"expectedDomain","type":"bytes32"},{"internalType":"bytes32","name":"expectedInputs","type":"bytes32"},{"internalType":"bool","name":"domainMatch","type":"bool"},{"internalType":"bool","name":"inputMatch","type":"bool"}],"stateMutability":"view","type":"function"},{"inputs":[{"internalType":"bytes32","name":"proofHash","type":"bytes32"}],"name":"getInputsHash","outputs":[{"internalType":"bytes32","name":"","type":"bytes32"}],"stateMutability":"view","type":"function"},{"inputs":[{"internalType":"bytes32","name":"domainHash","type":"bytes32"},{"internalType":"address","name":"token","type":"address"}],"name":"getRGB","outputs":[{"internalType":"uint24","name":"","type":"uint24"}],"stateMutability":"view","type":"function"},{"inputs":[{"internalType":"address","name":"A","type":"address"},{"internalType":"address","name":"B","type":"address"},{"internalType":"bytes32","name":"domainHash","type":"bytes32"}],"name":"inputsHashAdd","outputs":[{"internalType":"bytes32","name":"","type":"bytes32"}],"stateMutability":"pure","type":"function"},{"inputs":[{"internalType":"bytes32","name":"","type":"bytes32"}],"name":"inputsHashOf","outputs":[{"internalType":"bytes32","name":"","type":"bytes32"}],"stateMutability":"view","type":"function"},{"inputs":[{"internalType":"address","name":"A","type":"address"},{"internalType":"address","name":"B","type":"address"},{"internalType":"address","name":"C","type":"address"},{"internalType":"bytes32","name":"domainHash","type":"bytes32"}],"name":"inputsHashSub","outputs":[{"internalType":"bytes32","name":"","type":"bytes32"}],"stateMutability":"pure","type":"function"},{"inputs":[],"name":"owner","outputs":[{"internalType":"address","name":"","type":"address"}],"stateMutability":"view","type":"function"},{"inputs":[{"internalType":"bytes32","name":"","type":"bytes32"},{"internalType":"address","name":"","type":"address"}],"name":"projections","outputs":[{"internalType":"uint24","name":"","type":"uint24"}],"stateMutability":"view","type":"function"},{"inputs":[{"internalType":"bytes32","name":"","type":"bytes32"}],"name":"proofSeen","outputs":[{"internalType":"bool","name":"","type":"bool"}],"stateMutability":"view","type":"function"},{"inputs":[{"internalType":"address","name":"token","type":"address"},{"internalType":"bytes32","name":"manifestHash","type":"bytes32"},{"internalType":"string","name":"uri","type":"string"}],"name":"publishEntity","outputs":[],"stateMutability":"nonpayable","type":"function"},{"inputs":[{"internalType":"bytes32","name":"ruleId","type":"bytes32"},{"internalType":"uint64","name":"inputUnits","type":"uint64"},{"internalType":"bytes32","name":"proofHash","type":"bytes32"},{"internalType":"string","name":"canonicalUri","type":"string"}],"name":"reason","outputs":[{"internalType":"uint64","name":"minted","type":"uint64"}],"stateMutability":"nonpayable","type":"function"},{"inputs":[{"internalType":"address","name":"A","type":"address"},{"internalType":"address","name":"B","type":"address"},{"internalType":"bytes32","name":"domainHash","type":"bytes32"},{"components":[{"internalType":"bytes32","name":"inputsHash","type":"bytes32"},{"internalType":"bytes32","name":"proofHash","type":"bytes32"},{"internalType":"bytes32","name":"factHash","type":"bytes32"},{"internalType":"bytes32","name":"ruleHash","type":"bytes32"},{"internalType":"string","name":"canonicalUri","type":"string"}],"internalType":"struct ReasoningContract.ProofData","name":"p","type":"tuple"}],"name":"reasonAdd","outputs":[{"internalType":"address","name":"outToken","type":"address"},{"internalType":"uint64","name":"amount","type":"uint64"}],"stateMutability":"nonpayable","type":"function"},{"inputs":[{"internalType":"address","name":"A","type":"address"},{"internalType":"address","name":"B","type":"address"},{"internalType":"address","name":"C","type":"address"},{"internalType":"bytes32","name":"domainHash","type":"bytes32"},{"components":[{"internalType":"bytes32","name":"inputsHash","type":"bytes32"},{"internalType":"bytes32","name":"proofHash","type":"bytes32"},{"internalType":"bytes32","name":"factHash","type":"bytes32"},{"internalType":"bytes32","name":"ruleHash","type":"bytes32"},{"internalType":"string","name":"canonicalUri","type":"string"}],"internalType":"struct ReasoningContract.ProofData","name":"p","type":"tuple"}],"name":"reasonCheckSub","outputs":[{"internalType":"bool","name":"verdict","type":"bool"}],"stateMutability":"nonpayable","type":"function"},{"inputs":[],"name":"reasoningSchemaHash","outputs":[{"internalType":"bytes32","name":"","type":"bytes32"}],"stateMutability":"view","type":"function"},{"inputs":[{"internalType":"bytes32","name":"domain","type":"bytes32"},{"internalType":"address","name":"token","type":"address"},{"internalType":"uint24","name":"rgb24","type":"uint24"}],"name":"registerProjection","outputs":[],"stateMutability":"nonpayable","type":"function"},{"inputs":[{"internalType":"bytes32","name":"","type":"bytes32"}],"name":"rules","outputs":[{"internalType":"bytes32","name":"domain","type":"bytes32"},{"internalType":"bytes32","name":"operator","type":"bytes32"},{"internalType":"address","name":"outputToken","type":"address"},{"internalType":"uint64","name":"ratioNumerator","type":"uint64"},{"internalType":"bool","name":"active","type":"bool"}],"stateMutability":"view","type":"function"},{"inputs":[{"internalType":"bytes32","name":"proofHash","type":"bytes32"}],"name":"seen","outputs":[{"internalType":"bool","name":"","type":"bool"}],"stateMutability":"view","type":"function"},{"inputs":[{"internalType":"bytes32","name":"domain","type":"bytes32"},{"internalType":"bytes32","name":"operator","type":"bytes32"},{"internalType":"address[]","name":"inputs","type":"address[]"},{"internalType":"address","name":"outputToken","type":"address"},{"internalType":"uint64","name":"ratioNumerator","type":"uint64"}],"name":"setRule","outputs":[{"internalType":"bytes32","name":"ruleId","type":"bytes32"}],"stateMutability":"nonpayable","type":"function"},{"inputs":[{"internalType":"bytes32","name":"_schemaHash","type":"bytes32"}],"name":"setSchemaHash","outputs":[],"stateMutability":"nonpayable","type":"function"},{"inputs":[{"internalType":"address","name":"_red","type":"address"},{"internalType":"address","name":"_green","type":"address"},{"internalType":"address","name":"_blue","type":"address"},{"internalType":"address","name":"_yellow","type":"address"},{"internalType":"address","name":"_cyan","type":"address"},{"internalType":"address","name":"_magenta","type":"address"},{"internalType":"address","name":"_white","type":"address"},{"internalType":"address","name":"_black","type":"address"},{"internalType":"address","name":"_purple","type":"address"}],"name":"setTokenAddresses","outputs":[],"stateMutability":"nonpayable","type":"function"}],"evm":{"bytecode":{"linkReferences":{},"object":"608060405234801562000010575f80fd5b5060405162004670380380620046708339818101604052810190620000369190620000c0565b3360095f6101000a81548173ffffffffffffffffffffffffffffffffffffffff021916908373ffffffffffffffffffffffffffffffffffffffff16021790555080600a8190555050620000f0565b5f80fd5b5f819050919050565b6200009c8162000088565b8114620000a7575f80fd5b50565b5f81519050620000ba8162000091565b92915050565b5f60208284031215620000d857620000d762000084565b5b5f620000e784828501620000aa565b91505092915050565b61457280620000fe5f395ff3fe608060405234801561000f575f80fd5b506004361061020f575f3560e01c80638da5cb5b11610123578063c687cfeb116100ab578063dec401161161007a578063dec4011614610670578063dfbc9772146106a0578063ed92df13146106d0578063f1385a1a146106ee578063f58035601461070c5761020f565b8063c687cfeb146105e5578063c984d75914610616578063d59a70dd14610634578063d6dd7673146106525761020f565b8063a59ee59e116100f2578063a59ee59e14610519578063a70f0ad714610537578063b1fbccd214610567578063b2b8e2a114610597578063beeb3f34146105b55761020f565b80638da5cb5b1461048f578063903ac6d4146104ad5780639ca6d971146104cb5780639d5d42ca146104fb5761020f565b80633d7b86de116101a657806366692c3a1161017557806366692c3a146103eb57806372775a9b1461040757806374832db514610437578063795bb3321461045557806381ac8b6a146104735761020f565b80633d7b86de1461033a5780633e69d0251461036a578063487cd70a1461039a57806353f1bc1d146103cd5761020f565b8063216b8577116101e2578063216b85771461029c5780632602c01e146102d057806335e64e57146102ee5780633b958a531461031e5761020f565b80630548a9e7146102135780630ff62e931461023157806312fc39c7146102625780631bc921621461027e575b5f80fd5b61021b61073c565b6040516102289190612d67565b60405180910390f35b61024b60048036038101906102469190612dbb565b610760565b604051610259929190612e47565b60405180910390f35b61027c60048036038101906102779190612dbb565b6107b2565b005b61028661084b565b6040516102939190612ec9565b60405180910390f35b6102b660048036038101906102b19190612dbb565b610851565b6040516102c7959493929190612efc565b60405180910390f35b6102d86108c3565b6040516102e59190612d67565b60405180910390f35b61030860048036038101906103039190612dbb565b6108e7565b6040516103159190612d67565b60405180910390f35b61033860048036038101906103339190612fd8565b610901565b005b610354600480360381019061034f9190613073565b61096f565b60405161036191906130f7565b60405180910390f35b610384600480360381019061037f9190613110565b610b99565b604051610391919061316b565b60405180910390f35b6103b460048036038101906103af9190613184565b610bc5565b6040516103c494939291906131e8565b60405180910390f35b6103d5610c2e565b6040516103e2919061322b565b60405180910390f35b61040560048036038101906104009190613244565b610c53565b005b610421600480360381019061041c919061332a565b6111e1565b60405161042e91906133bd565b60405180910390f35b61043f61164c565b60405161044c9190612d67565b60405180910390f35b61045d611670565b60405161046a9190612d67565b60405180910390f35b61048d60048036038101906104889190613400565b611694565b005b610497611790565b6040516104a4919061322b565b60405180910390f35b6104b56117b5565b6040516104c2919061322b565b60405180910390f35b6104e560048036038101906104e09190613450565b6117da565b6040516104f29190612d67565b60405180910390f35b6105036117ef565b604051610510919061322b565b60405180910390f35b610521611814565b60405161052e919061322b565b60405180910390f35b610551600480360381019061054c9190612dbb565b611839565b60405161055e91906133bd565b60405180910390f35b610581600480360381019061057c9190612dbb565b611856565b60405161058e9190612d67565b60405180910390f35b61059f61186b565b6040516105ac919061322b565b60405180910390f35b6105cf60048036038101906105ca9190612dbb565b611890565b6040516105dc91906133bd565b60405180910390f35b6105ff60048036038101906105fa91906134a0565b6118b6565b60405161060d929190612e47565b60405180910390f35b61061e611de6565b60405161062b919061322b565b60405180910390f35b61063c611e0b565b604051610649919061322b565b60405180910390f35b61065a611e30565b604051610667919061322b565b60405180910390f35b61068a60048036038101906106859190613575565b611e53565b6040516106979190612d67565b60405180910390f35b6106ba60048036038101906106b59190613110565b61243c565b6040516106c7919061316b565b60405180910390f35b6106d86124a0565b6040516106e59190612d67565b60405180910390f35b6106f66124a6565b604051610703919061322b565b60405180910390f35b6107266004803603810190610721919061360b565b6124cb565b6040516107339190612d67565b60405180910390f35b7f217ffb743e749e59632e1a39a53634096481cb82ee5f27b44698dcc2c7453f0181565b600f602052805f5260405f205f91509050805f015f9054906101000a900473ffffffffffffffffffffffffffffffffffffffff1690805f0160149054906101000a900467ffffffffffffffff16905082565b60095f9054906101000a900473ffffffffffffffffffffffffffffffffffffffff1673ffffffffffffffffffffffffffffffffffffffff163373ffffffffffffffffffffffffffffffffffffffff1614610841576040517f08c379a0000000000000000000000000000000000000000000000000000000008152600401610838906136c9565b60405180910390fd5b80600a8190555050565b61016781565b600b602052805f5260405f205f91509050805f015490806001015490806003015f9054906101000a900473ffffffffffffffffffffffffffffffffffffffff16908060030160149054906101000a900467ffffffffffffffff169080600301601c9054906101000a900460ff16905085565b7f0892486f2db77feba50b67fd68cccf02ecca6d746664216a0449ecb5ba18f8de81565b5f600e5f8381526020019081526020015f20549050919050565b3373ffffffffffffffffffffffffffffffffffffffff168473ffffffffffffffffffffffffffffffffffffffff16847ffd005e0f9ba958f7c6b1a0fa8518fbab37952f760666c5da196f2c5591e88b7d8585604051610961929190613731565b60405180910390a450505050565b5f80600b5f8881526020019081526020015f20905080600301601c9054906101000a900460ff166109d5576040517f08c379a00000000000000000000000000000000000000000000000000000000081526004016109cc9061379d565b60405180910390fd5b8060030160149054906101000a900467ffffffffffffffff16866109f991906137e8565b91505f61016773ffffffffffffffffffffffffffffffffffffffff1663278e0b88836003015f9054906101000a900473ffffffffffffffffffffffffffffffffffffffff16855f67ffffffffffffffff811115610a5957610a58613824565b5b604051908082528060200260200182016040528015610a8c57816020015b6060815260200190600190039081610a775790505b506040518463ffffffff1660e01b8152600401610aab93929190613986565b5f604051808303815f875af1158015610ac6573d5f803e3d5ffd5b505050506040513d5f823e3d601f19601f82011682018060405250810190610aee9190613b17565b5050905060168160070b14610b38576040517f08c379a0000000000000000000000000000000000000000000000000000000008152600401610b2f90613bcd565b60405180910390fd5b853373ffffffffffffffffffffffffffffffffffffffff16897f6153f55c528edcec957d2fa67d63cb136dee382001a3487ccf80d636a17bae848a878a8a604051610b869493929190613beb565b60405180910390a4505095945050505050565b600c602052815f5260405f20602052805f5260405f205f915091509054906101000a900462ffffff1681565b5f805f807f72f7ddc62c67e3943091f9c7b899298a6c6b0287758c513c5036eda57075e6e39350610bf7888888612525565b92507f72f7ddc62c67e3943091f9c7b899298a6c6b0287758c513c5036eda57075e6e3861491508285149050945094509450949050565b60085f9054906101000a900473ffffffffffffffffffffffffffffffffffffffff1681565b60095f9054906101000a900473ffffffffffffffffffffffffffffffffffffffff1673ffffffffffffffffffffffffffffffffffffffff163373ffffffffffffffffffffffffffffffffffffffff1614610ce2576040517f08c379a0000000000000000000000000000000000000000000000000000000008152600401610cd9906136c9565b60405180910390fd5b5f73ffffffffffffffffffffffffffffffffffffffff168973ffffffffffffffffffffffffffffffffffffffff1614158015610d4a57505f73ffffffffffffffffffffffffffffffffffffffff168873ffffffffffffffffffffffffffffffffffffffff1614155b8015610d8257505f73ffffffffffffffffffffffffffffffffffffffff168773ffffffffffffffffffffffffffffffffffffffff1614155b8015610dba57505f73ffffffffffffffffffffffffffffffffffffffff168673ffffffffffffffffffffffffffffffffffffffff1614155b8015610df257505f73ffffffffffffffffffffffffffffffffffffffff168573ffffffffffffffffffffffffffffffffffffffff1614155b8015610e2a57505f73ffffffffffffffffffffffffffffffffffffffff168473ffffffffffffffffffffffffffffffffffffffff1614155b8015610e6257505f73ffffffffffffffffffffffffffffffffffffffff168373ffffffffffffffffffffffffffffffffffffffff1614155b8015610e9a57505f73ffffffffffffffffffffffffffffffffffffffff168273ffffffffffffffffffffffffffffffffffffffff1614155b8015610ed257505f73ffffffffffffffffffffffffffffffffffffffff168173ffffffffffffffffffffffffffffffffffffffff1614155b610f11576040517f08c379a0000000000000000000000000000000000000000000000000000000008152600401610f0890613c73565b60405180910390fd5b885f806101000a81548173ffffffffffffffffffffffffffffffffffffffff021916908373ffffffffffffffffffffffffffffffffffffffff1602179055508760015f6101000a81548173ffffffffffffffffffffffffffffffffffffffff021916908373ffffffffffffffffffffffffffffffffffffffff1602179055508660025f6101000a81548173ffffffffffffffffffffffffffffffffffffffff021916908373ffffffffffffffffffffffffffffffffffffffff1602179055508560035f6101000a81548173ffffffffffffffffffffffffffffffffffffffff021916908373ffffffffffffffffffffffffffffffffffffffff1602179055508460045f6101000a81548173ffffffffffffffffffffffffffffffffffffffff021916908373ffffffffffffffffffffffffffffffffffffffff1602179055508360055f6101000a81548173ffffffffffffffffffffffffffffffffffffffff021916908373ffffffffffffffffffffffffffffffffffffffff1602179055508260065f6101000a81548173ffffffffffffffffffffffffffffffffffffffff021916908373ffffffffffffffffffffffffffffffffffffffff1602179055508160075f6101000a81548173ffffffffffffffffffffffffffffffffffffffff021916908373ffffffffffffffffffffffffffffffffffffffff1602179055508060085f6101000a81548173ffffffffffffffffffffffffffffffffffffffff021916908373ffffffffffffffffffffffffffffffffffffffff1602179055508673ffffffffffffffffffffffffffffffffffffffff168873ffffffffffffffffffffffffffffffffffffffff168a73ffffffffffffffffffffffffffffffffffffffff167f08f38f72d705d71b37b305aae9270050f10c5e566ef6c0aba8c3fb04a84f35d58989898989896040516111ce96959493929190613c91565b60405180910390a4505050505050505050565b5f6111ee868686866124cb565b825f013514611232576040517f08c379a000000000000000000000000000000000000000000000000000000000815260040161122990613d3a565b60405180910390fd5b600d5f836020013581526020019081526020015f205f9054906101000a900460ff16156112a2573373ffffffffffffffffffffffffffffffffffffffff1682602001357f3cd6d293d93fffb5c4505ed423476e083cfe17c7e58820e30be3efea7283221a60405160405180910390a35b5f600c5f8581526020019081526020015f205f8873ffffffffffffffffffffffffffffffffffffffff1673ffffffffffffffffffffffffffffffffffffffff1681526020019081526020015f205f9054906101000a900462ffffff1690505f8162ffffff16148061137157505f600c5f8681526020019081526020015f205f8873ffffffffffffffffffffffffffffffffffffffff1673ffffffffffffffffffffffffffffffffffffffff1681526020019081526020015f205f9054906101000a900462ffffff1662ffffff16145b806113da57505f600c5f8681526020019081526020015f205f8773ffffffffffffffffffffffffffffffffffffffff1673ffffffffffffffffffffffffffffffffffffffff1681526020019081526020015f205f9054906101000a900462ffffff1662ffffff16145b156114ae57600d5f846020013581526020019081526020015f205f9054906101000a900460ff166114a5576001600d5f856020013581526020019081526020015f205f6101000a81548160ff021916908315150217905550825f0135600e5f856020013581526020019081526020015f20819055508383602001357f573ea6c6d729cb63f2227625589b742119e9a3e33c15db35de47409a861f00e38989895f89806080019061148a9190613d64565b60405161149c96959493929190613dc6565b60405180910390a35b5f915050611643565b600c5f8581526020019081526020015f205f8673ffffffffffffffffffffffffffffffffffffffff1673ffffffffffffffffffffffffffffffffffffffff1681526020019081526020015f205f9054906101000a900462ffffff1662ffffff1661157382600c5f8881526020019081526020015f205f8a73ffffffffffffffffffffffffffffffffffffffff1673ffffffffffffffffffffffffffffffffffffffff1681526020019081526020015f205f9054906101000a900462ffffff16876125c1565b62ffffff16149150600d5f846020013581526020019081526020015f205f9054906101000a900460ff16611641576001600d5f856020013581526020019081526020015f205f6101000a81548160ff021916908315150217905550825f0135600e5f856020013581526020019081526020015f20819055508383602001357f573ea6c6d729cb63f2227625589b742119e9a3e33c15db35de47409a861f00e3898989878980608001906116269190613d64565b60405161163896959493929190613dc6565b60405180910390a35b505b95945050505050565b7f5c121ee8b573e4e6586bcafec852bd980b83ea2aa4a37f9fccb6fa546927c42b81565b7f72f7ddc62c67e3943091f9c7b899298a6c6b0287758c513c5036eda57075e6e381565b60095f9054906101000a900473ffffffffffffffffffffffffffffffffffffffff1673ffffffffffffffffffffffffffffffffffffffff163373ffffffffffffffffffffffffffffffffffffffff1614611723576040517f08c379a000000000000000000000000000000000000000000000000000000000815260040161171a906136c9565b60405180910390fd5b80600c5f8581526020019081526020015f205f8473ffffffffffffffffffffffffffffffffffffffff1673ffffffffffffffffffffffffffffffffffffffff1681526020019081526020015f205f6101000a81548162ffffff021916908362ffffff160217905550505050565b60095f9054906101000a900473ffffffffffffffffffffffffffffffffffffffff1681565b60065f9054906101000a900473ffffffffffffffffffffffffffffffffffffffff1681565b5f6117e6848484612525565b90509392505050565b60025f9054906101000a900473ffffffffffffffffffffffffffffffffffffffff1681565b60055f9054906101000a900473ffffffffffffffffffffffffffffffffffffffff1681565b600d602052805f5260405f205f915054906101000a900460ff1681565b600e602052805f5260405f205f915090505481565b60075f9054906101000a900473ffffffffffffffffffffffffffffffffffffffff1681565b5f600d5f8381526020019081526020015f205f9054906101000a900460ff169050919050565b5f807fbbfa335032189cb97be17f01fa1cd9c18587be58cb71231405d2ea8f0e38fc42847f72f7ddc62c67e3943091f9c7b899298a6c6b0287758c513c5036eda57075e6e380871460405161190d93929190613e20565b60405180910390a17f72f7ddc62c67e3943091f9c7b899298a6c6b0287758c513c5036eda57075e6e38414611977576040517f08c379a000000000000000000000000000000000000000000000000000000000815260040161196e90613e9f565b60405180910390fd5b5f611983878787612525565b90507fbbfa335032189cb97be17f01fa1cd9c18587be58cb71231405d2ea8f0e38fc42845f01358283875f0135146040516119c093929190613e20565b60405180910390a180845f013514611a0d576040517f08c379a0000000000000000000000000000000000000000000000000000000008152600401611a0490613d3a565b60405180910390fd5b600d5f856020013581526020019081526020015f205f9054906101000a900460ff1615611b38573373ffffffffffffffffffffffffffffffffffffffff1684602001357f3cd6d293d93fffb5c4505ed423476e083cfe17c7e58820e30be3efea7283221a60405160405180910390a35f600f5f866020013581526020019081526020015f206040518060400160405290815f82015f9054906101000a900473ffffffffffffffffffffffffffffffffffffffff1673ffffffffffffffffffffffffffffffffffffffff1673ffffffffffffffffffffffffffffffffffffffff1681526020015f820160149054906101000a900467ffffffffffffffff1667ffffffffffffffff1667ffffffffffffffff16815250509050805f01518160200151935093505050611ddd565b611b42878761263d565b80935081945050505f61016773ffffffffffffffffffffffffffffffffffffffff1663278e0b8885855f67ffffffffffffffff811115611b8557611b84613824565b5b604051908082528060200260200182016040528015611bb857816020015b6060815260200190600190039081611ba35790505b506040518463ffffffff1660e01b8152600401611bd793929190613986565b5f604051808303815f875af1158015611bf2573d5f803e3d5ffd5b505050506040513d5f823e3d601f19601f82011682018060405250810190611c1a9190613b17565b5050905060168160070b14611c64576040517f08c379a0000000000000000000000000000000000000000000000000000000008152600401611c5b90613bcd565b60405180910390fd5b6001600d5f876020013581526020019081526020015f205f6101000a81548160ff021916908315150217905550845f0135600e5f876020013581526020019081526020015f208190555060405180604001604052808573ffffffffffffffffffffffffffffffffffffffff1681526020018467ffffffffffffffff16815250600f5f876020013581526020019081526020015f205f820151815f015f6101000a81548173ffffffffffffffffffffffffffffffffffffffff021916908373ffffffffffffffffffffffffffffffffffffffff1602179055506020820151815f0160146101000a81548167ffffffffffffffff021916908367ffffffffffffffff16021790555090505084602001353373ffffffffffffffffffffffffffffffffffffffff1686602001357f6153f55c528edcec957d2fa67d63cb136dee382001a3487ccf80d636a17bae846001878a8060800190611dc29190613d64565b604051611dd29493929190613ef6565b60405180910390a450505b94509492505050565b60015f9054906101000a900473ffffffffffffffffffffffffffffffffffffffff1681565b60045f9054906101000a900473ffffffffffffffffffffffffffffffffffffffff1681565b5f8054906101000a900473ffffffffffffffffffffffffffffffffffffffff1681565b5f60095f9054906101000a900473ffffffffffffffffffffffffffffffffffffffff1673ffffffffffffffffffffffffffffffffffffffff163373ffffffffffffffffffffffffffffffffffffffff1614611ee3576040517f08c379a0000000000000000000000000000000000000000000000000000000008152600401611eda906136c9565b60405180910390fd5b60018585905010158015611efb575060048585905011155b611f3a576040517f08c379a0000000000000000000000000000000000000000000000000000000008152600401611f3190613f7e565b60405180910390fd5b5f73ffffffffffffffffffffffffffffffffffffffff168373ffffffffffffffffffffffffffffffffffffffff1603611fa8576040517f08c379a0000000000000000000000000000000000000000000000000000000008152600401611f9f90613fe6565b60405180910390fd5b6002858590501480611fbd5750600385859050145b611ffc576040517f08c379a0000000000000000000000000000000000000000000000000000000008152600401611ff39061404e565b60405180910390fd5b5f805f805b8888905081101561219d575f8054906101000a900473ffffffffffffffffffffffffffffffffffffffff1673ffffffffffffffffffffffffffffffffffffffff168989838181106120555761205461406c565b5b905060200201602081019061206a9190614099565b73ffffffffffffffffffffffffffffffffffffffff160361208a57600193505b60015f9054906101000a900473ffffffffffffffffffffffffffffffffffffffff1673ffffffffffffffffffffffffffffffffffffffff168989838181106120d5576120d461406c565b5b90506020020160208101906120ea9190614099565b73ffffffffffffffffffffffffffffffffffffffff160361210a57600192505b60025f9054906101000a900473ffffffffffffffffffffffffffffffffffffffff1673ffffffffffffffffffffffffffffffffffffffff168989838181106121555761215461406c565b5b905060200201602081019061216a9190614099565b73ffffffffffffffffffffffffffffffffffffffff160361218a57600191505b8080612195906140cd565b915050612001565b50600288889050036121f7578280156121b35750805b6121f2576040517f08c379a00000000000000000000000000000000000000000000000000000000081526004016121e990614184565b60405180910390fd5b612256565b600388889050036122555782801561220c5750815b80156122155750805b612254576040517f08c379a000000000000000000000000000000000000000000000000000000000815260040161224b90614212565b60405180910390fd5b5b5b8989898960405160200161226d94939291906142ec565b6040516020818303038152906040528051906020012093506040518060c001604052808b81526020018a81526020018989808060200260200160405190810160405280939291908181526020018383602002808284375f81840152601f19601f8201169050808301925050505050505081526020018773ffffffffffffffffffffffffffffffffffffffff1681526020018667ffffffffffffffff16815260200160011515815250600b5f8681526020019081526020015f205f820151815f0155602082015181600101556040820151816002019080519060200190612354929190612cad565b506060820151816003015f6101000a81548173ffffffffffffffffffffffffffffffffffffffff021916908373ffffffffffffffffffffffffffffffffffffffff16021790555060808201518160030160146101000a81548167ffffffffffffffff021916908367ffffffffffffffff16021790555060a082015181600301601c6101000a81548160ff021916908315150217905550905050837fad9207819dd7abb936f2b1637265bf626978af91d6f25a44322fb43fe34aadfb8b8b8b8b8b8b6040516124279695949392919061432a565b60405180910390a25050509695505050505050565b5f600c5f8481526020019081526020015f205f8373ffffffffffffffffffffffffffffffffffffffff1673ffffffffffffffffffffffffffffffffffffffff1681526020019081526020015f205f9054906101000a900462ffffff16905092915050565b600a5481565b60035f9054906101000a900473ffffffffffffffffffffffffffffffffffffffff1681565b5f848484847f217ffb743e749e59632e1a39a53634096481cb82ee5f27b44698dcc2c7453f01604051602001612505959493929190614384565b604051602081830303815290604052805190602001209050949350505050565b5f805f8473ffffffffffffffffffffffffffffffffffffffff168673ffffffffffffffffffffffffffffffffffffffff1610612562578486612565565b85855b915091508181857f0892486f2db77feba50b67fd68cccf02ecca6d746664216a0449ecb5ba18f8de6040516020016125a094939291906143d5565b60405160208183030381529060405280519060200120925050509392505050565b5f7f72f7ddc62c67e3943091f9c7b899298a6c6b0287758c513c5036eda57075e6e382036125fa576125f38484612a75565b9050612636565b7f5c121ee8b573e4e6586bcafec852bd980b83ea2aa4a37f9fccb6fa546927c42b82036126325761262b8484612b4c565b9050612636565b5f90505b9392505050565b5f805f808473ffffffffffffffffffffffffffffffffffffffff168673ffffffffffffffffffffffffffffffffffffffff161061267b57848661267e565b85855b915091507fdc97fa766ef264a9032a03da1e1f626c0cbed281c516d13e20e855bc020e1e2c868684845f8054906101000a900473ffffffffffffffffffffffffffffffffffffffff1660015f9054906101000a900473ffffffffffffffffffffffffffffffffffffffff165f8054906101000a900473ffffffffffffffffffffffffffffffffffffffff1673ffffffffffffffffffffffffffffffffffffffff168973ffffffffffffffffffffffffffffffffffffffff161460015f9054906101000a900473ffffffffffffffffffffffffffffffffffffffff1673ffffffffffffffffffffffffffffffffffffffff168973ffffffffffffffffffffffffffffffffffffffff161460405161279b989796959493929190614418565b60405180910390a15f8054906101000a900473ffffffffffffffffffffffffffffffffffffffff1673ffffffffffffffffffffffffffffffffffffffff168273ffffffffffffffffffffffffffffffffffffffff16148015612849575060015f9054906101000a900473ffffffffffffffffffffffffffffffffffffffff1673ffffffffffffffffffffffffffffffffffffffff168173ffffffffffffffffffffffffffffffffffffffff16145b1561287d5760035f9054906101000a900473ffffffffffffffffffffffffffffffffffffffff166001935093505050612a6e565b60015f9054906101000a900473ffffffffffffffffffffffffffffffffffffffff1673ffffffffffffffffffffffffffffffffffffffff168273ffffffffffffffffffffffffffffffffffffffff16148015612925575060025f9054906101000a900473ffffffffffffffffffffffffffffffffffffffff1673ffffffffffffffffffffffffffffffffffffffff168173ffffffffffffffffffffffffffffffffffffffff16145b156129595760045f9054906101000a900473ffffffffffffffffffffffffffffffffffffffff166001935093505050612a6e565b5f8054906101000a900473ffffffffffffffffffffffffffffffffffffffff1673ffffffffffffffffffffffffffffffffffffffff168273ffffffffffffffffffffffffffffffffffffffff161480156129ff575060025f9054906101000a900473ffffffffffffffffffffffffffffffffffffffff1673ffffffffffffffffffffffffffffffffffffffff168173ffffffffffffffffffffffffffffffffffffffff16145b15612a335760055f9054906101000a900473ffffffffffffffffffffffffffffffffffffffff166001935093505050612a6e565b6040517f08c379a0000000000000000000000000000000000000000000000000000000008152600401612a65906144de565b60405180910390fd5b9250929050565b5f8060108462ffffff16901c90505f60088562ffffff16901c90505f8590505f60108662ffffff16901c90505f60088762ffffff16901c90505f8790505f8360ff168760ff1611612ac6575f612ad3565b8387612ad29190614508565b5b90505f8360ff168760ff1611612ae9575f612af6565b8387612af59190614508565b5b90505f8360ff168760ff1611612b0c575f612b19565b8387612b189190614508565b5b90508060ff1660088360ff1662ffffff16901b60108560ff1662ffffff16901b1717995050505050505050505092915050565b5f8060108462ffffff16901c90505f60088562ffffff16901c90505f8590505f60108662ffffff16901c90505f60088762ffffff16901c90505f8790505f8660ff612b979190614508565b90505f8660ff612ba79190614508565b90505f8660ff612bb79190614508565b90505f8660ff612bc79190614508565b90505f8660ff612bd79190614508565b90505f8660ff612be79190614508565b90505f8360ff168760ff1611612bfd575f612c0a565b8387612c099190614508565b5b90505f8360ff168760ff1611612c20575f612c2d565b8387612c2c9190614508565b5b90505f8360ff168760ff1611612c43575f612c50565b8387612c4f9190614508565b5b90508060ff612c5f9190614508565b60ff1660088360ff612c719190614508565b60ff1662ffffff16901b60108560ff612c8a9190614508565b60ff1662ffffff16901b17179f5050505050505050505050505050505092915050565b828054828255905f5260205f20908101928215612d23579160200282015b82811115612d22578251825f6101000a81548173ffffffffffffffffffffffffffffffffffffffff021916908373ffffffffffffffffffffffffffffffffffffffff16021790555091602001919060010190612ccb565b5b509050612d309190612d34565b5090565b5b80821115612d4b575f815f905550600101612d35565b5090565b5f819050919050565b612d6181612d4f565b82525050565b5f602082019050612d7a5f830184612d58565b92915050565b5f604051905090565b5f80fd5b5f80fd5b612d9a81612d4f565b8114612da4575f80fd5b50565b5f81359050612db581612d91565b92915050565b5f60208284031215612dd057612dcf612d89565b5b5f612ddd84828501612da7565b91505092915050565b5f73ffffffffffffffffffffffffffffffffffffffff82169050919050565b5f612e0f82612de6565b9050919050565b612e1f81612e05565b82525050565b5f67ffffffffffffffff82169050919050565b612e4181612e25565b82525050565b5f604082019050612e5a5f830185612e16565b612e676020830184612e38565b9392505050565b5f819050919050565b5f612e91612e8c612e8784612de6565b612e6e565b612de6565b9050919050565b5f612ea282612e77565b9050919050565b5f612eb382612e98565b9050919050565b612ec381612ea9565b82525050565b5f602082019050612edc5f830184612eba565b92915050565b5f8115159050919050565b612ef681612ee2565b82525050565b5f60a082019050612f0f5f830188612d58565b612f1c6020830187612d58565b612f296040830186612e16565b612f366060830185612e38565b612f436080830184612eed565b9695505050505050565b612f5681612e05565b8114612f60575f80fd5b50565b5f81359050612f7181612f4d565b92915050565b5f80fd5b5f80fd5b5f80fd5b5f8083601f840112612f9857612f97612f77565b5b8235905067ffffffffffffffff811115612fb557612fb4612f7b565b5b602083019150836001820283011115612fd157612fd0612f7f565b5b9250929050565b5f805f8060608587031215612ff057612fef612d89565b5b5f612ffd87828801612f63565b945050602061300e87828801612da7565b935050604085013567ffffffffffffffff81111561302f5761302e612d8d565b5b61303b87828801612f83565b925092505092959194509250565b61305281612e25565b811461305c575f80fd5b50565b5f8135905061306d81613049565b92915050565b5f805f805f6080868803121561308c5761308b612d89565b5b5f61309988828901612da7565b95505060206130aa8882890161305f565b94505060406130bb88828901612da7565b935050606086013567ffffffffffffffff8111156130dc576130db612d8d565b5b6130e888828901612f83565b92509250509295509295909350565b5f60208201905061310a5f830184612e38565b92915050565b5f806040838503121561312657613125612d89565b5b5f61313385828601612da7565b925050602061314485828601612f63565b9150509250929050565b5f62ffffff82169050919050565b6131658161314e565b82525050565b5f60208201905061317e5f83018461315c565b92915050565b5f805f806080858703121561319c5761319b612d89565b5b5f6131a987828801612f63565b94505060206131ba87828801612f63565b93505060406131cb87828801612da7565b92505060606131dc87828801612da7565b91505092959194509250565b5f6080820190506131fb5f830187612d58565b6132086020830186612d58565b6132156040830185612eed565b6132226060830184612eed565b95945050505050565b5f60208201905061323e5f830184612e16565b92915050565b5f805f805f805f805f6101208a8c03121561326257613261612d89565b5b5f61326f8c828d01612f63565b99505060206132808c828d01612f63565b98505060406132918c828d01612f63565b97505060606132a28c828d01612f63565b96505060806132b38c828d01612f63565b95505060a06132c48c828d01612f63565b94505060c06132d58c828d01612f63565b93505060e06132e68c828d01612f63565b9250506101006132f88c828d01612f63565b9150509295985092959850929598565b5f80fd5b5f60a0828403121561332157613320613308565b5b81905092915050565b5f805f805f60a0868803121561334357613342612d89565b5b5f61335088828901612f63565b955050602061336188828901612f63565b945050604061337288828901612f63565b935050606061338388828901612da7565b925050608086013567ffffffffffffffff8111156133a4576133a3612d8d565b5b6133b08882890161330c565b9150509295509295909350565b5f6020820190506133d05f830184612eed565b92915050565b6133df8161314e565b81146133e9575f80fd5b50565b5f813590506133fa816133d6565b92915050565b5f805f6060848603121561341757613416612d89565b5b5f61342486828701612da7565b935050602061343586828701612f63565b9250506040613446868287016133ec565b9150509250925092565b5f805f6060848603121561346757613466612d89565b5b5f61347486828701612f63565b935050602061348586828701612f63565b925050604061349686828701612da7565b9150509250925092565b5f805f80608085870312156134b8576134b7612d89565b5b5f6134c587828801612f63565b94505060206134d687828801612f63565b93505060406134e787828801612da7565b925050606085013567ffffffffffffffff81111561350857613507612d8d565b5b6135148782880161330c565b91505092959194509250565b5f8083601f84011261353557613534612f77565b5b8235905067ffffffffffffffff81111561355257613551612f7b565b5b60208301915083602082028301111561356e5761356d612f7f565b5b9250929050565b5f805f805f8060a0878903121561358f5761358e612d89565b5b5f61359c89828a01612da7565b96505060206135ad89828a01612da7565b955050604087013567ffffffffffffffff8111156135ce576135cd612d8d565b5b6135da89828a01613520565b945094505060606135ed89828a01612f63565b92505060806135fe89828a0161305f565b9150509295509295509295565b5f805f806080858703121561362357613622612d89565b5b5f61363087828801612f63565b945050602061364187828801612f63565b935050604061365287828801612f63565b925050606061366387828801612da7565b91505092959194509250565b5f82825260208201905092915050565b7f6e6f74206f776e657200000000000000000000000000000000000000000000005f82015250565b5f6136b360098361366f565b91506136be8261367f565b602082019050919050565b5f6020820190508181035f8301526136e0816136a7565b9050919050565b828183375f83830152505050565b5f601f19601f8301169050919050565b5f613710838561366f565b935061371d8385846136e7565b613726836136f5565b840190509392505050565b5f6020820190508181035f83015261374a818486613705565b90509392505050565b7f72756c65206f66660000000000000000000000000000000000000000000000005f82015250565b5f61378760088361366f565b915061379282613753565b602082019050919050565b5f6020820190508181035f8301526137b48161377b565b9050919050565b7f4e487b71000000000000000000000000000000000000000000000000000000005f52601160045260245ffd5b5f6137f282612e25565b91506137fd83612e25565b925082820261380b81612e25565b915080821461381d5761381c6137bb565b5b5092915050565b7f4e487b71000000000000000000000000000000000000000000000000000000005f52604160045260245ffd5b5f81519050919050565b5f82825260208201905092915050565b5f819050602082019050919050565b5f81519050919050565b5f82825260208201905092915050565b5f5b838110156138b1578082015181840152602081019050613896565b5f8484015250505050565b5f6138c68261387a565b6138d08185613884565b93506138e0818560208601613894565b6138e9816136f5565b840191505092915050565b5f6138ff83836138bc565b905092915050565b5f602082019050919050565b5f61391d82613851565b613927818561385b565b9350836020820285016139398561386b565b805f5b85811015613974578484038952815161395585826138f4565b945061396083613907565b925060208a0199505060018101905061393c565b50829750879550505050505092915050565b5f6060820190506139995f830186612e16565b6139a66020830185612e38565b81810360408301526139b88184613913565b9050949350505050565b5f8160070b9050919050565b6139d7816139c2565b81146139e1575f80fd5b50565b5f815190506139f2816139ce565b92915050565b5f81519050613a0681613049565b92915050565b613a15826136f5565b810181811067ffffffffffffffff82111715613a3457613a33613824565b5b80604052505050565b5f613a46612d80565b9050613a528282613a0c565b919050565b5f67ffffffffffffffff821115613a7157613a70613824565b5b602082029050602081019050919050565b5f613a94613a8f84613a57565b613a3d565b90508083825260208201905060208402830185811115613ab757613ab6612f7f565b5b835b81811015613ae05780613acc88826139e4565b845260208401935050602081019050613ab9565b5050509392505050565b5f82601f830112613afe57613afd612f77565b5b8151613b0e848260208601613a82565b91505092915050565b5f805f60608486031215613b2e57613b2d612d89565b5b5f613b3b868287016139e4565b9350506020613b4c868287016139f8565b925050604084015167ffffffffffffffff811115613b6d57613b6c612d8d565b5b613b7986828701613aea565b9150509250925092565b7f6d696e74206661696c00000000000000000000000000000000000000000000005f82015250565b5f613bb760098361366f565b9150613bc282613b83565b602082019050919050565b5f6020820190508181035f830152613be481613bab565b9050919050565b5f606082019050613bfe5f830187612e38565b613c0b6020830186612e38565b8181036040830152613c1e818486613705565b905095945050505050565b7f7a65726f206164647200000000000000000000000000000000000000000000005f82015250565b5f613c5d60098361366f565b9150613c6882613c29565b602082019050919050565b5f6020820190508181035f830152613c8a81613c51565b9050919050565b5f60c082019050613ca45f830189612e16565b613cb16020830188612e16565b613cbe6040830187612e16565b613ccb6060830186612e16565b613cd86080830185612e16565b613ce560a0830184612e16565b979650505050505050565b7f696e70757473486173682d6d69736d61746368000000000000000000000000005f82015250565b5f613d2460138361366f565b9150613d2f82613cf0565b602082019050919050565b5f6020820190508181035f830152613d5181613d18565b9050919050565b5f80fd5b5f80fd5b5f80fd5b5f8083356001602003843603038112613d8057613d7f613d58565b5b80840192508235915067ffffffffffffffff821115613da257613da1613d5c565b5b602083019250600182023603831315613dbe57613dbd613d60565b5b509250929050565b5f60a082019050613dd95f830189612e16565b613de66020830188612e16565b613df36040830187612e16565b613e006060830186612eed565b8181036080830152613e13818486613705565b9050979650505050505050565b5f606082019050613e335f830186612d58565b613e406020830185612d58565b613e4d6040830184612eed565b949350505050565b7f646f6d61696e206d75737420626520445f4c49474854000000000000000000005f82015250565b5f613e8960168361366f565b9150613e9482613e55565b602082019050919050565b5f6020820190508181035f830152613eb681613e7d565b9050919050565b5f819050919050565b5f613ee0613edb613ed684613ebd565b612e6e565b612e25565b9050919050565b613ef081613ec6565b82525050565b5f606082019050613f095f830187613ee7565b613f166020830186612e38565b8181036040830152613f29818486613705565b905095945050505050565b7f62616420617269747900000000000000000000000000000000000000000000005f82015250565b5f613f6860098361366f565b9150613f7382613f34565b602082019050919050565b5f6020820190508181035f830152613f9581613f5c565b9050919050565b7f6e6f206f757470757400000000000000000000000000000000000000000000005f82015250565b5f613fd060098361366f565b9150613fdb82613f9c565b602082019050919050565b5f6020820190508181035f830152613ffd81613fc4565b9050919050565b7f6d7573742070726f766964652032206f72203320696e707574730000000000005f82015250565b5f614038601a8361366f565b915061404382614004565b602082019050919050565b5f6020820190508181035f8301526140658161402c565b9050919050565b7f4e487b71000000000000000000000000000000000000000000000000000000005f52603260045260245ffd5b5f602082840312156140ae576140ad612d89565b5b5f6140bb84828501612f63565b91505092915050565b5f819050919050565b5f6140d7826140c4565b91507fffffffffffffffffffffffffffffffffffffffffffffffffffffffffffffffff8203614109576141086137bb565b5b600182019050919050565b7f322d746f6b656e2072756c657320726571756972652052454420616e6420424c5f8201527f5545000000000000000000000000000000000000000000000000000000000000602082015250565b5f61416e60228361366f565b915061417982614114565b604082019050919050565b5f6020820190508181035f83015261419b81614162565b9050919050565b7f332d746f6b656e2072756c65732072657175697265205245442c20475245454e5f8201527f2c20616e6420424c554500000000000000000000000000000000000000000000602082015250565b5f6141fc602a8361366f565b9150614207826141a2565b604082019050919050565b5f6020820190508181035f830152614229816141f0565b9050919050565b5f82825260208201905092915050565b5f819050919050565b61425281612e05565b82525050565b5f6142638383614249565b60208301905092915050565b5f61427d6020840184612f63565b905092915050565b5f602082019050919050565b5f61429c8385614230565b93506142a782614240565b805f5b858110156142df576142bc828461426f565b6142c68882614258565b97506142d183614285565b9250506001810190506142aa565b5085925050509392505050565b5f6060820190506142ff5f830187612d58565b61430c6020830186612d58565b818103604083015261431f818486614291565b905095945050505050565b5f60a08201905061433d5f830189612d58565b61434a6020830188612d58565b818103604083015261435d818688614291565b905061436c6060830185612e16565b6143796080830184612e38565b979650505050505050565b5f60a0820190506143975f830188612e16565b6143a46020830187612e16565b6143b16040830186612e16565b6143be6060830185612d58565b6143cb6080830184612d58565b9695505050505050565b5f6080820190506143e85f830187612e16565b6143f56020830186612e16565b6144026040830185612d58565b61440f6060830184612d58565b95945050505050565b5f6101008201905061442c5f83018b612e16565b614439602083018a612e16565b6144466040830189612e16565b6144536060830188612e16565b6144606080830187612e16565b61446d60a0830186612e16565b61447a60c0830185612eed565b61448760e0830184612eed565b9998505050505050505050565b7f756e737570706f727465642d61646469746976652d70616972000000000000005f82015250565b5f6144c860198361366f565b91506144d382614494565b602082019050919050565b5f6020820190508181035f8301526144f5816144bc565b9050919050565b5f60ff82169050919050565b5f614512826144fc565b915061451d836144fc565b9250828203905060ff811115614536576145356137bb565b5b9291505056fea2646970667358221220785528d7a56ab7936413a1a4a50ec95d922d1c4e470669c4ed58c8857cdc3aec64736f6c63430008140033","opcodes":"PUSH1 0x80 PUSH1 0x40 MSTORE CALLVALUE DUP1 ISZERO PUSH3 0x10 JUMPI PUSH0 DUP1 REVERT JUMPDEST POP PUSH1 0x40 MLOAD PUSH3 0x4670 CODESIZE SUB DUP1 PUSH3 0x4670 DUP4 CODECOPY DUP2 DUP2 ADD PUSH1 0x40 MSTORE DUP2 ADD SWAP1 PUSH3 0x36 SWAP2 SWAP1 PUSH3 0xC0 JUMP JUMPDEST CALLER PUSH1 0x9 PUSH0 PUSH2 0x100 EXP DUP2 SLOAD DUP2 PUSH20 0xFFFFFFFFFFFFFFFFFFFFFFFFFFFFFFFFFFFFFFFF MUL NOT AND SWAP1 DUP4 PUSH20 0xFFFFFFFFFFFFFFFFFFFFFFFFFFFFFFFFFFFFFFFF AND MUL OR SWAP1 SSTORE POP DUP1 PUSH1 0xA DUP2 SWAP1 SSTORE POP POP PUSH3 0xF0 JUMP JUMPDEST PUSH0 DUP1 REVERT JUMPDEST PUSH0 DUP2 SWAP1 POP SWAP2 SWAP1 POP JUMP JUMPDEST PUSH3 0x9C DUP2 PUSH3 0x88 JUMP JUMPDEST DUP2 EQ PUSH3 0xA7 JUMPI PUSH0 DUP1 REVERT JUMPDEST POP JUMP JUMPDEST PUSH0 DUP2 MLOAD SWAP1 POP PUSH3 0xBA DUP2 PUSH3 0x91 JUMP JUMPDEST SWAP3 SWAP2 POP POP JUMP JUMPDEST PUSH0 PUSH1 0x20 DUP3 DUP5 SUB SLT ISZERO PUSH3 0xD8 JUMPI PUSH3 0xD7 PUSH3 0x84 JUMP JUMPDEST JUMPDEST PUSH0 PUSH3 0xE7 DUP5 DUP3 DUP6 ADD PUSH3 0xAA JUMP JUMPDEST SWAP2 POP POP SWAP3 SWAP2 POP POP JUMP JUMPDEST PUSH2 0x4572 DUP1 PUSH3 0xFE PUSH0 CODECOPY PUSH0 RETURN INVALID PUSH1 0x80 PUSH1 0x40 MSTORE CALLVALUE DUP1 ISZERO PUSH2 0xF JUMPI PUSH0 DUP1 REVERT JUMPDEST POP PUSH1 0x4 CALLDATASIZE LT PUSH2 0x20F JUMPI PUSH0 CALLDATALOAD PUSH1 0xE0 SHR DUP1 PUSH4 0x8DA5CB5B GT PUSH2 0x123 JUMPI DUP1 PUSH4 0xC687CFEB GT PUSH2 0xAB JUMPI DUP1 PUSH4 0xDEC40116 GT PUSH2 0x7A JUMPI DUP1 PUSH4 0xDEC40116 EQ PUSH2 0x670 JUMPI DUP1 PUSH4 0xDFBC9772 EQ PUSH2 0x6A0 JUMPI DUP1 PUSH4 0xED92DF13 EQ PUSH2 0x6D0 JUMPI DUP1 PUSH4 0xF1385A1A EQ PUSH2 0x6EE JUMPI DUP1 PUSH4 0xF5803560 EQ PUSH2 0x70C JUMPI PUSH2 0x20F JUMP JUMPDEST DUP1 PUSH4 0xC687CFEB EQ PUSH2 0x5E5 JUMPI DUP1 PUSH4 0xC984D759 EQ PUSH2 0x616 JUMPI DUP1 PUSH4 0xD59A70DD EQ PUSH2 0x634 JUMPI DUP1 PUSH4 0xD6DD7673 EQ PUSH2 0x652 JUMPI PUSH2 0x20F JUMP JUMPDEST DUP1 PUSH4 0xA59EE59E GT PUSH2 0xF2 JUMPI DUP1 PUSH4 0xA59EE59E EQ PUSH2 0x519 JUMPI DUP1 PUSH4 0xA70F0AD7 EQ PUSH2 0x537 JUMPI DUP1 PUSH4 0xB1FBCCD2 EQ PUSH2 0x567 JUMPI DUP1 PUSH4 0xB2B8E2A1 EQ PUSH2 0x597 JUMPI DUP1 PUSH4 0xBEEB3F34 EQ PUSH2 0x5B5 JUMPI PUSH2 0x20F JUMP JUMPDEST DUP1 PUSH4 0x8DA5CB5B EQ PUSH2 0x48F JUMPI DUP1 PUSH4 0x903AC6D4 EQ PUSH2 0x4AD JUMPI DUP1 PUSH4 0x9CA6D971 EQ PUSH2 0x4CB JUMPI DUP1 PUSH4 0x9D5D42CA EQ PUSH2 0x4FB JUMPI PUSH2 0x20F JUMP JUMPDEST DUP1 PUSH4 0x3D7B86DE GT PUSH2 0x1A6 JUMPI DUP1 PUSH4 0x66692C3A GT PUSH2 0x175 JUMPI DUP1 PUSH4 0x66692C3A EQ PUSH2 0x3EB JUMPI DUP1 PUSH4 0x72775A9B EQ PUSH2 0x407 JUMPI DUP1 PUSH4 0x74832DB5 EQ PUSH2 0x437 JUMPI DUP1 PUSH4 0x795BB332 EQ PUSH2 0x455 JUMPI DUP1 PUSH4 0x81AC8B6A EQ PUSH2 0x473 JUMPI PUSH2 0x20F JUMP JUMPDEST DUP1 PUSH4 0x3D7B86DE EQ PUSH2 0x33A JUMPI DUP1 PUSH4 0x3E69D025 EQ PUSH2 0x36A JUMPI DUP1 PUSH4 0x487CD70A EQ PUSH2 0x39A JUMPI DUP1 PUSH4 0x53F1BC1D EQ PUSH2 0x3CD JUMPI PUSH2 0x20F JUMP JUMPDEST DUP1 PUSH4 0x216B8577 GT PUSH2 0x1E2 JUMPI DUP1 PUSH4 0x216B8577 EQ PUSH2 0x29C JUMPI DUP1 PUSH4 0x2602C01E EQ PUSH2 0x2D0 JUMPI DUP1 PUSH4 0x35E64E57 EQ PUSH2 0x2EE JUMPI DUP1 PUSH4 0x3B958A53 EQ PUSH2 0x31E JUMPI PUSH2 0x20F JUMP JUMPDEST DUP1 PUSH4 0x548A9E7 EQ PUSH2 0x213 JUMPI DUP1 PUSH4 0xFF62E93 EQ PUSH2 0x231 JUMPI DUP1 PUSH4 0x12FC39C7 EQ PUSH2 0x262 JUMPI DUP1 PUSH4 0x1BC92162 EQ PUSH2 0x27E JUMPI JUMPDEST PUSH0 DUP1 REVERT JUMPDEST PUSH2 0x21B PUSH2 0x73C JUMP JUMPDEST PUSH1 0x40 MLOAD PUSH2 0x228 SWAP2 SWAP1 PUSH2 0x2D67 JUMP JUMPDEST PUSH1 0x40 MLOAD DUP1 SWAP2 SUB SWAP1 RETURN JUMPDEST PUSH2 0x24B PUSH1 0x4 DUP1 CALLDATASIZE SUB DUP2 ADD SWAP1 PUSH2 0x246 SWAP2 SWAP1 PUSH2 0x2DBB JUMP JUMPDEST PUSH2 0x760 JUMP JUMPDEST PUSH1 0x40 MLOAD PUSH2 0x259 SWAP3 SWAP2 SWAP1 PUSH2 0x2E47 JUMP JUMPDEST PUSH1 0x40 MLOAD DUP1 SWAP2 SUB SWAP1 RETURN JUMPDEST PUSH2 0x27C PUSH1 0x4 DUP1 CALLDATASIZE SUB DUP2 ADD SWAP1 PUSH2 0x277 SWAP2 SWAP1 PUSH2 0x2DBB JUMP JUMPDEST PUSH2 0x7B2 JUMP JUMPDEST STOP JUMPDEST PUSH2 0x286 PUSH2 0x84B JUMP JUMPDEST PUSH1 0x40 MLOAD PUSH2 0x293 SWAP2 SWAP1 PUSH2 0x2EC9 JUMP JUMPDEST PUSH1 0x40 MLOAD DUP1 SWAP2 SUB SWAP1 RETURN JUMPDEST PUSH2 0x2B6 PUSH1 0x4 DUP1 CALLDATASIZE SUB DUP2 ADD SWAP1 PUSH2 0x2B1 SWAP2 SWAP1 PUSH2 0x2DBB JUMP JUMPDEST PUSH2 0x851 JUMP JUMPDEST PUSH1 0x40 MLOAD PUSH2 0x2C7 SWAP6 SWAP5 SWAP4 SWAP3 SWAP2 SWAP1 PUSH2 0x2EFC JUMP JUMPDEST PUSH1 0x40 MLOAD DUP1 SWAP2 SUB SWAP1 RETURN JUMPDEST PUSH2 0x2D8 PUSH2 0x8C3 JUMP JUMPDEST PUSH1 0x40 MLOAD PUSH2 0x2E5 SWAP2 SWAP1 PUSH2 0x2D67 JUMP JUMPDEST PUSH1 0x40 MLOAD DUP1 SWAP2 SUB SWAP1 RETURN JUMPDEST PUSH2 0x308 PUSH1 0x4 DUP1 CALLDATASIZE SUB DUP2 ADD SWAP1 PUSH2 0x303 SWAP2 SWAP1 PUSH2 0x2DBB JUMP JUMPDEST PUSH2 0x8E7 JUMP JUMPDEST PUSH1 0x40 MLOAD PUSH2 0x315 SWAP2 SWAP1 PUSH2 0x2D67 JUMP JUMPDEST PUSH1 0x40 MLOAD DUP1 SWAP2 SUB SWAP1 RETURN JUMPDEST PUSH2 0x338 PUSH1 0x4 DUP1 CALLDATASIZE SUB DUP2 ADD SWAP1 PUSH2 0x333 SWAP2 SWAP1 PUSH2 0x2FD8 JUMP JUMPDEST PUSH2 0x901 JUMP JUMPDEST STOP JUMPDEST PUSH2 0x354 PUSH1 0x4 DUP1 CALLDATASIZE SUB DUP2 ADD SWAP1 PUSH2 0x34F SWAP2 SWAP1 PUSH2 0x3073 JUMP JUMPDEST PUSH2 0x96F JUMP JUMPDEST PUSH1 0x40 MLOAD PUSH2 0x361 SWAP2 SWAP1 PUSH2 0x30F7 JUMP JUMPDEST PUSH1 0x40 MLOAD DUP1 SWAP2 SUB SWAP1 RETURN JUMPDEST PUSH2 0x384 PUSH1 0x4 DUP1 CALLDATASIZE SUB DUP2 ADD SWAP1 PUSH2 0x37F SWAP2 SWAP1 PUSH2 0x3110 JUMP JUMPDEST PUSH2 0xB99 JUMP JUMPDEST PUSH1 0x40 MLOAD PUSH2 0x391 SWAP2 SWAP1 PUSH2 0x316B JUMP JUMPDEST PUSH1 0x40 MLOAD DUP1 SWAP2 SUB SWAP1 RETURN JUMPDEST PUSH2 0x3B4 PUSH1 0x4 DUP1 CALLDATASIZE SUB DUP2 ADD SWAP1 PUSH2 0x3AF SWAP2 SWAP1 PUSH2 0x3184 JUMP JUMPDEST PUSH2 0xBC5 JUMP JUMPDEST PUSH1 0x40 MLOAD PUSH2 0x3C4 SWAP5 SWAP4 SWAP3 SWAP2 SWAP1 PUSH2 0x31E8 JUMP JUMPDEST PUSH1 0x40 MLOAD DUP1 SWAP2 SUB SWAP1 RETURN JUMPDEST PUSH2 0x3D5 PUSH2 0xC2E JUMP JUMPDEST PUSH1 0x40 MLOAD PUSH2 0x3E2 SWAP2 SWAP1 PUSH2 0x322B JUMP JUMPDEST PUSH1 0x40 MLOAD DUP1 SWAP2 SUB SWAP1 RETURN JUMPDEST PUSH2 0x405 PUSH1 0x4 DUP1 CALLDATASIZE SUB DUP2 ADD SWAP1 PUSH2 0x400 SWAP2 SWAP1 PUSH2 0x3244 JUMP JUMPDEST PUSH2 0xC53 JUMP JUMPDEST STOP JUMPDEST PUSH2 0x421 PUSH1 0x4 DUP1 CALLDATASIZE SUB DUP2 ADD SWAP1 PUSH2 0x41C SWAP2 SWAP1 PUSH2 0x332A JUMP JUMPDEST PUSH2 0x11E1 JUMP JUMPDEST PUSH1 0x40 MLOAD PUSH2 0x42E SWAP2 SWAP1 PUSH2 0x33BD JUMP JUMPDEST PUSH1 0x40 MLOAD DUP1 SWAP2 SUB SWAP1 RETURN JUMPDEST PUSH2 0x43F PUSH2 0x164C JUMP JUMPDEST PUSH1 0x40 MLOAD PUSH2 0x44C SWAP2 SWAP1 PUSH2 0x2D67 JUMP JUMPDEST PUSH1 0x40 MLOAD DUP1 SWAP2 SUB SWAP1 RETURN JUMPDEST PUSH2 0x45D PUSH2 0x1670 JUMP JUMPDEST PUSH1 0x40 MLOAD PUSH2 0x46A SWAP2 SWAP1 PUSH2 0x2D67 JUMP JUMPDEST PUSH1 0x40 MLOAD DUP1 SWAP2 SUB SWAP1 RETURN JUMPDEST PUSH2 0x48D PUSH1 0x4 DUP1 CALLDATASIZE SUB DUP2 ADD SWAP1 PUSH2 0x488 SWAP2 SWAP1 PUSH2 0x3400 JUMP JUMPDEST PUSH2 0x1694 JUMP JUMPDEST STOP JUMPDEST PUSH2 0x497 PUSH2 0x1790 JUMP JUMPDEST PUSH1 0x40 MLOAD PUSH2 0x4A4 SWAP2 SWAP1 PUSH2 0x322B JUMP JUMPDEST PUSH1 0x40 MLOAD DUP1 SWAP2 SUB SWAP1 RETURN JUMPDEST PUSH2 0x4B5 PUSH2 0x17B5 JUMP JUMPDEST PUSH1 0x40 MLOAD PUSH2 0x4C2 SWAP2 SWAP1 PUSH2 0x322B JUMP JUMPDEST PUSH1 0x40 MLOAD DUP1 SWAP2 SUB SWAP1 RETURN JUMPDEST PUSH2 0x4E5 PUSH1 0x4 DUP1 CALLDATASIZE SUB DUP2 ADD SWAP1 PUSH2 0x4E0 SWAP2 SWAP1 PUSH2 0x3450 JUMP JUMPDEST PUSH2 0x17DA JUMP JUMPDEST PUSH1 0x40 MLOAD PUSH2 0x4F2 SWAP2 SWAP1 PUSH2 0x2D67 JUMP JUMPDEST PUSH1 0x40 MLOAD DUP1 SWAP2 SUB SWAP1 RETURN JUMPDEST PUSH2 0x503 PUSH2 0x17EF JUMP JUMPDEST PUSH1 0x40 MLOAD PUSH2 0x510 SWAP2 SWAP1 PUSH2 0x322B JUMP JUMPDEST PUSH1 0x40 MLOAD DUP1 SWAP2 SUB SWAP1 RETURN JUMPDEST PUSH2 0x521 PUSH2 0x1814 JUMP JUMPDEST PUSH1 0x40 MLOAD PUSH2 0x52E SWAP2 SWAP1 PUSH2 0x322B JUMP JUMPDEST PUSH1 0x40 MLOAD DUP1 SWAP2 SUB SWAP1 RETURN JUMPDEST PUSH2 0x551 PUSH1 0x4 DUP1 CALLDATASIZE SUB DUP2 ADD SWAP1 PUSH2 0x54C SWAP2 SWAP1 PUSH2 0x2DBB JUMP JUMPDEST PUSH2 0x1839 JUMP JUMPDEST PUSH1 0x40 MLOAD PUSH2 0x55E SWAP2 SWAP1 PUSH2 0x33BD JUMP JUMPDEST PUSH1 0x40 MLOAD DUP1 SWAP2 SUB SWAP1 RETURN JUMPDEST PUSH2 0x581 PUSH1 0x4 DUP1 CALLDATASIZE SUB DUP2 ADD SWAP1 PUSH2 0x57C SWAP2 SWAP1 PUSH2 0x2DBB JUMP JUMPDEST PUSH2 0x1856 JUMP JUMPDEST PUSH1 0x40 MLOAD PUSH2 0x58E SWAP2 SWAP1 PUSH2 0x2D67 JUMP JUMPDEST PUSH1 0x40 MLOAD DUP1 SWAP2 SUB SWAP1 RETURN JUMPDEST PUSH2 0x59F PUSH2 0x186B JUMP JUMPDEST PUSH1 0x40 MLOAD PUSH2 0x5AC SWAP2 SWAP1 PUSH2 0x322B JUMP JUMPDEST PUSH1 0x40 MLOAD DUP1 SWAP2 SUB SWAP1 RETURN JUMPDEST PUSH2 0x5CF PUSH1 0x4 DUP1 CALLDATASIZE SUB DUP2 ADD SWAP1 PUSH2 0x5CA SWAP2 SWAP1 PUSH2 0x2DBB JUMP JUMPDEST PUSH2 0x1890 JUMP JUMPDEST PUSH1 0x40 MLOAD PUSH2 0x5DC SWAP2 SWAP1 PUSH2 0x33BD JUMP JUMPDEST PUSH1 0x40 MLOAD DUP1 SWAP2 SUB SWAP1 RETURN JUMPDEST PUSH2 0x5FF PUSH1 0x4 DUP1 CALLDATASIZE SUB DUP2 ADD SWAP1 PUSH2 0x5FA SWAP2 SWAP1 PUSH2 0x34A0 JUMP JUMPDEST PUSH2 0x18B6 JUMP JUMPDEST PUSH1 0x40 MLOAD PUSH2 0x60D SWAP3 SWAP2 SWAP1 PUSH2 0x2E47 JUMP JUMPDEST PUSH1 0x40 MLOAD DUP1 SWAP2 SUB SWAP1 RETURN JUMPDEST PUSH2 0x61E PUSH2 0x1DE6 JUMP JUMPDEST PUSH1 0x40 MLOAD PUSH2 0x62B SWAP2 SWAP1 PUSH2 0x322B JUMP JUMPDEST PUSH1 0x40 MLOAD DUP1 SWAP2 SUB SWAP1 RETURN JUMPDEST PUSH2 0x63C PUSH2 0x1E0B JUMP JUMPDEST PUSH1 0x40 MLOAD PUSH2 0x649 SWAP2 SWAP1 PUSH2 0x322B JUMP JUMPDEST PUSH1 0x40 MLOAD DUP1 SWAP2 SUB SWAP1 RETURN JUMPDEST PUSH2 0x65A PUSH2 0x1E30 JUMP JUMPDEST PUSH1 0x40 MLOAD PUSH2 0x667 SWAP2 SWAP1 PUSH2 0x322B JUMP JUMPDEST PUSH1 0x40 MLOAD DUP1 SWAP2 SUB SWAP1 RETURN JUMPDEST PUSH2 0x68A PUSH1 0x4 DUP1 CALLDATASIZE SUB DUP2 ADD SWAP1 PUSH2 0x685 SWAP2 SWAP1 PUSH2 0x3575 JUMP JUMPDEST PUSH2 0x1E53 JUMP JUMPDEST PUSH1 0x40 MLOAD PUSH2 0x697 SWAP2 SWAP1 PUSH2 0x2D67 JUMP JUMPDEST PUSH1 0x40 MLOAD DUP1 SWAP2 SUB SWAP1 RETURN JUMPDEST PUSH2 0x6BA PUSH1 0x4 DUP1 CALLDATASIZE SUB DUP2 ADD SWAP1 PUSH2 0x6B5 SWAP2 SWAP1 PUSH2 0x3110 JUMP JUMPDEST PUSH2 0x243C JUMP JUMPDEST PUSH1 0x40 MLOAD PUSH2 0x6C7 SWAP2 SWAP1 PUSH2 0x316B JUMP JUMPDEST PUSH1 0x40 MLOAD DUP1 SWAP2 SUB SWAP1 RETURN JUMPDEST PUSH2 0x6D8 PUSH2 0x24A0 JUMP JUMPDEST PUSH1 0x40 MLOAD PUSH2 0x6E5 SWAP2 SWAP1 PUSH2 0x2D67 JUMP JUMPDEST PUSH1 0x40 MLOAD DUP1 SWAP2 SUB SWAP1 RETURN JUMPDEST PUSH2 0x6F6 PUSH2 0x24A6 JUMP JUMPDEST PUSH1 0x40 MLOAD PUSH2 0x703 SWAP2 SWAP1 PUSH2 0x322B JUMP JUMPDEST PUSH1 0x40 MLOAD DUP1 SWAP2 SUB SWAP1 RETURN JUMPDEST PUSH2 0x726 PUSH1 0x4 DUP1 CALLDATASIZE SUB DUP2 ADD SWAP1 PUSH2 0x721 SWAP2 SWAP1 PUSH2 0x360B JUMP JUMPDEST PUSH2 0x24CB JUMP JUMPDEST PUSH1 0x40 MLOAD PUSH2 0x733 SWAP2 SWAP1 PUSH2 0x2D67 JUMP JUMPDEST PUSH1 0x40 MLOAD DUP1 SWAP2 SUB SWAP1 RETURN JUMPDEST PUSH32 0x217FFB743E749E59632E1A39A53634096481CB82EE5F27B44698DCC2C7453F01 DUP2 JUMP JUMPDEST PUSH1 0xF PUSH1 0x20 MSTORE DUP1 PUSH0 MSTORE PUSH1 0x40 PUSH0 KECCAK256 PUSH0 SWAP2 POP SWAP1 POP DUP1 PUSH0 ADD PUSH0 SWAP1 SLOAD SWAP1 PUSH2 0x100 EXP SWAP1 DIV PUSH20 0xFFFFFFFFFFFFFFFFFFFFFFFFFFFFFFFFFFFFFFFF AND SWAP1 DUP1 PUSH0 ADD PUSH1 0x14 SWAP1 SLOAD SWAP1 PUSH2 0x100 EXP SWAP1 DIV PUSH8 0xFFFFFFFFFFFFFFFF AND SWAP1 POP DUP3 JUMP JUMPDEST PUSH1 0x9 PUSH0 SWAP1 SLOAD SWAP1 PUSH2 0x100 EXP SWAP1 DIV PUSH20 0xFFFFFFFFFFFFFFFFFFFFFFFFFFFFFFFFFFFFFFFF AND PUSH20 0xFFFFFFFFFFFFFFFFFFFFFFFFFFFFFFFFFFFFFFFF AND CALLER PUSH20 0xFFFFFFFFFFFFFFFFFFFFFFFFFFFFFFFFFFFFFFFF AND EQ PUSH2 0x841 JUMPI PUSH1 0x40 MLOAD PUSH32 0x8C379A000000000000000000000000000000000000000000000000000000000 DUP2 MSTORE PUSH1 0x4 ADD PUSH2 0x838 SWAP1 PUSH2 0x36C9 JUMP JUMPDEST PUSH1 0x40 MLOAD DUP1 SWAP2 SUB SWAP1 REVERT JUMPDEST DUP1 PUSH1 0xA DUP2 SWAP1 SSTORE POP POP JUMP JUMPDEST PUSH2 0x167 DUP2 JUMP JUMPDEST PUSH1 0xB PUSH1 0x20 MSTORE DUP1 PUSH0 MSTORE PUSH1 0x40 PUSH0 KECCAK256 PUSH0 SWAP2 POP SWAP1 POP DUP1 PUSH0 ADD SLOAD SWAP1 DUP1 PUSH1 0x1 ADD SLOAD SWAP1 DUP1 PUSH1 0x3 ADD PUSH0 SWAP1 SLOAD SWAP1 PUSH2 0x100 EXP SWAP1 DIV PUSH20 0xFFFFFFFFFFFFFFFFFFFFFFFFFFFFFFFFFFFFFFFF AND SWAP1 DUP1 PUSH1 0x3 ADD PUSH1 0x14 SWAP1 SLOAD SWAP1 PUSH2 0x100 EXP SWAP1 DIV PUSH8 0xFFFFFFFFFFFFFFFF AND SWAP1 DUP1 PUSH1 0x3 ADD PUSH1 0x1C SWAP1 SLOAD SWAP1 PUSH2 0x100 EXP SWAP1 DIV PUSH1 0xFF AND SWAP1 POP DUP6 JUMP JUMPDEST PUSH32 0x892486F2DB77FEBA50B67FD68CCCF02ECCA6D746664216A0449ECB5BA18F8DE DUP2 JUMP JUMPDEST PUSH0 PUSH1 0xE PUSH0 DUP4 DUP2 MSTORE PUSH1 0x20 ADD SWAP1 DUP2 MSTORE PUSH1 0x20 ADD PUSH0 KECCAK256 SLOAD SWAP1 POP SWAP2 SWAP1 POP JUMP JUMPDEST CALLER PUSH20 0xFFFFFFFFFFFFFFFFFFFFFFFFFFFFFFFFFFFFFFFF AND DUP5 PUSH20 0xFFFFFFFFFFFFFFFFFFFFFFFFFFFFFFFFFFFFFFFF AND DUP5 PUSH32 0xFD005E0F9BA958F7C6B1A0FA8518FBAB37952F760666C5DA196F2C5591E88B7D DUP6 DUP6 PUSH1 0x40 MLOAD PUSH2 0x961 SWAP3 SWAP2 SWAP1 PUSH2 0x3731 JUMP JUMPDEST PUSH1 0x40 MLOAD DUP1 SWAP2 SUB SWAP1 LOG4 POP POP POP POP JUMP JUMPDEST PUSH0 DUP1 PUSH1 0xB PUSH0 DUP9 DUP2 MSTORE PUSH1 0x20 ADD SWAP1 DUP2 MSTORE PUSH1 0x20 ADD PUSH0 KECCAK256 SWAP1 POP DUP1 PUSH1 0x3 ADD PUSH1 0x1C SWAP1 SLOAD SWAP1 PUSH2 0x100 EXP SWAP1 DIV PUSH1 0xFF AND PUSH2 0x9D5 JUMPI PUSH1 0x40 MLOAD PUSH32 0x8C379A000000000000000000000000000000000000000000000000000000000 DUP2 MSTORE PUSH1 0x4 ADD PUSH2 0x9CC SWAP1 PUSH2 0x379D JUMP JUMPDEST PUSH1 0x40 MLOAD DUP1 SWAP2 SUB SWAP1 REVERT JUMPDEST DUP1 PUSH1 0x3 ADD PUSH1 0x14 SWAP1 SLOAD SWAP1 PUSH2 0x100 EXP SWAP1 DIV PUSH8 0xFFFFFFFFFFFFFFFF AND DUP7 PUSH2 0x9F9 SWAP2 SWAP1 PUSH2 0x37E8 JUMP JUMPDEST SWAP2 POP PUSH0 PUSH2 0x167 PUSH20 0xFFFFFFFFFFFFFFFFFFFFFFFFFFFFFFFFFFFFFFFF AND PUSH4 0x278E0B88 DUP4 PUSH1 0x3 ADD PUSH0 SWAP1 SLOAD SWAP1 PUSH2 0x100 EXP SWAP1 DIV PUSH20 0xFFFFFFFFFFFFFFFFFFFFFFFFFFFFFFFFFFFFFFFF AND DUP6 PUSH0 PUSH8 0xFFFFFFFFFFFFFFFF DUP2 GT ISZERO PUSH2 0xA59 JUMPI PUSH2 0xA58 PUSH2 0x3824 JUMP JUMPDEST JUMPDEST PUSH1 0x40 MLOAD SWAP1 DUP1 DUP3 MSTORE DUP1 PUSH1 0x20 MUL PUSH1 0x20 ADD DUP3 ADD PUSH1 0x40 MSTORE DUP1 ISZERO PUSH2 0xA8C JUMPI DUP2 PUSH1 0x20 ADD JUMPDEST PUSH1 0x60 DUP2 MSTORE PUSH1 0x20 ADD SWAP1 PUSH1 0x1 SWAP1 SUB SWAP1 DUP2 PUSH2 0xA77 JUMPI SWAP1 POP JUMPDEST POP PUSH1 0x40 MLOAD DUP5 PUSH4 0xFFFFFFFF AND PUSH1 0xE0 SHL DUP2 MSTORE PUSH1 0x4 ADD PUSH2 0xAAB SWAP4 SWAP3 SWAP2 SWAP1 PUSH2 0x3986 JUMP JUMPDEST PUSH0 PUSH1 0x40 MLOAD DUP1 DUP4 SUB DUP2 PUSH0 DUP8 GAS CALL ISZERO DUP1 ISZERO PUSH2 0xAC6 JUMPI RETURNDATASIZE PUSH0 DUP1 RETURNDATACOPY RETURNDATASIZE PUSH0 REVERT JUMPDEST POP POP POP POP PUSH1 0x40 MLOAD RETURNDATASIZE PUSH0 DUP3 RETURNDATACOPY RETURNDATASIZE PUSH1 0x1F NOT PUSH1 0x1F DUP3 ADD AND DUP3 ADD DUP1 PUSH1 0x40 MSTORE POP DUP2 ADD SWAP1 PUSH2 0xAEE SWAP2 SWAP1 PUSH2 0x3B17 JUMP JUMPDEST POP POP SWAP1 POP PUSH1 0x16 DUP2 PUSH1 0x7 SIGNEXTEND EQ PUSH2 0xB38 JUMPI PUSH1 0x40 MLOAD PUSH32 0x8C379A000000000000000000000000000000000000000000000000000000000 DUP2 MSTORE PUSH1 0x4 ADD PUSH2 0xB2F SWAP1 PUSH2 0x3BCD JUMP JUMPDEST PUSH1 0x40 MLOAD DUP1 SWAP2 SUB SWAP1 REVERT JUMPDEST DUP6 CALLER PUSH20 0xFFFFFFFFFFFFFFFFFFFFFFFFFFFFFFFFFFFFFFFF AND DUP10 PUSH32 0x6153F55C528EDCEC957D2FA67D63CB136DEE382001A3487CCF80D636A17BAE84 DUP11 DUP8 DUP11 DUP11 PUSH1 0x40 MLOAD PUSH2 0xB86 SWAP5 SWAP4 SWAP3 SWAP2 SWAP1 PUSH2 0x3BEB JUMP JUMPDEST PUSH1 0x40 MLOAD DUP1 SWAP2 SUB SWAP1 LOG4 POP POP SWAP6 SWAP5 POP POP POP POP POP JUMP JUMPDEST PUSH1 0xC PUSH1 0x20 MSTORE DUP2 PUSH0 MSTORE PUSH1 0x40 PUSH0 KECCAK256 PUSH1 0x20 MSTORE DUP1 PUSH0 MSTORE PUSH1 0x40 PUSH0 KECCAK256 PUSH0 SWAP2 POP SWAP2 POP SWAP1 SLOAD SWAP1 PUSH2 0x100 EXP SWAP1 DIV PUSH3 0xFFFFFF AND DUP2 JUMP JUMPDEST PUSH0 DUP1 PUSH0 DUP1 PUSH32 0x72F7DDC62C67E3943091F9C7B899298A6C6B0287758C513C5036EDA57075E6E3 SWAP4 POP PUSH2 0xBF7 DUP9 DUP9 DUP9 PUSH2 0x2525 JUMP JUMPDEST SWAP3 POP PUSH32 0x72F7DDC62C67E3943091F9C7B899298A6C6B0287758C513C5036EDA57075E6E3 DUP7 EQ SWAP2 POP DUP3 DUP6 EQ SWAP1 POP SWAP5 POP SWAP5 POP SWAP5 POP SWAP5 SWAP1 POP JUMP JUMPDEST PUSH1 0x8 PUSH0 SWAP1 SLOAD SWAP1 PUSH2 0x100 EXP SWAP1 DIV PUSH20 0xFFFFFFFFFFFFFFFFFFFFFFFFFFFFFFFFFFFFFFFF AND DUP2 JUMP JUMPDEST PUSH1 0x9 PUSH0 SWAP1 SLOAD SWAP1 PUSH2 0x100 EXP SWAP1 DIV PUSH20 0xFFFFFFFFFFFFFFFFFFFFFFFFFFFFFFFFFFFFFFFF AND PUSH20 0xFFFFFFFFFFFFFFFFFFFFFFFFFFFFFFFFFFFFFFFF AND CALLER PUSH20 0xFFFFFFFFFFFFFFFFFFFFFFFFFFFFFFFFFFFFFFFF AND EQ PUSH2 0xCE2 JUMPI PUSH1 0x40 MLOAD PUSH32 0x8C379A000000000000000000000000000000000000000000000000000000000 DUP2 MSTORE PUSH1 0x4 ADD PUSH2 0xCD9 SWAP1 PUSH2 0x36C9 JUMP JUMPDEST PUSH1 0x40 MLOAD DUP1 SWAP2 SUB SWAP1 REVERT JUMPDEST PUSH0 PUSH20 0xFFFFFFFFFFFFFFFFFFFFFFFFFFFFFFFFFFFFFFFF AND DUP10 PUSH20 0xFFFFFFFFFFFFFFFFFFFFFFFFFFFFFFFFFFFFFFFF AND EQ ISZERO DUP1 ISZERO PUSH2 0xD4A JUMPI POP PUSH0 PUSH20 0xFFFFFFFFFFFFFFFFFFFFFFFFFFFFFFFFFFFFFFFF AND DUP9 PUSH20 0xFFFFFFFFFFFFFFFFFFFFFFFFFFFFFFFFFFFFFFFF AND EQ ISZERO JUMPDEST DUP1 ISZERO PUSH2 0xD82 JUMPI POP PUSH0 PUSH20 0xFFFFFFFFFFFFFFFFFFFFFFFFFFFFFFFFFFFFFFFF AND DUP8 PUSH20 0xFFFFFFFFFFFFFFFFFFFFFFFFFFFFFFFFFFFFFFFF AND EQ ISZERO JUMPDEST DUP1 ISZERO PUSH2 0xDBA JUMPI POP PUSH0 PUSH20 0xFFFFFFFFFFFFFFFFFFFFFFFFFFFFFFFFFFFFFFFF AND DUP7 PUSH20 0xFFFFFFFFFFFFFFFFFFFFFFFFFFFFFFFFFFFFFFFF AND EQ ISZERO JUMPDEST DUP1 ISZERO PUSH2 0xDF2 JUMPI POP PUSH0 PUSH20 0xFFFFFFFFFFFFFFFFFFFFFFFFFFFFFFFFFFFFFFFF AND DUP6 PUSH20 0xFFFFFFFFFFFFFFFFFFFFFFFFFFFFFFFFFFFFFFFF AND EQ ISZERO JUMPDEST DUP1 ISZERO PUSH2 0xE2A JUMPI POP PUSH0 PUSH20 0xFFFFFFFFFFFFFFFFFFFFFFFFFFFFFFFFFFFFFFFF AND DUP5 PUSH20 0xFFFFFFFFFFFFFFFFFFFFFFFFFFFFFFFFFFFFFFFF AND EQ ISZERO JUMPDEST DUP1 ISZERO PUSH2 0xE62 JUMPI POP PUSH0 PUSH20 0xFFFFFFFFFFFFFFFFFFFFFFFFFFFFFFFFFFFFFFFF AND DUP4 PUSH20 0xFFFFFFFFFFFFFFFFFFFFFFFFFFFFFFFFFFFFFFFF AND EQ ISZERO JUMPDEST DUP1 ISZERO PUSH2 0xE9A JUMPI POP PUSH0 PUSH20 0xFFFFFFFFFFFFFFFFFFFFFFFFFFFFFFFFFFFFFFFF AND DUP3 PUSH20 0xFFFFFFFFFFFFFFFFFFFFFFFFFFFFFFFFFFFFFFFF AND EQ ISZERO JUMPDEST DUP1 ISZERO PUSH2 0xED2 JUMPI POP PUSH0 PUSH20 0xFFFFFFFFFFFFFFFFFFFFFFFFFFFFFFFFFFFFFFFF AND DUP2 PUSH20 0xFFFFFFFFFFFFFFFFFFFFFFFFFFFFFFFFFFFFFFFF AND EQ ISZERO JUMPDEST PUSH2 0xF11 JUMPI PUSH1 0x40 MLOAD PUSH32 0x8C379A000000000000000000000000000000000000000000000000000000000 DUP2 MSTORE PUSH1 0x4 ADD PUSH2 0xF08 SWAP1 PUSH2 0x3C73 JUMP JUMPDEST PUSH1 0x40 MLOAD DUP1 SWAP2 SUB SWAP1 REVERT JUMPDEST DUP9 PUSH0 DUP1 PUSH2 0x100 EXP DUP2 SLOAD DUP2 PUSH20 0xFFFFFFFFFFFFFFFFFFFFFFFFFFFFFFFFFFFFFFFF MUL NOT AND SWAP1 DUP4 PUSH20 0xFFFFFFFFFFFFFFFFFFFFFFFFFFFFFFFFFFFFFFFF AND MUL OR SWAP1 SSTORE POP DUP8 PUSH1 0x1 PUSH0 PUSH2 0x100 EXP DUP2 SLOAD DUP2 PUSH20 0xFFFFFFFFFFFFFFFFFFFFFFFFFFFFFFFFFFFFFFFF MUL NOT AND SWAP1 DUP4 PUSH20 0xFFFFFFFFFFFFFFFFFFFFFFFFFFFFFFFFFFFFFFFF AND MUL OR SWAP1 SSTORE POP DUP7 PUSH1 0x2 PUSH0 PUSH2 0x100 EXP DUP2 SLOAD DUP2 PUSH20 0xFFFFFFFFFFFFFFFFFFFFFFFFFFFFFFFFFFFFFFFF MUL NOT AND SWAP1 DUP4 PUSH20 0xFFFFFFFFFFFFFFFFFFFFFFFFFFFFFFFFFFFFFFFF AND MUL OR SWAP1 SSTORE POP DUP6 PUSH1 0x3 PUSH0 PUSH2 0x100 EXP DUP2 SLOAD DUP2 PUSH20 0xFFFFFFFFFFFFFFFFFFFFFFFFFFFFFFFFFFFFFFFF MUL NOT AND SWAP1 DUP4 PUSH20 0xFFFFFFFFFFFFFFFFFFFFFFFFFFFFFFFFFFFFFFFF AND MUL OR SWAP1 SSTORE POP DUP5 PUSH1 0x4 PUSH0 PUSH2 0x100 EXP DUP2 SLOAD DUP2 PUSH20 0xFFFFFFFFFFFFFFFFFFFFFFFFFFFFFFFFFFFFFFFF MUL NOT AND SWAP1 DUP4 PUSH20 0xFFFFFFFFFFFFFFFFFFFFFFFFFFFFFFFFFFFFFFFF AND MUL OR SWAP1 SSTORE POP DUP4 PUSH1 0x5 PUSH0 PUSH2 0x100 EXP DUP2 SLOAD DUP2 PUSH20 0xFFFFFFFFFFFFFFFFFFFFFFFFFFFFFFFFFFFFFFFF MUL NOT AND SWAP1 DUP4 PUSH20 0xFFFFFFFFFFFFFFFFFFFFFFFFFFFFFFFFFFFFFFFF AND MUL OR SWAP1 SSTORE POP DUP3 PUSH1 0x6 PUSH0 PUSH2 0x100 EXP DUP2 SLOAD DUP2 PUSH20 0xFFFFFFFFFFFFFFFFFFFFFFFFFFFFFFFFFFFFFFFF MUL NOT AND SWAP1 DUP4 PUSH20 0xFFFFFFFFFFFFFFFFFFFFFFFFFFFFFFFFFFFFFFFF AND MUL OR SWAP1 SSTORE POP DUP2 PUSH1 0x7 PUSH0 PUSH2 0x100 EXP DUP2 SLOAD DUP2 PUSH20 0xFFFFFFFFFFFFFFFFFFFFFFFFFFFFFFFFFFFFFFFF MUL NOT AND SWAP1 DUP4 PUSH20 0xFFFFFFFFFFFFFFFFFFFFFFFFFFFFFFFFFFFFFFFF AND MUL OR SWAP1 SSTORE POP DUP1 PUSH1 0x8 PUSH0 PUSH2 0x100 EXP DUP2 SLOAD DUP2 PUSH20 0xFFFFFFFFFFFFFFFFFFFFFFFFFFFFFFFFFFFFFFFF MUL NOT AND SWAP1 DUP4 PUSH20 0xFFFFFFFFFFFFFFFFFFFFFFFFFFFFFFFFFFFFFFFF AND MUL OR SWAP1 SSTORE POP DUP7 PUSH20 0xFFFFFFFFFFFFFFFFFFFFFFFFFFFFFFFFFFFFFFFF AND DUP9 PUSH20 0xFFFFFFFFFFFFFFFFFFFFFFFFFFFFFFFFFFFFFFFF AND DUP11 PUSH20 0xFFFFFFFFFFFFFFFFFFFFFFFFFFFFFFFFFFFFFFFF AND PUSH32 0x8F38F72D705D71B37B305AAE9270050F10C5E566EF6C0ABA8C3FB04A84F35D5 DUP10 DUP10 DUP10 DUP10 DUP10 DUP10 PUSH1 0x40 MLOAD PUSH2 0x11CE SWAP7 SWAP6 SWAP5 SWAP4 SWAP3 SWAP2 SWAP1 PUSH2 0x3C91 JUMP JUMPDEST PUSH1 0x40 MLOAD DUP1 SWAP2 SUB SWAP1 LOG4 POP POP POP POP POP POP POP POP POP JUMP JUMPDEST PUSH0 PUSH2 0x11EE DUP7 DUP7 DUP7 DUP7 PUSH2 0x24CB JUMP JUMPDEST DUP3 PUSH0 ADD CALLDATALOAD EQ PUSH2 0x1232 JUMPI PUSH1 0x40 MLOAD PUSH32 0x8C379A000000000000000000000000000000000000000000000000000000000 DUP2 MSTORE PUSH1 0x4 ADD PUSH2 0x1229 SWAP1 PUSH2 0x3D3A JUMP JUMPDEST PUSH1 0x40 MLOAD DUP1 SWAP2 SUB SWAP1 REVERT JUMPDEST PUSH1 0xD PUSH0 DUP4 PUSH1 0x20 ADD CALLDATALOAD DUP2 MSTORE PUSH1 0x20 ADD SWAP1 DUP2 MSTORE PUSH1 0x20 ADD PUSH0 KECCAK256 PUSH0 SWAP1 SLOAD SWAP1 PUSH2 0x100 EXP SWAP1 DIV PUSH1 0xFF AND ISZERO PUSH2 0x12A2 JUMPI CALLER PUSH20 0xFFFFFFFFFFFFFFFFFFFFFFFFFFFFFFFFFFFFFFFF AND DUP3 PUSH1 0x20 ADD CALLDATALOAD PUSH32 0x3CD6D293D93FFFB5C4505ED423476E083CFE17C7E58820E30BE3EFEA7283221A PUSH1 0x40 MLOAD PUSH1 0x40 MLOAD DUP1 SWAP2 SUB SWAP1 LOG3 JUMPDEST PUSH0 PUSH1 0xC PUSH0 DUP6 DUP2 MSTORE PUSH1 0x20 ADD SWAP1 DUP2 MSTORE PUSH1 0x20 ADD PUSH0 KECCAK256 PUSH0 DUP9 PUSH20 0xFFFFFFFFFFFFFFFFFFFFFFFFFFFFFFFFFFFFFFFF AND PUSH20 0xFFFFFFFFFFFFFFFFFFFFFFFFFFFFFFFFFFFFFFFF AND DUP2 MSTORE PUSH1 0x20 ADD SWAP1 DUP2 MSTORE PUSH1 0x20 ADD PUSH0 KECCAK256 PUSH0 SWAP1 SLOAD SWAP1 PUSH2 0x100 EXP SWAP1 DIV PUSH3 0xFFFFFF AND SWAP1 POP PUSH0 DUP2 PUSH3 0xFFFFFF AND EQ DUP1 PUSH2 0x1371 JUMPI POP PUSH0 PUSH1 0xC PUSH0 DUP7 DUP2 MSTORE PUSH1 0x20 ADD SWAP1 DUP2 MSTORE PUSH1 0x20 ADD PUSH0 KECCAK256 PUSH0 DUP9 PUSH20 0xFFFFFFFFFFFFFFFFFFFFFFFFFFFFFFFFFFFFFFFF AND PUSH20 0xFFFFFFFFFFFFFFFFFFFFFFFFFFFFFFFFFFFFFFFF AND DUP2 MSTORE PUSH1 0x20 ADD SWAP1 DUP2 MSTORE PUSH1 0x20 ADD PUSH0 KECCAK256 PUSH0 SWAP1 SLOAD SWAP1 PUSH2 0x100 EXP SWAP1 DIV PUSH3 0xFFFFFF AND PUSH3 0xFFFFFF AND EQ JUMPDEST DUP1 PUSH2 0x13DA JUMPI POP PUSH0 PUSH1 0xC PUSH0 DUP7 DUP2 MSTORE PUSH1 0x20 ADD SWAP1 DUP2 MSTORE PUSH1 0x20 ADD PUSH0 KECCAK256 PUSH0 DUP8 PUSH20 0xFFFFFFFFFFFFFFFFFFFFFFFFFFFFFFFFFFFFFFFF AND PUSH20 0xFFFFFFFFFFFFFFFFFFFFFFFFFFFFFFFFFFFFFFFF AND DUP2 MSTORE PUSH1 0x20 ADD SWAP1 DUP2 MSTORE PUSH1 0x20 ADD PUSH0 KECCAK256 PUSH0 SWAP1 SLOAD SWAP1 PUSH2 0x100 EXP SWAP1 DIV PUSH3 0xFFFFFF AND PUSH3 0xFFFFFF AND EQ JUMPDEST ISZERO PUSH2 0x14AE JUMPI PUSH1 0xD PUSH0 DUP5 PUSH1 0x20 ADD CALLDATALOAD DUP2 MSTORE PUSH1 0x20 ADD SWAP1 DUP2 MSTORE PUSH1 0x20 ADD PUSH0 KECCAK256 PUSH0 SWAP1 SLOAD SWAP1 PUSH2 0x100 EXP SWAP1 DIV PUSH1 0xFF AND PUSH2 0x14A5 JUMPI PUSH1 0x1 PUSH1 0xD PUSH0 DUP6 PUSH1 0x20 ADD CALLDATALOAD DUP2 MSTORE PUSH1 0x20 ADD SWAP1 DUP2 MSTORE PUSH1 0x20 ADD PUSH0 KECCAK256 PUSH0 PUSH2 0x100 EXP DUP2 SLOAD DUP2 PUSH1 0xFF MUL NOT AND SWAP1 DUP4 ISZERO ISZERO MUL OR SWAP1 SSTORE POP DUP3 PUSH0 ADD CALLDATALOAD PUSH1 0xE PUSH0 DUP6 PUSH1 0x20 ADD CALLDATALOAD DUP2 MSTORE PUSH1 0x20 ADD SWAP1 DUP2 MSTORE PUSH1 0x20 ADD PUSH0 KECCAK256 DUP2 SWAP1 SSTORE POP DUP4 DUP4 PUSH1 0x20 ADD CALLDATALOAD PUSH32 0x573EA6C6D729CB63F2227625589B742119E9A3E33C15DB35DE47409A861F00E3 DUP10 DUP10 DUP10 PUSH0 DUP10 DUP1 PUSH1 0x80 ADD SWAP1 PUSH2 0x148A SWAP2 SWAP1 PUSH2 0x3D64 JUMP JUMPDEST PUSH1 0x40 MLOAD PUSH2 0x149C SWAP7 SWAP6 SWAP5 SWAP4 SWAP3 SWAP2 SWAP1 PUSH2 0x3DC6 JUMP JUMPDEST PUSH1 0x40 MLOAD DUP1 SWAP2 SUB SWAP1 LOG3 JUMPDEST PUSH0 SWAP2 POP POP PUSH2 0x1643 JUMP JUMPDEST PUSH1 0xC PUSH0 DUP6 DUP2 MSTORE PUSH1 0x20 ADD SWAP1 DUP2 MSTORE PUSH1 0x20 ADD PUSH0 KECCAK256 PUSH0 DUP7 PUSH20 0xFFFFFFFFFFFFFFFFFFFFFFFFFFFFFFFFFFFFFFFF AND PUSH20 0xFFFFFFFFFFFFFFFFFFFFFFFFFFFFFFFFFFFFFFFF AND DUP2 MSTORE PUSH1 0x20 ADD SWAP1 DUP2 MSTORE PUSH1 0x20 ADD PUSH0 KECCAK256 PUSH0 SWAP1 SLOAD SWAP1 PUSH2 0x100 EXP SWAP1 DIV PUSH3 0xFFFFFF AND PUSH3 0xFFFFFF AND PUSH2 0x1573 DUP3 PUSH1 0xC PUSH0 DUP9 DUP2 MSTORE PUSH1 0x20 ADD SWAP1 DUP2 MSTORE PUSH1 0x20 ADD PUSH0 KECCAK256 PUSH0 DUP11 PUSH20 0xFFFFFFFFFFFFFFFFFFFFFFFFFFFFFFFFFFFFFFFF AND PUSH20 0xFFFFFFFFFFFFFFFFFFFFFFFFFFFFFFFFFFFFFFFF AND DUP2 MSTORE PUSH1 0x20 ADD SWAP1 DUP2 MSTORE PUSH1 0x20 ADD PUSH0 KECCAK256 PUSH0 SWAP1 SLOAD SWAP1 PUSH2 0x100 EXP SWAP1 DIV PUSH3 0xFFFFFF AND DUP8 PUSH2 0x25C1 JUMP JUMPDEST PUSH3 0xFFFFFF AND EQ SWAP2 POP PUSH1 0xD PUSH0 DUP5 PUSH1 0x20 ADD CALLDATALOAD DUP2 MSTORE PUSH1 0x20 ADD SWAP1 DUP2 MSTORE PUSH1 0x20 ADD PUSH0 KECCAK256 PUSH0 SWAP1 SLOAD SWAP1 PUSH2 0x100 EXP SWAP1 DIV PUSH1 0xFF AND PUSH2 0x1641 JUMPI PUSH1 0x1 PUSH1 0xD PUSH0 DUP6 PUSH1 0x20 ADD CALLDATALOAD DUP2 MSTORE PUSH1 0x20 ADD SWAP1 DUP2 MSTORE PUSH1 0x20 ADD PUSH0 KECCAK256 PUSH0 PUSH2 0x100 EXP DUP2 SLOAD DUP2 PUSH1 0xFF MUL NOT AND SWAP1 DUP4 ISZERO ISZERO MUL OR SWAP1 SSTORE POP DUP3 PUSH0 ADD CALLDATALOAD PUSH1 0xE PUSH0 DUP6 PUSH1 0x20 ADD CALLDATALOAD DUP2 MSTORE PUSH1 0x20 ADD SWAP1 DUP2 MSTORE PUSH1 0x20 ADD PUSH0 KECCAK256 DUP2 SWAP1 SSTORE POP DUP4 DUP4 PUSH1 0x20 ADD CALLDATALOAD PUSH32 0x573EA6C6D729CB63F2227625589B742119E9A3E33C15DB35DE47409A861F00E3 DUP10 DUP10 DUP10 DUP8 DUP10 DUP1 PUSH1 0x80 ADD SWAP1 PUSH2 0x1626 SWAP2 SWAP1 PUSH2 0x3D64 JUMP JUMPDEST PUSH1 0x40 MLOAD PUSH2 0x1638 SWAP7 SWAP6 SWAP5 SWAP4 SWAP3 SWAP2 SWAP1 PUSH2 0x3DC6 JUMP JUMPDEST PUSH1 0x40 MLOAD DUP1 SWAP2 SUB SWAP1 LOG3 JUMPDEST POP JUMPDEST SWAP6 SWAP5 POP POP POP POP POP JUMP JUMPDEST PUSH32 0x5C121EE8B573E4E6586BCAFEC852BD980B83EA2AA4A37F9FCCB6FA546927C42B DUP2 JUMP JUMPDEST PUSH32 0x72F7DDC62C67E3943091F9C7B899298A6C6B0287758C513C5036EDA57075E6E3 DUP2 JUMP JUMPDEST PUSH1 0x9 PUSH0 SWAP1 SLOAD SWAP1 PUSH2 0x100 EXP SWAP1 DIV PUSH20 0xFFFFFFFFFFFFFFFFFFFFFFFFFFFFFFFFFFFFFFFF AND PUSH20 0xFFFFFFFFFFFFFFFFFFFFFFFFFFFFFFFFFFFFFFFF AND CALLER PUSH20 0xFFFFFFFFFFFFFFFFFFFFFFFFFFFFFFFFFFFFFFFF AND EQ PUSH2 0x1723 JUMPI PUSH1 0x40 MLOAD PUSH32 0x8C379A000000000000000000000000000000000000000000000000000000000 DUP2 MSTORE PUSH1 0x4 ADD PUSH2 0x171A SWAP1 PUSH2 0x36C9 JUMP JUMPDEST PUSH1 0x40 MLOAD DUP1 SWAP2 SUB SWAP1 REVERT JUMPDEST DUP1 PUSH1 0xC PUSH0 DUP6 DUP2 MSTORE PUSH1 0x20 ADD SWAP1 DUP2 MSTORE PUSH1 0x20 ADD PUSH0 KECCAK256 PUSH0 DUP5 PUSH20 0xFFFFFFFFFFFFFFFFFFFFFFFFFFFFFFFFFFFFFFFF AND PUSH20 0xFFFFFFFFFFFFFFFFFFFFFFFFFFFFFFFFFFFFFFFF AND DUP2 MSTORE PUSH1 0x20 ADD SWAP1 DUP2 MSTORE PUSH1 0x20 ADD PUSH0 KECCAK256 PUSH0 PUSH2 0x100 EXP DUP2 SLOAD DUP2 PUSH3 0xFFFFFF MUL NOT AND SWAP1 DUP4 PUSH3 0xFFFFFF AND MUL OR SWAP1 SSTORE POP POP POP POP JUMP JUMPDEST PUSH1 0x9 PUSH0 SWAP1 SLOAD SWAP1 PUSH2 0x100 EXP SWAP1 DIV PUSH20 0xFFFFFFFFFFFFFFFFFFFFFFFFFFFFFFFFFFFFFFFF AND DUP2 JUMP JUMPDEST PUSH1 0x6 PUSH0 SWAP1 SLOAD SWAP1 PUSH2 0x100 EXP SWAP1 DIV PUSH20 0xFFFFFFFFFFFFFFFFFFFFFFFFFFFFFFFFFFFFFFFF AND DUP2 JUMP JUMPDEST PUSH0 PUSH2 0x17E6 DUP5 DUP5 DUP5 PUSH2 0x2525 JUMP JUMPDEST SWAP1 POP SWAP4 SWAP3 POP POP POP JUMP JUMPDEST PUSH1 0x2 PUSH0 SWAP1 SLOAD SWAP1 PUSH2 0x100 EXP SWAP1 DIV PUSH20 0xFFFFFFFFFFFFFFFFFFFFFFFFFFFFFFFFFFFFFFFF AND DUP2 JUMP JUMPDEST PUSH1 0x5 PUSH0 SWAP1 SLOAD SWAP1 PUSH2 0x100 EXP SWAP1 DIV PUSH20 0xFFFFFFFFFFFFFFFFFFFFFFFFFFFFFFFFFFFFFFFF AND DUP2 JUMP JUMPDEST PUSH1 0xD PUSH1 0x20 MSTORE DUP1 PUSH0 MSTORE PUSH1 0x40 PUSH0 KECCAK256 PUSH0 SWAP2 POP SLOAD SWAP1 PUSH2 0x100 EXP SWAP1 DIV PUSH1 0xFF AND DUP2 JUMP JUMPDEST PUSH1 0xE PUSH1 0x20 MSTORE DUP1 PUSH0 MSTORE PUSH1 0x40 PUSH0 KECCAK256 PUSH0 SWAP2 POP SWAP1 POP SLOAD DUP2 JUMP JUMPDEST PUSH1 0x7 PUSH0 SWAP1 SLOAD SWAP1 PUSH2 0x100 EXP SWAP1 DIV PUSH20 0xFFFFFFFFFFFFFFFFFFFFFFFFFFFFFFFFFFFFFFFF AND DUP2 JUMP JUMPDEST PUSH0 PUSH1 0xD PUSH0 DUP4 DUP2 MSTORE PUSH1 0x20 ADD SWAP1 DUP2 MSTORE PUSH1 0x20 ADD PUSH0 KECCAK256 PUSH0 SWAP1 SLOAD SWAP1 PUSH2 0x100 EXP SWAP1 DIV PUSH1 0xFF AND SWAP1 POP SWAP2 SWAP1 POP JUMP JUMPDEST PUSH0 DUP1 PUSH32 0xBBFA335032189CB97BE17F01FA1CD9C18587BE58CB71231405D2EA8F0E38FC42 DUP5 PUSH32 0x72F7DDC62C67E3943091F9C7B899298A6C6B0287758C513C5036EDA57075E6E3 DUP1 DUP8 EQ PUSH1 0x40 MLOAD PUSH2 0x190D SWAP4 SWAP3 SWAP2 SWAP1 PUSH2 0x3E20 JUMP JUMPDEST PUSH1 0x40 MLOAD DUP1 SWAP2 SUB SWAP1 LOG1 PUSH32 0x72F7DDC62C67E3943091F9C7B899298A6C6B0287758C513C5036EDA57075E6E3 DUP5 EQ PUSH2 0x1977 JUMPI PUSH1 0x40 MLOAD PUSH32 0x8C379A000000000000000000000000000000000000000000000000000000000 DUP2 MSTORE PUSH1 0x4 ADD PUSH2 0x196E SWAP1 PUSH2 0x3E9F JUMP JUMPDEST PUSH1 0x40 MLOAD DUP1 SWAP2 SUB SWAP1 REVERT JUMPDEST PUSH0 PUSH2 0x1983 DUP8 DUP8 DUP8 PUSH2 0x2525 JUMP JUMPDEST SWAP1 POP PUSH32 0xBBFA335032189CB97BE17F01FA1CD9C18587BE58CB71231405D2EA8F0E38FC42 DUP5 PUSH0 ADD CALLDATALOAD DUP3 DUP4 DUP8 PUSH0 ADD CALLDATALOAD EQ PUSH1 0x40 MLOAD PUSH2 0x19C0 SWAP4 SWAP3 SWAP2 SWAP1 PUSH2 0x3E20 JUMP JUMPDEST PUSH1 0x40 MLOAD DUP1 SWAP2 SUB SWAP1 LOG1 DUP1 DUP5 PUSH0 ADD CALLDATALOAD EQ PUSH2 0x1A0D JUMPI PUSH1 0x40 MLOAD PUSH32 0x8C379A000000000000000000000000000000000000000000000000000000000 DUP2 MSTORE PUSH1 0x4 ADD PUSH2 0x1A04 SWAP1 PUSH2 0x3D3A JUMP JUMPDEST PUSH1 0x40 MLOAD DUP1 SWAP2 SUB SWAP1 REVERT JUMPDEST PUSH1 0xD PUSH0 DUP6 PUSH1 0x20 ADD CALLDATALOAD DUP2 MSTORE PUSH1 0x20 ADD SWAP1 DUP2 MSTORE PUSH1 0x20 ADD PUSH0 KECCAK256 PUSH0 SWAP1 SLOAD SWAP1 PUSH2 0x100 EXP SWAP1 DIV PUSH1 0xFF AND ISZERO PUSH2 0x1B38 JUMPI CALLER PUSH20 0xFFFFFFFFFFFFFFFFFFFFFFFFFFFFFFFFFFFFFFFF AND DUP5 PUSH1 0x20 ADD CALLDATALOAD PUSH32 0x3CD6D293D93FFFB5C4505ED423476E083CFE17C7E58820E30BE3EFEA7283221A PUSH1 0x40 MLOAD PUSH1 0x40 MLOAD DUP1 SWAP2 SUB SWAP1 LOG3 PUSH0 PUSH1 0xF PUSH0 DUP7 PUSH1 0x20 ADD CALLDATALOAD DUP2 MSTORE PUSH1 0x20 ADD SWAP1 DUP2 MSTORE PUSH1 0x20 ADD PUSH0 KECCAK256 PUSH1 0x40 MLOAD DUP1 PUSH1 0x40 ADD PUSH1 0x40 MSTORE SWAP1 DUP2 PUSH0 DUP3 ADD PUSH0 SWAP1 SLOAD SWAP1 PUSH2 0x100 EXP SWAP1 DIV PUSH20 0xFFFFFFFFFFFFFFFFFFFFFFFFFFFFFFFFFFFFFFFF AND PUSH20 0xFFFFFFFFFFFFFFFFFFFFFFFFFFFFFFFFFFFFFFFF AND PUSH20 0xFFFFFFFFFFFFFFFFFFFFFFFFFFFFFFFFFFFFFFFF AND DUP2 MSTORE PUSH1 0x20 ADD PUSH0 DUP3 ADD PUSH1 0x14 SWAP1 SLOAD SWAP1 PUSH2 0x100 EXP SWAP1 DIV PUSH8 0xFFFFFFFFFFFFFFFF AND PUSH8 0xFFFFFFFFFFFFFFFF AND PUSH8 0xFFFFFFFFFFFFFFFF AND DUP2 MSTORE POP POP SWAP1 POP DUP1 PUSH0 ADD MLOAD DUP2 PUSH1 0x20 ADD MLOAD SWAP4 POP SWAP4 POP POP POP PUSH2 0x1DDD JUMP JUMPDEST PUSH2 0x1B42 DUP8 DUP8 PUSH2 0x263D JUMP JUMPDEST DUP1 SWAP4 POP DUP2 SWAP5 POP POP POP PUSH0 PUSH2 0x167 PUSH20 0xFFFFFFFFFFFFFFFFFFFFFFFFFFFFFFFFFFFFFFFF AND PUSH4 0x278E0B88 DUP6 DUP6 PUSH0 PUSH8 0xFFFFFFFFFFFFFFFF DUP2 GT ISZERO PUSH2 0x1B85 JUMPI PUSH2 0x1B84 PUSH2 0x3824 JUMP JUMPDEST JUMPDEST PUSH1 0x40 MLOAD SWAP1 DUP1 DUP3 MSTORE DUP1 PUSH1 0x20 MUL PUSH1 0x20 ADD DUP3 ADD PUSH1 0x40 MSTORE DUP1 ISZERO PUSH2 0x1BB8 JUMPI DUP2 PUSH1 0x20 ADD JUMPDEST PUSH1 0x60 DUP2 MSTORE PUSH1 0x20 ADD SWAP1 PUSH1 0x1 SWAP1 SUB SWAP1 DUP2 PUSH2 0x1BA3 JUMPI SWAP1 POP JUMPDEST POP PUSH1 0x40 MLOAD DUP5 PUSH4 0xFFFFFFFF AND PUSH1 0xE0 SHL DUP2 MSTORE PUSH1 0x4 ADD PUSH2 0x1BD7 SWAP4 SWAP3 SWAP2 SWAP1 PUSH2 0x3986 JUMP JUMPDEST PUSH0 PUSH1 0x40 MLOAD DUP1 DUP4 SUB DUP2 PUSH0 DUP8 GAS CALL ISZERO DUP1 ISZERO PUSH2 0x1BF2 JUMPI RETURNDATASIZE PUSH0 DUP1 RETURNDATACOPY RETURNDATASIZE PUSH0 REVERT JUMPDEST POP POP POP POP PUSH1 0x40 MLOAD RETURNDATASIZE PUSH0 DUP3 RETURNDATACOPY RETURNDATASIZE PUSH1 0x1F NOT PUSH1 0x1F DUP3 ADD AND DUP3 ADD DUP1 PUSH1 0x40 MSTORE POP DUP2 ADD SWAP1 PUSH2 0x1C1A SWAP2 SWAP1 PUSH2 0x3B17 JUMP JUMPDEST POP POP SWAP1 POP PUSH1 0x16 DUP2 PUSH1 0x7 SIGNEXTEND EQ PUSH2 0x1C64 JUMPI PUSH1 0x40 MLOAD PUSH32 0x8C379A000000000000000000000000000000000000000000000000000000000 DUP2 MSTORE PUSH1 0x4 ADD PUSH2 0x1C5B SWAP1 PUSH2 0x3BCD JUMP JUMPDEST PUSH1 0x40 MLOAD DUP1 SWAP2 SUB SWAP1 REVERT JUMPDEST PUSH1 0x1 PUSH1 0xD PUSH0 DUP8 PUSH1 0x20 ADD CALLDATALOAD DUP2 MSTORE PUSH1 0x20 ADD SWAP1 DUP2 MSTORE PUSH1 0x20 ADD PUSH0 KECCAK256 PUSH0 PUSH2 0x100 EXP DUP2 SLOAD DUP2 PUSH1 0xFF MUL NOT AND SWAP1 DUP4 ISZERO ISZERO MUL OR SWAP1 SSTORE POP DUP5 PUSH0 ADD CALLDATALOAD PUSH1 0xE PUSH0 DUP8 PUSH1 0x20 ADD CALLDATALOAD DUP2 MSTORE PUSH1 0x20 ADD SWAP1 DUP2 MSTORE PUSH1 0x20 ADD PUSH0 KECCAK256 DUP2 SWAP1 SSTORE POP PUSH1 0x40 MLOAD DUP1 PUSH1 0x40 ADD PUSH1 0x40 MSTORE DUP1 DUP6 PUSH20 0xFFFFFFFFFFFFFFFFFFFFFFFFFFFFFFFFFFFFFFFF AND DUP2 MSTORE PUSH1 0x20 ADD DUP5 PUSH8 0xFFFFFFFFFFFFFFFF AND DUP2 MSTORE POP PUSH1 0xF PUSH0 DUP8 PUSH1 0x20 ADD CALLDATALOAD DUP2 MSTORE PUSH1 0x20 ADD SWAP1 DUP2 MSTORE PUSH1 0x20 ADD PUSH0 KECCAK256 PUSH0 DUP3 ADD MLOAD DUP2 PUSH0 ADD PUSH0 PUSH2 0x100 EXP DUP2 SLOAD DUP2 PUSH20 0xFFFFFFFFFFFFFFFFFFFFFFFFFFFFFFFFFFFFFFFF MUL NOT AND SWAP1 DUP4 PUSH20 0xFFFFFFFFFFFFFFFFFFFFFFFFFFFFFFFFFFFFFFFF AND MUL OR SWAP1 SSTORE POP PUSH1 0x20 DUP3 ADD MLOAD DUP2 PUSH0 ADD PUSH1 0x14 PUSH2 0x100 EXP DUP2 SLOAD DUP2 PUSH8 0xFFFFFFFFFFFFFFFF MUL NOT AND SWAP1 DUP4 PUSH8 0xFFFFFFFFFFFFFFFF AND MUL OR SWAP1 SSTORE POP SWAP1 POP POP DUP5 PUSH1 0x20 ADD CALLDATALOAD CALLER PUSH20 0xFFFFFFFFFFFFFFFFFFFFFFFFFFFFFFFFFFFFFFFF AND DUP7 PUSH1 0x20 ADD CALLDATALOAD PUSH32 0x6153F55C528EDCEC957D2FA67D63CB136DEE382001A3487CCF80D636A17BAE84 PUSH1 0x1 DUP8 DUP11 DUP1 PUSH1 0x80 ADD SWAP1 PUSH2 0x1DC2 SWAP2 SWAP1 PUSH2 0x3D64 JUMP JUMPDEST PUSH1 0x40 MLOAD PUSH2 0x1DD2 SWAP5 SWAP4 SWAP3 SWAP2 SWAP1 PUSH2 0x3EF6 JUMP JUMPDEST PUSH1 0x40 MLOAD DUP1 SWAP2 SUB SWAP1 LOG4 POP POP JUMPDEST SWAP5 POP SWAP5 SWAP3 POP POP POP JUMP JUMPDEST PUSH1 0x1 PUSH0 SWAP1 SLOAD SWAP1 PUSH2 0x100 EXP SWAP1 DIV PUSH20 0xFFFFFFFFFFFFFFFFFFFFFFFFFFFFFFFFFFFFFFFF AND DUP2 JUMP JUMPDEST PUSH1 0x4 PUSH0 SWAP1 SLOAD SWAP1 PUSH2 0x100 EXP SWAP1 DIV PUSH20 0xFFFFFFFFFFFFFFFFFFFFFFFFFFFFFFFFFFFFFFFF AND DUP2 JUMP JUMPDEST PUSH0 DUP1 SLOAD SWAP1 PUSH2 0x100 EXP SWAP1 DIV PUSH20 0xFFFFFFFFFFFFFFFFFFFFFFFFFFFFFFFFFFFFFFFF AND DUP2 JUMP JUMPDEST PUSH0 PUSH1 0x9 PUSH0 SWAP1 SLOAD SWAP1 PUSH2 0x100 EXP SWAP1 DIV PUSH20 0xFFFFFFFFFFFFFFFFFFFFFFFFFFFFFFFFFFFFFFFF AND PUSH20 0xFFFFFFFFFFFFFFFFFFFFFFFFFFFFFFFFFFFFFFFF AND CALLER PUSH20 0xFFFFFFFFFFFFFFFFFFFFFFFFFFFFFFFFFFFFFFFF AND EQ PUSH2 0x1EE3 JUMPI PUSH1 0x40 MLOAD PUSH32 0x8C379A000000000000000000000000000000000000000000000000000000000 DUP2 MSTORE PUSH1 0x4 ADD PUSH2 0x1EDA SWAP1 PUSH2 0x36C9 JUMP JUMPDEST PUSH1 0x40 MLOAD DUP1 SWAP2 SUB SWAP1 REVERT JUMPDEST PUSH1 0x1 DUP6 DUP6 SWAP1 POP LT ISZERO DUP1 ISZERO PUSH2 0x1EFB JUMPI POP PUSH1 0x4 DUP6 DUP6 SWAP1 POP GT ISZERO JUMPDEST PUSH2 0x1F3A JUMPI PUSH1 0x40 MLOAD PUSH32 0x8C379A000000000000000000000000000000000000000000000000000000000 DUP2 MSTORE PUSH1 0x4 ADD PUSH2 0x1F31 SWAP1 PUSH2 0x3F7E JUMP JUMPDEST PUSH1 0x40 MLOAD DUP1 SWAP2 SUB SWAP1 REVERT JUMPDEST PUSH0 PUSH20 0xFFFFFFFFFFFFFFFFFFFFFFFFFFFFFFFFFFFFFFFF AND DUP4 PUSH20 0xFFFFFFFFFFFFFFFFFFFFFFFFFFFFFFFFFFFFFFFF AND SUB PUSH2 0x1FA8 JUMPI PUSH1 0x40 MLOAD PUSH32 0x8C379A000000000000000000000000000000000000000000000000000000000 DUP2 MSTORE PUSH1 0x4 ADD PUSH2 0x1F9F SWAP1 PUSH2 0x3FE6 JUMP JUMPDEST PUSH1 0x40 MLOAD DUP1 SWAP2 SUB SWAP1 REVERT JUMPDEST PUSH1 0x2 DUP6 DUP6 SWAP1 POP EQ DUP1 PUSH2 0x1FBD JUMPI POP PUSH1 0x3 DUP6 DUP6 SWAP1 POP EQ JUMPDEST PUSH2 0x1FFC JUMPI PUSH1 0x40 MLOAD PUSH32 0x8C379A000000000000000000000000000000000000000000000000000000000 DUP2 MSTORE PUSH1 0x4 ADD PUSH2 0x1FF3 SWAP1 PUSH2 0x404E JUMP JUMPDEST PUSH1 0x40 MLOAD DUP1 SWAP2 SUB SWAP1 REVERT JUMPDEST PUSH0 DUP1 PUSH0 DUP1 JUMPDEST DUP9 DUP9 SWAP1 POP DUP2 LT ISZERO PUSH2 0x219D JUMPI PUSH0 DUP1 SLOAD SWAP1 PUSH2 0x100 EXP SWAP1 DIV PUSH20 0xFFFFFFFFFFFFFFFFFFFFFFFFFFFFFFFFFFFFFFFF AND PUSH20 0xFFFFFFFFFFFFFFFFFFFFFFFFFFFFFFFFFFFFFFFF AND DUP10 DUP10 DUP4 DUP2 DUP2 LT PUSH2 0x2055 JUMPI PUSH2 0x2054 PUSH2 0x406C JUMP JUMPDEST JUMPDEST SWAP1 POP PUSH1 0x20 MUL ADD PUSH1 0x20 DUP2 ADD SWAP1 PUSH2 0x206A SWAP2 SWAP1 PUSH2 0x4099 JUMP JUMPDEST PUSH20 0xFFFFFFFFFFFFFFFFFFFFFFFFFFFFFFFFFFFFFFFF AND SUB PUSH2 0x208A JUMPI PUSH1 0x1 SWAP4 POP JUMPDEST PUSH1 0x1 PUSH0 SWAP1 SLOAD SWAP1 PUSH2 0x100 EXP SWAP1 DIV PUSH20 0xFFFFFFFFFFFFFFFFFFFFFFFFFFFFFFFFFFFFFFFF AND PUSH20 0xFFFFFFFFFFFFFFFFFFFFFFFFFFFFFFFFFFFFFFFF AND DUP10 DUP10 DUP4 DUP2 DUP2 LT PUSH2 0x20D5 JUMPI PUSH2 0x20D4 PUSH2 0x406C JUMP JUMPDEST JUMPDEST SWAP1 POP PUSH1 0x20 MUL ADD PUSH1 0x20 DUP2 ADD SWAP1 PUSH2 0x20EA SWAP2 SWAP1 PUSH2 0x4099 JUMP JUMPDEST PUSH20 0xFFFFFFFFFFFFFFFFFFFFFFFFFFFFFFFFFFFFFFFF AND SUB PUSH2 0x210A JUMPI PUSH1 0x1 SWAP3 POP JUMPDEST PUSH1 0x2 PUSH0 SWAP1 SLOAD SWAP1 PUSH2 0x100 EXP SWAP1 DIV PUSH20 0xFFFFFFFFFFFFFFFFFFFFFFFFFFFFFFFFFFFFFFFF AND PUSH20 0xFFFFFFFFFFFFFFFFFFFFFFFFFFFFFFFFFFFFFFFF AND DUP10 DUP10 DUP4 DUP2 DUP2 LT PUSH2 0x2155 JUMPI PUSH2 0x2154 PUSH2 0x406C JUMP JUMPDEST JUMPDEST SWAP1 POP PUSH1 0x20 MUL ADD PUSH1 0x20 DUP2 ADD SWAP1 PUSH2 0x216A SWAP2 SWAP1 PUSH2 0x4099 JUMP JUMPDEST PUSH20 0xFFFFFFFFFFFFFFFFFFFFFFFFFFFFFFFFFFFFFFFF AND SUB PUSH2 0x218A JUMPI PUSH1 0x1 SWAP2 POP JUMPDEST DUP1 DUP1 PUSH2 0x2195 SWAP1 PUSH2 0x40CD JUMP JUMPDEST SWAP2 POP POP PUSH2 0x2001 JUMP JUMPDEST POP PUSH1 0x2 DUP9 DUP9 SWAP1 POP SUB PUSH2 0x21F7 JUMPI DUP3 DUP1 ISZERO PUSH2 0x21B3 JUMPI POP DUP1 JUMPDEST PUSH2 0x21F2 JUMPI PUSH1 0x40 MLOAD PUSH32 0x8C379A000000000000000000000000000000000000000000000000000000000 DUP2 MSTORE PUSH1 0x4 ADD PUSH2 0x21E9 SWAP1 PUSH2 0x4184 JUMP JUMPDEST PUSH1 0x40 MLOAD DUP1 SWAP2 SUB SWAP1 REVERT JUMPDEST PUSH2 0x2256 JUMP JUMPDEST PUSH1 0x3 DUP9 DUP9 SWAP1 POP SUB PUSH2 0x2255 JUMPI DUP3 DUP1 ISZERO PUSH2 0x220C JUMPI POP DUP2 JUMPDEST DUP1 ISZERO PUSH2 0x2215 JUMPI POP DUP1 JUMPDEST PUSH2 0x2254 JUMPI PUSH1 0x40 MLOAD PUSH32 0x8C379A000000000000000000000000000000000000000000000000000000000 DUP2 MSTORE PUSH1 0x4 ADD PUSH2 0x224B SWAP1 PUSH2 0x4212 JUMP JUMPDEST PUSH1 0x40 MLOAD DUP1 SWAP2 SUB SWAP1 REVERT JUMPDEST JUMPDEST JUMPDEST DUP10 DUP10 DUP10 DUP10 PUSH1 0x40 MLOAD PUSH1 0x20 ADD PUSH2 0x226D SWAP5 SWAP4 SWAP3 SWAP2 SWAP1 PUSH2 0x42EC JUMP JUMPDEST PUSH1 0x40 MLOAD PUSH1 0x20 DUP2 DUP4 SUB SUB DUP2 MSTORE SWAP1 PUSH1 0x40 MSTORE DUP1 MLOAD SWAP1 PUSH1 0x20 ADD KECCAK256 SWAP4 POP PUSH1 0x40 MLOAD DUP1 PUSH1 0xC0 ADD PUSH1 0x40 MSTORE DUP1 DUP12 DUP2 MSTORE PUSH1 0x20 ADD DUP11 DUP2 MSTORE PUSH1 0x20 ADD DUP10 DUP10 DUP1 DUP1 PUSH1 0x20 MUL PUSH1 0x20 ADD PUSH1 0x40 MLOAD SWAP1 DUP2 ADD PUSH1 0x40 MSTORE DUP1 SWAP4 SWAP3 SWAP2 SWAP1 DUP2 DUP2 MSTORE PUSH1 0x20 ADD DUP4 DUP4 PUSH1 0x20 MUL DUP1 DUP3 DUP5 CALLDATACOPY PUSH0 DUP2 DUP5 ADD MSTORE PUSH1 0x1F NOT PUSH1 0x1F DUP3 ADD AND SWAP1 POP DUP1 DUP4 ADD SWAP3 POP POP POP POP POP POP POP DUP2 MSTORE PUSH1 0x20 ADD DUP8 PUSH20 0xFFFFFFFFFFFFFFFFFFFFFFFFFFFFFFFFFFFFFFFF AND DUP2 MSTORE PUSH1 0x20 ADD DUP7 PUSH8 0xFFFFFFFFFFFFFFFF AND DUP2 MSTORE PUSH1 0x20 ADD PUSH1 0x1 ISZERO ISZERO DUP2 MSTORE POP PUSH1 0xB PUSH0 DUP7 DUP2 MSTORE PUSH1 0x20 ADD SWAP1 DUP2 MSTORE PUSH1 0x20 ADD PUSH0 KECCAK256 PUSH0 DUP3 ADD MLOAD DUP2 PUSH0 ADD SSTORE PUSH1 0x20 DUP3 ADD MLOAD DUP2 PUSH1 0x1 ADD SSTORE PUSH1 0x40 DUP3 ADD MLOAD DUP2 PUSH1 0x2 ADD SWAP1 DUP1 MLOAD SWAP1 PUSH1 0x20 ADD SWAP1 PUSH2 0x2354 SWAP3 SWAP2 SWAP1 PUSH2 0x2CAD JUMP JUMPDEST POP PUSH1 0x60 DUP3 ADD MLOAD DUP2 PUSH1 0x3 ADD PUSH0 PUSH2 0x100 EXP DUP2 SLOAD DUP2 PUSH20 0xFFFFFFFFFFFFFFFFFFFFFFFFFFFFFFFFFFFFFFFF MUL NOT AND SWAP1 DUP4 PUSH20 0xFFFFFFFFFFFFFFFFFFFFFFFFFFFFFFFFFFFFFFFF AND MUL OR SWAP1 SSTORE POP PUSH1 0x80 DUP3 ADD MLOAD DUP2 PUSH1 0x3 ADD PUSH1 0x14 PUSH2 0x100 EXP DUP2 SLOAD DUP2 PUSH8 0xFFFFFFFFFFFFFFFF MUL NOT AND SWAP1 DUP4 PUSH8 0xFFFFFFFFFFFFFFFF AND MUL OR SWAP1 SSTORE POP PUSH1 0xA0 DUP3 ADD MLOAD DUP2 PUSH1 0x3 ADD PUSH1 0x1C PUSH2 0x100 EXP DUP2 SLOAD DUP2 PUSH1 0xFF MUL NOT AND SWAP1 DUP4 ISZERO ISZERO MUL OR SWAP1 SSTORE POP SWAP1 POP POP DUP4 PUSH32 0xAD9207819DD7ABB936F2B1637265BF626978AF91D6F25A44322FB43FE34AADFB DUP12 DUP12 DUP12 DUP12 DUP12 DUP12 PUSH1 0x40 MLOAD PUSH2 0x2427 SWAP7 SWAP6 SWAP5 SWAP4 SWAP3 SWAP2 SWAP1 PUSH2 0x432A JUMP JUMPDEST PUSH1 0x40 MLOAD DUP1 SWAP2 SUB SWAP1 LOG2 POP POP POP SWAP7 SWAP6 POP POP POP POP POP POP JUMP JUMPDEST PUSH0 PUSH1 0xC PUSH0 DUP5 DUP2 MSTORE PUSH1 0x20 ADD SWAP1 DUP2 MSTORE PUSH1 0x20 ADD PUSH0 KECCAK256 PUSH0 DUP4 PUSH20 0xFFFFFFFFFFFFFFFFFFFFFFFFFFFFFFFFFFFFFFFF AND PUSH20 0xFFFFFFFFFFFFFFFFFFFFFFFFFFFFFFFFFFFFFFFF AND DUP2 MSTORE PUSH1 0x20 ADD SWAP1 DUP2 MSTORE PUSH1 0x20 ADD PUSH0 KECCAK256 PUSH0 SWAP1 SLOAD SWAP1 PUSH2 0x100 EXP SWAP1 DIV PUSH3 0xFFFFFF AND SWAP1 POP SWAP3 SWAP2 POP POP JUMP JUMPDEST PUSH1 0xA SLOAD DUP2 JUMP JUMPDEST PUSH1 0x3 PUSH0 SWAP1 SLOAD SWAP1 PUSH2 0x100 EXP SWAP1 DIV PUSH20 0xFFFFFFFFFFFFFFFFFFFFFFFFFFFFFFFFFFFFFFFF AND DUP2 JUMP JUMPDEST PUSH0 DUP5 DUP5 DUP5 DUP5 PUSH32 0x217FFB743E749E59632E1A39A53634096481CB82EE5F27B44698DCC2C7453F01 PUSH1 0x40 MLOAD PUSH1 0x20 ADD PUSH2 0x2505 SWAP6 SWAP5 SWAP4 SWAP3 SWAP2 SWAP1 PUSH2 0x4384 JUMP JUMPDEST PUSH1 0x40 MLOAD PUSH1 0x20 DUP2 DUP4 SUB SUB DUP2 MSTORE SWAP1 PUSH1 0x40 MSTORE DUP1 MLOAD SWAP1 PUSH1 0x20 ADD KECCAK256 SWAP1 POP SWAP5 SWAP4 POP POP POP POP JUMP JUMPDEST PUSH0 DUP1 PUSH0 DUP5 PUSH20 0xFFFFFFFFFFFFFFFFFFFFFFFFFFFFFFFFFFFFFFFF AND DUP7 PUSH20 0xFFFFFFFFFFFFFFFFFFFFFFFFFFFFFFFFFFFFFFFF AND LT PUSH2 0x2562 JUMPI DUP5 DUP7 PUSH2 0x2565 JUMP JUMPDEST DUP6 DUP6 JUMPDEST SWAP2 POP SWAP2 POP DUP2 DUP2 DUP6 PUSH32 0x892486F2DB77FEBA50B67FD68CCCF02ECCA6D746664216A0449ECB5BA18F8DE PUSH1 0x40 MLOAD PUSH1 0x20 ADD PUSH2 0x25A0 SWAP5 SWAP4 SWAP3 SWAP2 SWAP1 PUSH2 0x43D5 JUMP JUMPDEST PUSH1 0x40 MLOAD PUSH1 0x20 DUP2 DUP4 SUB SUB DUP2 MSTORE SWAP1 PUSH1 0x40 MSTORE DUP1 MLOAD SWAP1 PUSH1 0x20 ADD KECCAK256 SWAP3 POP POP POP SWAP4 SWAP3 POP POP POP JUMP JUMPDEST PUSH0 PUSH32 0x72F7DDC62C67E3943091F9C7B899298A6C6B0287758C513C5036EDA57075E6E3 DUP3 SUB PUSH2 0x25FA JUMPI PUSH2 0x25F3 DUP5 DUP5 PUSH2 0x2A75 JUMP JUMPDEST SWAP1 POP PUSH2 0x2636 JUMP JUMPDEST PUSH32 0x5C121EE8B573E4E6586BCAFEC852BD980B83EA2AA4A37F9FCCB6FA546927C42B DUP3 SUB PUSH2 0x2632 JUMPI PUSH2 0x262B DUP5 DUP5 PUSH2 0x2B4C JUMP JUMPDEST SWAP1 POP PUSH2 0x2636 JUMP JUMPDEST PUSH0 SWAP1 POP JUMPDEST SWAP4 SWAP3 POP POP POP JUMP JUMPDEST PUSH0 DUP1 PUSH0 DUP1 DUP5 PUSH20 0xFFFFFFFFFFFFFFFFFFFFFFFFFFFFFFFFFFFFFFFF AND DUP7 PUSH20 0xFFFFFFFFFFFFFFFFFFFFFFFFFFFFFFFFFFFFFFFF AND LT PUSH2 0x267B JUMPI DUP5 DUP7 PUSH2 0x267E JUMP JUMPDEST DUP6 DUP6 JUMPDEST SWAP2 POP SWAP2 POP PUSH32 0xDC97FA766EF264A9032A03DA1E1F626C0CBED281C516D13E20E855BC020E1E2C DUP7 DUP7 DUP5 DUP5 PUSH0 DUP1 SLOAD SWAP1 PUSH2 0x100 EXP SWAP1 DIV PUSH20 0xFFFFFFFFFFFFFFFFFFFFFFFFFFFFFFFFFFFFFFFF AND PUSH1 0x1 PUSH0 SWAP1 SLOAD SWAP1 PUSH2 0x100 EXP SWAP1 DIV PUSH20 0xFFFFFFFFFFFFFFFFFFFFFFFFFFFFFFFFFFFFFFFF AND PUSH0 DUP1 SLOAD SWAP1 PUSH2 0x100 EXP SWAP1 DIV PUSH20 0xFFFFFFFFFFFFFFFFFFFFFFFFFFFFFFFFFFFFFFFF AND PUSH20 0xFFFFFFFFFFFFFFFFFFFFFFFFFFFFFFFFFFFFFFFF AND DUP10 PUSH20 0xFFFFFFFFFFFFFFFFFFFFFFFFFFFFFFFFFFFFFFFF AND EQ PUSH1 0x1 PUSH0 SWAP1 SLOAD SWAP1 PUSH2 0x100 EXP SWAP1 DIV PUSH20 0xFFFFFFFFFFFFFFFFFFFFFFFFFFFFFFFFFFFFFFFF AND PUSH20 0xFFFFFFFFFFFFFFFFFFFFFFFFFFFFFFFFFFFFFFFF AND DUP10 PUSH20 0xFFFFFFFFFFFFFFFFFFFFFFFFFFFFFFFFFFFFFFFF AND EQ PUSH1 0x40 MLOAD PUSH2 0x279B SWAP9 SWAP8 SWAP7 SWAP6 SWAP5 SWAP4 SWAP3 SWAP2 SWAP1 PUSH2 0x4418 JUMP JUMPDEST PUSH1 0x40 MLOAD DUP1 SWAP2 SUB SWAP1 LOG1 PUSH0 DUP1 SLOAD SWAP1 PUSH2 0x100 EXP SWAP1 DIV PUSH20 0xFFFFFFFFFFFFFFFFFFFFFFFFFFFFFFFFFFFFFFFF AND PUSH20 0xFFFFFFFFFFFFFFFFFFFFFFFFFFFFFFFFFFFFFFFF AND DUP3 PUSH20 0xFFFFFFFFFFFFFFFFFFFFFFFFFFFFFFFFFFFFFFFF AND EQ DUP1 ISZERO PUSH2 0x2849 JUMPI POP PUSH1 0x1 PUSH0 SWAP1 SLOAD SWAP1 PUSH2 0x100 EXP SWAP1 DIV PUSH20 0xFFFFFFFFFFFFFFFFFFFFFFFFFFFFFFFFFFFFFFFF AND PUSH20 0xFFFFFFFFFFFFFFFFFFFFFFFFFFFFFFFFFFFFFFFF AND DUP2 PUSH20 0xFFFFFFFFFFFFFFFFFFFFFFFFFFFFFFFFFFFFFFFF AND EQ JUMPDEST ISZERO PUSH2 0x287D JUMPI PUSH1 0x3 PUSH0 SWAP1 SLOAD SWAP1 PUSH2 0x100 EXP SWAP1 DIV PUSH20 0xFFFFFFFFFFFFFFFFFFFFFFFFFFFFFFFFFFFFFFFF AND PUSH1 0x1 SWAP4 POP SWAP4 POP POP POP PUSH2 0x2A6E JUMP JUMPDEST PUSH1 0x1 PUSH0 SWAP1 SLOAD SWAP1 PUSH2 0x100 EXP SWAP1 DIV PUSH20 0xFFFFFFFFFFFFFFFFFFFFFFFFFFFFFFFFFFFFFFFF AND PUSH20 0xFFFFFFFFFFFFFFFFFFFFFFFFFFFFFFFFFFFFFFFF AND DUP3 PUSH20 0xFFFFFFFFFFFFFFFFFFFFFFFFFFFFFFFFFFFFFFFF AND EQ DUP1 ISZERO PUSH2 0x2925 JUMPI POP PUSH1 0x2 PUSH0 SWAP1 SLOAD SWAP1 PUSH2 0x100 EXP SWAP1 DIV PUSH20 0xFFFFFFFFFFFFFFFFFFFFFFFFFFFFFFFFFFFFFFFF AND PUSH20 0xFFFFFFFFFFFFFFFFFFFFFFFFFFFFFFFFFFFFFFFF AND DUP2 PUSH20 0xFFFFFFFFFFFFFFFFFFFFFFFFFFFFFFFFFFFFFFFF AND EQ JUMPDEST ISZERO PUSH2 0x2959 JUMPI PUSH1 0x4 PUSH0 SWAP1 SLOAD SWAP1 PUSH2 0x100 EXP SWAP1 DIV PUSH20 0xFFFFFFFFFFFFFFFFFFFFFFFFFFFFFFFFFFFFFFFF AND PUSH1 0x1 SWAP4 POP SWAP4 POP POP POP PUSH2 0x2A6E JUMP JUMPDEST PUSH0 DUP1 SLOAD SWAP1 PUSH2 0x100 EXP SWAP1 DIV PUSH20 0xFFFFFFFFFFFFFFFFFFFFFFFFFFFFFFFFFFFFFFFF AND PUSH20 0xFFFFFFFFFFFFFFFFFFFFFFFFFFFFFFFFFFFFFFFF AND DUP3 PUSH20 0xFFFFFFFFFFFFFFFFFFFFFFFFFFFFFFFFFFFFFFFF AND EQ DUP1 ISZERO PUSH2 0x29FF JUMPI POP PUSH1 0x2 PUSH0 SWAP1 SLOAD SWAP1 PUSH2 0x100 EXP SWAP1 DIV PUSH20 0xFFFFFFFFFFFFFFFFFFFFFFFFFFFFFFFFFFFFFFFF AND PUSH20 0xFFFFFFFFFFFFFFFFFFFFFFFFFFFFFFFFFFFFFFFF AND DUP2 PUSH20 0xFFFFFFFFFFFFFFFFFFFFFFFFFFFFFFFFFFFFFFFF AND EQ JUMPDEST ISZERO PUSH2 0x2A33 JUMPI PUSH1 0x5 PUSH0 SWAP1 SLOAD SWAP1 PUSH2 0x100 EXP SWAP1 DIV PUSH20 0xFFFFFFFFFFFFFFFFFFFFFFFFFFFFFFFFFFFFFFFF AND PUSH1 0x1 SWAP4 POP SWAP4 POP POP POP PUSH2 0x2A6E JUMP JUMPDEST PUSH1 0x40 MLOAD PUSH32 0x8C379A000000000000000000000000000000000000000000000000000000000 DUP2 MSTORE PUSH1 0x4 ADD PUSH2 0x2A65 SWAP1 PUSH2 0x44DE JUMP JUMPDEST PUSH1 0x40 MLOAD DUP1 SWAP2 SUB SWAP1 REVERT JUMPDEST SWAP3 POP SWAP3 SWAP1 POP JUMP JUMPDEST PUSH0 DUP1 PUSH1 0x10 DUP5 PUSH3 0xFFFFFF AND SWAP1 SHR SWAP1 POP PUSH0 PUSH1 0x8 DUP6 PUSH3 0xFFFFFF AND SWAP1 SHR SWAP1 POP PUSH0 DUP6 SWAP1 POP PUSH0 PUSH1 0x10 DUP7 PUSH3 0xFFFFFF AND SWAP1 SHR SWAP1 POP PUSH0 PUSH1 0x8 DUP8 PUSH3 0xFFFFFF AND SWAP1 SHR SWAP1 POP PUSH0 DUP8 SWAP1 POP PUSH0 DUP4 PUSH1 0xFF AND DUP8 PUSH1 0xFF AND GT PUSH2 0x2AC6 JUMPI PUSH0 PUSH2 0x2AD3 JUMP JUMPDEST DUP4 DUP8 PUSH2 0x2AD2 SWAP2 SWAP1 PUSH2 0x4508 JUMP JUMPDEST JUMPDEST SWAP1 POP PUSH0 DUP4 PUSH1 0xFF AND DUP8 PUSH1 0xFF AND GT PUSH2 0x2AE9 JUMPI PUSH0 PUSH2 0x2AF6 JUMP JUMPDEST DUP4 DUP8 PUSH2 0x2AF5 SWAP2 SWAP1 PUSH2 0x4508 JUMP JUMPDEST JUMPDEST SWAP1 POP PUSH0 DUP4 PUSH1 0xFF AND DUP8 PUSH1 0xFF AND GT PUSH2 0x2B0C JUMPI PUSH0 PUSH2 0x2B19 JUMP JUMPDEST DUP4 DUP8 PUSH2 0x2B18 SWAP2 SWAP1 PUSH2 0x4508 JUMP JUMPDEST JUMPDEST SWAP1 POP DUP1 PUSH1 0xFF AND PUSH1 0x8 DUP4 PUSH1 0xFF AND PUSH3 0xFFFFFF AND SWAP1 SHL PUSH1 0x10 DUP6 PUSH1 0xFF AND PUSH3 0xFFFFFF AND SWAP1 SHL OR OR SWAP10 POP POP POP POP POP POP POP POP POP POP SWAP3 SWAP2 POP POP JUMP JUMPDEST PUSH0 DUP1 PUSH1 0x10 DUP5 PUSH3 0xFFFFFF AND SWAP1 SHR SWAP1 POP PUSH0 PUSH1 0x8 DUP6 PUSH3 0xFFFFFF AND SWAP1 SHR SWAP1 POP PUSH0 DUP6 SWAP1 POP PUSH0 PUSH1 0x10 DUP7 PUSH3 0xFFFFFF AND SWAP1 SHR SWAP1 POP PUSH0 PUSH1 0x8 DUP8 PUSH3 0xFFFFFF AND SWAP1 SHR SWAP1 POP PUSH0 DUP8 SWAP1 POP PUSH0 DUP7 PUSH1 0xFF PUSH2 0x2B97 SWAP2 SWAP1 PUSH2 0x4508 JUMP JUMPDEST SWAP1 POP PUSH0 DUP7 PUSH1 0xFF PUSH2 0x2BA7 SWAP2 SWAP1 PUSH2 0x4508 JUMP JUMPDEST SWAP1 POP PUSH0 DUP7 PUSH1 0xFF PUSH2 0x2BB7 SWAP2 SWAP1 PUSH2 0x4508 JUMP JUMPDEST SWAP1 POP PUSH0 DUP7 PUSH1 0xFF PUSH2 0x2BC7 SWAP2 SWAP1 PUSH2 0x4508 JUMP JUMPDEST SWAP1 POP PUSH0 DUP7 PUSH1 0xFF PUSH2 0x2BD7 SWAP2 SWAP1 PUSH2 0x4508 JUMP JUMPDEST SWAP1 POP PUSH0 DUP7 PUSH1 0xFF PUSH2 0x2BE7 SWAP2 SWAP1 PUSH2 0x4508 JUMP JUMPDEST SWAP1 POP PUSH0 DUP4 PUSH1 0xFF AND DUP8 PUSH1 0xFF AND GT PUSH2 0x2BFD JUMPI PUSH0 PUSH2 0x2C0A JUMP JUMPDEST DUP4 DUP8 PUSH2 0x2C09 SWAP2 SWAP1 PUSH2 0x4508 JUMP JUMPDEST JUMPDEST SWAP1 POP PUSH0 DUP4 PUSH1 0xFF AND DUP8 PUSH1 0xFF AND GT PUSH2 0x2C20 JUMPI PUSH0 PUSH2 0x2C2D JUMP JUMPDEST DUP4 DUP8 PUSH2 0x2C2C SWAP2 SWAP1 PUSH2 0x4508 JUMP JUMPDEST JUMPDEST SWAP1 POP PUSH0 DUP4 PUSH1 0xFF AND DUP8 PUSH1 0xFF AND GT PUSH2 0x2C43 JUMPI PUSH0 PUSH2 0x2C50 JUMP JUMPDEST DUP4 DUP8 PUSH2 0x2C4F SWAP2 SWAP1 PUSH2 0x4508 JUMP JUMPDEST JUMPDEST SWAP1 POP DUP1 PUSH1 0xFF PUSH2 0x2C5F SWAP2 SWAP1 PUSH2 0x4508 JUMP JUMPDEST PUSH1 0xFF AND PUSH1 0x8 DUP4 PUSH1 0xFF PUSH2 0x2C71 SWAP2 SWAP1 PUSH2 0x4508 JUMP JUMPDEST PUSH1 0xFF AND PUSH3 0xFFFFFF AND SWAP1 SHL PUSH1 0x10 DUP6 PUSH1 0xFF PUSH2 0x2C8A SWAP2 SWAP1 PUSH2 0x4508 JUMP JUMPDEST PUSH1 0xFF AND PUSH3 0xFFFFFF AND SWAP1 SHL OR OR SWAP16 POP POP POP POP POP POP POP POP POP POP POP POP POP POP POP POP SWAP3 SWAP2 POP POP JUMP JUMPDEST DUP3 DUP1 SLOAD DUP3 DUP3 SSTORE SWAP1 PUSH0 MSTORE PUSH1 0x20 PUSH0 KECCAK256 SWAP1 DUP2 ADD SWAP3 DUP3 ISZERO PUSH2 0x2D23 JUMPI SWAP2 PUSH1 0x20 MUL DUP3 ADD JUMPDEST DUP3 DUP2 GT ISZERO PUSH2 0x2D22 JUMPI DUP3 MLOAD DUP3 PUSH0 PUSH2 0x100 EXP DUP2 SLOAD DUP2 PUSH20 0xFFFFFFFFFFFFFFFFFFFFFFFFFFFFFFFFFFFFFFFF MUL NOT AND SWAP1 DUP4 PUSH20 0xFFFFFFFFFFFFFFFFFFFFFFFFFFFFFFFFFFFFFFFF AND MUL OR SWAP1 SSTORE POP SWAP2 PUSH1 0x20 ADD SWAP2 SWAP1 PUSH1 0x1 ADD SWAP1 PUSH2 0x2CCB JUMP JUMPDEST JUMPDEST POP SWAP1 POP PUSH2 0x2D30 SWAP2 SWAP1 PUSH2 0x2D34 JUMP JUMPDEST POP SWAP1 JUMP JUMPDEST JUMPDEST DUP1 DUP3 GT ISZERO PUSH2 0x2D4B JUMPI PUSH0 DUP2 PUSH0 SWAP1 SSTORE POP PUSH1 0x1 ADD PUSH2 0x2D35 JUMP JUMPDEST POP SWAP1 JUMP JUMPDEST PUSH0 DUP2 SWAP1 POP SWAP2 SWAP1 POP JUMP JUMPDEST PUSH2 0x2D61 DUP2 PUSH2 0x2D4F JUMP JUMPDEST DUP3 MSTORE POP POP JUMP JUMPDEST PUSH0 PUSH1 0x20 DUP3 ADD SWAP1 POP PUSH2 0x2D7A PUSH0 DUP4 ADD DUP5 PUSH2 0x2D58 JUMP JUMPDEST SWAP3 SWAP2 POP POP JUMP JUMPDEST PUSH0 PUSH1 0x40 MLOAD SWAP1 POP SWAP1 JUMP JUMPDEST PUSH0 DUP1 REVERT JUMPDEST PUSH0 DUP1 REVERT JUMPDEST PUSH2 0x2D9A DUP2 PUSH2 0x2D4F JUMP JUMPDEST DUP2 EQ PUSH2 0x2DA4 JUMPI PUSH0 DUP1 REVERT JUMPDEST POP JUMP JUMPDEST PUSH0 DUP2 CALLDATALOAD SWAP1 POP PUSH2 0x2DB5 DUP2 PUSH2 0x2D91 JUMP JUMPDEST SWAP3 SWAP2 POP POP JUMP JUMPDEST PUSH0 PUSH1 0x20 DUP3 DUP5 SUB SLT ISZERO PUSH2 0x2DD0 JUMPI PUSH2 0x2DCF PUSH2 0x2D89 JUMP JUMPDEST JUMPDEST PUSH0 PUSH2 0x2DDD DUP5 DUP3 DUP6 ADD PUSH2 0x2DA7 JUMP JUMPDEST SWAP2 POP POP SWAP3 SWAP2 POP POP JUMP JUMPDEST PUSH0 PUSH20 0xFFFFFFFFFFFFFFFFFFFFFFFFFFFFFFFFFFFFFFFF DUP3 AND SWAP1 POP SWAP2 SWAP1 POP JUMP JUMPDEST PUSH0 PUSH2 0x2E0F DUP3 PUSH2 0x2DE6 JUMP JUMPDEST SWAP1 POP SWAP2 SWAP1 POP JUMP JUMPDEST PUSH2 0x2E1F DUP2 PUSH2 0x2E05 JUMP JUMPDEST DUP3 MSTORE POP POP JUMP JUMPDEST PUSH0 PUSH8 0xFFFFFFFFFFFFFFFF DUP3 AND SWAP1 POP SWAP2 SWAP1 POP JUMP JUMPDEST PUSH2 0x2E41 DUP2 PUSH2 0x2E25 JUMP JUMPDEST DUP3 MSTORE POP POP JUMP JUMPDEST PUSH0 PUSH1 0x40 DUP3 ADD SWAP1 POP PUSH2 0x2E5A PUSH0 DUP4 ADD DUP6 PUSH2 0x2E16 JUMP JUMPDEST PUSH2 0x2E67 PUSH1 0x20 DUP4 ADD DUP5 PUSH2 0x2E38 JUMP JUMPDEST SWAP4 SWAP3 POP POP POP JUMP JUMPDEST PUSH0 DUP2 SWAP1 POP SWAP2 SWAP1 POP JUMP JUMPDEST PUSH0 PUSH2 0x2E91 PUSH2 0x2E8C PUSH2 0x2E87 DUP5 PUSH2 0x2DE6 JUMP JUMPDEST PUSH2 0x2E6E JUMP JUMPDEST PUSH2 0x2DE6 JUMP JUMPDEST SWAP1 POP SWAP2 SWAP1 POP JUMP JUMPDEST PUSH0 PUSH2 0x2EA2 DUP3 PUSH2 0x2E77 JUMP JUMPDEST SWAP1 POP SWAP2 SWAP1 POP JUMP JUMPDEST PUSH0 PUSH2 0x2EB3 DUP3 PUSH2 0x2E98 JUMP JUMPDEST SWAP1 POP SWAP2 SWAP1 POP JUMP JUMPDEST PUSH2 0x2EC3 DUP2 PUSH2 0x2EA9 JUMP JUMPDEST DUP3 MSTORE POP POP JUMP JUMPDEST PUSH0 PUSH1 0x20 DUP3 ADD SWAP1 POP PUSH2 0x2EDC PUSH0 DUP4 ADD DUP5 PUSH2 0x2EBA JUMP JUMPDEST SWAP3 SWAP2 POP POP JUMP JUMPDEST PUSH0 DUP2 ISZERO ISZERO SWAP1 POP SWAP2 SWAP1 POP JUMP JUMPDEST PUSH2 0x2EF6 DUP2 PUSH2 0x2EE2 JUMP JUMPDEST DUP3 MSTORE POP POP JUMP JUMPDEST PUSH0 PUSH1 0xA0 DUP3 ADD SWAP1 POP PUSH2 0x2F0F PUSH0 DUP4 ADD DUP9 PUSH2 0x2D58 JUMP JUMPDEST PUSH2 0x2F1C PUSH1 0x20 DUP4 ADD DUP8 PUSH2 0x2D58 JUMP JUMPDEST PUSH2 0x2F29 PUSH1 0x40 DUP4 ADD DUP7 PUSH2 0x2E16 JUMP JUMPDEST PUSH2 0x2F36 PUSH1 0x60 DUP4 ADD DUP6 PUSH2 0x2E38 JUMP JUMPDEST PUSH2 0x2F43 PUSH1 0x80 DUP4 ADD DUP5 PUSH2 0x2EED JUMP JUMPDEST SWAP7 SWAP6 POP POP POP POP POP POP JUMP JUMPDEST PUSH2 0x2F56 DUP2 PUSH2 0x2E05 JUMP JUMPDEST DUP2 EQ PUSH2 0x2F60 JUMPI PUSH0 DUP1 REVERT JUMPDEST POP JUMP JUMPDEST PUSH0 DUP2 CALLDATALOAD SWAP1 POP PUSH2 0x2F71 DUP2 PUSH2 0x2F4D JUMP JUMPDEST SWAP3 SWAP2 POP POP JUMP JUMPDEST PUSH0 DUP1 REVERT JUMPDEST PUSH0 DUP1 REVERT JUMPDEST PUSH0 DUP1 REVERT JUMPDEST PUSH0 DUP1 DUP4 PUSH1 0x1F DUP5 ADD SLT PUSH2 0x2F98 JUMPI PUSH2 0x2F97 PUSH2 0x2F77 JUMP JUMPDEST JUMPDEST DUP3 CALLDATALOAD SWAP1 POP PUSH8 0xFFFFFFFFFFFFFFFF DUP2 GT ISZERO PUSH2 0x2FB5 JUMPI PUSH2 0x2FB4 PUSH2 0x2F7B JUMP JUMPDEST JUMPDEST PUSH1 0x20 DUP4 ADD SWAP2 POP DUP4 PUSH1 0x1 DUP3 MUL DUP4 ADD GT ISZERO PUSH2 0x2FD1 JUMPI PUSH2 0x2FD0 PUSH2 0x2F7F JUMP JUMPDEST JUMPDEST SWAP3 POP SWAP3 SWAP1 POP JUMP JUMPDEST PUSH0 DUP1 PUSH0 DUP1 PUSH1 0x60 DUP6 DUP8 SUB SLT ISZERO PUSH2 0x2FF0 JUMPI PUSH2 0x2FEF PUSH2 0x2D89 JUMP JUMPDEST JUMPDEST PUSH0 PUSH2 0x2FFD DUP8 DUP3 DUP9 ADD PUSH2 0x2F63 JUMP JUMPDEST SWAP5 POP POP PUSH1 0x20 PUSH2 0x300E DUP8 DUP3 DUP9 ADD PUSH2 0x2DA7 JUMP JUMPDEST SWAP4 POP POP PUSH1 0x40 DUP6 ADD CALLDATALOAD PUSH8 0xFFFFFFFFFFFFFFFF DUP2 GT ISZERO PUSH2 0x302F JUMPI PUSH2 0x302E PUSH2 0x2D8D JUMP JUMPDEST JUMPDEST PUSH2 0x303B DUP8 DUP3 DUP9 ADD PUSH2 0x2F83 JUMP JUMPDEST SWAP3 POP SWAP3 POP POP SWAP3 SWAP6 SWAP2 SWAP5 POP SWAP3 POP JUMP JUMPDEST PUSH2 0x3052 DUP2 PUSH2 0x2E25 JUMP JUMPDEST DUP2 EQ PUSH2 0x305C JUMPI PUSH0 DUP1 REVERT JUMPDEST POP JUMP JUMPDEST PUSH0 DUP2 CALLDATALOAD SWAP1 POP PUSH2 0x306D DUP2 PUSH2 0x3049 JUMP JUMPDEST SWAP3 SWAP2 POP POP JUMP JUMPDEST PUSH0 DUP1 PUSH0 DUP1 PUSH0 PUSH1 0x80 DUP7 DUP9 SUB SLT ISZERO PUSH2 0x308C JUMPI PUSH2 0x308B PUSH2 0x2D89 JUMP JUMPDEST JUMPDEST PUSH0 PUSH2 0x3099 DUP9 DUP3 DUP10 ADD PUSH2 0x2DA7 JUMP JUMPDEST SWAP6 POP POP PUSH1 0x20 PUSH2 0x30AA DUP9 DUP3 DUP10 ADD PUSH2 0x305F JUMP JUMPDEST SWAP5 POP POP PUSH1 0x40 PUSH2 0x30BB DUP9 DUP3 DUP10 ADD PUSH2 0x2DA7 JUMP JUMPDEST SWAP4 POP POP PUSH1 0x60 DUP7 ADD CALLDATALOAD PUSH8 0xFFFFFFFFFFFFFFFF DUP2 GT ISZERO PUSH2 0x30DC JUMPI PUSH2 0x30DB PUSH2 0x2D8D JUMP JUMPDEST JUMPDEST PUSH2 0x30E8 DUP9 DUP3 DUP10 ADD PUSH2 0x2F83 JUMP JUMPDEST SWAP3 POP SWAP3 POP POP SWAP3 SWAP6 POP SWAP3 SWAP6 SWAP1 SWAP4 POP JUMP JUMPDEST PUSH0 PUSH1 0x20 DUP3 ADD SWAP1 POP PUSH2 0x310A PUSH0 DUP4 ADD DUP5 PUSH2 0x2E38 JUMP JUMPDEST SWAP3 SWAP2 POP POP JUMP JUMPDEST PUSH0 DUP1 PUSH1 0x40 DUP4 DUP6 SUB SLT ISZERO PUSH2 0x3126 JUMPI PUSH2 0x3125 PUSH2 0x2D89 JUMP JUMPDEST JUMPDEST PUSH0 PUSH2 0x3133 DUP6 DUP3 DUP7 ADD PUSH2 0x2DA7 JUMP JUMPDEST SWAP3 POP POP PUSH1 0x20 PUSH2 0x3144 DUP6 DUP3 DUP7 ADD PUSH2 0x2F63 JUMP JUMPDEST SWAP2 POP POP SWAP3 POP SWAP3 SWAP1 POP JUMP JUMPDEST PUSH0 PUSH3 0xFFFFFF DUP3 AND SWAP1 POP SWAP2 SWAP1 POP JUMP JUMPDEST PUSH2 0x3165 DUP2 PUSH2 0x314E JUMP JUMPDEST DUP3 MSTORE POP POP JUMP JUMPDEST PUSH0 PUSH1 0x20 DUP3 ADD SWAP1 POP PUSH2 0x317E PUSH0 DUP4 ADD DUP5 PUSH2 0x315C JUMP JUMPDEST SWAP3 SWAP2 POP POP JUMP JUMPDEST PUSH0 DUP1 PUSH0 DUP1 PUSH1 0x80 DUP6 DUP8 SUB SLT ISZERO PUSH2 0x319C JUMPI PUSH2 0x319B PUSH2 0x2D89 JUMP JUMPDEST JUMPDEST PUSH0 PUSH2 0x31A9 DUP8 DUP3 DUP9 ADD PUSH2 0x2F63 JUMP JUMPDEST SWAP5 POP POP PUSH1 0x20 PUSH2 0x31BA DUP8 DUP3 DUP9 ADD PUSH2 0x2F63 JUMP JUMPDEST SWAP4 POP POP PUSH1 0x40 PUSH2 0x31CB DUP8 DUP3 DUP9 ADD PUSH2 0x2DA7 JUMP JUMPDEST SWAP3 POP POP PUSH1 0x60 PUSH2 0x31DC DUP8 DUP3 DUP9 ADD PUSH2 0x2DA7 JUMP JUMPDEST SWAP2 POP POP SWAP3 SWAP6 SWAP2 SWAP5 POP SWAP3 POP JUMP JUMPDEST PUSH0 PUSH1 0x80 DUP3 ADD SWAP1 POP PUSH2 0x31FB PUSH0 DUP4 ADD DUP8 PUSH2 0x2D58 JUMP JUMPDEST PUSH2 0x3208 PUSH1 0x20 DUP4 ADD DUP7 PUSH2 0x2D58 JUMP JUMPDEST PUSH2 0x3215 PUSH1 0x40 DUP4 ADD DUP6 PUSH2 0x2EED JUMP JUMPDEST PUSH2 0x3222 PUSH1 0x60 DUP4 ADD DUP5 PUSH2 0x2EED JUMP JUMPDEST SWAP6 SWAP5 POP POP POP POP POP JUMP JUMPDEST PUSH0 PUSH1 0x20 DUP3 ADD SWAP1 POP PUSH2 0x323E PUSH0 DUP4 ADD DUP5 PUSH2 0x2E16 JUMP JUMPDEST SWAP3 SWAP2 POP POP JUMP JUMPDEST PUSH0 DUP1 PUSH0 DUP1 PUSH0 DUP1 PUSH0 DUP1 PUSH0 PUSH2 0x120 DUP11 DUP13 SUB SLT ISZERO PUSH2 0x3262 JUMPI PUSH2 0x3261 PUSH2 0x2D89 JUMP JUMPDEST JUMPDEST PUSH0 PUSH2 0x326F DUP13 DUP3 DUP14 ADD PUSH2 0x2F63 JUMP JUMPDEST SWAP10 POP POP PUSH1 0x20 PUSH2 0x3280 DUP13 DUP3 DUP14 ADD PUSH2 0x2F63 JUMP JUMPDEST SWAP9 POP POP PUSH1 0x40 PUSH2 0x3291 DUP13 DUP3 DUP14 ADD PUSH2 0x2F63 JUMP JUMPDEST SWAP8 POP POP PUSH1 0x60 PUSH2 0x32A2 DUP13 DUP3 DUP14 ADD PUSH2 0x2F63 JUMP JUMPDEST SWAP7 POP POP PUSH1 0x80 PUSH2 0x32B3 DUP13 DUP3 DUP14 ADD PUSH2 0x2F63 JUMP JUMPDEST SWAP6 POP POP PUSH1 0xA0 PUSH2 0x32C4 DUP13 DUP3 DUP14 ADD PUSH2 0x2F63 JUMP JUMPDEST SWAP5 POP POP PUSH1 0xC0 PUSH2 0x32D5 DUP13 DUP3 DUP14 ADD PUSH2 0x2F63 JUMP JUMPDEST SWAP4 POP POP PUSH1 0xE0 PUSH2 0x32E6 DUP13 DUP3 DUP14 ADD PUSH2 0x2F63 JUMP JUMPDEST SWAP3 POP POP PUSH2 0x100 PUSH2 0x32F8 DUP13 DUP3 DUP14 ADD PUSH2 0x2F63 JUMP JUMPDEST SWAP2 POP POP SWAP3 SWAP6 SWAP9 POP SWAP3 SWAP6 SWAP9 POP SWAP3 SWAP6 SWAP9 JUMP JUMPDEST PUSH0 DUP1 REVERT JUMPDEST PUSH0 PUSH1 0xA0 DUP3 DUP5 SUB SLT ISZERO PUSH2 0x3321 JUMPI PUSH2 0x3320 PUSH2 0x3308 JUMP JUMPDEST JUMPDEST DUP2 SWAP1 POP SWAP3 SWAP2 POP POP JUMP JUMPDEST PUSH0 DUP1 PUSH0 DUP1 PUSH0 PUSH1 0xA0 DUP7 DUP9 SUB SLT ISZERO PUSH2 0x3343 JUMPI PUSH2 0x3342 PUSH2 0x2D89 JUMP JUMPDEST JUMPDEST PUSH0 PUSH2 0x3350 DUP9 DUP3 DUP10 ADD PUSH2 0x2F63 JUMP JUMPDEST SWAP6 POP POP PUSH1 0x20 PUSH2 0x3361 DUP9 DUP3 DUP10 ADD PUSH2 0x2F63 JUMP JUMPDEST SWAP5 POP POP PUSH1 0x40 PUSH2 0x3372 DUP9 DUP3 DUP10 ADD PUSH2 0x2F63 JUMP JUMPDEST SWAP4 POP POP PUSH1 0x60 PUSH2 0x3383 DUP9 DUP3 DUP10 ADD PUSH2 0x2DA7 JUMP JUMPDEST SWAP3 POP POP PUSH1 0x80 DUP7 ADD CALLDATALOAD PUSH8 0xFFFFFFFFFFFFFFFF DUP2 GT ISZERO PUSH2 0x33A4 JUMPI PUSH2 0x33A3 PUSH2 0x2D8D JUMP JUMPDEST JUMPDEST PUSH2 0x33B0 DUP9 DUP3 DUP10 ADD PUSH2 0x330C JUMP JUMPDEST SWAP2 POP POP SWAP3 SWAP6 POP SWAP3 SWAP6 SWAP1 SWAP4 POP JUMP JUMPDEST PUSH0 PUSH1 0x20 DUP3 ADD SWAP1 POP PUSH2 0x33D0 PUSH0 DUP4 ADD DUP5 PUSH2 0x2EED JUMP JUMPDEST SWAP3 SWAP2 POP POP JUMP JUMPDEST PUSH2 0x33DF DUP2 PUSH2 0x314E JUMP JUMPDEST DUP2 EQ PUSH2 0x33E9 JUMPI PUSH0 DUP1 REVERT JUMPDEST POP JUMP JUMPDEST PUSH0 DUP2 CALLDATALOAD SWAP1 POP PUSH2 0x33FA DUP2 PUSH2 0x33D6 JUMP JUMPDEST SWAP3 SWAP2 POP POP JUMP JUMPDEST PUSH0 DUP1 PUSH0 PUSH1 0x60 DUP5 DUP7 SUB SLT ISZERO PUSH2 0x3417 JUMPI PUSH2 0x3416 PUSH2 0x2D89 JUMP JUMPDEST JUMPDEST PUSH0 PUSH2 0x3424 DUP7 DUP3 DUP8 ADD PUSH2 0x2DA7 JUMP JUMPDEST SWAP4 POP POP PUSH1 0x20 PUSH2 0x3435 DUP7 DUP3 DUP8 ADD PUSH2 0x2F63 JUMP JUMPDEST SWAP3 POP POP PUSH1 0x40 PUSH2 0x3446 DUP7 DUP3 DUP8 ADD PUSH2 0x33EC JUMP JUMPDEST SWAP2 POP POP SWAP3 POP SWAP3 POP SWAP3 JUMP JUMPDEST PUSH0 DUP1 PUSH0 PUSH1 0x60 DUP5 DUP7 SUB SLT ISZERO PUSH2 0x3467 JUMPI PUSH2 0x3466 PUSH2 0x2D89 JUMP JUMPDEST JUMPDEST PUSH0 PUSH2 0x3474 DUP7 DUP3 DUP8 ADD PUSH2 0x2F63 JUMP JUMPDEST SWAP4 POP POP PUSH1 0x20 PUSH2 0x3485 DUP7 DUP3 DUP8 ADD PUSH2 0x2F63 JUMP JUMPDEST SWAP3 POP POP PUSH1 0x40 PUSH2 0x3496 DUP7 DUP3 DUP8 ADD PUSH2 0x2DA7 JUMP JUMPDEST SWAP2 POP POP SWAP3 POP SWAP3 POP SWAP3 JUMP JUMPDEST PUSH0 DUP1 PUSH0 DUP1 PUSH1 0x80 DUP6 DUP8 SUB SLT ISZERO PUSH2 0x34B8 JUMPI PUSH2 0x34B7 PUSH2 0x2D89 JUMP JUMPDEST JUMPDEST PUSH0 PUSH2 0x34C5 DUP8 DUP3 DUP9 ADD PUSH2 0x2F63 JUMP JUMPDEST SWAP5 POP POP PUSH1 0x20 PUSH2 0x34D6 DUP8 DUP3 DUP9 ADD PUSH2 0x2F63 JUMP JUMPDEST SWAP4 POP POP PUSH1 0x40 PUSH2 0x34E7 DUP8 DUP3 DUP9 ADD PUSH2 0x2DA7 JUMP JUMPDEST SWAP3 POP POP PUSH1 0x60 DUP6 ADD CALLDATALOAD PUSH8 0xFFFFFFFFFFFFFFFF DUP2 GT ISZERO PUSH2 0x3508 JUMPI PUSH2 0x3507 PUSH2 0x2D8D JUMP JUMPDEST JUMPDEST PUSH2 0x3514 DUP8 DUP3 DUP9 ADD PUSH2 0x330C JUMP JUMPDEST SWAP2 POP POP SWAP3 SWAP6 SWAP2 SWAP5 POP SWAP3 POP JUMP JUMPDEST PUSH0 DUP1 DUP4 PUSH1 0x1F DUP5 ADD SLT PUSH2 0x3535 JUMPI PUSH2 0x3534 PUSH2 0x2F77 JUMP JUMPDEST JUMPDEST DUP3 CALLDATALOAD SWAP1 POP PUSH8 0xFFFFFFFFFFFFFFFF DUP2 GT ISZERO PUSH2 0x3552 JUMPI PUSH2 0x3551 PUSH2 0x2F7B JUMP JUMPDEST JUMPDEST PUSH1 0x20 DUP4 ADD SWAP2 POP DUP4 PUSH1 0x20 DUP3 MUL DUP4 ADD GT ISZERO PUSH2 0x356E JUMPI PUSH2 0x356D PUSH2 0x2F7F JUMP JUMPDEST JUMPDEST SWAP3 POP SWAP3 SWAP1 POP JUMP JUMPDEST PUSH0 DUP1 PUSH0 DUP1 PUSH0 DUP1 PUSH1 0xA0 DUP8 DUP10 SUB SLT ISZERO PUSH2 0x358F JUMPI PUSH2 0x358E PUSH2 0x2D89 JUMP JUMPDEST JUMPDEST PUSH0 PUSH2 0x359C DUP10 DUP3 DUP11 ADD PUSH2 0x2DA7 JUMP JUMPDEST SWAP7 POP POP PUSH1 0x20 PUSH2 0x35AD DUP10 DUP3 DUP11 ADD PUSH2 0x2DA7 JUMP JUMPDEST SWAP6 POP POP PUSH1 0x40 DUP8 ADD CALLDATALOAD PUSH8 0xFFFFFFFFFFFFFFFF DUP2 GT ISZERO PUSH2 0x35CE JUMPI PUSH2 0x35CD PUSH2 0x2D8D JUMP JUMPDEST JUMPDEST PUSH2 0x35DA DUP10 DUP3 DUP11 ADD PUSH2 0x3520 JUMP JUMPDEST SWAP5 POP SWAP5 POP POP PUSH1 0x60 PUSH2 0x35ED DUP10 DUP3 DUP11 ADD PUSH2 0x2F63 JUMP JUMPDEST SWAP3 POP POP PUSH1 0x80 PUSH2 0x35FE DUP10 DUP3 DUP11 ADD PUSH2 0x305F JUMP JUMPDEST SWAP2 POP POP SWAP3 SWAP6 POP SWAP3 SWAP6 POP SWAP3 SWAP6 JUMP JUMPDEST PUSH0 DUP1 PUSH0 DUP1 PUSH1 0x80 DUP6 DUP8 SUB SLT ISZERO PUSH2 0x3623 JUMPI PUSH2 0x3622 PUSH2 0x2D89 JUMP JUMPDEST JUMPDEST PUSH0 PUSH2 0x3630 DUP8 DUP3 DUP9 ADD PUSH2 0x2F63 JUMP JUMPDEST SWAP5 POP POP PUSH1 0x20 PUSH2 0x3641 DUP8 DUP3 DUP9 ADD PUSH2 0x2F63 JUMP JUMPDEST SWAP4 POP POP PUSH1 0x40 PUSH2 0x3652 DUP8 DUP3 DUP9 ADD PUSH2 0x2F63 JUMP JUMPDEST SWAP3 POP POP PUSH1 0x60 PUSH2 0x3663 DUP8 DUP3 DUP9 ADD PUSH2 0x2DA7 JUMP JUMPDEST SWAP2 POP POP SWAP3 SWAP6 SWAP2 SWAP5 POP SWAP3 POP JUMP JUMPDEST PUSH0 DUP3 DUP3 MSTORE PUSH1 0x20 DUP3 ADD SWAP1 POP SWAP3 SWAP2 POP POP JUMP JUMPDEST PUSH32 0x6E6F74206F776E65720000000000000000000000000000000000000000000000 PUSH0 DUP3 ADD MSTORE POP JUMP JUMPDEST PUSH0 PUSH2 0x36B3 PUSH1 0x9 DUP4 PUSH2 0x366F JUMP JUMPDEST SWAP2 POP PUSH2 0x36BE DUP3 PUSH2 0x367F JUMP JUMPDEST PUSH1 0x20 DUP3 ADD SWAP1 POP SWAP2 SWAP1 POP JUMP JUMPDEST PUSH0 PUSH1 0x20 DUP3 ADD SWAP1 POP DUP2 DUP2 SUB PUSH0 DUP4 ADD MSTORE PUSH2 0x36E0 DUP2 PUSH2 0x36A7 JUMP JUMPDEST SWAP1 POP SWAP2 SWAP1 POP JUMP JUMPDEST DUP3 DUP2 DUP4 CALLDATACOPY PUSH0 DUP4 DUP4 ADD MSTORE POP POP POP JUMP JUMPDEST PUSH0 PUSH1 0x1F NOT PUSH1 0x1F DUP4 ADD AND SWAP1 POP SWAP2 SWAP1 POP JUMP JUMPDEST PUSH0 PUSH2 0x3710 DUP4 DUP6 PUSH2 0x366F JUMP JUMPDEST SWAP4 POP PUSH2 0x371D DUP4 DUP6 DUP5 PUSH2 0x36E7 JUMP JUMPDEST PUSH2 0x3726 DUP4 PUSH2 0x36F5 JUMP JUMPDEST DUP5 ADD SWAP1 POP SWAP4 SWAP3 POP POP POP JUMP JUMPDEST PUSH0 PUSH1 0x20 DUP3 ADD SWAP1 POP DUP2 DUP2 SUB PUSH0 DUP4 ADD MSTORE PUSH2 0x374A DUP2 DUP5 DUP7 PUSH2 0x3705 JUMP JUMPDEST SWAP1 POP SWAP4 SWAP3 POP POP POP JUMP JUMPDEST PUSH32 0x72756C65206F6666000000000000000000000000000000000000000000000000 PUSH0 DUP3 ADD MSTORE POP JUMP JUMPDEST PUSH0 PUSH2 0x3787 PUSH1 0x8 DUP4 PUSH2 0x366F JUMP JUMPDEST SWAP2 POP PUSH2 0x3792 DUP3 PUSH2 0x3753 JUMP JUMPDEST PUSH1 0x20 DUP3 ADD SWAP1 POP SWAP2 SWAP1 POP JUMP JUMPDEST PUSH0 PUSH1 0x20 DUP3 ADD SWAP1 POP DUP2 DUP2 SUB PUSH0 DUP4 ADD MSTORE PUSH2 0x37B4 DUP2 PUSH2 0x377B JUMP JUMPDEST SWAP1 POP SWAP2 SWAP1 POP JUMP JUMPDEST PUSH32 0x4E487B7100000000000000000000000000000000000000000000000000000000 PUSH0 MSTORE PUSH1 0x11 PUSH1 0x4 MSTORE PUSH1 0x24 PUSH0 REVERT JUMPDEST PUSH0 PUSH2 0x37F2 DUP3 PUSH2 0x2E25 JUMP JUMPDEST SWAP2 POP PUSH2 0x37FD DUP4 PUSH2 0x2E25 JUMP JUMPDEST SWAP3 POP DUP3 DUP3 MUL PUSH2 0x380B DUP2 PUSH2 0x2E25 JUMP JUMPDEST SWAP2 POP DUP1 DUP3 EQ PUSH2 0x381D JUMPI PUSH2 0x381C PUSH2 0x37BB JUMP JUMPDEST JUMPDEST POP SWAP3 SWAP2 POP POP JUMP JUMPDEST PUSH32 0x4E487B7100000000000000000000000000000000000000000000000000000000 PUSH0 MSTORE PUSH1 0x41 PUSH1 0x4 MSTORE PUSH1 0x24 PUSH0 REVERT JUMPDEST PUSH0 DUP2 MLOAD SWAP1 POP SWAP2 SWAP1 POP JUMP JUMPDEST PUSH0 DUP3 DUP3 MSTORE PUSH1 0x20 DUP3 ADD SWAP1 POP SWAP3 SWAP2 POP POP JUMP JUMPDEST PUSH0 DUP2 SWAP1 POP PUSH1 0x20 DUP3 ADD SWAP1 POP SWAP2 SWAP1 POP JUMP JUMPDEST PUSH0 DUP2 MLOAD SWAP1 POP SWAP2 SWAP1 POP JUMP JUMPDEST PUSH0 DUP3 DUP3 MSTORE PUSH1 0x20 DUP3 ADD SWAP1 POP SWAP3 SWAP2 POP POP JUMP JUMPDEST PUSH0 JUMPDEST DUP4 DUP2 LT ISZERO PUSH2 0x38B1 JUMPI DUP1 DUP3 ADD MLOAD DUP2 DUP5 ADD MSTORE PUSH1 0x20 DUP2 ADD SWAP1 POP PUSH2 0x3896 JUMP JUMPDEST PUSH0 DUP5 DUP5 ADD MSTORE POP POP POP POP JUMP JUMPDEST PUSH0 PUSH2 0x38C6 DUP3 PUSH2 0x387A JUMP JUMPDEST PUSH2 0x38D0 DUP2 DUP6 PUSH2 0x3884 JUMP JUMPDEST SWAP4 POP PUSH2 0x38E0 DUP2 DUP6 PUSH1 0x20 DUP7 ADD PUSH2 0x3894 JUMP JUMPDEST PUSH2 0x38E9 DUP2 PUSH2 0x36F5 JUMP JUMPDEST DUP5 ADD SWAP2 POP POP SWAP3 SWAP2 POP POP JUMP JUMPDEST PUSH0 PUSH2 0x38FF DUP4 DUP4 PUSH2 0x38BC JUMP JUMPDEST SWAP1 POP SWAP3 SWAP2 POP POP JUMP JUMPDEST PUSH0 PUSH1 0x20 DUP3 ADD SWAP1 POP SWAP2 SWAP1 POP JUMP JUMPDEST PUSH0 PUSH2 0x391D DUP3 PUSH2 0x3851 JUMP JUMPDEST PUSH2 0x3927 DUP2 DUP6 PUSH2 0x385B JUMP JUMPDEST SWAP4 POP DUP4 PUSH1 0x20 DUP3 MUL DUP6 ADD PUSH2 0x3939 DUP6 PUSH2 0x386B JUMP JUMPDEST DUP1 PUSH0 JUMPDEST DUP6 DUP2 LT ISZERO PUSH2 0x3974 JUMPI DUP5 DUP5 SUB DUP10 MSTORE DUP2 MLOAD PUSH2 0x3955 DUP6 DUP3 PUSH2 0x38F4 JUMP JUMPDEST SWAP5 POP PUSH2 0x3960 DUP4 PUSH2 0x3907 JUMP JUMPDEST SWAP3 POP PUSH1 0x20 DUP11 ADD SWAP10 POP POP PUSH1 0x1 DUP2 ADD SWAP1 POP PUSH2 0x393C JUMP JUMPDEST POP DUP3 SWAP8 POP DUP8 SWAP6 POP POP POP POP POP POP SWAP3 SWAP2 POP POP JUMP JUMPDEST PUSH0 PUSH1 0x60 DUP3 ADD SWAP1 POP PUSH2 0x3999 PUSH0 DUP4 ADD DUP7 PUSH2 0x2E16 JUMP JUMPDEST PUSH2 0x39A6 PUSH1 0x20 DUP4 ADD DUP6 PUSH2 0x2E38 JUMP JUMPDEST DUP2 DUP2 SUB PUSH1 0x40 DUP4 ADD MSTORE PUSH2 0x39B8 DUP2 DUP5 PUSH2 0x3913 JUMP JUMPDEST SWAP1 POP SWAP5 SWAP4 POP POP POP POP JUMP JUMPDEST PUSH0 DUP2 PUSH1 0x7 SIGNEXTEND SWAP1 POP SWAP2 SWAP1 POP JUMP JUMPDEST PUSH2 0x39D7 DUP2 PUSH2 0x39C2 JUMP JUMPDEST DUP2 EQ PUSH2 0x39E1 JUMPI PUSH0 DUP1 REVERT JUMPDEST POP JUMP JUMPDEST PUSH0 DUP2 MLOAD SWAP1 POP PUSH2 0x39F2 DUP2 PUSH2 0x39CE JUMP JUMPDEST SWAP3 SWAP2 POP POP JUMP JUMPDEST PUSH0 DUP2 MLOAD SWAP1 POP PUSH2 0x3A06 DUP2 PUSH2 0x3049 JUMP JUMPDEST SWAP3 SWAP2 POP POP JUMP JUMPDEST PUSH2 0x3A15 DUP3 PUSH2 0x36F5 JUMP JUMPDEST DUP2 ADD DUP2 DUP2 LT PUSH8 0xFFFFFFFFFFFFFFFF DUP3 GT OR ISZERO PUSH2 0x3A34 JUMPI PUSH2 0x3A33 PUSH2 0x3824 JUMP JUMPDEST JUMPDEST DUP1 PUSH1 0x40 MSTORE POP POP POP JUMP JUMPDEST PUSH0 PUSH2 0x3A46 PUSH2 0x2D80 JUMP JUMPDEST SWAP1 POP PUSH2 0x3A52 DUP3 DUP3 PUSH2 0x3A0C JUMP JUMPDEST SWAP2 SWAP1 POP JUMP JUMPDEST PUSH0 PUSH8 0xFFFFFFFFFFFFFFFF DUP3 GT ISZERO PUSH2 0x3A71 JUMPI PUSH2 0x3A70 PUSH2 0x3824 JUMP JUMPDEST JUMPDEST PUSH1 0x20 DUP3 MUL SWAP1 POP PUSH1 0x20 DUP2 ADD SWAP1 POP SWAP2 SWAP1 POP JUMP JUMPDEST PUSH0 PUSH2 0x3A94 PUSH2 0x3A8F DUP5 PUSH2 0x3A57 JUMP JUMPDEST PUSH2 0x3A3D JUMP JUMPDEST SWAP1 POP DUP1 DUP4 DUP3 MSTORE PUSH1 0x20 DUP3 ADD SWAP1 POP PUSH1 0x20 DUP5 MUL DUP4 ADD DUP6 DUP2 GT ISZERO PUSH2 0x3AB7 JUMPI PUSH2 0x3AB6 PUSH2 0x2F7F JUMP JUMPDEST JUMPDEST DUP4 JUMPDEST DUP2 DUP2 LT ISZERO PUSH2 0x3AE0 JUMPI DUP1 PUSH2 0x3ACC DUP9 DUP3 PUSH2 0x39E4 JUMP JUMPDEST DUP5 MSTORE PUSH1 0x20 DUP5 ADD SWAP4 POP POP PUSH1 0x20 DUP2 ADD SWAP1 POP PUSH2 0x3AB9 JUMP JUMPDEST POP POP POP SWAP4 SWAP3 POP POP POP JUMP JUMPDEST PUSH0 DUP3 PUSH1 0x1F DUP4 ADD SLT PUSH2 0x3AFE JUMPI PUSH2 0x3AFD PUSH2 0x2F77 JUMP JUMPDEST JUMPDEST DUP2 MLOAD PUSH2 0x3B0E DUP5 DUP3 PUSH1 0x20 DUP7 ADD PUSH2 0x3A82 JUMP JUMPDEST SWAP2 POP POP SWAP3 SWAP2 POP POP JUMP JUMPDEST PUSH0 DUP1 PUSH0 PUSH1 0x60 DUP5 DUP7 SUB SLT ISZERO PUSH2 0x3B2E JUMPI PUSH2 0x3B2D PUSH2 0x2D89 JUMP JUMPDEST JUMPDEST PUSH0 PUSH2 0x3B3B DUP7 DUP3 DUP8 ADD PUSH2 0x39E4 JUMP JUMPDEST SWAP4 POP POP PUSH1 0x20 PUSH2 0x3B4C DUP7 DUP3 DUP8 ADD PUSH2 0x39F8 JUMP JUMPDEST SWAP3 POP POP PUSH1 0x40 DUP5 ADD MLOAD PUSH8 0xFFFFFFFFFFFFFFFF DUP2 GT ISZERO PUSH2 0x3B6D JUMPI PUSH2 0x3B6C PUSH2 0x2D8D JUMP JUMPDEST JUMPDEST PUSH2 0x3B79 DUP7 DUP3 DUP8 ADD PUSH2 0x3AEA JUMP JUMPDEST SWAP2 POP POP SWAP3 POP SWAP3 POP SWAP3 JUMP JUMPDEST PUSH32 0x6D696E74206661696C0000000000000000000000000000000000000000000000 PUSH0 DUP3 ADD MSTORE POP JUMP JUMPDEST PUSH0 PUSH2 0x3BB7 PUSH1 0x9 DUP4 PUSH2 0x366F JUMP JUMPDEST SWAP2 POP PUSH2 0x3BC2 DUP3 PUSH2 0x3B83 JUMP JUMPDEST PUSH1 0x20 DUP3 ADD SWAP1 POP SWAP2 SWAP1 POP JUMP JUMPDEST PUSH0 PUSH1 0x20 DUP3 ADD SWAP1 POP DUP2 DUP2 SUB PUSH0 DUP4 ADD MSTORE PUSH2 0x3BE4 DUP2 PUSH2 0x3BAB JUMP JUMPDEST SWAP1 POP SWAP2 SWAP1 POP JUMP JUMPDEST PUSH0 PUSH1 0x60 DUP3 ADD SWAP1 POP PUSH2 0x3BFE PUSH0 DUP4 ADD DUP8 PUSH2 0x2E38 JUMP JUMPDEST PUSH2 0x3C0B PUSH1 0x20 DUP4 ADD DUP7 PUSH2 0x2E38 JUMP JUMPDEST DUP2 DUP2 SUB PUSH1 0x40 DUP4 ADD MSTORE PUSH2 0x3C1E DUP2 DUP5 DUP7 PUSH2 0x3705 JUMP JUMPDEST SWAP1 POP SWAP6 SWAP5 POP POP POP POP POP JUMP JUMPDEST PUSH32 0x7A65726F20616464720000000000000000000000000000000000000000000000 PUSH0 DUP3 ADD MSTORE POP JUMP JUMPDEST PUSH0 PUSH2 0x3C5D PUSH1 0x9 DUP4 PUSH2 0x366F JUMP JUMPDEST SWAP2 POP PUSH2 0x3C68 DUP3 PUSH2 0x3C29 JUMP JUMPDEST PUSH1 0x20 DUP3 ADD SWAP1 POP SWAP2 SWAP1 POP JUMP JUMPDEST PUSH0 PUSH1 0x20 DUP3 ADD SWAP1 POP DUP2 DUP2 SUB PUSH0 DUP4 ADD MSTORE PUSH2 0x3C8A DUP2 PUSH2 0x3C51 JUMP JUMPDEST SWAP1 POP SWAP2 SWAP1 POP JUMP JUMPDEST PUSH0 PUSH1 0xC0 DUP3 ADD SWAP1 POP PUSH2 0x3CA4 PUSH0 DUP4 ADD DUP10 PUSH2 0x2E16 JUMP JUMPDEST PUSH2 0x3CB1 PUSH1 0x20 DUP4 ADD DUP9 PUSH2 0x2E16 JUMP JUMPDEST PUSH2 0x3CBE PUSH1 0x40 DUP4 ADD DUP8 PUSH2 0x2E16 JUMP JUMPDEST PUSH2 0x3CCB PUSH1 0x60 DUP4 ADD DUP7 PUSH2 0x2E16 JUMP JUMPDEST PUSH2 0x3CD8 PUSH1 0x80 DUP4 ADD DUP6 PUSH2 0x2E16 JUMP JUMPDEST PUSH2 0x3CE5 PUSH1 0xA0 DUP4 ADD DUP5 PUSH2 0x2E16 JUMP JUMPDEST SWAP8 SWAP7 POP POP POP POP POP POP POP JUMP JUMPDEST PUSH32 0x696E70757473486173682D6D69736D6174636800000000000000000000000000 PUSH0 DUP3 ADD MSTORE POP JUMP JUMPDEST PUSH0 PUSH2 0x3D24 PUSH1 0x13 DUP4 PUSH2 0x366F JUMP JUMPDEST SWAP2 POP PUSH2 0x3D2F DUP3 PUSH2 0x3CF0 JUMP JUMPDEST PUSH1 0x20 DUP3 ADD SWAP1 POP SWAP2 SWAP1 POP JUMP JUMPDEST PUSH0 PUSH1 0x20 DUP3 ADD SWAP1 POP DUP2 DUP2 SUB PUSH0 DUP4 ADD MSTORE PUSH2 0x3D51 DUP2 PUSH2 0x3D18 JUMP JUMPDEST SWAP1 POP SWAP2 SWAP1 POP JUMP JUMPDEST PUSH0 DUP1 REVERT JUMPDEST PUSH0 DUP1 REVERT JUMPDEST PUSH0 DUP1 REVERT JUMPDEST PUSH0 DUP1 DUP4 CALLDATALOAD PUSH1 0x1 PUSH1 0x20 SUB DUP5 CALLDATASIZE SUB SUB DUP2 SLT PUSH2 0x3D80 JUMPI PUSH2 0x3D7F PUSH2 0x3D58 JUMP JUMPDEST JUMPDEST DUP1 DUP5 ADD SWAP3 POP DUP3 CALLDATALOAD SWAP2 POP PUSH8 0xFFFFFFFFFFFFFFFF DUP3 GT ISZERO PUSH2 0x3DA2 JUMPI PUSH2 0x3DA1 PUSH2 0x3D5C JUMP JUMPDEST JUMPDEST PUSH1 0x20 DUP4 ADD SWAP3 POP PUSH1 0x1 DUP3 MUL CALLDATASIZE SUB DUP4 SGT ISZERO PUSH2 0x3DBE JUMPI PUSH2 0x3DBD PUSH2 0x3D60 JUMP JUMPDEST JUMPDEST POP SWAP3 POP SWAP3 SWAP1 POP JUMP JUMPDEST PUSH0 PUSH1 0xA0 DUP3 ADD SWAP1 POP PUSH2 0x3DD9 PUSH0 DUP4 ADD DUP10 PUSH2 0x2E16 JUMP JUMPDEST PUSH2 0x3DE6 PUSH1 0x20 DUP4 ADD DUP9 PUSH2 0x2E16 JUMP JUMPDEST PUSH2 0x3DF3 PUSH1 0x40 DUP4 ADD DUP8 PUSH2 0x2E16 JUMP JUMPDEST PUSH2 0x3E00 PUSH1 0x60 DUP4 ADD DUP7 PUSH2 0x2EED JUMP JUMPDEST DUP2 DUP2 SUB PUSH1 0x80 DUP4 ADD MSTORE PUSH2 0x3E13 DUP2 DUP5 DUP7 PUSH2 0x3705 JUMP JUMPDEST SWAP1 POP SWAP8 SWAP7 POP POP POP POP POP POP POP JUMP JUMPDEST PUSH0 PUSH1 0x60 DUP3 ADD SWAP1 POP PUSH2 0x3E33 PUSH0 DUP4 ADD DUP7 PUSH2 0x2D58 JUMP JUMPDEST PUSH2 0x3E40 PUSH1 0x20 DUP4 ADD DUP6 PUSH2 0x2D58 JUMP JUMPDEST PUSH2 0x3E4D PUSH1 0x40 DUP4 ADD DUP5 PUSH2 0x2EED JUMP JUMPDEST SWAP5 SWAP4 POP POP POP POP JUMP JUMPDEST PUSH32 0x646F6D61696E206D75737420626520445F4C4947485400000000000000000000 PUSH0 DUP3 ADD MSTORE POP JUMP JUMPDEST PUSH0 PUSH2 0x3E89 PUSH1 0x16 DUP4 PUSH2 0x366F JUMP JUMPDEST SWAP2 POP PUSH2 0x3E94 DUP3 PUSH2 0x3E55 JUMP JUMPDEST PUSH1 0x20 DUP3 ADD SWAP1 POP SWAP2 SWAP1 POP JUMP JUMPDEST PUSH0 PUSH1 0x20 DUP3 ADD SWAP1 POP DUP2 DUP2 SUB PUSH0 DUP4 ADD MSTORE PUSH2 0x3EB6 DUP2 PUSH2 0x3E7D JUMP JUMPDEST SWAP1 POP SWAP2 SWAP1 POP JUMP JUMPDEST PUSH0 DUP2 SWAP1 POP SWAP2 SWAP1 POP JUMP JUMPDEST PUSH0 PUSH2 0x3EE0 PUSH2 0x3EDB PUSH2 0x3ED6 DUP5 PUSH2 0x3EBD JUMP JUMPDEST PUSH2 0x2E6E JUMP JUMPDEST PUSH2 0x2E25 JUMP JUMPDEST SWAP1 POP SWAP2 SWAP1 POP JUMP JUMPDEST PUSH2 0x3EF0 DUP2 PUSH2 0x3EC6 JUMP JUMPDEST DUP3 MSTORE POP POP JUMP JUMPDEST PUSH0 PUSH1 0x60 DUP3 ADD SWAP1 POP PUSH2 0x3F09 PUSH0 DUP4 ADD DUP8 PUSH2 0x3EE7 JUMP JUMPDEST PUSH2 0x3F16 PUSH1 0x20 DUP4 ADD DUP7 PUSH2 0x2E38 JUMP JUMPDEST DUP2 DUP2 SUB PUSH1 0x40 DUP4 ADD MSTORE PUSH2 0x3F29 DUP2 DUP5 DUP7 PUSH2 0x3705 JUMP JUMPDEST SWAP1 POP SWAP6 SWAP5 POP POP POP POP POP JUMP JUMPDEST PUSH32 0x6261642061726974790000000000000000000000000000000000000000000000 PUSH0 DUP3 ADD MSTORE POP JUMP JUMPDEST PUSH0 PUSH2 0x3F68 PUSH1 0x9 DUP4 PUSH2 0x366F JUMP JUMPDEST SWAP2 POP PUSH2 0x3F73 DUP3 PUSH2 0x3F34 JUMP JUMPDEST PUSH1 0x20 DUP3 ADD SWAP1 POP SWAP2 SWAP1 POP JUMP JUMPDEST PUSH0 PUSH1 0x20 DUP3 ADD SWAP1 POP DUP2 DUP2 SUB PUSH0 DUP4 ADD MSTORE PUSH2 0x3F95 DUP2 PUSH2 0x3F5C JUMP JUMPDEST SWAP1 POP SWAP2 SWAP1 POP JUMP JUMPDEST PUSH32 0x6E6F206F75747075740000000000000000000000000000000000000000000000 PUSH0 DUP3 ADD MSTORE POP JUMP JUMPDEST PUSH0 PUSH2 0x3FD0 PUSH1 0x9 DUP4 PUSH2 0x366F JUMP JUMPDEST SWAP2 POP PUSH2 0x3FDB DUP3 PUSH2 0x3F9C JUMP JUMPDEST PUSH1 0x20 DUP3 ADD SWAP1 POP SWAP2 SWAP1 POP JUMP JUMPDEST PUSH0 PUSH1 0x20 DUP3 ADD SWAP1 POP DUP2 DUP2 SUB PUSH0 DUP4 ADD MSTORE PUSH2 0x3FFD DUP2 PUSH2 0x3FC4 JUMP JUMPDEST SWAP1 POP SWAP2 SWAP1 POP JUMP JUMPDEST PUSH32 0x6D7573742070726F766964652032206F72203320696E70757473000000000000 PUSH0 DUP3 ADD MSTORE POP JUMP JUMPDEST PUSH0 PUSH2 0x4038 PUSH1 0x1A DUP4 PUSH2 0x366F JUMP JUMPDEST SWAP2 POP PUSH2 0x4043 DUP3 PUSH2 0x4004 JUMP JUMPDEST PUSH1 0x20 DUP3 ADD SWAP1 POP SWAP2 SWAP1 POP JUMP JUMPDEST PUSH0 PUSH1 0x20 DUP3 ADD SWAP1 POP DUP2 DUP2 SUB PUSH0 DUP4 ADD MSTORE PUSH2 0x4065 DUP2 PUSH2 0x402C JUMP JUMPDEST SWAP1 POP SWAP2 SWAP1 POP JUMP JUMPDEST PUSH32 0x4E487B7100000000000000000000000000000000000000000000000000000000 PUSH0 MSTORE PUSH1 0x32 PUSH1 0x4 MSTORE PUSH1 0x24 PUSH0 REVERT JUMPDEST PUSH0 PUSH1 0x20 DUP3 DUP5 SUB SLT ISZERO PUSH2 0x40AE JUMPI PUSH2 0x40AD PUSH2 0x2D89 JUMP JUMPDEST JUMPDEST PUSH0 PUSH2 0x40BB DUP5 DUP3 DUP6 ADD PUSH2 0x2F63 JUMP JUMPDEST SWAP2 POP POP SWAP3 SWAP2 POP POP JUMP JUMPDEST PUSH0 DUP2 SWAP1 POP SWAP2 SWAP1 POP JUMP JUMPDEST PUSH0 PUSH2 0x40D7 DUP3 PUSH2 0x40C4 JUMP JUMPDEST SWAP2 POP PUSH32 0xFFFFFFFFFFFFFFFFFFFFFFFFFFFFFFFFFFFFFFFFFFFFFFFFFFFFFFFFFFFFFFFF DUP3 SUB PUSH2 0x4109 JUMPI PUSH2 0x4108 PUSH2 0x37BB JUMP JUMPDEST JUMPDEST PUSH1 0x1 DUP3 ADD SWAP1 POP SWAP2 SWAP1 POP JUMP JUMPDEST PUSH32 0x322D746F6B656E2072756C657320726571756972652052454420616E6420424C PUSH0 DUP3 ADD MSTORE PUSH32 0x5545000000000000000000000000000000000000000000000000000000000000 PUSH1 0x20 DUP3 ADD MSTORE POP JUMP JUMPDEST PUSH0 PUSH2 0x416E PUSH1 0x22 DUP4 PUSH2 0x366F JUMP JUMPDEST SWAP2 POP PUSH2 0x4179 DUP3 PUSH2 0x4114 JUMP JUMPDEST PUSH1 0x40 DUP3 ADD SWAP1 POP SWAP2 SWAP1 POP JUMP JUMPDEST PUSH0 PUSH1 0x20 DUP3 ADD SWAP1 POP DUP2 DUP2 SUB PUSH0 DUP4 ADD MSTORE PUSH2 0x419B DUP2 PUSH2 0x4162 JUMP JUMPDEST SWAP1 POP SWAP2 SWAP1 POP JUMP JUMPDEST PUSH32 0x332D746F6B656E2072756C65732072657175697265205245442C20475245454E PUSH0 DUP3 ADD MSTORE PUSH32 0x2C20616E6420424C554500000000000000000000000000000000000000000000 PUSH1 0x20 DUP3 ADD MSTORE POP JUMP JUMPDEST PUSH0 PUSH2 0x41FC PUSH1 0x2A DUP4 PUSH2 0x366F JUMP JUMPDEST SWAP2 POP PUSH2 0x4207 DUP3 PUSH2 0x41A2 JUMP JUMPDEST PUSH1 0x40 DUP3 ADD SWAP1 POP SWAP2 SWAP1 POP JUMP JUMPDEST PUSH0 PUSH1 0x20 DUP3 ADD SWAP1 POP DUP2 DUP2 SUB PUSH0 DUP4 ADD MSTORE PUSH2 0x4229 DUP2 PUSH2 0x41F0 JUMP JUMPDEST SWAP1 POP SWAP2 SWAP1 POP JUMP JUMPDEST PUSH0 DUP3 DUP3 MSTORE PUSH1 0x20 DUP3 ADD SWAP1 POP SWAP3 SWAP2 POP POP JUMP JUMPDEST PUSH0 DUP2 SWAP1 POP SWAP2 SWAP1 POP JUMP JUMPDEST PUSH2 0x4252 DUP2 PUSH2 0x2E05 JUMP JUMPDEST DUP3 MSTORE POP POP JUMP JUMPDEST PUSH0 PUSH2 0x4263 DUP4 DUP4 PUSH2 0x4249 JUMP JUMPDEST PUSH1 0x20 DUP4 ADD SWAP1 POP SWAP3 SWAP2 POP POP JUMP JUMPDEST PUSH0 PUSH2 0x427D PUSH1 0x20 DUP5 ADD DUP5 PUSH2 0x2F63 JUMP JUMPDEST SWAP1 POP SWAP3 SWAP2 POP POP JUMP JUMPDEST PUSH0 PUSH1 0x20 DUP3 ADD SWAP1 POP SWAP2 SWAP1 POP JUMP JUMPDEST PUSH0 PUSH2 0x429C DUP4 DUP6 PUSH2 0x4230 JUMP JUMPDEST SWAP4 POP PUSH2 0x42A7 DUP3 PUSH2 0x4240 JUMP JUMPDEST DUP1 PUSH0 JUMPDEST DUP6 DUP2 LT ISZERO PUSH2 0x42DF JUMPI PUSH2 0x42BC DUP3 DUP5 PUSH2 0x426F JUMP JUMPDEST PUSH2 0x42C6 DUP9 DUP3 PUSH2 0x4258 JUMP JUMPDEST SWAP8 POP PUSH2 0x42D1 DUP4 PUSH2 0x4285 JUMP JUMPDEST SWAP3 POP POP PUSH1 0x1 DUP2 ADD SWAP1 POP PUSH2 0x42AA JUMP JUMPDEST POP DUP6 SWAP3 POP POP POP SWAP4 SWAP3 POP POP POP JUMP JUMPDEST PUSH0 PUSH1 0x60 DUP3 ADD SWAP1 POP PUSH2 0x42FF PUSH0 DUP4 ADD DUP8 PUSH2 0x2D58 JUMP JUMPDEST PUSH2 0x430C PUSH1 0x20 DUP4 ADD DUP7 PUSH2 0x2D58 JUMP JUMPDEST DUP2 DUP2 SUB PUSH1 0x40 DUP4 ADD MSTORE PUSH2 0x431F DUP2 DUP5 DUP7 PUSH2 0x4291 JUMP JUMPDEST SWAP1 POP SWAP6 SWAP5 POP POP POP POP POP JUMP JUMPDEST PUSH0 PUSH1 0xA0 DUP3 ADD SWAP1 POP PUSH2 0x433D PUSH0 DUP4 ADD DUP10 PUSH2 0x2D58 JUMP JUMPDEST PUSH2 0x434A PUSH1 0x20 DUP4 ADD DUP9 PUSH2 0x2D58 JUMP JUMPDEST DUP2 DUP2 SUB PUSH1 0x40 DUP4 ADD MSTORE PUSH2 0x435D DUP2 DUP7 DUP9 PUSH2 0x4291 JUMP JUMPDEST SWAP1 POP PUSH2 0x436C PUSH1 0x60 DUP4 ADD DUP6 PUSH2 0x2E16 JUMP JUMPDEST PUSH2 0x4379 PUSH1 0x80 DUP4 ADD DUP5 PUSH2 0x2E38 JUMP JUMPDEST SWAP8 SWAP7 POP POP POP POP POP POP POP JUMP JUMPDEST PUSH0 PUSH1 0xA0 DUP3 ADD SWAP1 POP PUSH2 0x4397 PUSH0 DUP4 ADD DUP9 PUSH2 0x2E16 JUMP JUMPDEST PUSH2 0x43A4 PUSH1 0x20 DUP4 ADD DUP8 PUSH2 0x2E16 JUMP JUMPDEST PUSH2 0x43B1 PUSH1 0x40 DUP4 ADD DUP7 PUSH2 0x2E16 JUMP JUMPDEST PUSH2 0x43BE PUSH1 0x60 DUP4 ADD DUP6 PUSH2 0x2D58 JUMP JUMPDEST PUSH2 0x43CB PUSH1 0x80 DUP4 ADD DUP5 PUSH2 0x2D58 JUMP JUMPDEST SWAP7 SWAP6 POP POP POP POP POP POP JUMP JUMPDEST PUSH0 PUSH1 0x80 DUP3 ADD SWAP1 POP PUSH2 0x43E8 PUSH0 DUP4 ADD DUP8 PUSH2 0x2E16 JUMP JUMPDEST PUSH2 0x43F5 PUSH1 0x20 DUP4 ADD DUP7 PUSH2 0x2E16 JUMP JUMPDEST PUSH2 0x4402 PUSH1 0x40 DUP4 ADD DUP6 PUSH2 0x2D58 JUMP JUMPDEST PUSH2 0x440F PUSH1 0x60 DUP4 ADD DUP5 PUSH2 0x2D58 JUMP JUMPDEST SWAP6 SWAP5 POP POP POP POP POP JUMP JUMPDEST PUSH0 PUSH2 0x100 DUP3 ADD SWAP1 POP PUSH2 0x442C PUSH0 DUP4 ADD DUP12 PUSH2 0x2E16 JUMP JUMPDEST PUSH2 0x4439 PUSH1 0x20 DUP4 ADD DUP11 PUSH2 0x2E16 JUMP JUMPDEST PUSH2 0x4446 PUSH1 0x40 DUP4 ADD DUP10 PUSH2 0x2E16 JUMP JUMPDEST PUSH2 0x4453 PUSH1 0x60 DUP4 ADD DUP9 PUSH2 0x2E16 JUMP JUMPDEST PUSH2 0x4460 PUSH1 0x80 DUP4 ADD DUP8 PUSH2 0x2E16 JUMP JUMPDEST PUSH2 0x446D PUSH1 0xA0 DUP4 ADD DUP7 PUSH2 0x2E16 JUMP JUMPDEST PUSH2 0x447A PUSH1 0xC0 DUP4 ADD DUP6 PUSH2 0x2EED JUMP JUMPDEST PUSH2 0x4487 PUSH1 0xE0 DUP4 ADD DUP5 PUSH2 0x2EED JUMP JUMPDEST SWAP10 SWAP9 POP POP POP POP POP POP POP POP POP JUMP JUMPDEST PUSH32 0x756E737570706F727465642D61646469746976652D7061697200000000000000 PUSH0 DUP3 ADD MSTORE POP JUMP JUMPDEST PUSH0 PUSH2 0x44C8 PUSH1 0x19 DUP4 PUSH2 0x366F JUMP JUMPDEST SWAP2 POP PUSH2 0x44D3 DUP3 PUSH2 0x4494 JUMP JUMPDEST PUSH1 0x20 DUP3 ADD SWAP1 POP SWAP2 SWAP1 POP JUMP JUMPDEST PUSH0 PUSH1 0x20 DUP3 ADD SWAP1 POP DUP2 DUP2 SUB PUSH0 DUP4 ADD MSTORE PUSH2 0x44F5 DUP2 PUSH2 0x44BC JUMP JUMPDEST SWAP1 POP SWAP2 SWAP1 POP JUMP JUMPDEST PUSH0 PUSH1 0xFF DUP3 AND SWAP1 POP SWAP2 SWAP1 POP JUMP JUMPDEST PUSH0 PUSH2 0x4512 DUP3 PUSH2 0x44FC JUMP JUMPDEST SWAP2 POP PUSH2 0x451D DUP4 PUSH2 0x44FC JUMP JUMPDEST SWAP3 POP DUP3 DUP3 SUB SWAP1 POP PUSH1 0xFF DUP2 GT ISZERO PUSH2 0x4536 JUMPI PUSH2 0x4535 PUSH2 0x37BB JUMP JUMPDEST JUMPDEST SWAP3 SWAP2 POP POP JUMP INVALID LOG2 PUSH5 0x6970667358 0x22 SLT KECCAK256 PUSH25 0x5528D7A56AB7936413A1A4A50EC95D922D1C4E470669C4ED58 0xC8 DUP6 PUSH29 0xDC3AEC64736F6C63430008140033000000000000000000000000000000 "},"methodIdentifiers":{"BLACK_TOKEN_ADDR()":"b2b8e2a1","BLUE_TOKEN_ADDR()":"9d5d42ca","CYAN_TOKEN_ADDR()":"d59a70dd","D_LIGHT()":"795bb332","D_PAINT()":"74832db5","GREEN_TOKEN_ADDR()":"c984d759","HTS()":"1bc92162","MAGENTA_TOKEN_ADDR()":"a59ee59e","OP_ADD()":"2602c01e","OP_SUB()":"0548a9e7","PURPLE_TOKEN_ADDR()":"53f1bc1d","RED_TOKEN_ADDR()":"d6dd7673","WHITE_TOKEN_ADDR()":"903ac6d4","YELLOW_TOKEN_ADDR()":"f1385a1a","cachedOutputs(bytes32)":"0ff62e93","debugValidation(address,address,bytes32,bytes32)":"487cd70a","getInputsHash(bytes32)":"35e64e57","getRGB(bytes32,address)":"dfbc9772","inputsHashAdd(address,address,bytes32)":"9ca6d971","inputsHashOf(bytes32)":"b1fbccd2","inputsHashSub(address,address,address,bytes32)":"f5803560","owner()":"8da5cb5b","projections(bytes32,address)":"3e69d025","proofSeen(bytes32)":"a70f0ad7","publishEntity(address,bytes32,string)":"3b958a53","reason(bytes32,uint64,bytes32,string)":"3d7b86de","reasonAdd(address,address,bytes32,(bytes32,bytes32,bytes32,bytes32,string))":"c687cfeb","reasonCheckSub(address,address,address,bytes32,(bytes32,bytes32,bytes32,bytes32,string))":"72775a9b","reasoningSchemaHash()":"ed92df13","registerProjection(bytes32,address,uint24)":"81ac8b6a","rules(bytes32)":"216b8577","seen(bytes32)":"beeb3f34","setRule(bytes32,bytes32,address[],address,uint64)":"dec40116","setSchemaHash(bytes32)":"12fc39c7","setTokenAddresses(address,address,address,address,address,address,address,address,address)":"66692c3a"}}}}}