{
  "_format": "hh3-artifact-1",
  "contractName": "ReasoningContractV07",
  "sourceName": "contracts/ReasoningContractV07.sol",
  "abi": [
    {
      "inputs": [
        {
          "internalType": "bytes32",
          "name": "_schemaHash",
          "type": "bytes32"
        }
      ],
      "stateMutability": "nonpayable",
      "type": "constructor"
    },
    {
      "anonymous": false,
      "inputs": [
        {
          "indexed": false,
          "internalType": "string",
          "name": "ruleUri",
          "type": "string"
        },
        {
          "indexed": true,
          "internalType": "bytes32",
          "name": "ruleUriHash",
          "type": "bytes32"
        },
        {
          "indexed": true,
          "internalType": "bytes32",
          "name": "inputsHash",
          "type": "bytes32"
        },
        {
          "indexed": true,
          "internalType": "address",
          "name": "caller",
          "type": "address"
        },
        {
          "indexed": false,
          "internalType": "uint256",
          "name": "timestamp",
          "type": "uint256"
        }
      ],
      "name": "Prepared",
      "type": "event"
    },
    {
      "anonymous": false,
      "inputs": [
        {
          "indexed": true,
          "internalType": "bytes32",
          "name": "bindingHash",
          "type": "bytes32"
        },
        {
          "indexed": true,
          "internalType": "address",
          "name": "caller",
          "type": "address"
        }
      ],
      "name": "ProofReplay",
      "type": "event"
    },
    {
      "anonymous": false,
      "inputs": [
        {
          "indexed": false,
          "internalType": "string",
          "name": "ruleUri",
          "type": "string"
        },
        {
          "indexed": true,
          "internalType": "bytes32",
          "name": "ruleUriHash",
          "type": "bytes32"
        },
        {
          "indexed": true,
          "internalType": "bytes32",
          "name": "inputsHash",
          "type": "bytes32"
        },
        {
          "indexed": false,
          "internalType": "bytes32",
          "name": "outputsHash",
          "type": "bytes32"
        },
        {
          "indexed": true,
          "internalType": "bytes32",
          "name": "bindingHash",
          "type": "bytes32"
        },
        {
          "indexed": false,
          "internalType": "address",
          "name": "caller",
          "type": "address"
        },
        {
          "indexed": false,
          "internalType": "uint256",
          "name": "timestamp",
          "type": "uint256"
        }
      ],
      "name": "Reasoned",
      "type": "event"
    },
    {
      "anonymous": false,
      "inputs": [
        {
          "indexed": false,
          "internalType": "string",
          "name": "sphereName",
          "type": "string"
        },
        {
          "indexed": false,
          "internalType": "string",
          "name": "ruleDefsTopicId",
          "type": "string"
        },
        {
          "indexed": false,
          "internalType": "string",
          "name": "ruleRegistryTopicId",
          "type": "string"
        },
        {
          "indexed": false,
          "internalType": "string",
          "name": "proofTopicId",
          "type": "string"
        }
      ],
      "name": "SphereConfigured",
      "type": "event"
    },
    {
      "inputs": [],
      "name": "HTS",
      "outputs": [
        {
          "internalType": "contract IHederaTokenService",
          "name": "",
          "type": "address"
        }
      ],
      "stateMutability": "view",
      "type": "function"
    },
    {
      "inputs": [],
      "name": "VERSION",
      "outputs": [
        {
          "internalType": "string",
          "name": "",
          "type": "string"
        }
      ],
      "stateMutability": "view",
      "type": "function"
    },
    {
      "inputs": [
        {
          "internalType": "string",
          "name": "s",
          "type": "string"
        }
      ],
      "name": "computeRuleUriHash",
      "outputs": [
        {
          "internalType": "bytes32",
          "name": "",
          "type": "bytes32"
        }
      ],
      "stateMutability": "pure",
      "type": "function"
    },
    {
      "inputs": [
        {
          "internalType": "string",
          "name": "_sphereName",
          "type": "string"
        },
        {
          "internalType": "string",
          "name": "_ruleDefsTopicId",
          "type": "string"
        },
        {
          "internalType": "string",
          "name": "_ruleRegistryTopicId",
          "type": "string"
        },
        {
          "internalType": "string",
          "name": "_proofTopicId",
          "type": "string"
        }
      ],
      "name": "configureSphere",
      "outputs": [],
      "stateMutability": "nonpayable",
      "type": "function"
    },
    {
      "inputs": [],
      "name": "getSphereConfig",
      "outputs": [
        {
          "internalType": "string",
          "name": "_sphereName",
          "type": "string"
        },
        {
          "internalType": "string",
          "name": "_ruleDefsTopicId",
          "type": "string"
        },
        {
          "internalType": "string",
          "name": "_ruleRegistryTopicId",
          "type": "string"
        },
        {
          "internalType": "string",
          "name": "_proofTopicId",
          "type": "string"
        }
      ],
      "stateMutability": "view",
      "type": "function"
    },
    {
      "inputs": [
        {
          "internalType": "bytes32",
          "name": "inputsHash",
          "type": "bytes32"
        }
      ],
      "name": "isPrepared",
      "outputs": [
        {
          "internalType": "bool",
          "name": "",
          "type": "bool"
        }
      ],
      "stateMutability": "view",
      "type": "function"
    },
    {
      "inputs": [],
      "name": "owner",
      "outputs": [
        {
          "internalType": "address",
          "name": "",
          "type": "address"
        }
      ],
      "stateMutability": "view",
      "type": "function"
    },
    {
      "inputs": [
        {
          "internalType": "string",
          "name": "ruleUri",
          "type": "string"
        },
        {
          "internalType": "bytes32",
          "name": "ruleUriHash",
          "type": "bytes32"
        },
        {
          "internalType": "bytes32",
          "name": "inputsHash",
          "type": "bytes32"
        }
      ],
      "name": "prepareReasoning",
      "outputs": [],
      "stateMutability": "nonpayable",
      "type": "function"
    },
    {
      "inputs": [
        {
          "internalType": "bytes32",
          "name": "",
          "type": "bytes32"
        }
      ],
      "name": "preparedInputs",
      "outputs": [
        {
          "internalType": "bool",
          "name": "",
          "type": "bool"
        }
      ],
      "stateMutability": "view",
      "type": "function"
    },
    {
      "inputs": [
        {
          "internalType": "bytes32",
          "name": "",
          "type": "bytes32"
        }
      ],
      "name": "proofSeen",
      "outputs": [
        {
          "internalType": "bool",
          "name": "",
          "type": "bool"
        }
      ],
      "stateMutability": "view",
      "type": "function"
    },
    {
      "inputs": [],
      "name": "proofTopicId",
      "outputs": [
        {
          "internalType": "string",
          "name": "",
          "type": "string"
        }
      ],
      "stateMutability": "view",
      "type": "function"
    },
    {
      "inputs": [
        {
          "internalType": "string",
          "name": "ruleUri",
          "type": "string"
        },
        {
          "internalType": "bytes32",
          "name": "ruleUriHash",
          "type": "bytes32"
        },
        {
          "internalType": "bytes32",
          "name": "inputsHash",
          "type": "bytes32"
        },
        {
          "internalType": "bytes32",
          "name": "outputsHash",
          "type": "bytes32"
        },
        {
          "internalType": "bytes32",
          "name": "bindingHash",
          "type": "bytes32"
        }
      ],
      "name": "reason",
      "outputs": [
        {
          "internalType": "bool",
          "name": "ok",
          "type": "bool"
        }
      ],
      "stateMutability": "nonpayable",
      "type": "function"
    },
    {
      "inputs": [
        {
          "internalType": "string[]",
          "name": "ruleUris",
          "type": "string[]"
        },
        {
          "internalType": "bytes32[]",
          "name": "ruleUriHashes",
          "type": "bytes32[]"
        },
        {
          "internalType": "bytes32[]",
          "name": "inputsHashes",
          "type": "bytes32[]"
        },
        {
          "internalType": "bytes32[]",
          "name": "outputsHashes",
          "type": "bytes32[]"
        },
        {
          "internalType": "bytes32[]",
          "name": "bindingHashes",
          "type": "bytes32[]"
        }
      ],
      "name": "reasonBatch",
      "outputs": [
        {
          "internalType": "uint256",
          "name": "count",
          "type": "uint256"
        }
      ],
      "stateMutability": "nonpayable",
      "type": "function"
    },
    {
      "inputs": [
        {
          "internalType": "string",
          "name": "ruleUri",
          "type": "string"
        },
        {
          "internalType": "bytes32",
          "name": "ruleUriHash",
          "type": "bytes32"
        },
        {
          "internalType": "bytes32",
          "name": "inputsHash",
          "type": "bytes32"
        },
        {
          "internalType": "bytes32",
          "name": "outputsHash",
          "type": "bytes32"
        },
        {
          "internalType": "bytes32",
          "name": "bindingHash",
          "type": "bytes32"
        },
        {
          "internalType": "address",
          "name": "outputToken",
          "type": "address"
        },
        {
          "internalType": "uint64",
          "name": "amount",
          "type": "uint64"
        }
      ],
      "name": "reasonWithMint",
      "outputs": [
        {
          "internalType": "bool",
          "name": "ok",
          "type": "bool"
        }
      ],
      "stateMutability": "nonpayable",
      "type": "function"
    },
    {
      "inputs": [],
      "name": "reasoningSchemaHash",
      "outputs": [
        {
          "internalType": "bytes32",
          "name": "",
          "type": "bytes32"
        }
      ],
      "stateMutability": "view",
      "type": "function"
    },
    {
      "inputs": [],
      "name": "ruleDefsTopicId",
      "outputs": [
        {
          "internalType": "string",
          "name": "",
          "type": "string"
        }
      ],
      "stateMutability": "view",
      "type": "function"
    },
    {
      "inputs": [],
      "name": "ruleRegistryTopicId",
      "outputs": [
        {
          "internalType": "string",
          "name": "",
          "type": "string"
        }
      ],
      "stateMutability": "view",
      "type": "function"
    },
    {
      "inputs": [
        {
          "internalType": "bytes32",
          "name": "bindingHash",
          "type": "bytes32"
        }
      ],
      "name": "seen",
      "outputs": [
        {
          "internalType": "bool",
          "name": "",
          "type": "bool"
        }
      ],
      "stateMutability": "view",
      "type": "function"
    },
    {
      "inputs": [
        {
          "internalType": "bytes32",
          "name": "_schemaHash",
          "type": "bytes32"
        }
      ],
      "name": "setSchemaHash",
      "outputs": [],
      "stateMutability": "nonpayable",
      "type": "function"
    },
    {
      "inputs": [],
      "name": "sphereName",
      "outputs": [
        {
          "internalType": "string",
          "name": "",
          "type": "string"
        }
      ],
      "stateMutability": "view",
      "type": "function"
    }
  ],
  "bytecode": "0x608060405234801562000010575f80fd5b5060405162002b4d38038062002b4d8339818101604052810190620000369190620000bf565b335f806101000a81548173ffffffffffffffffffffffffffffffffffffffff021916908373ffffffffffffffffffffffffffffffffffffffff1602179055508060018190555050620000ef565b5f80fd5b5f819050919050565b6200009b8162000087565b8114620000a6575f80fd5b50565b5f81519050620000b98162000090565b92915050565b5f60208284031215620000d757620000d662000083565b5b5f620000e684828501620000a9565b91505092915050565b612a5080620000fd5f395ff3fe608060405234801561000f575f80fd5b506004361061012a575f3560e01c8063a70f0ad7116100ab578063d4a569741161006f578063d4a5697414610359578063d71f79b514610377578063ed92df13146103a7578063fdc0cf7e146103c5578063ffa1ad74146103f55761012a565b8063a70f0ad71461028d578063a98b816f146102bd578063bd4ae588146102db578063beeb3f341461030b578063c60c25ea1461033b5761012a565b80636b58c3f1116100f25780636b58c3f1146101be5780636f1337c7146101df5780637e3739cf1461020f5780638da5cb5b1461023f578063981c7cde1461025d5761012a565b806312fc39c71461012e5780631bc921621461014a5780631f88f285146101685780632603aeba146101865780635a774136146101a2575b5f80fd5b6101486004803603810190610143919061174b565b610413565b005b6101526104aa565b60405161015f91906117f0565b60405180910390f35b6101706104b0565b60405161017d9190611893565b60405180910390f35b6101a0600480360381019061019b9190611914565b61053c565b005b6101bc60048036038101906101b791906119f8565b610660565b005b6101c66107ff565b6040516101d69493929190611a69565b60405180910390f35b6101f960048036038101906101f4919061174b565b610a43565b6040516102069190611ae2565b60405180910390f35b61022960048036038101906102249190611afb565b610a60565b6040516102369190611b55565b60405180910390f35b610247610ab9565b6040516102549190611b8e565b60405180910390f35b6102776004803603810190610272919061174b565b610adc565b6040516102849190611ae2565b60405180910390f35b6102a760048036038101906102a2919061174b565b610b02565b6040516102b49190611ae2565b60405180910390f35b6102c5610b1f565b6040516102d29190611893565b60405180910390f35b6102f560048036038101906102f09190611c0e565b610bab565b6040516103029190611ae2565b60405180910390f35b6103256004803603810190610320919061174b565b610e44565b6040516103329190611ae2565b60405180910390f35b610343610e6a565b6040516103509190611893565b60405180910390f35b610361610ef6565b60405161036e9190611893565b60405180910390f35b610391600480360381019061038c9190611d75565b610f82565b60405161039e9190611ea4565b60405180910390f35b6103af6112b2565b6040516103bc9190611b55565b60405180910390f35b6103df60048036038101906103da9190611ebd565b6112b8565b6040516103ec9190611ae2565b60405180910390f35b6103fd611434565b60405161040a9190611893565b60405180910390f35b5f8054906101000a900473ffffffffffffffffffffffffffffffffffffffff1673ffffffffffffffffffffffffffffffffffffffff163373ffffffffffffffffffffffffffffffffffffffff16146104a0576040517f08c379a000000000000000000000000000000000000000000000000000000000815260040161049790611f9d565b60405180910390fd5b8060018190555050565b61016781565b600480546104bd90611fe8565b80601f01602080910402602001604051908101604052809291908181526020018280546104e990611fe8565b80156105345780601f1061050b57610100808354040283529160200191610534565b820191905f5260205f20905b81548152906001019060200180831161051757829003601f168201915b505050505081565b5f8054906101000a900473ffffffffffffffffffffffffffffffffffffffff1673ffffffffffffffffffffffffffffffffffffffff163373ffffffffffffffffffffffffffffffffffffffff16146105c9576040517f08c379a00000000000000000000000000000000000000000000000000000000081526004016105c090611f9d565b60405180910390fd5b8787600491826105da9291906121e3565b508585600591826105ec9291906121e3565b508383600691826105fe9291906121e3565b508181600791826106109291906121e3565b507fc8e391fad778a3fbe68614e6c8aa5a886f8287360a5a727bad516115cfffc6a2888888888888888860405161064e9897969594939291906122ea565b60405180910390a15050505050505050565b816002858560405161067392919061237f565b602060405180830381855afa15801561068e573d5f803e3d5ffd5b5050506040513d601f19601f820116820180604052508101906106b191906123ab565b146106f1576040517f08c379a00000000000000000000000000000000000000000000000000000000081526004016106e890612420565b60405180910390fd5b61073d84848080601f0160208091040260200160405190810160405280939291908181526020018383808284375f81840152601f19601f8201169050808301925050505050505061146d565b61077c576040517f08c379a000000000000000000000000000000000000000000000000000000000815260040161077390612488565b60405180910390fd5b600160035f8381526020019081526020015f205f6101000a81548160ff0219169083151502179055503373ffffffffffffffffffffffffffffffffffffffff1681837f0734a4ad61dee2f43f41b3fc82c55595d67d79a887502b42043701c337651fb18787426040516107f1939291906124a6565b60405180910390a450505050565b606080606080600460056006600783805461081990611fe8565b80601f016020809104026020016040519081016040528092919081815260200182805461084590611fe8565b80156108905780601f1061086757610100808354040283529160200191610890565b820191905f5260205f20905b81548152906001019060200180831161087357829003601f168201915b505050505093508280546108a390611fe8565b80601f01602080910402602001604051908101604052809291908181526020018280546108cf90611fe8565b801561091a5780601f106108f15761010080835404028352916020019161091a565b820191905f5260205f20905b8154815290600101906020018083116108fd57829003601f168201915b5050505050925081805461092d90611fe8565b80601f016020809104026020016040519081016040528092919081815260200182805461095990611fe8565b80156109a45780601f1061097b576101008083540402835291602001916109a4565b820191905f5260205f20905b81548152906001019060200180831161098757829003601f168201915b505050505091508080546109b790611fe8565b80601f01602080910402602001604051908101604052809291908181526020018280546109e390611fe8565b8015610a2e5780601f10610a0557610100808354040283529160200191610a2e565b820191905f5260205f20905b815481529060010190602001808311610a1157829003601f168201915b50505050509050935093509350935090919293565b6003602052805f5260405f205f915054906101000a900460ff1681565b5f60028383604051610a7392919061237f565b602060405180830381855afa158015610a8e573d5f803e3d5ffd5b5050506040513d601f19601f82011682018060405250810190610ab191906123ab565b905092915050565b5f8054906101000a900473ffffffffffffffffffffffffffffffffffffffff1681565b5f60035f8381526020019081526020015f205f9054906101000a900460ff169050919050565b6002602052805f5260405f205f915054906101000a900460ff1681565b60068054610b2c90611fe8565b80601f0160208091040260200160405190810160405280929190818152602001828054610b5890611fe8565b8015610ba35780601f10610b7a57610100808354040283529160200191610ba3565b820191905f5260205f20905b815481529060010190602001808311610b8657829003601f168201915b505050505081565b5f8660028a8a604051610bbf92919061237f565b602060405180830381855afa158015610bda573d5f803e3d5ffd5b5050506040513d601f19601f82011682018060405250810190610bfd91906123ab565b14610c3d576040517f08c379a0000000000000000000000000000000000000000000000000000000008152600401610c3490612420565b60405180910390fd5b60025f8581526020019081526020015f205f9054906101000a900460ff1615610cad573373ffffffffffffffffffffffffffffffffffffffff16847f3cd6d293d93fffb5c4505ed423476e083cfe17c7e58820e30be3efea7283221a60405160405180910390a360019050610e38565b600160025f8681526020019081526020015f205f6101000a81548160ff0219169083151502179055505f61016773ffffffffffffffffffffffffffffffffffffffff1663278e0b8885855f67ffffffffffffffff811115610d1157610d10612022565b5b604051908082528060200260200182016040528015610d4457816020015b6060815260200190600190039081610d2f5790505b506040518463ffffffff1660e01b8152600401610d63939291906125f2565b5f604051808303815f875af1158015610d7e573d5f803e3d5ffd5b505050506040513d5f823e3d601f19601f82011682018060405250810190610da69190612783565b5050905060168160070b14610df0576040517f08c379a0000000000000000000000000000000000000000000000000000000008152600401610de790612839565b60405180910390fd5b8487897f9807a925898a05e59d10d22398e6bded21056ffe5ff5f2caa0db52e536d1566c8d8d8b3342604051610e2a959493929190612857565b60405180910390a460019150505b98975050505050505050565b5f60025f8381526020019081526020015f205f9054906101000a900460ff169050919050565b60058054610e7790611fe8565b80601f0160208091040260200160405190810160405280929190818152602001828054610ea390611fe8565b8015610eee5780601f10610ec557610100808354040283529160200191610eee565b820191905f5260205f20905b815481529060010190602001808311610ed157829003601f168201915b505050505081565b60078054610f0390611fe8565b80601f0160208091040260200160405190810160405280929190818152602001828054610f2f90611fe8565b8015610f7a5780601f10610f5157610100808354040283529160200191610f7a565b820191905f5260205f20905b815481529060010190602001808311610f5d57829003601f168201915b505050505081565b5f888890508b8b9050148015610f9d5750868690508b8b9050145b8015610fae5750848490508b8b9050145b8015610fbf5750828290508b8b9050145b610ffe576040517f08c379a0000000000000000000000000000000000000000000000000000000008152600401610ff5906128ed565b60405180910390fd5b5f5b8b8b90508110156112a35760025f8585848181106110215761102061290b565b5b9050602002013581526020019081526020015f205f9054906101000a900460ff16156110a9573373ffffffffffffffffffffffffffffffffffffffff168484838181106110715761107061290b565b5b905060200201357f3cd6d293d93fffb5c4505ed423476e083cfe17c7e58820e30be3efea7283221a60405160405180910390a3611290565b8989828181106110bc576110bb61290b565b5b9050602002013560028d8d848181106110d8576110d761290b565b5b90506020028101906110ea9190612944565b6040516110f892919061237f565b602060405180830381855afa158015611113573d5f803e3d5ffd5b5050506040513d601f19601f8201168201806040525081019061113691906123ab565b14611176576040517f08c379a000000000000000000000000000000000000000000000000000000000815260040161116d90612420565b60405180910390fd5b600160025f86868581811061118e5761118d61290b565b5b9050602002013581526020019081526020015f205f6101000a81548160ff0219169083151502179055508383828181106111cb576111ca61290b565b5b905060200201358888838181106111e5576111e461290b565b5b905060200201358b8b848181106111ff576111fe61290b565b5b905060200201357f9807a925898a05e59d10d22398e6bded21056ffe5ff5f2caa0db52e536d1566c8f8f8681811061123a5761123961290b565b5b905060200281019061124c9190612944565b8b8b8881811061125f5761125e61290b565b5b905060200201353342604051611279959493929190612857565b60405180910390a4818061128c906129d3565b9250505b808061129b906129d3565b915050611000565b509a9950505050505050505050565b60015481565b5f84600288886040516112cc92919061237f565b602060405180830381855afa1580156112e7573d5f803e3d5ffd5b5050506040513d601f19601f8201168201806040525081019061130a91906123ab565b1461134a576040517f08c379a000000000000000000000000000000000000000000000000000000000815260040161134190612420565b60405180910390fd5b60025f8381526020019081526020015f205f9054906101000a900460ff16156113ba573373ffffffffffffffffffffffffffffffffffffffff16827f3cd6d293d93fffb5c4505ed423476e083cfe17c7e58820e30be3efea7283221a60405160405180910390a36001905061142a565b600160025f8481526020019081526020015f205f6101000a81548160ff0219169083151502179055508184867f9807a925898a05e59d10d22398e6bded21056ffe5ff5f2caa0db52e536d1566c8a8a88334260405161141d959493929190612857565b60405180910390a4600190505b9695505050505050565b6040518060400160405280600681526020017f76302e372e30000000000000000000000000000000000000000000000000000081525081565b5f80829050600681511015611485575f915050611702565b7f6800000000000000000000000000000000000000000000000000000000000000815f815181106114b9576114b861290b565b5b602001015160f81c60f81b7effffffffffffffffffffffffffffffffffffffffffffffffffffffffffffff191614801561155257507f6300000000000000000000000000000000000000000000000000000000000000816001815181106115235761152261290b565b5b602001015160f81c60f81b7effffffffffffffffffffffffffffffffffffffffffffffffffffffffffffff1916145b80156115bd57507f73000000000000000000000000000000000000000000000000000000000000008160028151811061158e5761158d61290b565b5b602001015160f81c60f81b7effffffffffffffffffffffffffffffffffffffffffffffffffffffffffffff1916145b801561162857507f3a00000000000000000000000000000000000000000000000000000000000000816003815181106115f9576115f861290b565b5b602001015160f81c60f81b7effffffffffffffffffffffffffffffffffffffffffffffffffffffffffffff1916145b801561169357507f2f00000000000000000000000000000000000000000000000000000000000000816004815181106116645761166361290b565b5b602001015160f81c60f81b7effffffffffffffffffffffffffffffffffffffffffffffffffffffffffffff1916145b80156116fe57507f2f00000000000000000000000000000000000000000000000000000000000000816005815181106116cf576116ce61290b565b5b602001015160f81c60f81b7effffffffffffffffffffffffffffffffffffffffffffffffffffffffffffff1916145b9150505b919050565b5f604051905090565b5f80fd5b5f80fd5b5f819050919050565b61172a81611718565b8114611734575f80fd5b50565b5f8135905061174581611721565b92915050565b5f602082840312156117605761175f611710565b5b5f61176d84828501611737565b91505092915050565b5f73ffffffffffffffffffffffffffffffffffffffff82169050919050565b5f819050919050565b5f6117b86117b36117ae84611776565b611795565b611776565b9050919050565b5f6117c98261179e565b9050919050565b5f6117da826117bf565b9050919050565b6117ea816117d0565b82525050565b5f6020820190506118035f8301846117e1565b92915050565b5f81519050919050565b5f82825260208201905092915050565b5f5b83811015611840578082015181840152602081019050611825565b5f8484015250505050565b5f601f19601f8301169050919050565b5f61186582611809565b61186f8185611813565b935061187f818560208601611823565b6118888161184b565b840191505092915050565b5f6020820190508181035f8301526118ab818461185b565b905092915050565b5f80fd5b5f80fd5b5f80fd5b5f8083601f8401126118d4576118d36118b3565b5b8235905067ffffffffffffffff8111156118f1576118f06118b7565b5b60208301915083600182028301111561190d5761190c6118bb565b5b9250929050565b5f805f805f805f806080898b0312156119305761192f611710565b5b5f89013567ffffffffffffffff81111561194d5761194c611714565b5b6119598b828c016118bf565b9850985050602089013567ffffffffffffffff81111561197c5761197b611714565b5b6119888b828c016118bf565b9650965050604089013567ffffffffffffffff8111156119ab576119aa611714565b5b6119b78b828c016118bf565b9450945050606089013567ffffffffffffffff8111156119da576119d9611714565b5b6119e68b828c016118bf565b92509250509295985092959890939650565b5f805f8060608587031215611a1057611a0f611710565b5b5f85013567ffffffffffffffff811115611a2d57611a2c611714565b5b611a39878288016118bf565b94509450506020611a4c87828801611737565b9250506040611a5d87828801611737565b91505092959194509250565b5f6080820190508181035f830152611a81818761185b565b90508181036020830152611a95818661185b565b90508181036040830152611aa9818561185b565b90508181036060830152611abd818461185b565b905095945050505050565b5f8115159050919050565b611adc81611ac8565b82525050565b5f602082019050611af55f830184611ad3565b92915050565b5f8060208385031215611b1157611b10611710565b5b5f83013567ffffffffffffffff811115611b2e57611b2d611714565b5b611b3a858286016118bf565b92509250509250929050565b611b4f81611718565b82525050565b5f602082019050611b685f830184611b46565b92915050565b5f611b7882611776565b9050919050565b611b8881611b6e565b82525050565b5f602082019050611ba15f830184611b7f565b92915050565b611bb081611b6e565b8114611bba575f80fd5b50565b5f81359050611bcb81611ba7565b92915050565b5f67ffffffffffffffff82169050919050565b611bed81611bd1565b8114611bf7575f80fd5b50565b5f81359050611c0881611be4565b92915050565b5f805f805f805f8060e0898b031215611c2a57611c29611710565b5b5f89013567ffffffffffffffff811115611c4757611c46611714565b5b611c538b828c016118bf565b98509850506020611c668b828c01611737565b9650506040611c778b828c01611737565b9550506060611c888b828c01611737565b9450506080611c998b828c01611737565b93505060a0611caa8b828c01611bbd565b92505060c0611cbb8b828c01611bfa565b9150509295985092959890939650565b5f8083601f840112611ce057611cdf6118b3565b5b8235905067ffffffffffffffff811115611cfd57611cfc6118b7565b5b602083019150836020820283011115611d1957611d186118bb565b5b9250929050565b5f8083601f840112611d3557611d346118b3565b5b8235905067ffffffffffffffff811115611d5257611d516118b7565b5b602083019150836020820283011115611d6e57611d6d6118bb565b5b9250929050565b5f805f805f805f805f8060a08b8d031215611d9357611d92611710565b5b5f8b013567ffffffffffffffff811115611db057611daf611714565b5b611dbc8d828e01611ccb565b9a509a505060208b013567ffffffffffffffff811115611ddf57611dde611714565b5b611deb8d828e01611d20565b985098505060408b013567ffffffffffffffff811115611e0e57611e0d611714565b5b611e1a8d828e01611d20565b965096505060608b013567ffffffffffffffff811115611e3d57611e3c611714565b5b611e498d828e01611d20565b945094505060808b013567ffffffffffffffff811115611e6c57611e6b611714565b5b611e788d828e01611d20565b92509250509295989b9194979a5092959850565b5f819050919050565b611e9e81611e8c565b82525050565b5f602082019050611eb75f830184611e95565b92915050565b5f805f805f8060a08789031215611ed757611ed6611710565b5b5f87013567ffffffffffffffff811115611ef457611ef3611714565b5b611f0089828a016118bf565b96509650506020611f1389828a01611737565b9450506040611f2489828a01611737565b9350506060611f3589828a01611737565b9250506080611f4689828a01611737565b9150509295509295509295565b7f6e6f74206f776e657200000000000000000000000000000000000000000000005f82015250565b5f611f87600983611813565b9150611f9282611f53565b602082019050919050565b5f6020820190508181035f830152611fb481611f7b565b9050919050565b7f4e487b71000000000000000000000000000000000000000000000000000000005f52602260045260245ffd5b5f6002820490506001821680611fff57607f821691505b60208210810361201257612011611fbb565b5b50919050565b5f82905092915050565b7f4e487b71000000000000000000000000000000000000000000000000000000005f52604160045260245ffd5b5f819050815f5260205f209050919050565b5f6020601f8301049050919050565b5f82821b905092915050565b5f600883026120ab7fffffffffffffffffffffffffffffffffffffffffffffffffffffffffffffffff82612070565b6120b58683612070565b95508019841693508086168417925050509392505050565b5f6120e76120e26120dd84611e8c565b611795565b611e8c565b9050919050565b5f819050919050565b612100836120cd565b61211461210c826120ee565b84845461207c565b825550505050565b5f90565b61212861211c565b6121338184846120f7565b505050565b5b818110156121565761214b5f82612120565b600181019050612139565b5050565b601f82111561219b5761216c8161204f565b61217584612061565b81016020851015612184578190505b61219861219085612061565b830182612138565b50505b505050565b5f82821c905092915050565b5f6121bb5f19846008026121a0565b1980831691505092915050565b5f6121d383836121ac565b9150826002028217905092915050565b6121ed8383612018565b67ffffffffffffffff81111561220657612205612022565b5b6122108254611fe8565b61221b82828561215a565b5f601f831160018114612248575f8415612236578287013590505b61224085826121c8565b8655506122a7565b601f1984166122568661204f565b5f5b8281101561227d57848901358255600182019150602085019450602081019050612258565b8683101561229a5784890135612296601f8916826121ac565b8355505b6001600288020188555050505b50505050505050565b828183375f83830152505050565b5f6122c98385611813565b93506122d68385846122b0565b6122df8361184b565b840190509392505050565b5f6080820190508181035f830152612303818a8c6122be565b9050818103602083015261231881888a6122be565b9050818103604083015261232d8186886122be565b905081810360608301526123428184866122be565b90509998505050505050505050565b5f81905092915050565b5f6123668385612351565b93506123738385846122b0565b82840190509392505050565b5f61238b82848661235b565b91508190509392505050565b5f815190506123a581611721565b92915050565b5f602082840312156123c0576123bf611710565b5b5f6123cd84828501612397565b91505092915050565b7f72756c6555726948617368206d69736d617463680000000000000000000000005f82015250565b5f61240a601483611813565b9150612415826123d6565b602082019050919050565b5f6020820190508181035f830152612437816123fe565b9050919050565b7f496e76616c69642055524920736368656d6500000000000000000000000000005f82015250565b5f612472601283611813565b915061247d8261243e565b602082019050919050565b5f6020820190508181035f83015261249f81612466565b9050919050565b5f6040820190508181035f8301526124bf8185876122be565b90506124ce6020830184611e95565b949350505050565b6124df81611bd1565b82525050565b5f81519050919050565b5f82825260208201905092915050565b5f819050602082019050919050565b5f81519050919050565b5f82825260208201905092915050565b5f6125328261250e565b61253c8185612518565b935061254c818560208601611823565b6125558161184b565b840191505092915050565b5f61256b8383612528565b905092915050565b5f602082019050919050565b5f612589826124e5565b61259381856124ef565b9350836020820285016125a5856124ff565b805f5b858110156125e057848403895281516125c18582612560565b94506125cc83612573565b925060208a019950506001810190506125a8565b50829750879550505050505092915050565b5f6060820190506126055f830186611b7f565b61261260208301856124d6565b8181036040830152612624818461257f565b9050949350505050565b5f8160070b9050919050565b6126438161262e565b811461264d575f80fd5b50565b5f8151905061265e8161263a565b92915050565b5f8151905061267281611be4565b92915050565b6126818261184b565b810181811067ffffffffffffffff821117156126a05761269f612022565b5b80604052505050565b5f6126b2611707565b90506126be8282612678565b919050565b5f67ffffffffffffffff8211156126dd576126dc612022565b5b602082029050602081019050919050565b5f6127006126fb846126c3565b6126a9565b90508083825260208201905060208402830185811115612723576127226118bb565b5b835b8181101561274c57806127388882612650565b845260208401935050602081019050612725565b5050509392505050565b5f82601f83011261276a576127696118b3565b5b815161277a8482602086016126ee565b91505092915050565b5f805f6060848603121561279a57612799611710565b5b5f6127a786828701612650565b93505060206127b886828701612664565b925050604084015167ffffffffffffffff8111156127d9576127d8611714565b5b6127e586828701612756565b9150509250925092565b7f4d696e74206661696c65640000000000000000000000000000000000000000005f82015250565b5f612823600b83611813565b915061282e826127ef565b602082019050919050565b5f6020820190508181035f83015261285081612817565b9050919050565b5f6080820190508181035f8301526128708187896122be565b905061287f6020830186611b46565b61288c6040830185611b7f565b6128996060830184611e95565b9695505050505050565b7f4172726179206c656e677468206d69736d6174636800000000000000000000005f82015250565b5f6128d7601583611813565b91506128e2826128a3565b602082019050919050565b5f6020820190508181035f830152612904816128cb565b9050919050565b7f4e487b71000000000000000000000000000000000000000000000000000000005f52603260045260245ffd5b5f80fd5b5f80fd5b5f80fd5b5f80833560016020038436030381126129605761295f612938565b5b80840192508235915067ffffffffffffffff8211156129825761298161293c565b5b60208301925060018202360383131561299e5761299d612940565b5b509250929050565b7f4e487b71000000000000000000000000000000000000000000000000000000005f52601160045260245ffd5b5f6129dd82611e8c565b91507fffffffffffffffffffffffffffffffffffffffffffffffffffffffffffffffff8203612a0f57612a0e6129a6565b5b60018201905091905056fea2646970667358221220600d0899563c610d0fa10678c4c4a9e33a1a7a4b1057f9ae1fe96919897930c164736f6c63430008140033",
  "linkReferences": {},
  "deployedLinkReferences": {},
  "immutableReferences": {},
  "inputSourceName": "project/contracts/ReasoningContractV07.sol",
  "buildInfoId": "solc-0_8_20-5e0cbcaead9a62ae9593f25f767236c4debbac0e"
}